:020000021000EC
:10C00000C03E0020F5340300893503001D92020074
:10C010000000000000000000000000000000000020
:10C020000000000000000000000000008D3503004B
:10C0300000000000000000008F3503009135030070
:10C040009335030093350300933503002107020065
:10C0500093350300000000008DFD0200A9D7020007
:10C0600093350300C10203009335030093350300A9
:10C070009335030093350300933503009335030094
:10C0800089030300692603009335030093350300F9
:10C090004D2703009335030021340300933503003B
:10C0A00093350300933503000000000000000000FA
:10C0B0000000000000000000000000000000000080
:10C0C000164B002B00D1144B9D46402292029A1A27
:10C0D000924600218B460F461348144A121A00F06C
:10C0E00067F80F4B002B00D098470E4B002B00D069
:10C0F00098470020002104000D000D48002802D0C0
:10C100000C4800E000BF00F02DF8200029000FF0DF
:10C1100045FA00F011F8C04600000800C03E0020BB
:10C120000000000000000000802700207837002079
:10C130000000000000000000084B10B5041C002B9C
:10C1400002D0002100E000BF054B1868836A002B75
:10C1500000D09847201C00F033F8C04600000000D3
:10C16000A06203000E4B70B500251E1C0D4CE41A96
:10C17000A410A54204D0AB00F35898470135F8E766
:10C180001AF080F8084B00251E1C084CE41AA41075
:10C19000A54204D0AB00F35898470135F8E770BDCD
:10C1A00070270020702700207027002070270020B3
:10C1B000031C8218934202D019700133FAE77047CA
:10C1C000FEE7C046F0B54D4644465F46564601235D
:10C1D000F0B485B001AE33700023AC4F73707B6850
:10C1E000051C18783B680C1C9146597D0222331CB3
:10C1F0000DF0B4FB8046002800D022E1C82013F0E7
:10C2000047FC434633707B68012218783B68597CB1
:10C21000331C0DF0A3FB002800D012E17B68012243
:10C2200018783B685979331C0DF098FB002800D032
:10C2300007E17B68012218783B68597D331C0DF0BB
:10C240008DFB002800D0FCE07B68012218783B6859
:10C25000997E331C0DF082FB002800D0F1E07B6852
:10C26000012218783B681979331C0DF077FB002800
:10C2700000D0E6E00C2333707B68012218783B681D
:10C280001979331C0DF06AFB002800D0D9E00F307B
:10C2900013F0FEFBBB6A01225B7A33707B6818786F
:10C2A0003B689978331C0DF059FB002800D0C8E09A
:10C2B000BB6A01221B7A33707B6818783B68597817
:10C2C000331C0DF04BFB002800D0BAE04B46002B8E
:10C2D00000D1BFE02022BB6A52429B7A90461343B2
:10C2E00033707B68213218783B689979331C0DF0E4
:10C2F00035FB002800D0A4E04246BB6ADB7A1A4333
:10C300007B68327018783B680122D979331C0DF0B4
:10C3100025FB002800D094E0C83013F0B9FB40237F
:10C3200033707B68012218783B681979331C0DF053
:10C3300015FB002800D084E0782333707B6801224D
:10C3400018783B685979331C0DF008FB80460028AB
:10C3500077D1322013F09CFB434633707B68012277
:10C3600018783B685979331C0DF0F8FA002868D129
:10C370007B68022218783B68197B331C0DF08EFA1B
:10C38000814600285DD130787378000218430C2173
:10C3900017F022FEC3B298464B46AB606B602B6031
:10C3A000A36063602360002399464346002B3ED17F
:10C3B0006EE0B378F1781B021943337972791B026E
:10C3C0001A43337870781B02034320681BB28446FB
:10C3D000634423600BB261688C466344636013B2AC
:10C3E000A26894466344A360327A707AB37A1202E8
:10C3F0000243F07A1B020343B079F179000208434B
:10C40000296812B28C4669681BB28B4693445A461F
:10C410006A60AA6800B292469A445346AB604B46A3
:10C4200001336044DBB228609946984535D97B6872
:10C430000C2218783B68597B331C0DF02FFA00282A
:10C44000B7D00120404205B03CBC90469946A24678
:10C45000AB46F0BDBB6A01229B7A33707B681878CB
:10C460003B689979331C0DF079FA0028E9D118233B
:10C4700033707B68012218783B68D979331C0DF042
:10C480006DFA002800D14AE7DBE7C04664260020A9
:10C490006B6828689B46AB689A46C117030C090471
:10C4A000194383220023000417F0AEFF4246002305
:10C4B00017F0AAFF5B46D91709041B0C19435B460A
:10C4C000286083221804002317F09EFF42460023B1
:10C4D00017F09AFF5346D91709041B0C194353460A
:10C4E000686083221804002317F08EFF4246002361
:10C4F00017F08AFFA8602368D9171A0C1E040023BE
:10C500000F041743F9174A0D92197B415905D00AB8
:10C5100008434246D912002317F076FF6368206073
:10C52000DE171A0C1804002331041143CE17720DC4
:10C5300012184B415905D00A08434246D91200232C
:10C5400017F062FFA3686060DE171A0C180400235E
:10C5500031041143CE17720D12184B415905D00A00
:10C5600008434246D912002317F04EFFA06000286E
:10C5700005DD064B9C466044A060002063E78023F5
:10C580005B029C466044A06000205CE70000FFFF67
:10C5900030B5244C83B0A37C002B40D063680122CB
:10C5A0001878236819796B46DD1D2B1C0DF076F980
:10C5B000002831D1A37ADB072AD420222B78934399
:10C5C0002B70636801221878236819792B1C0DF0F1
:10C5D000C5F9002820D1033013F05AFA2223E35C76
:10C5E0003022002B01D0B02280232B702323E35C68
:10C5F000002B00D02A706368012218782368D97D47
:10C600002B1C0DF0ABF9002806D1A07403B030BD8F
:10C6100020232A781343D3E701204042F6E7002085
:10C62000F4E7C0466426002030B51C4C83B0636834
:10C63000051C0621187802226B460DF02FF9002800
:10C6400029D16368082118786B46022202330DF065
:10C6500025F900281FD163680A211878022201AB4E
:10C660000DF01CF9002816D16B466A461B785278EB
:10C670001B0213432B606B466A469B78D2781B02E1
:10C6800013436B606B466A461B7952791B02134356
:10C69000AB6003B030BD01204042FAE764260020C1
:10C6A00030B51C4C83B06368051C13211878022236
:10C6B0006B460DF0F3F8002829D16368152118782E
:10C6C0006B46022202330DF0E9F800281FD163689F
:10C6D00017211878022201AB0DF0E0F8002816D1DE
:10C6E0006B466A461B7852781B0213432B606B46DD
:10C6F0006A469B78D2781B0213436B606B466A468E
:10C700001B7952791B021343AB6003B030BD01208B
:10C710004042FAE764260020002330B589B003AC1C
:10C72000051C05A823706370A370E3702371637107
:10C73000059306930793FFF7B3FF002836D1059BB7
:10C740002A68991A069B6A6805919A1A079B0692AD
:10C7500001930198AB68174DC31A079308126170D3
:10C76000E270111263711A126B68A170227120704D
:10C77000187813210222231C0DF0F0F8002815D19F
:10C780006B681521187802AB022206330DF0E6F82B
:10C7900000280BD16B6817211878022204AB0DF02A
:10C7A000DDF8431E9841404209B030BD01204042AF
:10C7B000FAE7C04664260020002330B589B003ACF8
:10C7C000051C05A823706370A370E3702371637167
:10C7D000059306930793FFF727FF002839D101201F
:10C7E0002968059B81436A68591A069B82439A1AF5
:10C7F000AB68194D834307980591C31A06920793B6
:10C800006170E27063710190081211121A126B6864
:10C81000A17022712070187806210222231C0DF0CD
:10C820009DF8002815D16B680821187802AB022208
:10C8300006330DF093F800280BD16B680A211878A5
:10C84000022204AB0DF08AF8431E9841404209B021
:10C8500030BD01204042FAE76426002030B5574C35
:10C8600083B0A37A002B00D19BE06B46DD1D002333
:10C870002B706368012218782368597C2B1C0DF0FB
:10C880006DF8002800D08CE06368012218782368D6
:10C8900059792B1C0DF062F8002800D081E0636804
:10C8A00001221878236819792B1C0DF057F80028FD
:10C8B00000D076E02423E35C002B38D00C232B70CF
:10C8C000636801221878236819792B1C0DF046F84B
:10C8D000002866D1323013F0DBF8C0232B70A37A26
:10C8E000DB0766D4636801221878236819792B1C4A
:10C8F0000DF034F8002854D1637C002B5CD12B70F0
:10C900006368012218782368597C2B1C0DF026F8E7
:10C91000002846D163682870187823680122597965
:10C920002B1C0DF01BF8431E9841404237E00423B6
:10C930002B70636801221878236819792B1C0DF07D
:10C940000DF800282DD1A27C4023002A2CD02B707A
:10C95000636801221878236819792B1C0CF0FEFFFC
:10C9600000281ED1323013F093F8637C5A1E934195
:10C970002B706368012218782368597C2B1C0CF0FB
:10C98000EDFF00280DD163680122187823685979DA
:10C99000231C10330CF0E2FF431E9841404203B0C9
:10C9A00030BD01204042FAE7A27AD207CFD520332A
:10C9B000CDE7E0232B7095E70223A0E76426002053
:10C9C000232370B5684C82B0061CE35C01AD0028DF
:10C9D0002CD1002B18D02870A27C8023002A02D0F2
:10C9E0007E3B2B7080332222A25C002A00D02B7069
:10C9F0006368012218782368D97D2B1C0CF0AEFFE8
:10CA0000002801D12323E05400232B7007336B70DF
:10CA10006368022218782368597D2B1C0CF09EFF56
:10CA2000002800D088E0207502B070BD012B1AD01C
:10CA300030232B70A27C8033002A02D07E3B2B70E7
:10CA400080332222A25C002A00D02B70636801226E
:10CA500018782368D97D2B1C0CF080FF002802D1A8
:10CA600001222323E25420232B70012E57D0052EC0
:10CA700065D9142E46D903236B70A37A002B6BD093
:10CA800004236A46D370E37A042B65D063680122DD
:10CA90001878236899786B4603330CF05FFF002801
:10CAA0005CD16B460722DB78E3726B789B01134302
:10CAB000DBB26B706368022218782368597D2B1CE7
:10CAC0000CF04CFF002837D108230122A3722073F9
:10CAD00022751C33E35C002BA6D12374637C002BEE
:10CAE0000ED16B46DA70636818782368597C6B4600
:10CAF00003330CF033FF002802D16B46DB786374FC
:10CB0000002091E702236B70A37A002B05D0052348
:10CB10006A46D370E37A052BB8D18723C9E700238F
:10CB20006B70A37A002B05D006236A46D370E37A94
:10CB3000062BABD10723BCE70120404274E7012359
:10CB40006B70A37A002B05D006236A46D370E37A74
:10CB5000062B9BD14723ACE7C723AAE76B789A0142
:10CB600007231343DBB2A4E76426002010B5114A63
:10CB7000011C537A012B19D0002B13D0022B0AD0A1
:10CB8000032B0CD1102320240370D37C0020002B16
:10CB900000D00C7010BD082310240370F5E70120AD
:10CBA0004042F7E7022304240370EEE7042308243D
:10CBB0000370EAE76426002070B51D4C82B0A37AAA
:10CBC000002B24D004282DD009D9082824D01028DF
:10CBD0001DD16B46DD1D18232B70153B05E0022887
:10CBE00015D16B46DD1D00232B70627A00269A4218
:10CBF0000FD06368012218782368D9792B1C0CF0B8
:10CC0000ADFE002803D12B78DB08637201E001261A
:10CC10007642301C02B070BD6B46DD1D10232B70B8
:10CC20000E3BE2E76B46DD1D08232B70073BDCE77C
:10CC30006426002070B51C4C82B0A37A002B27D04C
:10CC40006B46DD1DBB2816D8612817D902232B702F
:10CC5000E27A00269A420BD0636801221878236892
:10CC600099782B1C0CF07AFE002811D12B78E372F6
:10CC7000301C02B070BD01232B70E9E7292804D8CD
:10CC8000132808D904232B70E2E703232B70DFE776
:10CC900001267642ECE7092802D905232B70D7E755
:10CCA00006232B70D4E7C0466426002070B5584C8C
:10CCB00082B0A37A061C002B00D195E02423E35C0C
:10CCC000002B00D090E0227D002A30D0421E272A7F
:10CCD00000D885E02322A25C01AD002A18D02B7079
:10CCE000A37C8022002B02D0022302322B7022234D
:10CCF000E35C002B00D071E06368012218782368A0
:10CD0000D97D2B1C0CF02AFE002801D12323E054EE
:10CD100000232B7007336B70636802221878236836
:10CD2000597D2B1C0CF01AFE002800D12075F9202B
:10CD3000032E31D86B46D8706368012218782368B7
:10CD400059786B4603330CF009FE00284CD16B4632
:10CD5000FA20D9788000013117F0CEF9A37A80B299
:10CD6000E0814008002B14D001ADBB2821D901235C
:10CD700001222B70E37A93420BD06368012218786A
:10CD8000236899782B1C0CF0E9FD002801D12B7841
:10CD9000E372002002B070BDFA23311C9B009E425A
:10CDA0000FD8FA2089B2800017F0A6F90138C0B276
:10CDB000C0E761280ED8292819D9032303222B7034
:10CDC000D8E7FA20191C89B2800017F095F90138CC
:10CDD000C0B2AFE7022302222B70CBE72A708BE7A9
:10CDE000FFF7EEFD0020D5E701204042D2E71328EF
:10CDF00005D8092807D9052305222B70BAE7042393
:10CE000004222B70B6E7062306222B70B2E7C04639
:10CE10006426002010B5144A011C537A012B1FD040
:10CE2000002B17D0022B0CD0032B10D18023802491
:10CE30001B010380E400D37C0020002B00D00C8079
:10CE400010BD802380245B0103802401F3E70120CF
:10CE50004042F5E780238024DB010380A401EAE758
:10CE6000024B034C0380E6E7642600209C1F000071
:10CE7000CE0F0000242370B52C4D82B0EB5C002453
:10CE8000002B23D1AC7A002C4CD0013398430440C2
:10CE90002E7C2C74041B621E94416442002818D11D
:10CEA0002A7D002A30D06A7C002A0FD16A46D371CD
:10CEB0006B68012218782B68597C6B4607330CF09D
:10CEC0004DFD002802D16B46DB796B74201C02B04B
:10CED00070BD6A7C002A0FD16A46D3716B6801224B
:10CEE00018782B68597C6B4607330CF037FD002807
:10CEF00002D16B46DB796B74FFF7B0FC0028E5D0FC
:10CF000001242E746442E1E76B46DA716B680132EA
:10CF100018782B68597C6B4607330CF01FFD0028EE
:10CF2000D1D0D3E701246442D0E7C0466426002074
:10CF3000F0B54F4646467023C0B4051C83B003408D
:10CF400069D06B469E1D01233370484C01226368F3
:10CF500018782368597D331C0CF000FD002800D0A0
:10CF60007EE0402233783070934323732A4266D0A8
:10CF70003A20844637388146013838233922012146
:10CF80003B278046A80604D443463A1C33704946E2
:10CF90006346E80601D4131C31702A0700D43370AD
:10CFA0006368012218782368997D331C0CF0D6FC45
:10CFB000002855D108232A1C9A4320D02323E35C60
:10CFC000002B1CD06B46D871A37C8022002B03D091
:10CFD0006A460223D37182222223E35C002B01D014
:10CFE0006B46DA716368012218782368D97D6B4635
:10CFF00007330CF0B3FC002801D12323E0540023B5
:10D000003220A572237512F043FD002003B00CBC42
:10D0100090469946F0BD00281ED16B464027134C20
:10D020009E1D63683770187823680122597D331C70
:10D030000CF094FC002813D13378BB4323733E20BB
:10D040000423844637388146013833703D22383313
:10D0500005213F27804695E76A46961D337074E7A1
:10D0600000230120A3724042D0E7C046642600207E
:10D0700030B585B080236A46484C1372636801223C
:10D0800018782368597D02AB0CF068FC051E00D0AF
:10D0900081E0642012F0FCFC6B461D726368012283
:10D0A00018782368597D02AB0CF058FC051E00D09F
:10D0B00071E00122FF235242A37223726372E37272
:10D0C000E2812274A3742332FE3BA35423732233E0
:10D0D000E054E07460752075201C00211630163A6B
:10D0E000FFF766F82423E5540133E554A37AE58479
:10D0F000002B50D06B46DD1D18232B70237A032B99
:10D100000FD0636801221878236899792B1C0CF0E2
:10D1100025FC00283FD12B78DB082372A37A002B53
:10D1200039D000232B70637A002B0FD06368012263
:10D1300018782368D9792B1C0CF010FC00282AD110
:10D140002B78DB086372A37A002B24D003232B7087
:10D15000E37A032B0BD0636801221878236899784F
:10D160002B1C0CF0FBFB002815D12B78E37232202E
:10D17000FFF79CFD00280ED10020FFF77BFE002862
:10D1800009D1FFF705FA041E05D10020FFF7D0FEF4
:10D19000201C05B030BD01246442F9E7642600205C
:10D1A000F0B54F4646462423C0B4284C83B0E35C18
:10D1B000071C89469046002B3BD0A37A002B38D021
:10D1C000636801AE187823680222197B331C0CF0C7
:10D1D00065FB00282DD1357873782D021D43BD42A3
:10D1E0002AD3626853885B089D420CD92368107863
:10D1F000D97C0122331C0CF051FB002819D1337863
:10D20000DB061DD4626823681078597BFAB24B465E
:10D210000CF044FB00280CD1281C391C16F0DCFE55
:10D22000434601381870002003B00CBC9046994664
:10D23000F0BD01204042F7E7434618700138F3E79C
:10D24000FFF70CFB02204042EEE7C04664260020B8
:10D250002223024AD05400207047C0466426002092
:10D26000232370B5174C82B0E35C051C834224D0A5
:10D2700000281DD180228220022600216B46073320
:10D280001970A17C002901D0021C1E702221615C52
:10D29000002900D01A70626810782268D17D0122BE
:10D2A0000CF05CFB00280AD12323E55402B070BDCA
:10D2B000B022B22032263021E0E70020F6E701203C
:10D2C0004042F3E76426002070B50D1C82B0161EA4
:10D2D00022D0134CA37A002B1ED0020A01AB1A7085
:10D2E000C0B26268587040185189884214DC1078C6
:10D2F0002268D17E02220CF031FB00280CD1636839
:10D30000EAB218782368197E331C0CF027FB431E01
:10D310009841404202B070BD01204042FAE7C04649
:10D3200064260020F0B556465F464D464446F0B4AC
:10D330008BB003932523514E01910292F35C8246F8
:10D34000002B75D1002973D0002800D17BE0041E8A
:10D35000102C00DD75E0A3B29B46B37A002B67D09A
:10D36000002305AF71683B707B704B899C425FDC8A
:10D37000019B0025984638E033681078D97E022258
:10D380003B1C0CF0EBFA002852D173684A4618781F
:10D390003368197E06AB0CF081FA002848D140466C
:10D3A00006A9221C18F0D1FE002863D15D44ADB25D
:10D3B000AA4549D953465C1B102C00DD1024A3B2AA
:10D3C0009B46019B9846A8444346002B30D0B37A35
:10D3D000002B2DD02B0AEAB23B70716823047A70BF
:10D3E0001B0CD3184A89934222DC33680878022246
:10D3F000D97E3B1C0CF0B2FA002819D1E3B2994651
:10D4000073684A4618783368197E43460CF0A6FACA
:10D4100000280DD1B37A002B0AD02B0A3B7072681A
:10D42000EBB27B702404240C51891B198B42A3DDC1
:10D43000012040420BB03CBC90469946A246AB4608
:10D44000F0BD102487E705AF029A130A3B7073689A
:10D450007A70187833680222597F3B1C0CF07EFAF0
:10D460000028E5D125230122F2546B469B89002038
:10D47000F384DFE702204042DCE7C0466426002058
:10D48000242330B53A4C83B0E35C83423AD0002881
:10D490003FD02522A25C002A60D0002B35D1A27A91
:10D4A000002A5ED06A46D51D2B7063680122187869
:10D4B0002368597C2B1C0CF051FA002801D12B78E1
:10D4C0006374FFF765F8E08CFFF7F0FB6B46002212
:10D4D00006331A7062682321107801220CF03EFA9C
:10D4E00024230122E254223B2B70636818782368BE
:10D4F000597C2B1C0CF032FA002801D12B78637474
:10D50000FFF7ACF9002003B030BD6B46DD1D0023F2
:10D51000CAE7002B1ED1A27A002A25D06A46D51D63
:10D520002B706368012218782368597C2B1C0CF03F
:10D5300015FA002801D12B786374237C01222B700B
:10D540006368232118782B1C0CF008FA002224238E
:10D55000E254D5E76B46DD1D2870E2E7012040422A
:10D56000D1E76B46DD1DACE76B46DD1DE5E7C04648
:10D5700064260020F0B55F46444656464D462423B7
:10D58000F0B4C54C97B00190E25C0F1C002A00D0AB
:10D5900090E1002313AD0693237A012B2DD0002BAD
:10D5A00028D0022B1CD0032B33D1FA23DB009A4660
:10D5B000637A012B1AD0002B27D0022B21D0032B0A
:10D5C00006D1202310219B46E37C002B00D18B4603
:10D5D000E37A062B00D9C6E0B0499B00CB589F46A2
:10D5E000FA239B009A46637A012BE4D10823042195
:10D5F0009B46E9E7FA239A46DAE7FA235B009A4664
:10D60000D6E7102308219B46DEE7042302219B4630
:10D61000DAE700239A46CBE7BC230093002A01D126
:10D62000E3890793A37A019E0593237C301C391C60
:10D6300000220493FEF7C6FD002800D196E0301CBE
:10D64000391C0022FEF7BEFD002800D18EE0002626
:10D65000FF23012223726372E3722374FE3B237360
:10D66000F4335242FF33E281A2729A4500D10FE1B6
:10D6700000D8E8E0FA239B009A4500D105E1FA239F
:10D68000DB009A4511D118232B70636801221878AA
:10D69000236899792B1C0CF061F9002802D12B78B2
:10D6A000DB082372A37A002B37D05B46042B00D112
:10D6B000E3E000D8D4E05B46082B00D1E1E0102B7A
:10D6C00015D1182303222B70637A93420FD063681D
:10D6D000012218782368D9792B1C0CF03FF9002817
:10D6E00002D12B78DB086372A37A002B15D0009B44
:10D6F000BC2B00D0AEE00122BB3B2B70E37A9342FF
:10D700000BD0636801221878236899782B1C0CF0E1
:10D7100025F9002801D12B78E3720798FFF7C6FAA4
:10D720000598FFF705FC0498FFF7A4FB069B002B68
:10D7300002D00120FFF7A4FE301C17B03CBC90467D
:10D740009946A246AB46F0BD0523009366E70A233F
:10D75000009363E71423009360E72A2300935DE7B7
:10D76000622300935AE70023009357E70DA810A9FE
:10D770000122FEF727FD002807D00DA810A90122DD
:10D78000FEF720FD002800D061E763680CAE187832
:10D790000D210422331C0CF081F8002800D130E167
:10D7A0000023984603935346B94600264746AA46A7
:10D7B000089318220AAB9B189B5902934B46029A76
:10D7C0009B59981A18F0BDFC17F0F8FCDE2189056A
:10D7D00017F024FA53469B59051C0021181C984643
:10D7E00016F0C6FD002800D18FE0281C2C4916F049
:10D7F000C5FD002805D1281C2A4916F0D3FD0028B4
:10D8000004D00123BB40039A1A4303920436013724
:10D810000C2ECED1089B55469A466B461B7B0D219C
:10D8200002936368032218782B1C0CF037F800234E
:10D83000002800D17EE0029A002A01D1023213436F
:10D8400004261E4304E75346FA2B00D02DE700239D
:10D850002B701AE7612B0AD9022302222B704DE7A5
:10D86000022B00D043E7002300222B702CE7292B4A
:10D870001AD9032303222B7040E7082301222B70BF
:10D8800022E7102302222B701EE710232B70FCE6E8
:10D8900008232B70F9E6C04664260020A46203002A
:10D8A0009A99993E3333733F132B24D904230422CE
:10D8B0002B7023E7002313AD2B70636801221878C7
:10D8C0002368597C2B1C0CF049F8002801D12B78D7
:10D8D0006374237C01222B706368232118782B1C2E
:10D8E0000CF03CF824260023A355FEF7B7FF0123D4
:10D8F000A25D069350E6092B03D9052305222B7060
:10D90000FCE6062306222B70F8E64146281C16F09A
:10D9100093FFFE21890517F0B3FA18F059F916F0B4
:10D92000CBF88022564B920516F002FD002800D15C
:10D930006CE766E71F222B78A94613402B706B78A3
:10D94000002713406B70AB781340AB7000231D1C95
:10D9500009930C22019B5B5903930AAB9B185B59FB
:10D960000893089A039B981A18F0EBFB17F026FC13
:10D97000DE21890517F052F94B46DE5D8046002E08
:10D9800033D0013EF6B2DE553E49002E0AD0081CC7
:10D99000013E3D49F6B217F041F9002EF8D14B4651
:10D9A000011CDE55404616F047FFFE21890517F0A1
:10D9B00067FA18F00DF916F07FF88022304B9205C7
:10D9C00016F0B6FC002804D00123BB40099A1A4384
:10D9D000099201370435032FBBD16B4624229B18D3
:10D9E0001E784D467342734125E7284916F0C6FC60
:10D9F0000028E9D14046264916F0D4FC0028E8D09A
:10DA0000E2E71F21F378A9469A06900F3278B846CC
:10DA10008A43D21002430AA802711A07900F727843
:10DA20004F468A43D21002430AA84271B2788A4311
:10DA30001C39D2100B401343837100231D1C0BAB08
:10DA40005E5D002E08D100233B6001350437032DB5
:10DA5000F5D147464D46A3E60E4B013E3B60F6B27C
:10DA60000BAB5E55002EF0D00A48013E0A49F6B2D3
:10DA700017F0D4F8002EF8D10BAB38605E55E4E710
:10DA800085EBC13F0000C84154E3853F00002041C1
:10DA90000000D2427B14AE3E1D5A843FF0B54F4683
:10DAA0004646C0B40F1C83B0161E00D015E1B64C1C
:10DAB000A37D002B00D088E0E37D002B00D084E024
:10DAC000237E002B00D080E0637E002B7DD1A37EDF
:10DAD000002B7AD1E37E002B77D1237F002B74D1EA
:10DAE000637F002B71D1A37F002B6ED1E37F002BCE
:10DAF0006BD12033E35C002B67D12133E35C002B37
:10DB000063D101204042E3E005226283002B01D172
:10DB1000E289A283A27AA277227CE277002B00D14D
:10DB200029E100232B706368012218782368597C4F
:10DB30002B1C0BF013FF002801D12B7863742323D7
:10DB4000E35C002B19D000232B70A37C8022002BD8
:10DB500002D0022302322B702223E35C002B00D080
:10DB60002A706368012218782368D97D2B1C0BF07A
:10DB7000F5FE002801D12323E05400232B70073346
:10DB80006B706368022218782368597D2B1C0BF098
:10DB9000E5FE002800D1207500232B706368012268
:10DBA0001878236899782B1C0BF0D8FE0028A8D190
:10DBB00040232B706368012218782368597C2B1C42
:10DBC0000BF0CCFE002800D1E2E0FF2301222372FB
:10DBD00052426372E3722374A07FFE3BE281A27221
:10DBE0002373FFF7A5F9A27AE38A002A63D0FA2209
:10DBF0005200934200D107E100D829E1FA229200B5
:10DC0000934200D11EE1FA22D200934200D033E1C8
:10DC10006B46DD1C182303222B70237A934200D11C
:10DC2000FBE0636801221878236899792B1C0BF0BC
:10DC300095FE002802D12B78DB082372A27A237E7E
:10DC4000002A38D0042B00D1EBE0042B00D807E1E8
:10DC5000082B00D114E1102B00D0E9E01823032297
:10DC60002B70637A934200D1E2E063680122187856
:10DC70002368D9792B1C0BF071FE002802D12B7878
:10DC8000DB086372A27A638B002A14D0BB2B00D806
:10DC9000D2E0012301222B70E37A93420BD0636818
:10DCA00001221878236899782B1C0BF057FE002866
:10DCB00001D12B78E372A08BFEF7F8FFE07FFFF72E
:10DCC000D9F82023E35C002B5AD100230020637590
:10DCD00003B00CBC90469946F0BDFF239846FF2345
:10DCE0005B0198423DD9002F00D10137282E00D981
:10DCF00007E72423244C01AD627DE35C002A00D0B9
:10DD00000CE7002B00D0C7E0202201ADA354227AFB
:10DD1000012A00D10DE1002A00D107E1022A00D139
:10DD20000BE1032A00D1DBE00022E282627A012AC1
:10DD300000D1EFE0002A00D1F4E0022A00D1EDE0AA
:10DD4000032A06D1102220212276E27C002A00D06C
:10DD50002176E27A062A00D9D9E00C4992008A5845
:10DD60009746012398461F28BDD94009C3B298465B
:10DD7000002FBBD1B9E7A27A002A00D0D2E6DEE6B6
:10DD80000120FFF77DFBA0E764260020C0620300AE
:10DD900043462B7063686F70187823680222997A63
:10DDA0002B1C0BF0DBFD002800D00EE7053011F036
:10DDB0006FFE0722637ADB0013432B706368012236
:10DDC00018782368D9792B1C0BF0C8FD002800D0E7
:10DDD000FBE620232B70012E00D1B6E02733052E61
:10DDE00003D94033142E00D940336B70636802228C
:10DDF00018782368597D2B1C0BF0B0FD002800D04B
:10DE0000E3E60123637563E76B46DD1C082301220B
:10DE10002B70237A934200D003E7237E042B00D09B
:10DE200013E7082301222B70637A934200D01CE78A
:10DE3000638BBB2B00D92CE7612B17D9022302225D
:10DE40002B7029E76B46DD1C102302222B70E4E6C1
:10DE5000FA2B11D16B46DD1C002300222B70DCE66F
:10DE6000022BE5D1002300222B70FAE6292B0BD9D7
:10DE7000032303222B700FE76A46237ED51CE1E6BD
:10DE8000102302222B70ECE6132B2DD8092B58D926
:10DE9000052305222B70FFE601AD63682A70187810
:10DEA00023680122597C2B1C0BF058FD002801D15E
:10DEB0002B786374237C23212B70636801221878EC
:10DEC0002B1C0BF04BFD2423994600234A46A354F8
:10DED000FEF7C4FC20230122E2544B46E35C16E724
:10DEE000FA22D200E28221E7042304222B70D3E637
:10DEF0000A2262830AE61422628307E62A226283E8
:10DF000004E66222628301E6BC226283FEE500220F
:10DF10006283FBE504220821227616E708221021FD
:10DF2000227612E70222042122760EE7FA22E2820A
:10DF3000FCE6FA225200E282F8E6FA229200E2823D
:10DF4000F4E6062306222B70A6E607234DE7C0461B
:10DF5000802208B503480449D200C823FFF7E2F93C
:10DF600008BDC046F60B00007C630300F0B5404CD2
:10DF700087B002AF051C03AE211C0322381C18F029
:10DF8000F3F8211D0322301C18F0EEF8211C0322A7
:10DF9000083104A818F0E8F8211C03220C3105A868
:10DFA00018F0E2F80321081C6A466C4628403B5CE6
:10DFB0001370EA080A40BB5CB25C6370AB090B40AB
:10DFC000F95CF35CA170315C01AC2170627029488E
:10DFD00003216A46A370FFF777F9002845D1264848
:10DFE0000321221CFFF770F900283ED104A9032267
:10DFF000684618F0B9F8201C05A9032218F0B4F8F7
:10E000006B0708D56A460123694612781A430A70DD
:10E01000227813432370AB0608D56A46012369466C
:10E0200052781A434A70627813436370EB0512D436
:10E0300088200321C0006A46FFF746F9002814D162
:10E040000E480321221CFFF73FF900280DD10C4B8D
:10E050001D8107B0F0BD6A460123694692781A43D4
:10E060008A70A2781343A370E2E701204042F0E7F0
:10E0700030630300260400002A040000310400007D
:10E080008027002010B5144986B0041C103103A865
:10E090000C2218F069F8C82C1AD8211CC82016F0D8
:10E0A0002BF8013880B201AA030A507002210B48F4
:10E0B0001370FFF709F900280AD109480C2103AAB7
:10E0C000FFF702F9002803D1064B9C8106B010BD72
:10E0D00001204042FAE7C046306303001602000008
:10E0E000C10A000080270020F0B583B043076CD040
:10E0F000C823DB00994268D8041C081C17F0A6F856
:10E100004D4916F099FB6B46DD1C071C281CFEF7D9
:10E110002DFD2B78042B00D17DE033D9082B6AD05C
:10E12000102B52D18A21381CC90516F077FD16F044
:10E13000B9F9424986B2381C16F070FD16F0B2F9F2
:10E1400080B201AD330A2B70030A6E70AB70E870B9
:10E15000E30729D4A3073CD40020630737D5EE207A
:10E16000022140002A1CFFF7AFF800282DD16B4692
:10E170002D309A1DFF300221FFF7A6F8431E98416B
:10E18000404224E0022B20D18D21381CC90516F015
:10E1900045FD16F087F92A4986B2381C16F03EFD77
:10E1A00016F080F980B2CCE7EA20022140002A1C58
:10E1B000FFF78AF8002808D16B462530FF3002218E
:10E1C0009A1DFFF781F80028C4D00120404203B017
:10E1D000F0BDEC20022140002A1CFFF775F8002852
:10E1E000F3D16B462930FF3002219A1DFFF76CF8FE
:10E1F0000028B1D0E9E78B21381CC90516F00EFDC7
:10E2000016F050F90F4986B2381C16F007FD16F0CB
:10E2100049F980B295E78C21381CC90516F0FEFC3F
:10E2200016F040F9084986B2381C16F0F7FC16F0D3
:10E2300039F980B285E7C046000048430000C04479
:10E2400000004046000040450000C045F0B54E4685
:10E2500045465746E0B486B0934B03AC061C221CDF
:10E26000682004210393FFF72FF84022A3233240B4
:10E270002370904600D110E11D3363700833A37002
:10E28000063BE370C0277F00374000D100E1C42384
:10E29000237108336371063BA371A323221C8348B7
:10E2A0000A21E37123726372FFF70EF803233340F0
:10E2B00099464A46D823002A00D0B83B01217C4821
:10E2C000221C23706D46FEF7FFFF68467949B306AE
:10E2D00000D4DBE01C31092217F046FF972009210A
:10E2E000C0002A1CFEF7F0FF002F09D0F30500D56F
:10E2F000D7E0714B039371480421221CFEF7E4FF21
:10E30000F30700D4B9E08B20F823221C012100017F
:10E310002370FEF7D9FFFA210720FFF7E5FEA420BE
:10E320003F2301212A1C40002B70FEF7CDFF002364
:10E3300050209A4601212A1CFF302B70FEF7C4FFA3
:10E340005346EF202B70142302212A1C40006B70CF
:10E35000FEF7BAFF5346ED202B70642302212A1CDE
:10E3600040006B70FEF7B0FF53462B708E23AE203B
:10E370006B706B33AB700421693B2A1C4000EB705F
:10E38000FEF7A2FF5346AD202B70082302212A1C62
:10E3900040006B70FEF798FF5346AC202B700223B1
:10E3A000400002212A1C6B70FEF78EFF02233340CF
:10E3B0005A425341D9224248D31A0121221C2370C8
:10E3C000FEF782FF730752D53E4B009304212A1CAF
:10E3D0003D48FEF779FFFEF741FAF30641D53B4B86
:10E3E000009304212A1C3A48FEF76EFFFEF736FA26
:10E3F0000823384C33436381FEF730FA4346002B41
:10E4000022D10A20434684460C3082461038A3733A
:10E410001422042310211A258046002F04D04346DD
:10E420002A1CA373514663461420304201D0131CAA
:10E43000A1734A46002A00D0A373002006B01CBC7A
:10E4400090469946A246F0BD1020062384460C3023
:10E4500082461038A3731A220433162120258046E1
:10E46000DBE7281CA3210422FDF7A2FEB9E7281C44
:10E470008B210422FDF79CFEA8E78B20D8230121E5
:10E48000221C00012370FEF71FFF8FE7283122E7CF
:10E49000A32323716371A371FFE66370A370E3701C
:10E4A000F0E60D4B039326E702CAE309A70A000032
:10E4B000B60A000030630300B080B490A20A0000E6
:10E4C0003D070000C0C2C4C6980A000020283038AA
:10E4D0009E0A000080270020B28BB69BF0B55F46F5
:10E4E000444656464D469B460023F0B493B0141C58
:10E4F0001C9A071C1380984B8846987B0AA91D9A82
:10E50000FEF74EFE061E00D01DE11422924B5B89E1
:10E510001A4200D087E002250022AC46013D0624C5
:10E5200004210320A946924602920C320992013A34
:10E530000892013A0792013A0692013A0592013A8D
:10E540000492013A0392013A01925D0630D5524697
:10E550000AADAA5C0294120292462A1C4D46525DF4
:10E56000554615434246158065460AAA525D099CE8
:10E57000120294460AAA105C62461043424650803A
:10E5800001980AAA515C125C09021143424691802B
:10E590001C9A0698118808220A431C990A80089A36
:10E5A00007990192059A9446049A9146039A9246D5
:10E5B000C0256D002B4222D055460AAA525D4D4619
:10E5C000120290460AAA525D454615433D806546B3
:10E5D0000AAA525D0294120294460AAA105C62468C
:10E5E000104378800AAA0198515C125C09020A4320
:10E5F000BA801C9A118870220A431C990A809B07D2
:10E6000000D081E0554C201C14F032FC5A4623689F
:10E610005B0923601360301C13B03CBC90469946E4
:10E62000A246AB46F0BD0AAA107852780006120442
:10E6300010430AAAD178927808431202104320604E
:10E640000AAA8446107952790006120410430AAAD5
:10E65000D179927908431202104360600AAA117AB4
:10E66000527A0906120411430AAAD27A00141143FD
:10E670000AAA927A404312021143A1600AAA127BAD
:10E6800009141206924655460AAA527B49431204BF
:10E690002A430AADED7B15430AAA927B12022A4354
:10E6A000E260644624146443121452432018411853
:10E6B0008A18F12109068C468021624489048A4225
:10E6C00044D880211C9A4900128816240A431C99B8
:10E6D00013200A80102202920C320992013A089209
:10E6E000013A0792013A0692013A0592013A0492E0
:10E6F000013A0392013A0192033A9446013A914653
:10E70000013A1421924620E70AAA9446029B6344E8
:10E710001C1CDF785B78DA070AD50F4A1268002ADA
:10E7200006D00721B8063940400F01319047637881
:10E730001B0700D466E7084B5B68002B00D161E73C
:10E74000B80998475EE70126764264E7FEF786F847
:10E750001C9B1E80023E5EE7802700209027002041
:10E76000F0B544465F4656464D46F0B4774B83B00D
:10E7700098461B78041C8A46171C002B20D1414662
:10E78000022240460A614A61714A83628A61826458
:10E790007049714AC161C264802110224362C36220
:10E7A000026583654365C36501626C49073017F0F4
:10E7B000F1FC40466A4917F0EDFC20234246937174
:10E7C000EFF3108B012181F3108865002E19F600FC
:10E7D000331C4344DA6A012A67D0002A3DD0022A5A
:10E7E0002FD1002201345D6A1E1C63001C19E30056
:10E7F000914601931DE0013C336A641BBC4200D981
:10E800003C1C5B1B9C4200D91C1C019B5146434491
:10E810005868221C401917F0A7FC336A2D19EB1A0F
:10E820005A1E93415B421D40A144A2443F1B7562A6
:10E8300009D0B46AAC42DED8336AE418013C641BE8
:10E84000DCE7002399468BF31088484603B03CBCB4
:10E8500090469946A246AB46F0BD9A6A5E6AB242BD
:10E8600051D9013A921B002399469742EBD82D19B2
:10E87000ED0045442B6A01349B1B994663001C192B
:10E88000E4004F4555D3444463684A4698195146BD
:10E8900017F06AFC4B465146FE1A49446068321C28
:10E8A00017F062FCB9466E62CDE79A6A5E6AB242C0
:10E8B00024D9013A196A921B9146BA4200D9B94645
:10E8C0008B1B1A1C994523D3631C5F00FB18DB00CC
:10E8D00043441F1C5B6851469819161C17F044FCF2
:10E8E0004A46331C2C19961B5344E4007868191CC3
:10E8F000321C444417F038FC6662A4E7196A5218C7
:10E90000013A921BD8E71B6AD218013A921BAAE778
:10E91000631C5A00D318DB00434458682C19E400E8
:10E92000801951464A4644444E4417F01DFC666225
:10E9300089E7231C43445868514680193A1CBE1984
:10E9400017F012FCB9466E627DE7C046FC36002027
:10E95000746F0300C03E0020403F0020806F030022
:10E96000846F0300F0B544465F464D465646F0B40A
:10E97000041C83B0081C894617F014FC754B071C57
:10E9800098461B78002B20D14146022240460A615E
:10E990004A61714A83628A6182647049704AC161C6
:10E9A000C264802110224362C362026583654365AD
:10E9B000C36501626B49073017F0ECFB40466A49BA
:10E9C00017F0E8FB202342469371EFF3108B0121EF
:10E9D00081F3108865002E19F600331C4344DA6A6F
:10E9E000012A67D0002A3DD0022A2FD1002201340B
:10E9F0005D6A1E1C63001C19E300924601931DE032
:10EA0000013C336A641BBC4200D93C1C5B1B9C422A
:10EA100000D91C1C019B494643445868221C4019DC
:10EA200017F0A2FB336A2D19EB1A5A1E93415B4271
:10EA30001D40A244A1443F1B756209D0B46AAC4298
:10EA4000DED8336AE418013C641BDCE700239A46F5
:10EA50008BF31088504603B03CBC90469946A246C2
:10EA6000AB46F0BD9A6A5E6AB24251D9013A921B36
:10EA700000239A469742EBD82D19ED0045442B6AA6
:10EA800001349B1B9A4663001C19E400574555D37B
:10EA90004444636852469819494617F065FB53464B
:10EAA0004946FE1A51446068321C17F05DFBBA46B5
:10EAB0006E62CDE79A6A5E6AB24224D9013A196A57
:10EAC000921B9246BA4200D9BA468B1B1A1C9A4531
:10EAD00023D3631C5F00FB18DB0043441F1C5B68EF
:10EAE00049469819161C17F03FFB5246331C2C1947
:10EAF000961B4B44E4007868191C321C444417F000
:10EB000033FB6662A4E7196A5218013A921BD8E7F0
:10EB10001B6AD218013A921BAAE7631C5A00D31849
:10EB2000DB00434458682C19E400801949465246DA
:10EB30004444564417F018FB666289E7231C43449B
:10EB40005868494680193A1CBE1917F00DFBBA46A1
:10EB50006E627DE7FC360020746F0300C03E00202B
:10EB6000403F0020806F0300846F0300022310B534
:10EB70000F4C104A236163610F4BA261E361802354
:10EB8000A2640E4A2362E26400231022A36263623D
:10EB9000E362A3656365E3652265E01D084917F03C
:10EBA000F9FA201C074917F0F5FA2023A37110BDCC
:10EBB000FC360020746F0300C03E0020403F002060
:10EBC000806F0300846F0300F0B55F464D465646E4
:10EBD0004446F0B483B01D1C0C9B061C8946171CD0
:10EBE0009B46914200D2DBE0081C0124391C15F041
:10EBF000F3F901348742F9D90094AC4200D2009570
:10EC000001230D9A1A40019203D15B46002B00D0DC
:10EC10008CE0F3689A46002B7BDBB36898464B4642
:10EC20000124B1461E1C012D03D9013D7C43012D59
:10EC3000FBD8301C211C15F0CFF98742F6D9331CC4
:10EC40004E4699463B1C5D4D474698460AE0534662
:10EC5000002B00DA9BE0201C414615F0BDF9041E94
:10EC600000D194E04846211C15F0B6F9231C4A4611
:10EC70004343D31A994673687A1C295C9A420BD88D
:10EC80003368D955F368171C9A4601239C46E24421
:10EC90005346F3607368B2609F42D8D13A1C306922
:10ECA0003168FFF75DFDB768B84239D00123B84637
:10ECB0005B42F360019B002B2BD05B46002B28D0DE
:10ECC000009B202400259B4523D942465F46984659
:10ECD00006E0F368002B1CDB002F1AD0474518D93B
:10ECE0007368511C013F994207D833689C540A1C31
:10ECF000F368B1600133F36073689A42E9D1306917
:10ED00003168FFF72DFDB368984242D001235B4282
:10ED1000F36003B03CBC90469946A246AB46F0BDBA
:10ED20000023B360F36800279A4690E70D9B2024E8
:10ED30009B0731D4009B9B4500D86AE75A46AA46F8
:10ED4000BB46B368271C009D0C92141C06E0F268B9
:10ED5000002ADEDB002C25D0AC4229D97268591C70
:10ED6000013C914207D83268D754F3687268013386
:10ED7000F3600B1CB1609A42E9D130693168FFF74A
:10ED8000EFFCB3689842C1D10023B360DFE7B84617
:10ED900090E7B56000229CE7002DCBD11034C9E785
:10EDA000012429E75F4655469846A346924636E732
:10EDB0005F465546A34692462FE7C0468C6F030038
:10EDC000F0B5564644465F464D46F0B49DB00CAB98
:10EDD00007934023089300239B4609930A93043327
:10EDE000924698460C1C5E4604900B9023780134A2
:10EDF000002B00D18CE0252B5CD1221C137800273E
:10EE000002200821141C2B2B0BD02B2B0DD92D2BC2
:10EE10004CD0302B0ED1074301321378141C2B2B0E
:10EE2000F3D1434601321F43F7E7232B02D10F43AF
:10EE30000132F2E71A1C303A0025092A00D9BAE05B
:10EE4000AA00551901346D00ED182378303D1A1CC5
:10EE5000303A092AF4D9002291462E2B02D180E0C3
:10EE6000013423781A1C41468A43682AF8D0642B5F
:10EE700000D1F6E055D9732B00D1B0E000D886E080
:10EE8000752B00D099E0534651461B6807A81A1D00
:10EE90000A6019680A22009501974B46FFF794FE15
:10EEA0000A9E0134002EA1DAB34622E0012301328A
:10EEB0001F43B2E70999089A481C904221D8079A43
:10EEC00053540A9B089A5E1C099002930A9690423A
:10EED000E8D10B9B0293079B0298191C0393FFF741
:10EEE0003FFC099B0293984200D14BE101235B4216
:10EEF0009B4658461DB03CBC90469946A246AB4640
:10EF0000F0BD8A42E5D023780134002B00D072E7AF
:10EF1000B346002EEDDD099A002A00D036E1934475
:10EF2000E7E7582B4CD0632B00D18AE0252BB8D1D2
:10EF300009980899421C8A4200D81AE1021C8A42A8
:10EF4000AFD10B9B0293079B0298191C0393FFF709
:10EF500007FC099B029398426FD100230A9E0993F4
:10EF60009FE76378611C1A1C303A0C1C092A00D9EF
:10EF700078E74A4691008A1801345200D218237863
:10EF8000303A191C30390929F4D991466AE7702BB7
:10EF900000D086E7534651461B6807A81A1D0A6031
:10EFA0001968082300930023102201930833FFF708
:10EFB0000BFE0A9E75E700254DE7782B00D070E721
:10EFC000534651461B6807A81A1D0A60196810228B
:10EFD000009501974B46FFF7F7FD0A9E61E7534600
:10EFE00051461B681A1D0A601D680CE00798C15441
:10EFF0000A9B09925E1C089B0A9602939A420FD0C4
:10F00000002E00DA4DE729780135002900D148E7C4
:10F01000099B08985A1C8242E8D98342F3D11A1CF2
:10F020000B9B0293079B0298191C0393FFF798FB15
:10F03000099B0293984200D183E0012676420A960A
:10F040002FE7534651461B681A1D0A600999186834
:10F05000089B4A1C9A427CD90A1C9A4200D020E79D
:10F060006FE7534651461B681A1D0A601B68DA1782
:10F0700098180293012350409B4609280ADDA346B5
:10F080001C1C0A2115F038F801340928F9DC231C6E
:10F090005C469B46CB4558D3002D06D0029B002BE7
:10F0A00002DB43463B4200D0013DBB075AD401235B
:10F0B0003B4232D1002D30D05D452ED9301C099A0B
:10F0C0005E4606E0002800DAD5E0002D23D0B542E8
:10F0D00021D9089B511C013D994209D82020079B4A
:10F0E00098540A1C0A9B0991581C0393089B0A9088
:10F0F0009A42E7D10B9B0393079B0398191C059336
:10F10000FFF72EFB099B0393984296D100230A98A0
:10F1100009930022D6E7B346061C029B002B3EDB78
:10F1200043463B4259D103233B40022B6ED000950E
:10F13000019707A802990A224B46FFF745FD0A9E50
:10F14000AFE600230A9E09935AE7CB46002DACD0C8
:10F15000A4E7079B58540A9B09925E1C02930A96E7
:10F16000089B7AE74B46002BD7D001233B42D4D1F2
:10F17000A0E707990B540A9B09925E1C02930A961A
:10F180000899DCE600230A9E09938BE604980CA9F3
:10F19000FFF7E6FA0A9B099A9B469344A9E65B426D
:10F1A0000293099B089A591C914203D8079A03922B
:10F1B0002D221AE09342B6D10B9B0393079B039831
:10F1C000191C0593FFF7CCFA099B0393984200D0D2
:10F1D00033E700230A9E099311E0099B089A591C02
:10F1E0009142E7D8079A03922B220398C2540A9BB4
:10F1F000089A5E1C099103930A969142DCD0002E76
:10F2000000DA4EE603233B40022B90D14B46002B05
:10F210008DD1002D2DD0AB4589D2099A06E0002E64
:10F2200000DA3EE6002D24D05D4580D9089B511CB4
:10F23000013D994209D83020079B98540A1C0A9B2B
:10F2400009915E1C0393089B0A969A42E7D10B9B97
:10F250000393079B0398191C0593FFF781FA099BF9
:10F260000393984200D0E8E600230A9E0993002207
:10F27000D5E700255BE7061C13E6C0460EB400B5D3
:10F2800082B003AB02CB01AA0193FFF799FD02B054
:10F2900008BC03B01847C04690DF704792DF704744
:10F2A00093DF7047F0B547467C2280B4835C2C4DD9
:10F2B0000133DBB283542A7882B09A4206D8002206
:10F2C0007B23C25402B004BC9046F0BD00277923D2
:10F2D0007A26C754835D041C0133835500217622AE
:10F2E000FCF766FF1F4BA15D9846C900414404220C
:10F2F000201C16F039FF76232771E05A0121221CC9
:10F30000FFF7CAFF0028DDD07B23E7542B78002BC2
:10F31000D8D04146A278897891421AD0012BD1D019
:10F3200043469B7A9342CDD143461A8923889A4219
:10F33000C8D10123DB0043445A68002AC2D0762397
:10F340006946E35A01904B80012368460B70904751
:10F35000B8E741460D8821888D42DFD10023E9E7D7
:10F36000A5270020942700200022034B00201A70BC
:10F37000024B01321A707047A5270020A4270020F5
:10F38000F8B5002808D0002906D00F4B1A780823BA
:10F39000002A03D1181CF8BD0E23FBE70B4E023BDD
:10F3A0003578022DF6D0023B012DF3D80C1C084F06
:10F3B000EB00FF18011C0422381C013516F0D4FEA6
:10F3C0007C6035700023E5E7A4270020A5270020F6
:10F3D00094270020F8B5041C0D1C002828D0154BDC
:10F3E00008201B78002B00D1F8BD134B1B78002B95
:10F3F000FAD07B27E65D0930002EF5D100217E2270
:10F40000201CFCF7D5FE7623E5520633E654023B7A
:10F410000A490422E654201C16F0A6FE281C0121ED
:10F42000221CFFF739FF0028DED10123E355DBE77B
:10F430000E20D9E7A4270020A5270020942700202C
:10F44000F0B557464E464546E0B482B0002870D02D
:10F4500000296ED0B74B1B78002B6AD00B88103B6D
:10F460009BB2232B65D8B44A9B00D3580D1C041CB7
:10F470009F4600235900CB185B00E91853009A18E7
:10F480009200C989A31899827923E25C217901321B
:10F490008A4200D15CE17923D2B2E25453009B1836
:10F4A0009B00E318501C0A33814200D14CE14D1EF1
:10F4B0007926914200D84BE1AA4200D15BE10132AA
:10F4C000188953009B189B00E7183F8A0130B84207
:10F4D00000D188E16D46013F28806F807623291C8A
:10F4E000E05AFFF7DDFE002823D000227B23E25400
:10F4F000924B1A78002A1CD0914EA378B178994289
:10F5000000D1EFE1012A14D0B27A9A4211D13289A6
:10F5100023889A420DD10123DB00F6187268002A75
:10F5200007D07623E35A68606B800123281C2B7078
:10F53000904702B01CBC90469946A246F0BD792384
:10F54000C25CCB88002BA1D18F89002F9ED07D4E2D
:10F550000B8AB34200D18CE71631002305E0063157
:10F56000881F0088B04200D184E70133BB42F6D344
:10F570008CE7CB88002B6DD0077900227923251CDE
:10F58000E2540A35012F00D1BAE1002F00D107E182
:10F590007923201C00219C467E1E16302B89B14207
:10F5A00000D1F1E0C2880133051C934200D1EFE0A5
:10F5B0006D46013A2B806A8090E776268A88835BC5
:10F5C0009A42B6D100217E22FCF7F2FD01235B4274
:10F5D000A353AEE776238A88C252AAE7CB88002BD2
:10F5E0001BD0564D2A78002A0BD0554E8378B1781F
:10F5F000994200D16FE1012A03D0B17A994200D13A
:10F6000053E17C21635C0133DBB26354934200D24B
:10F6100002E100227B23E2548BE70E31042216F034
:10F62000A3FD291CA01D1231042216F09DFD792393
:10F63000E35C002B00D0E5E0E3886D462B80238956
:10F6400069466B807623E05AFFF728FE002800D138
:10F650006FE74AE703790F7BDF19092F00DDCDE063
:10F66000FFB2B9462771994500D84FE15E00F61800
:10F670004B465B004B449B000A33984600239A4656
:10F68000B6000A360E35A619A044301C291C0A22E1
:10F6900016F06AFD534673810C360A354645F4D19F
:10F6A0004B46013B5900CB189B00E31822895B8A2B
:10F6B000934200D361E7092F00D15EE77923E75435
:10F6C000002F00D024E1E3886D462B8076236A80EA
:10F6D000E05A6946FFF7E2FD002800D129E7002241
:10F6E0007B23E254154B1A78002A00D121E7144EEF
:10F6F000A378B178994200D121E1012A00D118E71D
:10F70000B27A9A4200D014E7328923889A4200D014
:10F710000FE70123DB00F6187368002B00D108E720
:10F720007622A25A68606A800122281C2A709847B3
:10F73000FFE6C046A42700209C6F0300A5270020F9
:10F7400094270020022900001B892289934216D1A8
:10F750007E4B1B78002B0AD07D4EA278B178914267
:10F7600000D1C6E0012B02D0B37A934227D0201CEF
:10F77000FFF798FDDDE61B89228993423BD06D4659
:10F7800001332B806A80A9E622899342F7D10025B4
:10F7900063460131E154CBB20C30BB4200D2FDE6EE
:10F7A0006A4B19780029E2D0694EA378B2789A4260
:10F7B00000D1B7E00129DAD0B27A9A42D7D13289A2
:10F7C00023889A42D3D10123DB00F6187268002AFD
:10F7D000CDD076236946E35A68464B8000230B70F0
:10F7E00001949047C3E7E3180A33D2B2A25591427D
:10F7F00000D961E6ACE700236A1CF6E70922092775
:10F8000091462FE7013BDBB25A00D3189B00E31867
:10F810005B8A01339BB210E70023984642467A2761
:10F820007933E254E35D00210133E3557622201C55
:10F83000FCF7BEFCE15D464EC90071180422201C95
:10F8400016F092FC4346237176230121E05A221CD4
:10F85000FFF722FD002800D16BE642467B23E254ED
:10F860002A78002A00D164E6A378B178994260D062
:10F87000012A00D15DE6B27A9A4200D059E6328977
:10F8800023889A4200D054E60123DB00F6187368FF
:10F89000002B00D14DE676226946A25A01904A809B
:10F8A000012268460A70984743E6318923889942C5
:10F8B00000D0A6E60123DB00F6187168002900D10C
:10F8C0009FE676236A46E35A684653800223137004
:10F8D00088472A7895E630882188884200D08AE6D1
:10F8E0000023E8E7378821888F4200D00AE600230A
:10F8F00012E630882188884200D033E7002363E78E
:10F90000638A2289934200D039E749E79946C7E6DE
:10F91000013FFFB27B00DF19BF00E3195B8A0133AF
:10F920009BB2D1E630882288904200D042E7002383
:10F930004AE7358821888D429AD10023A5E7378888
:10F9400021888F4200D0D8E60023E3E6A5270020D7
:10F950009427002036DF704737DF70474379002156
:10F960005A00D3180F4ADB00D318822210B504685E
:10F970005200A1505A8242790B4992005258002AF3
:10F980000AD0C22201685C6992008C5002225A613E
:10F99000C12301689B00CA500123026813620268F8
:10F9A000536110BDB4270020AC27002043795A00D2
:10F9B000D318034ADB00D31801229A717047C0465E
:10F9C000B4270020F8B54F464646C0B4802244799B
:10F9D0000168051C032092008B58670083438B50FD
:10F9E000364E3B19DB00F3189889191C8446DA89D6
:10F9F000083101320120624514D08022296892002A
:10FA00008B583C1903438B50E400E13A3419FF3A18
:10FA1000237C22742A68D31801221A600CBC9046F9
:10FA20009946F8BD5A79002AE7D10430FF30488161
:10FA300029680A506A7991009046214A8A58002A1A
:10FA40000CD0C222296858699200885002225A615B
:10FA5000C12329689B00CA506B79984643465B00D6
:10FA600099464344DB00F3185A7816499200164B26
:10FA70005058D35800280FD01A78042A0ED00833D3
:10FA8000002206E09C460833191C0839097804292D
:10FA900005D001328242F5D10220AEE79C464B46AA
:10FAA00062464344DB005278F3185A7063465B6841
:10FAB000002BF1D0281C984702209EE7B427002095
:10FAC000AC2700202C70030020710300F8B54646D7
:10FAD0004F46C0B44379A3255A00D318434CDB00EA
:10FAE000E318191C0668ED00DA8975599B689D5466
:10FAF000013293B28A89CB819A4203D80CBC9046DA
:10FB00009946F8BD802246790168051C03209200C1
:10FB10008B58770083438B50BB19DB00E31898891F
:10FB2000191C8446DA89083101320120624511D05E
:10FB30008022296892008B58BE1903438B50F6002F
:10FB4000E13AA419FF3A237C22742A68D3180122CF
:10FB50001A60D3E75A79002AEAD10430FF3048818D
:10FB600029680A506A7991009046214A8A58002AE9
:10FB70000CD0C222296858699200885002225A612A
:10FB8000C12329689B00CA506B79984643465B00A5
:10FB900099464344DB00E3185A7816499200164B05
:10FBA0005058D35800280FD01A78042A0ED00833A2
:10FBB000002206E09C460833191C083909780429FC
:10FBC00005D001328242F5D10220B1E79C464B4676
:10FBD00062464344DB005278E3185A7063465B6820
:10FBE000002BF1D0281C98470220A1E7B427002061
:10FBF000AC2700202C70030020710300F8B54F469D
:10FC00004646C0B44379414E5A00D318DB00F3187E
:10FC1000DA899B6801689A5C3D4B051CCA508022BA
:10FC200044790168032092008B58670083438B500E
:10FC30003B19DB00F3189889191C8446DA890831CE
:10FC400001320120624514D08022296892008B582D
:10FC50003C1903438B50E400E13A3419FF3A237C0A
:10FC600022742A68D31801221A600CBC9046994667
:10FC7000F8BD5A79002AE7D10430FF30488129685D
:10FC80000A506A7991009046224A8A58002A0CD07C
:10FC9000C222296858699200885002225A61C12301
:10FCA00029689B00CA506B79984643465B00994689
:10FCB0004344DB00F3185A7817499200174B505809
:10FCC000D35800280FD01A78042A0ED00833002207
:10FCD00006E09C460833191C08390978042905D028
:10FCE00001328242F5D10220AEE79C464B46624685
:10FCF0004344DB005278F3185A7063465B68002B6C
:10FD0000F1D0281C984702209EE7C046B427002067
:10FD10001C050000AC2700202C700300207103009C
:10FD2000F8B54F464646C0B44379514E5A00D318F1
:10FD3000B122DB00F318051CD9790068D20081508C
:10FD400001212A6811628422002128685200815012
:10FD50005A82484A1974914649466C79A2008A58D9
:10FD6000002A0BD0C22229685869920088500422C8
:10FD70005A61C12329689B00CA506C7980220327ED
:10FD8000286892008358BB43670083503B19DB000F
:10FD9000F3189989181C88460121DA890830013244
:10FDA0008C46424515D080226046296892008B58C7
:10FDB0003C1918438850E400E13A3419FF3A237C97
:10FDC00022742A68D31801221A600CBC9046994606
:10FDD000F8BD5A79002AE6D10431FF318C464181C1
:10FDE000604629680A5049466A79944692008A58C2
:10FDF000002A0CD0C2222968586992008850022239
:10FE00005A61C12329689B00CA506B799C4663469E
:10FE10005B0099466344DB00F3185A781649920058
:10FE2000164B5058D35800280FD01A78042A0FD0F8
:10FE30000833002206E098460833191C083909786F
:10FE4000042906D001328242F5D102239C46AAE75A
:10FE500098464B4642466344DB005278F3185A708A
:10FE600043465B68002BF0D0281C9847EDE7C0465E
:10FE7000B4270020AC2700202C7003002071030061
:10FE8000F0B54D465F4656464446F0B487B00293FF
:10FE900010AB1B780191039311AB1F78002391469F
:10FEA00004AA4479D371A74B82465B680425DB051D
:10FEB000DB0D31D104ABD81DFFF74CFD022800D17A
:10FEC000F3E0002800D01AE19F4B9B466300984660
:10FED0001B19DB005B449A78002A18D101329A7012
:10FEE000012D38D0002662B604ABD879FFF734FD77
:10FEF0000223021C9A4300D0FBE01120002E2AD0DE
:10FF000007B03CBC90469946A246AB46F0BD0126E0
:10FF1000012DE8D11120F3E7103BD9B24AB2002AF3
:10FF200000DAF2E092088949C03292005258032167
:10FF30000B40DB00DA4013069B0FDDB2012BB9D179
:10FF4000814A9346620090461219D2005A44917831
:10FF50000029DFD1937043466A4669461B1912791E
:10FF6000DB005B44DA7109896A4699814946127B54
:10FF700099605A7100210022D9811F719A71012361
:10FF80005F4053465E79724973009C469B19DB00C3
:10FF90005B445A786F4B92008D589B58002D11D0BE
:10FFA0001A78BA4200D193E00833002107E01A1C06
:10FFB0000833181C08380078B84200D189E00131B4
:10FFC000A942F4D1331C644AB600B2580020002A7A
:10FFD00096D1211C4144CA005A441579141C2A1C8C
:10FFE000551EAA410325AD1A0022914652460192A0
:10FFF0005A46A34603910292019A922416685A0027
:020000022000DC
:10000000D318029ADB00944663445B8AAC46984658
:10001000B04400216400514F454601E0002846D11C
:100020002868335901315A1E93418F4292415242FE
:100030001343F3D092234A4605255B00F250019BFF
:100040001E685B464A465B8A4149F3181A60019B69
:10005000029A5B79944698465B009A464344DB00DB
:1000600063445A783B4B92008E589B58002E0FD019
:100070001A78AA421DD00833002106E01A1C083362
:10008000181C08380078A84214D00131B142F5D1CB
:100090005B469A79002A43D15B46D98908339B880D
:1000A000994247D2019B5B79A6E772B60CE7654699
:1000B000C7E71A1C029953468C464344DB0051782B
:1000C000634459705368002BE2D001989847DFE7EA
:1000D0001A1C63469B19DB0051785B4459705368C6
:1000E000002B00D16EE75046984753465E79331C8B
:1000F00069E7FE211A4A490008F062FCFDE6F42196
:10010000174AFF3108F05CFCDEE60F23154A0B406E
:100110009446083B9B089B0063445A68032307E707
:10012000029B00229B46039B0320DC00231C5B44B4
:100130009A70E5E6029B00209B46039BDB005B4434
:100140009A70DDE600ED00E0B427002000E100E059
:100150002C70030020710300AC270020FE0F00006C
:100160006870030018ED00E0F8B54F464646C0B48D
:100170004379564D5A00D318B122DB00EB18041C0A
:10018000D9790068D20081500121226811620822C9
:1001900000211A7420681532FF3281505A82627928
:1001A0004B4990000858894600280BD0C22221688C
:1001B00058699200885080225A61C12321689B00AF
:1001C000CA50627953009A18D200AA18D38992684B
:1001D0002068D25C3F4B0327C250802220689200E7
:1001E00083586679BB4377008350BB19DB00EB185B
:1001F0009989181C88460121DA89083001328C4619
:10020000424514D080226046216892008B581843E2
:1002100088502021BB19DB00EB181A7C1974236865
:100220009B1801221A600CBC90469946F8BD5A7979
:10023000002AE7D10431FF318C46418160462168B4
:100240000A5049466279944692008A58002A0CD096
:10025000C222216858699200885002225A61C12343
:1002600021689B00CA5063799C4663465B009946AF
:100270006344DB00EB185A7817499200174B50582B
:10028000D35800280FD01A78042A0FD00833002240
:1002900006E098460833191C08390978042906D065
:1002A00001328242F5D102239C46ABE798464B4689
:1002B00042466344DB005278EB185A7043465B6851
:1002C000002BF0D0201C9847EDE7C046B427002053
:1002D000AC2700201C0500002C70030020710300D7
:1002E000F8B54F464646C0B44379454C5A00D3183A
:1002F000DB00E318191CDA890831013292B2DA8185
:100300008988914203D80CBC90469946F8BD9B68F9
:1003100001689A5C3B4B051CCA50802246790168F3
:10032000032092008B58770083438B50BB19DB006E
:10033000E3189889191C8446DA89083101320120B2
:10034000624511D08022296892008B58BE19034360
:100350008B50F600E13AA419FF3A237C22742A68F4
:10036000D31801221A60CEE75A79002AEAD1043064
:10037000FF30488129680A506A7991009046224AE4
:100380008A58002A0CD0C2222968586992008850E5
:1003900002225A61C12329689B00CA506B79984692
:1003A00043465B0099464344DB00E3185A781749FB
:1003B0009200174B5058D35800280FD01A78042AAF
:1003C0000ED00833002206E09C460833191C083979
:1003D0000978042905D001328242F5D10220B1E723
:1003E0009C464B4662464344DB005278E3185A7001
:1003F00063465B68002BF1D0281C98470220A1E7D8
:10040000B42700201C050000AC2700202C7003003E
:1004100020710300F0B557464E464546E0B4447996
:10042000061C6000694F0019C0003D5C0820002DCB
:1004300004D01CBC90469946A246F0BD002900D1CC
:10044000C0E06348A4000251624A8246A350624B56
:10045000E020E650A0230A68DB05C132FF32C0006D
:100460009200D0504A68C132FF329200D05001222F
:10047000101C0C68A040A124E40018514868A44650
:1004800082401A510A685548C132FF329200D0505A
:100490004A68C132FF329200D05004200138C04671
:1004A000C046C046C046C046C046C046C046C0461C
:1004B000C046C046C046F1D1A222D2009046484A6A
:1004C000002501249146424648689A58C240144289
:1004D00000D074E0221C0868824048461A5004206C
:1004E0000138C046C046C046C046C046C046C046A9
:1004F000C046C046C046C046C046F1D1221C08686E
:10050000824060461A5004200138C046C046C046AA
:10051000C046C046C046C046C046C046C046C046AB
:10052000C046F1D10135092DCDD1486801231A1CEF
:100530008240101CA0222A4CD20510510420013800
:10054000C046C046C046C046C046C046C046C0467B
:10055000C046C046C046C046F1D148688340A1208D
:10056000C0001350A022E0200B68D205C133FF3336
:10057000C0009B0098504B68C133FF339B009850DC
:1005800032688868174BD050A12233680C68D200BB
:1005900048689C50124A9850504673799A00825885
:1005A000002A05D00420097B30560FF031FA737908
:1005B0005A00D3180122DB00FA54002039E7002D3D
:1005C000B4D1CFE70848210141183AE7B427002009
:1005D000AC270020B0270020A8270020010700003A
:1005E0000C050000240500005870030030B5437965
:1005F000194A9B009B58002B0FD003795AB2002A4E
:100600000BDB1F2213401E3A9A40131C8022134911
:100610008B50BFF34F8FBFF36F8F0124036800220D
:100620005C61A0230168DB00CA5001210568F93B29
:100630004942FF3BE950437909495D00EB18DB0073
:100640005C54802304689B00E558E25043795800CD
:10065000C318DB005A5430BDAC27002000E100E095
:10066000B427002082220023016852008B500168C9
:1006700004328B50016814328B50016808328B5061
:1006800043790D4A9B009B58002B05D08022C12343
:10069000016892009B00CA50A02305220168DB007C
:1006A000CA504279054953009B180222DB005A5474
:1006B0000022CB185A707047AC270020B4270020C6
:1006C0000122036810B55A61A02300210468DB00F1
:1006D000E1500468F93B0139FF3BE150437959008F
:1006E000CB180249DB005A5410BDC046B427002085
:1006F00010B582B004AC2478009401240194FFF773
:10070000BFFB02B010BDC04610B582B004AC247867
:10071000009400240194FFF7B3FB02B010BDC04663
:10072000F0B547463D4B92219C4680B43C4E490073
:10073000728A58586244146800225A5008395A5034
:1007400014395A50043986B05A50002832D1002C3E
:100750002CD03479631E9C4103231C1B2BE01F1CEF
:1007600060447B78C000301843707B68002B01D058
:1007700040469847B379002B41D000230222B37042
:1007800002AB1A70B36827490393F3892348049393
:100790004358435002211A4200D1023102AB19736F
:1007A000214B02A81968214B1B68984706B004BC6E
:1007B0009046F0BD05241E4B1E491B68587998468B
:1007C00043009C461B18DB00F3185A781A4B920022
:1007D0005558D358002DCDD01A78A242BFD0083337
:1007E000002206E01F1C0833191C08390978A142B1
:1007F000B6D00132AA42F5D1B379002BBDD1F2892E
:10080000B1899142D2D802930593B370337902A98A
:100810000B70B368049201930393C1E7003000406A
:10082000B4270020C4040000B0270020AC2700201B
:10083000A82700202C700300207103007047C046D9
:1008400070B584B0051C00F0D9FA041E0C2C30D011
:100850000C2816D8002829D004281AD1072301AE65
:10086000281C3370B58000F05DFE7080124C301C87
:100870002368984700222179281C0FF0A3F804B0C0
:1008800070BD11280FD00D4B984202D100220A4CA6
:10089000F1E7082301AE281C337000F043FEB58059
:1008A0007080B460E2E70122034CE4E701AE01236B
:1008B000D6E701AE0623D3E7CC27002002300000A4
:1008C00070B584B0041C00F0F1FA051E0B2D2BD07E
:1008D0000B280FD911280AD0154B98421AD10022A3
:1008E000144D6979201C0FF06DF804B070BD012221
:1008F000104DF6E700280DD1022301AE201C337005
:1009000000F010FEB48070800A4D301C2B689847B0
:100910000022E6E7082301AE201C337000F002FE3F
:10092000B4807080B560EFE701AE0323E6E7C04610
:1009300002300000CC27002010B50378012B0BD12A
:10094000041C094B4088984202D0FFF7B9FF608829
:1009500000F02CFB002800D110BD044B6088997971
:1009600001220FF02FF8F7E7FFFF0000CC2700204F
:1009700010B5037884B0041C012B18D0002B06D0CE
:10098000022B02D10379002B1BD104B010BD01A8AA
:10099000037063884380114B1B689847608800F0A0
:1009A00077FE0F4B9842F0D0FFF78AFFEDE701A8E2
:1009B000037063884380A3888380084B1B68984733
:1009C000E3E7408800F064FE054B9842DDD0034B1E
:1009D000012299790EF0F6FFD7E7C046CC27002018
:1009E000FFFF0000F0B557464E464546E0B4294F9C
:1009F00088B0B8790EF0F6FF002805D108B01CBC0D
:100A000090469946A246F0BD03A80EF055FF039B01
:100A100003AC98460025002BF0D008239A461E4BC5
:100A2000994603E0013502344545E7D0A688B979F7
:100A3000301C0EF0B7FF0028F4D0301C00F0C8FACC
:100A400011280BD010D9484508D0144B98420DD12D
:100A5000134B9E4202D0301CFFF732FFB979301C95
:100A600001220EF0AFFFDDE70028F7D06B465246BB
:100A70000290301C1A709E8000F054FD6B46588026
:100A800068463B689847B979301C01220EF09AFFFE
:100A9000C8E7C046CC270020023000000134000027
:100AA000FFFF0000F0B5047885B0072C01D005B039
:100AB000F0BD4588281C00F0A1F9061E0C2E1ED0A2
:100AC0000C2814D8002830D004281FD101AE34706F
:100AD000B580281C00F026FD164C70802368301C61
:100AE000984700222179281C0EF06CFFDFE71128BF
:100AF00009D0114B984209D100220E4CF2E706238F
:100B000001AE3370E4E701220A4CEBE7082301AFA2
:100B1000281C3B7000F006FD064C7880BD80BE604E
:100B2000381C236898470022DCE7012301AE3370AC
:100B3000CEE7C046CC2700200230000070B50E245E
:100B4000002805D0051C184800F040F9041E01D00B
:100B5000201C70BD154800F0F9F8041EF8D1144EA1
:100B600000210822301CFBF723FB1248356000F0FF
:100B7000A1FC041EECD1104802F0CAFE041EE7D10D
:100B80000EF0A6FE30710EF0A3FE70710EF0A0FE06
:100B90003379B071102B04D07379102B01D0102849
:100BA000D6D10324D4E7C046710902003D080200F3
:100BB000CC27002039090200A50A0200F0B54F46F3
:100BC0004646C0B4038887B0041C522B00D169E0AC
:100BD000542B5BD0502B11D0374E70790EF002FFA2
:100BE000002837D130790EF0FDFE002819D1FFF72B
:100BF000F9FE07B00CBC90469946F0BD831D9A786B
:100C0000012AE9D11A7D062AE6D19A7B012AE3D18D
:100C10009A892A4B9A42DFD18088FFF711FE264E2F
:100C2000DBE701A80EF048FE019B01AC98460025C9
:100C3000002B04D1DBE7013502344545D7D0A78826
:100C40003179381C0EF0AEFE0028F4D0381CFFF7C6
:100C5000F7FDF0E701A80EF02FFE019B01AC9846CE
:100C60000025002BBED0164B9946A7887179381CF9
:100C70000EF098FE002804D04F4502D0381CFFF734
:100C80001FFE013502344545EFD1ABE7808800F007
:100C900049FC00F0B9F9084EA088B17900220EF0A5
:100CA00091FE9AE78088064B984200D194E7FFF7BF
:100CB00007FE014E91E7C046CC2700200229000024
:100CC000FFFF0000F0B5474680B486B000F04EF953
:100CD00001A80EF0F1FD019E0024002E1BD0114B47
:100CE000114F984603E00134A4B2A64213D901AAD9
:100CF0009446630063449D88281C00F013FCB842AE
:100D0000F1D1434601349979281C0122A4B20EF096
:100D100059FEA642EBD8FFF765FE06B004BC90462C
:100D2000F0BDC046CC270020FFFF0000012200B527
:100D300083B001AB1A704288181C5A80024A1268AC
:100D4000904703B000BDC046D427002070B50E25E3
:100D5000002805D0041C074801F02EFC051E01D018
:100D6000281C70BD044E0021301C0422FBF720FA21
:100D70003460F5E72D0D0200D4270020A7DF70476F
:100D8000A9DF7047AADF704710B5037884B0012B44
:100D900001D004B010BD0379012BFAD1041C01214C
:100DA000408802AA002301F0B3FC0028F1D16A4672
:100DB00002231370638868465380039B1B7813716A
:100DC000014B1B689847E4E7DC27002070B50E252F
:100DD000002805D0041C074801F0EEFB051E01D0D9
:100DE000281C70BD044E0021301C0422FBF7E0F9E2
:100DF0003460F5E7890D0200DC270020F0B5284BB0
:100E0000061C1B6883B00820002B24D0301C00F087
:100E100089FB244B051E9D421FD00124281C022162
:100E2000221C6B46032701F081FC002825D1019A82
:100E3000301C1760916803230432FFF7A3FF0028DA
:100E400021D00C280BD0041E052C23D0281C0221F5
:100E500001F0AEFD201C03B0F0BD1348FBE70134E8
:100E60000221A4B2281C01F0A3FD281C0221221C8F
:100E70006B4601F05BFC0028D9D0041E072CE9D199
:100E80000C24201CE7E7281C022101F099FE041C19
:100E9000201CE0E7281C022101F0B2FF0024D5E766
:100EA000DC270020FFFF000002300000F0B54F46B5
:100EB0004646C0B42A4B041C1B689DB00820002B7A
:100EC00006D0201C00F02EFB264B984205D1264868
:100ED0001DB00CBC90469946F0BD022101AA00232A
:100EE00001F016FC002830D1029964228F880D6829
:100EF0000831632F2DD903A815F036F903AE01236D
:100F0000984601339946201C311C3A1C2B1CFFF7D4
:100F100037FF042808D0082808D00B2808D04346FB
:100F2000002BD5D10B20D3E71120F8E70020F6E7FE
:100F30004B462B4207D1002E0DD00325002700265B
:100F400000239846DFE70125FAE70325002700265E
:100F5000D5E73A1CCFE7002FBAD003250027EFE7EB
:100F6000DC270020FFFF00000230000030B50C4BF2
:100F700083B01B68002B11D001236A46094C1380F3
:100F8000251C9370084B0193201C01F047FF694614
:100F90000022041C01F060FFAC42F5D103B030BD6B
:100FA000DC270020FFFF00005571030000B583B06F
:100FB00000F0B8FA002301216A4601F0A9FB0023E2
:100FC000002801D1019B1B78181C03B000BDC0464E
:100FD000F8B5051C094F0A4E3C88281C211C094AFB
:100FE000FFF7CCFE082804D00134A4B2B04202D0EE
:100FF000F8BD0020FCE73C80EFE7C046D827002082
:1010000003300000FFFF000000B5084B83B01B68F1
:10101000002B09D001236A4613809370044B694664
:101020000022019301F018FF03B000BDDC2700206F
:10103000547103004DDF7047F0B557464E464546A4
:10104000E0B486B0002805D00378002B02D10379E4
:10105000002B05D006B01CBC90469946A246F0BDB8
:10106000041C002140886A4601F052FB0028F1D19F
:101070005A4E301C01F0D2FE051EB542EAD0584B44
:1010800004AE9846281C002102AA002301F040FB70
:1010900000283ED16388AB423BD0019F039B781C64
:1010A00099467B78002B3CD14378002B39D183784B
:1010B000002B36D1C378002B33D10379002B30D1EC
:1010C0004379002B2DD18379002B2AD1C379002BB2
:1010D00027D1037A002B24D1437A002B21D1837AA4
:1010E000002B1ED1C37A002B1BD1037B002B18D100
:1010F000437B002B15D1837B002B12D1C37B002BAC
:101100000FD14B46113304D04B467A7C5B7C9A421C
:1011100042D0281C01F082FE304B051E9D42B1D109
:1011200098E74B461022591C15F00FF843425841DE
:10113000C3B29A464B46113304D04B467A7C5B7C53
:101140009A4233D05346002BE3D042466388D2897B
:101150009A4236D04246528B9A4239D04246D28C7D
:101160009A4237D04246528E9A4235D01B4A7280FC
:101170000022B38043463270F5801B7B0027002B92
:10118000C7D04246BB00D358301C984743461B7B10
:1011900001379F42F5D3BCE7381C49461230123163
:1011A000062214F0D2FF0028B3D1CEE7381C4946FE
:1011B00012301231062214F0C8FF5346002BC4D15E
:1011C000F1E7002251008A1892004244128ACEE7C9
:1011D0000122F7E70222F5E70322F3E7FFFF000011
:1011E000E0270020F0B557464E464546E0B4038858
:1011F00094B0041C102B0FD0112B07D10823AB4A3D
:10120000FF33D15C808800220EF0DCFB14B01CBCE4
:1012100090469946A246F0BD437DDA072BD48379E8
:10122000032B00D1A8E0A24E301C01F0F7FD051EF3
:10123000B54200D1A0E0E31DB0469946A379012B49
:1012400077D9022B6BD1281C002106AA002301F0BC
:101250005FFA002804D1A379079F022B00D1C5E0D3
:10126000281C01F0DBFD051E4545E7D1A688071CBB
:1012700086420AD1CAE75B081C338C4A5B00D3184C
:10128000DF88A6888A4B9E4228D00823FF339846E1
:10129000864D301CE95C01220EF094FB4346301C65
:1012A000E95C0EF07FFB002800D082E00023984626
:1012B0000823FF33A9469A464B46188A5346E95CF1
:1012C0000EF070FB002800D1E1E001239C460B33B7
:1012D000E0449C464346E144042BEDD1744B9F42CD
:1012E00000D193E7A6880823704DFF33E95C301CDA
:1012F0000EF058FB002846D1A38808AE7380012366
:1013000033702B7B0024002B00D17FE7A300EB5828
:10131000301C98472B7B01349C42F7D376E7281C7E
:1013200001F07CFD624F051E4545AAD0A379012B33
:1013300087D8281C002106AA002301F0E9F900281B
:101340008ED107990B1C11338AD0A2794B7C9A421B
:1013500086D112314846062214F0F7FE002800D04C
:101360007EE7281C01F05AFD514B2F1C984288D073
:10137000A6889E4289D1B6E74D4BA6881F1C9E4287
:1013800000D082E742E72B8AB34200D17DE0AB8BED
:10139000B34200D180E02B8DB34200D17EE0AB8E12
:1013A000B342A9D103235A00D3189B00EB18DF8165
:1013B000A2E72B8AB34273D0AB8BB34272D02B8D92
:1013C000B34271D0AB8EB34200D06FE70323DBB2E0
:1013D00001225800C3189B00E81852420682C281BD
:1013E000A11D0832123014F0BFFE77E749460322F0
:1013F00003A814F0B9FE211C03220A3105A814F039
:10140000B3FE3B7C08AE3370FB7B00217370BB7B6B
:101410000D22B3707B7B0CA8F3703B7B3371FB7A9E
:101420007371BB7AB3717B7AF3713B7A3372FB7958
:101430007372BB79B3727B79F3723B793373FB7848
:101440007373BB78B3737B78F373FAF7B1FE02ABB7
:101450001B7B301CF37702AB5B7BB37702AB9B7BD0
:101460007377FFF7E7FD2F23F35C04A90B702E239E
:10147000F35C03A84B702D23F35C03228B7014F0F4
:1014800064FE002800D16CE7EAE600238BE74346C0
:101490006A46D371D3799BE7012384E7022382E76D
:1014A000002394E7012392E7022390E7E02700203E
:1014B000FFFF000070B5002808D0184C061C257BE3
:1014C000002D05D0022D22D9042070BD0E20FCE78E
:1014D000842200215200201CFAF76AFE83235B005D
:1014E000E55425730825F63BFF356355113B2382F0
:1014F000A3832385A3860EF0EBF960551028E3D073
:10150000074801F059F80028DFD1257BDAE76B1C8A
:10151000AD00237366510020D7E7C046E0270020C6
:101520003910020038B50823124CFF33E15C051C6A
:101530000EF038FA002801D10F4838BD238AAB429B
:1015400012D0A38BAB4211D0238DAB4210D0A38E0F
:10155000AB42F1D10323227B002AEDD05A00D318ED
:101560009B00E418E089E8E70023F4E70123F2E7B1
:101570000223F0E7E0270020FFFF000070B5194CC0
:101580000823227B002A01D1181C70BD06330029D4
:10159000FAD00823FF330E1CE15C051C0EF002FAA2
:1015A00005230028F0D0228AAA4214D0A28BAA4296
:1015B00013D0228DAA4212D0A28EAA42E4D1023BBD
:1015C0005900C918890061181231301C072214F023
:1015D000CBFD0023D8E70023F2E70123F0E7022345
:1015E000EEE7C046E0270020F0B5474680B4274B21
:1015F000051C82B0181C984601F010FCAF1C041E9C
:10160000464644451ED13BE0AA78002A2AD1EA7812
:10161000002A27D12A79002A24D16A79002A21D1E7
:10162000AA79002A1ED1EA79002A1BD12A7A002A37
:1016300018D16A7A002A15D1201C01F0EFFB041E94
:10164000B4421DD0201C00216A46002301F060F83E
:101650000028F1D101990B78022B0FD046312B884D
:10166000002BD1D00A889A42E6D10231381C0822D8
:1016700014F06BFD0028DFD1201C02E02A31EEE7D8
:10168000024802B004BC9046F0BDC046FFFF000017
:101690000D4BDA8982420AD05A8B82420ED0DA8C04
:1016A00082420DD05A8E82420CD0084870470022E8
:1016B00051008A1892009B18188AF7E70122F7E771
:1016C0000222F5E70322F3E7E0270020FFFF0000F6
:1016D0000288031C0120002A18D19A78002A15D10B
:1016E000DA78002A12D11A79002A0FD15A79002A01
:1016F0000CD19A79002A09D1DA79002A06D11A7A0E
:10170000002A03D1587A431E9841C0B27047C046A0
:10171000082370B5114CFF330E1CE15C051C0EF064
:1017200041F9002800D170BD238AAB420FD0A38BB2
:10173000AB420ED0238DAB420DD0A38EAB42F2D183
:1017400003235A00D3189B00E418E681EBE700233B
:10175000F7E70123F5E70223F3E7C046E02700207F
:10176000F0B5564644465F464D46F0B4784C85B0D9
:10177000267B0823002E07D1181C05B03CBC9046E0
:101780009946A246AB46F0BD002A00D1DBE0002519
:10179000FE3315711573E554002900D1D1E091464F
:1017A0004E229046CA00511ACE31261C8A46022289
:1017B000051CA044CE36A2440027934601936EE058
:1017C000638B834200D17BE0E38C834200D184E0D1
:1017D000638E834200D18DE00023002102AA00F035
:1017E00097FF5B469843052800D1AEE04B461B6847
:1017F000002B16D003994B7C023B012B11D90622FA
:10180000701C123114F0B0FC4A46039B00935B7CC1
:10181000337012687B009E504B464A461B79013359
:1018200013714B469B68002B31D003994B780131E3
:10183000002B69D14B78002B66D18B78002B63D1BC
:10184000CB78002B60D10B79002B5DD14B79002B2D
:101850005AD18B79002B57D1CB79002B54D10B7AED
:10186000002B51D14B7A002B4ED18B7A002B4BD1D0
:10187000CB7A002B48D10B7B002B45D14B7B002B27
:1018800042D18B7B002B3FD1CB7B002B3CD1102353
:101890009C46073602350237E044564551D0288829
:1018A000E38983428CD10823FF33208AE15C0EF068
:1018B00079F80028EBD12888638B834200D083E736
:1018C0000823FF33A08BE15C0EF06CF80028DED11A
:1018D0002888E38C834200D07AE70823FF33208DE9
:1018E000E15C0EF05FF80028D1D12888638E834236
:1018F00000D071E70823FF33A08EE15C0EF052F8B0
:101900000028C4D1288867E74046102214F02CFC38
:101910004A46414692687B0099504B464A461B7B9B
:101920000736013313732A88E319DA87019A0235DF
:10193000A35C02370133A35410239C46E044564570
:10194000ADD1002318E70E2316E7072314E7C0469E
:10195000E027002010B5002A0CD0002808D000296C
:1019600006D08378042B03D8134C9B00E3589F4682
:101970000023138010BD43680B6003888B80012314
:101980001380F7E7022443688C800B6043689B68F0
:101990008B600388023B8B811480EBE743680B600C
:1019A00001238B8043685B688B600388013B8B81DC
:1019B00002231380DEE7C0465871030038B50028C3
:1019C00008D0002906D003880A880B809A4203D2E7
:1019D000042038BD0E20FCE783788B708378042BBD
:1019E0004AD8264A9B00D3589F464B685A68002A1B
:1019F000F0D042681C6812681A609442E8D34A68C2
:101A0000436850687622191D1B685A4314F0ACFBDA
:101A10000020DEE74B689A68002ADBD044689D8886
:101A2000A288954218D29A80D2E742684B68127811
:101A300000201A70CDE74B68028841689200181C9C
:101A400014F092FB0020C4E74B6850224168181C38
:101A500014F08AFB0020BCE722681A6043684A68D9
:101A60009B88938043684A68191C906808319A885B
:101A700014F07AFB0020ACE70020AAE76C710300A9
:101A8000F0B51C1C87B00193250C9BB2062919D810
:101A9000414C890061588F46404903AC8C46062171
:101AA000654465803E4D21702371A2602B7F002B21
:101AB00008D000262F1D08CF201C98472B7F013609
:101AC0009E42F8DB07B0F0BD002B0CD1002D0AD0F0
