:020000021000EC
:10C00000C03E002019450300AD450300D1B7020032
:10C010000000000000000000000000000000000020
:10C02000000000000000000000000000B145030017
:10C030000000000000000000B3450300B545030008
:10C04000B7450300B7450300B7450300CD23020001
:10C05000B7450300000000008D270300A90103007D
:10C06000B7450300C12C0300B7450300B7450300E3
:10C07000B7450300B7450300B7450300B7450300C4
:10C08000892D03008D360300B7450300B745030033
:10C0900071370300B745030045440300B74503006B
:10C0A000B7450300B7450300000000000000000092
:10C0B0000000000000000000000000000000000080
:10C0C000164B002B00D1144B9D46402292029A1A27
:10C0D000924600218B460F461348144A121A00F06C
:10C0E00067F80F4B002B00D098470E4B002B00D069
:10C0F00098470020002104000D000D48002802D0C0
:10C100000C4800E000BF00F02DF82000290012F0DC
:10C110002FF900F011F8C04600000800C03E0020D2
:10C1200000000000000000008C27002040380020A4
:10C130000000000000000000084B10B5041C002B9C
:10C1400002D0002100E000BF054B1868836A002B75
:10C1500000D09847201C00F033F8C04600000000D3
:10C160004C7203000E4B70B500251E1C0D4CE41ADA
:10C17000A410A54204D0AB00F35898470135F8E766
:10C180001BF056F8084B00251E1C084CE41AA4109E
:10C19000A54204D0AB00F35898470135F8E770BDCD
:10C1A0007C2700207C2700207C2700207C27002083
:10C1B000031C8218934202D019700133FAE77047CA
:10C1C000FEE7C046F0B54D4644465F46564601235D
:10C1D000F0B485B001AE33700023AC4F73707B6850
:10C1E000051C18783B680C1C9146597D0222331CB3
:10C1F00010F092F88046002800D022E1C82016F006
:10C2000047F9434633707B68012218783B68597CB4
:10C21000331C10F081F8002800D012E17B68012265
:10C2200018783B685979331C10F076F8002800D054
:10C2300007E17B68012218783B68597D331C10F0B8
:10C240006BF8002800D0FCE07B68012218783B687E
:10C25000997E331C10F060F8002800D0F1E07B6874
:10C26000012218783B681979331C10F055F8002822
:10C2700000D0E6E00C2333707B68012218783B681D
:10C280001979331C10F048F8002800D0D9E00F309D
:10C2900016F0FEF8BB6A01225B7A33707B6818786F
:10C2A0003B689978331C10F037F8002800D0C8E0BC
:10C2B000BB6A01221B7A33707B6818783B68597817
:10C2C000331C10F029F8002800D0BAE04B46002BB0
:10C2D00000D1BFE02022BB6A52429B7A90461343B2
:10C2E00033707B68213218783B689979331C10F0E1
:10C2F00013F8002800D0A4E04246BB6ADB7A1A4358
:10C300007B68327018783B680122D979331C10F0B1
:10C3100003F8002800D094E0C83016F0B9F84023A4
:10C3200033707B68012218783B681979331C0FF051
:10C33000F3FF002800D084E0782333707B6801226B
:10C3400018783B685979331C0FF0E6FF80460028C7
:10C3500077D1322016F09CF8434633707B68012277
:10C3600018783B685979331C0FF0D6FF002868D144
:10C370007B68022218783B68197B331C0FF06CFF36
:10C38000814600285DD130787378000218430C2173
:10C3900018F034FEC3B298464B46AB606B602B601E
:10C3A000A36063602360002399464346002B3ED17F
:10C3B0006EE0B378F1781B021943337972791B026E
:10C3C0001A43337870781B02034320681BB28446FB
:10C3D000634423600BB261688C466344636013B2AC
:10C3E000A26894466344A360327A707AB37A1202E8
:10C3F0000243F07A1B020343B079F179000208434B
:10C40000296812B28C4669681BB28B4693445A461F
:10C410006A60AA6800B292469A445346AB604B46A3
:10C4200001336044DBB228609946984535D97B6872
:10C430000C2218783B68597B331C0FF00DFF002845
:10C44000B7D00120404205B03CBC90469946A24678
:10C45000AB46F0BDBB6A01229B7A33707B681878CB
:10C460003B689979331C0FF057FF0028E9D1182356
:10C4700033707B68012218783B68D979331C0FF040
:10C480004BFF002800D14AE7DBE7C04664260020C6
:10C490006B6828689B46AB689A46C117030C090471
:10C4A000194383220023000418F0C0FF42460023F2
:10C4B00018F0BCFF5B46D91709041B0C19435B46F7
:10C4C000286083221804002318F0B0FF424600239E
:10C4D00018F0ACFF5346D91709041B0C19435346F7
:10C4E000686083221804002318F0A0FF424600234E
:10C4F00018F09CFFA8602368D9171A0C1E040023AB
:10C500000F041743F9174A0D92197B415905D00AB8
:10C5100008434246D912002318F088FF6368206060
:10C52000DE171A0C1804002331041143CE17720DC4
:10C5300012184B415905D00A08434246D91200232C
:10C5400018F074FFA3686060DE171A0C180400234B
:10C5500031041143CE17720D12184B415905D00A00
:10C5600008434246D912002318F060FFA06000285B
:10C5700005DD064B9C466044A060002063E78023F5
:10C580005B029C466044A06000205CE70000FFFF67
:10C5900030B5244C83B0A37C002B40D063680122CB
:10C5A0001878236819796B46DD1D2B1C0FF054FE9B
:10C5B000002831D1A37ADB072AD420222B78934399
:10C5C0002B70636801221878236819792B1C0FF0EF
:10C5D000A3FE002820D1033015F05AFF2223E35C8C
:10C5E0003022002B01D0B02280232B702323E35C68
:10C5F000002B00D02A706368012218782368D97D47
:10C600002B1C0FF089FE002806D1A07403B030BDAA
:10C6100020232A781343D3E701204042F6E7002085
:10C62000F4E7C0466426002030B51C4C83B0636834
:10C63000051C0621187802226B460FF00DFE00281B
:10C6400029D16368082118786B46022202330FF063
:10C6500003FE00281FD163680A211878022201AB6B
:10C660000FF0FAFD002816D16B466A461B78527807
:10C670001B0213432B606B466A469B78D2781B02E1
:10C6800013436B606B466A461B7952791B02134356
:10C69000AB6003B030BD01204042FAE764260020C1
:10C6A00030B51C4C83B06368051C13211878022236
:10C6B0006B460FF0D1FD002829D163681521187849
:10C6C0006B46022202330FF0C7FD00281FD16368BA
:10C6D00017211878022201AB0FF0BEFD002816D1F9
:10C6E0006B466A461B7852781B0213432B606B46DD
:10C6F0006A469B78D2781B0213436B606B466A468E
:10C700001B7952791B021343AB6003B030BD01208B
:10C710004042FAE764260020002330B589B003AC1C
:10C72000051C05A823706370A370E3702371637107
:10C73000059306930793FFF7B3FF002836D1059BB7
:10C740002A68991A069B6A6805919A1A079B0692AD
:10C7500001930198AB68174DC31A079308126170D3
:10C76000E270111263711A126B68A170227120704D
:10C77000187813210222231C0FF0CEFD002815D1BA
:10C780006B681521187802AB022206330FF0C4FD46
:10C7900000280BD16B6817211878022204AB0FF028
:10C7A000BBFD431E9841404209B030BD01204042CC
:10C7B000FAE7C04664260020002330B589B003ACF8
:10C7C000051C05A823706370A370E3702371637167
:10C7D000059306930793FFF727FF002839D101201F
:10C7E0002968059B81436A68591A069B82439A1AF5
:10C7F000AB68194D834307980591C31A06920793B6
:10C800006170E27063710190081211121A126B6864
:10C81000A17022712070187806210222231C0FF0CB
:10C820007BFD002815D16B680821187802AB022225
:10C8300006330FF071FD00280BD16B680A211878C0
:10C84000022204AB0FF068FD431E9841404209B03C
:10C8500030BD01204042FAE76426002030B5574C35
:10C8600083B0A37A002B00D19BE06B46DD1D002333
:10C870002B706368012218782368597C2B1C0FF0F9
:10C880004BFD002800D08CE06368012218782368F3
:10C8900059792B1C0FF040FD002800D081E063681F
:10C8A00001221878236819792B1C0FF035FD002818
:10C8B00000D076E02423E35C002B38D00C232B70CF
:10C8C000636801221878236819792B1C0FF024FD66
:10C8D000002866D1323015F0DBFDC0232B70A37A1F
:10C8E000DB0766D4636801221878236819792B1C4A
:10C8F0000FF012FD002854D1637C002B5CD12B700B
:10C900006368012218782368597C2B1C0FF004FD02
:10C91000002846D163682870187823680122597965
:10C920002B1C0FF0F9FC431E9841404237E00423D2
:10C930002B70636801221878236819792B1C0FF07B
:10C94000EBFC00282DD1A27C4023002A2CD02B7098
:10C95000636801221878236819792B1C0FF0DCFC1E
:10C9600000281ED1323015F093FD637C5A1E93418E
:10C970002B706368012218782368597C2B1C0FF0F8
:10C98000CBFC00280DD163680122187823685979FF
:10C99000231C10330FF0C0FC431E9841404203B0EB
:10C9A00030BD01204042FAE7A27AD207CFD520332A
:10C9B000CDE7E0232B7095E70223A0E76426002053
:10C9C000232370B5684C82B0061CE35C01AD0028DF
:10C9D0002CD1002B18D02870A27C8023002A02D0F2
:10C9E0007E3B2B7080332222A25C002A00D02B7069
:10C9F0006368012218782368D97D2B1C0FF08CFC0A
:10CA0000002801D12323E05400232B7007336B70DF
:10CA10006368022218782368597D2B1C0FF07CFC78
:10CA2000002800D088E0207502B070BD012B1AD01C
:10CA300030232B70A27C8033002A02D07E3B2B70E7
:10CA400080332222A25C002A00D02B70636801226E
:10CA500018782368D97D2B1C0FF05EFC002802D1CA
:10CA600001222323E25420232B70012E57D0052EC0
:10CA700065D9142E46D903236B70A37A002B6BD093
:10CA800004236A46D370E37A042B65D063680122DD
:10CA90001878236899786B4603330FF03DFC002823
:10CAA0005CD16B460722DB78E3726B789B01134302
:10CAB000DBB26B706368022218782368597D2B1CE7
:10CAC0000FF02AFC002837D108230122A37220731B
:10CAD00022751C33E35C002BA6D12374637C002BEE
:10CAE0000ED16B46DA70636818782368597C6B4600
:10CAF00003330FF011FC002802D16B46DB7863741E
:10CB0000002091E702236B70A37A002B05D0052348
:10CB10006A46D370E37A052BB8D18723C9E700238F
:10CB20006B70A37A002B05D006236A46D370E37A94
:10CB3000062BABD10723BCE70120404274E7012359
:10CB40006B70A37A002B05D006236A46D370E37A74
:10CB5000062B9BD14723ACE7C723AAE76B789A0142
:10CB600007231343DBB2A4E76426002010B5114A63
:10CB7000011C537A012B19D0002B13D0022B0AD0A1
:10CB8000032B0CD1102320240370D37C0020002B16
:10CB900000D00C7010BD082310240370F5E70120AD
:10CBA0004042F7E7022304240370EEE7042308243D
:10CBB0000370EAE76426002070B51D4C82B0A37AAA
:10CBC000002B24D004282DD009D9082824D01028DF
:10CBD0001DD16B46DD1D18232B70153B05E0022887
:10CBE00015D16B46DD1D00232B70627A00269A4218
:10CBF0000FD06368012218782368D9792B1C0FF0B5
:10CC00008BFB002803D12B78DB08637201E001263F
:10CC10007642301C02B070BD6B46DD1D10232B70B8
:10CC20000E3BE2E76B46DD1D08232B70073BDCE77C
:10CC30006426002070B51C4C82B0A37A002B27D04C
:10CC40006B46DD1DBB2816D8612817D902232B702F
:10CC5000E27A00269A420BD0636801221878236892
:10CC600099782B1C0FF058FB002811D12B78E37218
:10CC7000301C02B070BD01232B70E9E7292804D8CD
:10CC8000132808D904232B70E2E703232B70DFE776
:10CC900001267642ECE7092802D905232B70D7E755
:10CCA00006232B70D4E7C0466426002070B5584C8C
:10CCB00082B0A37A061C002B00D195E02423E35C0C
:10CCC000002B00D090E0227D002A30D0421E272A7F
:10CCD00000D885E02322A25C01AD002A18D02B7079
:10CCE000A37C8022002B02D0022302322B7022234D
:10CCF000E35C002B00D071E06368012218782368A0
:10CD0000D97D2B1C0FF008FB002801D12323E05410
:10CD100000232B7007336B70636802221878236836
:10CD2000597D2B1C0FF0F8FA002800D12075F9204E
:10CD3000032E31D86B46D8706368012218782368B7
:10CD400059786B4603330FF0E7FA00284CD16B4655
:10CD5000FA20D9788000013118F0E0F9A37A80B286
:10CD6000E0814008002B14D001ADBB2821D901235C
:10CD700001222B70E37A93420BD06368012218786A
:10CD8000236899782B1C0FF0C7FA002801D12B7863
:10CD9000E372002002B070BDFA23311C9B009E425A
:10CDA0000FD8FA2089B2800018F0B8F90138C0B263
:10CDB000C0E761280ED8292819D9032303222B7034
:10CDC000D8E7FA20191C89B2800018F0A7F90138B9
:10CDD000C0B2AFE7022302222B70CBE72A708BE7A9
:10CDE000FFF7EEFD0020D5E701204042D2E71328EF
:10CDF00005D8092807D9052305222B70BAE7042393
:10CE000004222B70B6E7062306222B70B2E7C04639
:10CE10006426002010B5144A011C537A012B1FD040
:10CE2000002B17D0022B0CD0032B10D18023802491
:10CE30001B010380E400D37C0020002B00D00C8079
:10CE400010BD802380245B0103802401F3E70120CF
:10CE50004042F5E780238024DB010380A401EAE758
:10CE6000024B034C0380E6E7642600209C1F000071
:10CE7000CE0F0000242370B52C4D82B0EB5C002453
:10CE8000002B23D1AC7A002C4CD0013398430440C2
:10CE90002E7C2C74041B621E94416442002818D11D
:10CEA0002A7D002A30D06A7C002A0FD16A46D371CD
:10CEB0006B68012218782B68597C6B4607330FF09A
:10CEC0002BFA002802D16B46DB796B74201C02B070
:10CED00070BD6A7C002A0FD16A46D3716B6801224B
:10CEE00018782B68597C6B4607330FF015FA002829
:10CEF00002D16B46DB796B74FFF7B0FC0028E5D0FC
:10CF000001242E746442E1E76B46DA716B680132EA
:10CF100018782B68597C6B4607330FF0FDF9002811
:10CF2000D1D0D3E701246442D0E7C0466426002074
:10CF3000F0B54F4646467023C0B4051C83B003408D
:10CF400069D06B469E1D01233370484C01226368F3
:10CF500018782368597D331C0FF0DEF9002800D0C3
:10CF60007EE0402233783070934323732A4266D0A8
:10CF70003A20844637388146013838233922012146
:10CF80003B278046A80604D443463A1C33704946E2
:10CF90006346E80601D4131C31702A0700D43370AD
:10CFA0006368012218782368997D331C0FF0B4F967
:10CFB000002855D108232A1C9A4320D02323E35C60
:10CFC000002B1CD06B46D871A37C8022002B03D091
:10CFD0006A460223D37182222223E35C002B01D014
:10CFE0006B46DA716368012218782368D97D6B4635
:10CFF00007330FF091F9002801D12323E0540023D7
:10D000003220A572237515F043FA002003B00CBC42
:10D0100090469946F0BD00281ED16B464027134C20
:10D020009E1D63683770187823680122597D331C70
:10D030000FF072F9002813D13378BB4323733E20DD
:10D040000423844637388146013833703D22383313
:10D0500005213F27804695E76A46961D337074E7A1
:10D0600000230120A3724042D0E7C046642600207E
:10D0700030B585B080236A46484C1372636801223C
:10D0800018782368597D02AB0FF046F9051E00D0D1
:10D0900081E0642015F0FCF96B461D726368012283
:10D0A00018782368597D02AB0FF036F9051E00D0C1
:10D0B00071E00122FF235242A37223726372E37272
:10D0C000E2812274A3742332FE3BA35423732233E0
:10D0D000E054E07460752075201C00211630163A6B
:10D0E000FFF766F82423E5540133E554A37AE58479
:10D0F000002B50D06B46DD1D18232B70237A032B99
:10D100000FD0636801221878236899792B1C0FF0DF
:10D1100003F900283FD12B78DB082372A37A002B78
:10D1200039D000232B70637A002B0FD06368012263
:10D1300018782368D9792B1C0FF0EEF800282AD133
:10D140002B78DB086372A37A002B24D003232B7087
:10D15000E37A032B0BD0636801221878236899784F
:10D160002B1C0FF0D9F8002815D12B78E372322050
:10D17000FFF79CFD00280ED10020FFF77BFE002862
:10D1800009D1FFF705FA041E05D10020FFF7D0FEF4
:10D19000201C05B030BD01246442F9E7642600205C
:10D1A000F0B54F4646462423C0B4284C83B0E35C18
:10D1B000071C89469046002B3BD0A37A002B38D021
:10D1C000636801AE187823680222197B331C0FF0C4
:10D1D00043F800282DD1357873782D021D43BD42C8
:10D1E0002AD3626853885B089D420CD92368107863
:10D1F000D97C0122331C0FF02FF8002819D1337885
:10D20000DB061DD4626823681078597BFAB24B465E
:10D210000FF022F800280CD1281C391C17F0EEFE64
:10D22000434601381870002003B00CBC9046994664
:10D23000F0BD01204042F7E7434618700138F3E79C
:10D24000FFF70CFB02204042EEE7C04664260020B8
:10D250002223024AD05400207047C0466426002092
:10D26000232370B5174C82B0E35C051C834224D0A5
:10D2700000281DD180228220022600216B46073320
:10D280001970A17C002901D0021C1E702221615C52
:10D29000002900D01A70626810782268D17D0122BE
:10D2A0000FF03AF800280AD12323E55402B070BDEC
:10D2B000B022B22032263021E0E70020F6E701203C
:10D2C0004042F3E76426002070B50D1C82B0161EA4
:10D2D00022D0134CA37A002B1ED0020A01AB1A7085
:10D2E000C0B26268587040185189884214DC1078C6
:10D2F0002268D17E02220FF00FF800280CD163685B
:10D30000EAB218782368197E331C0FF005F8431E23
:10D310009841404202B070BD01204042FAE7C04649
:10D3200064260020F0B556465F464D464446F0B4AC
:10D330008BB003932523514E01910292F35C8246F8
:10D34000002B75D1002973D0002800D17BE0041E8A
:10D35000102C00DD75E0A3B29B46B37A002B67D09A
:10D36000002305AF71683B707B704B899C425FDC8A
:10D37000019B0025984638E033681078D97E022258
:10D380003B1C0EF0C9FF002852D173684A4618783A
:10D390003368197E06AB0EF05FFF002848D1404687
:10D3A00006A9221C19F0A7FE002863D15D44ADB286
:10D3B000AA4549D953465C1B102C00DD1024A3B2AA
:10D3C0009B46019B9846A8444346002B30D0B37A35
:10D3D000002B2DD02B0AEAB23B70716823047A70BF
:10D3E0001B0CD3184A89934222DC33680878022246
:10D3F000D97E3B1C0EF090FF002819D1E3B299466C
:10D4000073684A4618783368197E43460EF084FFE5
:10D4100000280DD1B37A002B0AD02B0A3B7072681A
:10D42000EBB27B702404240C51891B198B42A3DDC1
:10D43000012040420BB03CBC90469946A246AB4608
:10D44000F0BD102487E705AF029A130A3B7073689A
:10D450007A70187833680222597F3B1C0EF05CFF0B
:10D460000028E5D125230122F2546B469B89002038
:10D47000F384DFE702204042DCE7C0466426002058
:10D48000242330B53A4C83B0E35C83423AD0002881
:10D490003FD02522A25C002A60D0002B35D1A27A91
:10D4A000002A5ED06A46D51D2B7063680122187869
:10D4B0002368597C2B1C0EF02FFF002801D12B78FC
:10D4C0006374FFF765F8E08CFFF7F0FB6B46002212
:10D4D00006331A7062682321107801220EF01CFFB7
:10D4E00024230122E254223B2B70636818782368BE
:10D4F000597C2B1C0EF010FF002801D12B7863748F
:10D50000FFF7ACF9002003B030BD6B46DD1D0023F2
:10D51000CAE7002B1ED1A27A002A25D06A46D51D63
:10D520002B706368012218782368597C2B1C0EF03D
:10D53000F3FE002801D12B786374237C01222B7029
:10D540006368232118782B1C0EF0E6FE00222423AA
:10D55000E254D5E76B46DD1D2870E2E7012040422A
:10D56000D1E76B46DD1DACE76B46DD1DE5E7C04648
:10D5700064260020F0B55F46444656464D462423B7
:10D58000F0B4C54C97B00190E25C0F1C002A00D0AB
:10D5900090E1002313AD0693237A012B2DD0002BAD
:10D5A00028D0022B1CD0032B33D1FA23DB009A4660
:10D5B000637A012B1AD0002B27D0022B21D0032B0A
:10D5C00006D1202310219B46E37C002B00D18B4603
:10D5D000E37A062B00D9C6E0B0499B00CB589F46A2
:10D5E000FA239B009A46637A012BE4D10823042195
:10D5F0009B46E9E7FA239A46DAE7FA235B009A4664
:10D60000D6E7102308219B46DEE7042302219B4630
:10D61000DAE700239A46CBE7BC230093002A01D126
:10D62000E3890793A37A019E0593237C301C391C60
:10D6300000220493FEF7C6FD002800D196E0301CBE
:10D64000391C0022FEF7BEFD002800D18EE0002626
:10D65000FF23012223726372E3722374FE3B237360
:10D66000F4335242FF33E281A2729A4500D10FE1B6
:10D6700000D8E8E0FA239B009A4500D105E1FA239F
:10D68000DB009A4511D118232B70636801221878AA
:10D69000236899792B1C0EF03FFE002802D12B78CD
:10D6A000DB082372A37A002B37D05B46042B00D112
:10D6B000E3E000D8D4E05B46082B00D1E1E0102B7A
:10D6C00015D1182303222B70637A93420FD063681D
:10D6D000012218782368D9792B1C0EF01DFE002832
:10D6E00002D12B78DB086372A37A002B15D0009B44
:10D6F000BC2B00D0AEE00122BB3B2B70E37A9342FF
:10D700000BD0636801221878236899782B1C0EF0DF
:10D7100003FE002801D12B78E3720798FFF7C6FAC1
:10D720000598FFF705FC0498FFF7A4FB069B002B68
:10D7300002D00120FFF7A4FE301C17B03CBC90467D
:10D740009946A246AB46F0BD0523009366E70A233F
:10D75000009363E71423009360E72A2300935DE7B7
:10D76000622300935AE70023009357E70DA810A9FE
:10D770000122FEF727FD002807D00DA810A90122DD
:10D78000FEF720FD002800D061E763680CAE187832
:10D790000D210422331C0EF05FFD002800D130E182
:10D7A0000023984603935346B94600264746AA46A7
:10D7B000089318220AAB9B189B5902934B46029A76
:10D7C0009B59981A19F093FC18F00AFDDE2189057F
:10D7D00018F036FA53469B59051C0021181C984630
:10D7E00017F0D8FD002800D18FE0281C2C4917F035
:10D7F000D7FD002805D1281C2A4917F0E5FD00288F
:10D8000004D00123BB40039A1A4303920436013724
:10D810000C2ECED1089B55469A466B461B7B0D219C
:10D8200002936368032218782B1C0EF015FD002369
:10D83000002800D17EE0029A002A01D1023213436F
:10D8400004261E4304E75346FA2B00D02DE700239D
:10D850002B701AE7612B0AD9022302222B704DE7A5
:10D86000022B00D043E7002300222B702CE7292B4A
:10D870001AD9032303222B7040E7082301222B70BF
:10D8800022E7102302222B701EE710232B70FCE6E8
:10D8900008232B70F9E6C04664260020507203006E
:10D8A0009A99993E3333733F132B24D904230422CE
:10D8B0002B7023E7002313AD2B70636801221878C7
:10D8C0002368597C2B1C0EF027FD002801D12B78F2
:10D8D0006374237C01222B706368232118782B1C2E
:10D8E0000EF01AFD24260023A355FEF7B7FF0123EF
:10D8F000A25D069350E6092B03D9052305222B7060
:10D90000FCE6062306222B70F8E64146281C17F099
:10D91000A5FFFE21890518F0C5FA19F02FF917F0B7
:10D92000DDF88022564B920517F014FD002800D137
:10D930006CE766E71F222B78A94613402B706B78A3
:10D94000002713406B70AB781340AB7000231D1C95
:10D9500009930C22019B5B5903930AAB9B185B59FB
:10D960000893089A039B981A19F0C1FB18F038FC29
:10D97000DE21890518F064F94B46DE5D8046002EF5
:10D9800033D0013EF6B2DE553E49002E0AD0081CC7
:10D99000013E3D49F6B218F053F9002EF8D14B463E
:10D9A000011CDE55404617F059FFFE21890518F08D
:10D9B00079FA19F0E3F817F091F88022304B9205CC
:10D9C00017F0C8FC002804D00123BB40099A1A4371
:10D9D000099201370435032FBBD16B4624229B18D3
:10D9E0001E784D467342734125E7284917F0D8FC4D
:10D9F0000028E9D14046264917F0E6FC0028E8D087
:10DA0000E2E71F21F378A9469A06900F3278B846CC
:10DA10008A43D21002430AA802711A07900F727843
:10DA20004F468A43D21002430AA84271B2788A4311
:10DA30001C39D2100B401343837100231D1C0BAB08
:10DA40005E5D002E08D100233B6001350437032DB5
:10DA5000F5D147464D46A3E60E4B013E3B60F6B27C
:10DA60000BAB5E55002EF0D00A48013E0A49F6B2D3
:10DA700018F0E6F8002EF8D10BAB38605E55E4E7FD
:10DA800085EBC13F0000C84154E3853F00002041C1
:10DA90000000D2427B14AE3E1D5A843FF0B54F4683
:10DAA0004646C0B40F1C83B0161E00D015E1B64C1C
:10DAB000A37D002B00D088E0E37D002B00D084E024
:10DAC000237E002B00D080E0637E002B7DD1A37EDF
:10DAD000002B7AD1E37E002B77D1237F002B74D1EA
:10DAE000637F002B71D1A37F002B6ED1E37F002BCE
:10DAF0006BD12033E35C002B67D12133E35C002B37
:10DB000063D101204042E3E005226283002B01D172
:10DB1000E289A283A27AA277227CE277002B00D14D
:10DB200029E100232B706368012218782368597C4F
:10DB30002B1C0EF0F1FB002801D12B7863742323FA
:10DB4000E35C002B19D000232B70A37C8022002BD8
:10DB500002D0022302322B702223E35C002B00D080
:10DB60002A706368012218782368D97D2B1C0EF077
:10DB7000D3FB002801D12323E05400232B7007336B
:10DB80006B706368022218782368597D2B1C0EF095
:10DB9000C3FB002800D1207500232B70636801228D
:10DBA0001878236899782B1C0EF0B6FB0028A8D1B2
:10DBB00040232B706368012218782368597C2B1C42
:10DBC0000EF0AAFB002800D1E2E0FF23012223721D
:10DBD00052426372E3722374A07FFE3BE281A27221
:10DBE0002373FFF7A5F9A27AE38A002A63D0FA2209
:10DBF0005200934200D107E100D829E1FA229200B5
:10DC0000934200D11EE1FA22D200934200D033E1C8
:10DC10006B46DD1C182303222B70237A934200D11C
:10DC2000FBE0636801221878236899792B1C0EF0B9
:10DC300073FB002802D12B78DB082372A27A237EA3
:10DC4000002A38D0042B00D1EBE0042B00D807E1E8
:10DC5000082B00D114E1102B00D0E9E01823032297
:10DC60002B70637A934200D1E2E063680122187856
:10DC70002368D9792B1C0EF04FFB002802D12B789A
:10DC8000DB086372A27A638B002A14D0BB2B00D806
:10DC9000D2E0012301222B70E37A93420BD0636818
:10DCA00001221878236899782B1C0EF035FB002888
:10DCB00001D12B78E372A08BFEF7F8FFE07FFFF72E
:10DCC000D9F82023E35C002B5AD100230020637590
:10DCD00003B00CBC90469946F0BDFF239846FF2345
:10DCE0005B0198423DD9002F00D10137282E00D981
:10DCF00007E72423244C01AD627DE35C002A00D0B9
:10DD00000CE7002B00D0C7E0202201ADA354227AFB
:10DD1000012A00D10DE1002A00D107E1022A00D139
:10DD20000BE1032A00D1DBE00022E282627A012AC1
:10DD300000D1EFE0002A00D1F4E0022A00D1EDE0AA
:10DD4000032A06D1102220212276E27C002A00D06C
:10DD50002176E27A062A00D9D9E00C4992008A5845
:10DD60009746012398461F28BDD94009C3B298465B
:10DD7000002FBBD1B9E7A27A002A00D0D2E6DEE6B6
:10DD80000120FFF77DFBA0E7642600206C720300F2
:10DD900043462B7063686F70187823680222997A63
:10DDA0002B1C0EF0B9FA002800D00EE7053014F055
:10DDB0006FFB0722637ADB0013432B706368012239
:10DDC00018782368D9792B1C0EF0A6FA002800D009
:10DDD000FBE620232B70012E00D1B6E02733052E61
:10DDE00003D94033142E00D940336B70636802228C
:10DDF00018782368597D2B1C0EF08EFA002800D06D
:10DE0000E3E60123637563E76B46DD1C082301220B
:10DE10002B70237A934200D003E7237E042B00D09B
:10DE200013E7082301222B70637A934200D01CE78A
:10DE3000638BBB2B00D92CE7612B17D9022302225D
:10DE40002B7029E76B46DD1C102302222B70E4E6C1
:10DE5000FA2B11D16B46DD1C002300222B70DCE66F
:10DE6000022BE5D1002300222B70FAE6292B0BD9D7
:10DE7000032303222B700FE76A46237ED51CE1E6BD
:10DE8000102302222B70ECE6132B2DD8092B58D926
:10DE9000052305222B70FFE601AD63682A70187810
:10DEA00023680122597C2B1C0EF036FA002801D180
:10DEB0002B786374237C23212B70636801221878EC
:10DEC0002B1C0EF029FA2423994600234A46A3541A
:10DED000FEF7C4FC20230122E2544B46E35C16E724
:10DEE000FA22D200E28221E7042304222B70D3E637
:10DEF0000A2262830AE61422628307E62A226283E8
:10DF000004E66222628301E6BC226283FEE500220F
:10DF10006283FBE504220821227616E708221021FD
:10DF2000227612E70222042122760EE7FA22E2820A
:10DF3000FCE6FA225200E282F8E6FA229200E2823D
:10DF4000F4E6062306222B70A6E607234DE7C0461B
:10DF5000802208B503480449D200C823FFF7E2F93C
:10DF600008BDC046F60B000028730300F0B5404C16
:10DF700087B002AF051C03AE211C0322381C19F028
:10DF8000C9F8211D0322301C19F0C4F8211C0322FA
:10DF9000083104A819F0BEF8211C03220C3105A891
:10DFA00019F0B8F80321081C6A466C4628403B5C0F
:10DFB0001370EA080A40BB5CB25C6370AB090B40AB
:10DFC000F95CF35CA170315C01AC2170627029488E
:10DFD00003216A46A370FFF777F9002845D1264848
:10DFE0000321221CFFF770F900283ED104A9032267
:10DFF000684619F08FF8201C05A9032219F08AF849
:10E000006B0708D56A460123694612781A430A70DD
:10E01000227813432370AB0608D56A46012369466C
:10E0200052781A434A70627813436370EB0512D436
:10E0300088200321C0006A46FFF746F9002814D162
:10E040000E480321221CFFF73FF900280DD10C4B8D
:10E050001D8107B0F0BD6A460123694692781A43D4
:10E060008A70A2781343A370E2E701204042F0E7F0
:10E07000DC720300260400002A04000031040000C2
:10E080008C27002010B5144986B0041C103103A859
:10E090000C2219F03FF8C82C1AD8211CC82017F000
:10E0A0003DF8013880B201AA030A507002210B48E2
:10E0B0001370FFF709F900280AD109480C2103AAB7
:10E0C000FFF702F9002803D1064B9C8106B010BD72
:10E0D00001204042FAE7C046DC720300160200004D
:10E0E000C10A00008C270020F0B583B043076CD034
:10E0F000C823DB00994268D8041C081C18F0B8F843
:10E100004D4917F0ABFB6B46DD1C071C281CFEF7C6
:10E110002DFD2B78042B00D17DE033D9082B6AD05C
:10E12000102B52D18A21381CC90517F089FD17F030
:10E13000CBF9424986B2381C17F082FD17F0C4F9BA
:10E1400080B201AD330A2B70030A6E70AB70E870B9
:10E15000E30729D4A3073CD40020630737D5EE207A
:10E16000022140002A1CFFF7AFF800282DD16B4692
:10E170002D309A1DFF300221FFF7A6F8431E98416B
:10E18000404224E0022B20D18D21381CC90517F014
:10E1900057FD17F099F92A4986B2381C17F050FD3F
:10E1A00017F092F980B2CCE7EA20022140002A1C45
:10E1B000FFF78AF8002808D16B462530FF3002218E
:10E1C0009A1DFFF781F80028C4D00120404203B017
:10E1D000F0BDEC20022140002A1CFFF775F8002852
:10E1E000F3D16B462930FF3002219A1DFFF76CF8FE
:10E1F0000028B1D0E9E78B21381CC90517F020FDB4
:10E2000017F062F90F4986B2381C17F019FD17F0A4
:10E210005BF980B295E78C21381CC90517F010FD19
:10E2200017F052F9084986B2381C17F009FD17F0AB
:10E230004BF980B285E7C046000048430000C04467
:10E2400000004046000040450000C045F0B54E4685
:10E2500045465746E0B486B0934B03AC061C221CDF
:10E26000682004210393FFF72FF84022A3233240B4
:10E270002370904600D110E11D3363700833A37002
:10E28000063BE370C0277F00374000D100E1C42384
:10E29000237108336371063BA371A323221C8348B7
:10E2A0000A21E37123726372FFF70EF803233340F0
:10E2B00099464A46D823002A00D0B83B01217C4821
:10E2C000221C23706D46FEF7FFFF68467949B306AE
:10E2D00000D4DBE01C31092218F01CFF9720092133
:10E2E000C0002A1CFEF7F0FF002F09D0F30500D56F
:10E2F000D7E0714B039371480421221CFEF7E4FF21
:10E30000F30700D4B9E08B20F823221C012100017F
:10E310002370FEF7D9FFFA210720FFF7E5FEA420BE
:10E320003F2301212A1C40002B70FEF7CDFF002364
:10E3300050209A4601212A1CFF302B70FEF7C4FFA3
:10E340005346EF202B70142302212A1C40006B70CF
:10E35000FEF7BAFF5346ED202B70642302212A1CDE
:10E3600040006B70FEF7B0FF53462B708E23AE203B
:10E370006B706B33AB700421693B2A1C4000EB705F
:10E38000FEF7A2FF5346AD202B70082302212A1C62
:10E3900040006B70FEF798FF5346AC202B700223B1
:10E3A000400002212A1C6B70FEF78EFF02233340CF
:10E3B0005A425341D9224248D31A0121221C2370C8
:10E3C000FEF782FF730752D53E4B009304212A1CAF
:10E3D0003D48FEF779FFFEF741FAF30641D53B4B86
:10E3E000009304212A1C3A48FEF76EFFFEF736FA26
:10E3F0000823384C33436381FEF730FA4346002B41
:10E4000022D10A20434684460C3082461038A3733A
:10E410001422042310211A258046002F04D04346DD
:10E420002A1CA373514663461420304201D0131CAA
:10E43000A1734A46002A00D0A373002006B01CBC7A
:10E4400090469946A246F0BD1020062384460C3023
:10E4500082461038A3731A220433162120258046E1
:10E46000DBE7281CA3210422FDF7A2FEB9E7281C44
:10E470008B210422FDF79CFEA8E78B20D8230121E5
:10E48000221C00012370FEF71FFF8FE7283122E7CF
:10E49000A32323716371A371FFE66370A370E3701C
:10E4A000F0E60D4B039326E702CAE309A70A000032
:10E4B000B60A0000DC720300B080B490A20A00002B
:10E4C0003D070000C0C2C4C6980A000020283038AA
:10E4D0009E0A00008C270020B28BB69BF0B55F46E9
:10E4E000444656464D469B460023F0B493B0141C58
:10E4F0001C9A071C1380984B8846987B0AA91D9A82
:10E50000FEF74EFE061E00D01DE11422924B5B89E1
:10E510001A4200D087E002250022AC46013D0624C5
:10E5200004210320A946924602920C320992013A34
:10E530000892013A0792013A0692013A0592013A8D
:10E540000492013A0392013A01925D0630D5524697
:10E550000AADAA5C0294120292462A1C4D46525DF4
:10E56000554615434246158065460AAA525D099CE8
:10E57000120294460AAA105C62461043424650803A
:10E5800001980AAA515C125C09021143424691802B
:10E590001C9A0698118808220A431C990A80089A36
:10E5A00007990192059A9446049A9146039A9246D5
:10E5B000C0256D002B4222D055460AAA525D4D4619
:10E5C000120290460AAA525D454615433D806546B3
:10E5D0000AAA525D0294120294460AAA105C62468C
:10E5E000104378800AAA0198515C125C09020A4320
:10E5F000BA801C9A118870220A431C990A809B07D2
:10E6000000D081E0554C201C15F044FC5A4623688C
:10E610005B0923601360301C13B03CBC90469946E4
:10E62000A246AB46F0BD0AAA107852780006120442
:10E6300010430AAAD178927808431202104320604E
:10E640000AAA8446107952790006120410430AAAD5
:10E65000D179927908431202104360600AAA117AB4
:10E66000527A0906120411430AAAD27A00141143FD
:10E670000AAA927A404312021143A1600AAA127BAD
:10E6800009141206924655460AAA527B49431204BF
:10E690002A430AADED7B15430AAA927B12022A4354
:10E6A000E260644624146443121452432018411853
:10E6B0008A18F12109068C468021624489048A4225
:10E6C00044D880211C9A4900128816240A431C99B8
:10E6D00013200A80102202920C320992013A089209
:10E6E000013A0792013A0692013A0592013A0492E0
:10E6F000013A0392013A0192033A9446013A914653
:10E70000013A1421924620E70AAA9446029B6344E8
:10E710001C1CDF785B78DA070AD50F4A1268002ADA
:10E7200006D00721B8063940400F01319047637881
:10E730001B0700D466E7084B5B68002B00D161E73C
:10E74000B80998475EE70126764264E7FEF786F847
:10E750001C9B1E80023E5EE78C2700209C27002029
:10E76000F0B544465F4656464D46F0B4774B83B00D
:10E7700098461B78041C8A46171C002B20D1414662
:10E78000022240460A614A61714A83628A61826458
:10E790007049714AC161C264802110224362C36220
:10E7A000026583654365C36501626C49073018F0F3
:10E7B000C7FC40466A4918F0C3FC202342469371C7
:10E7C000EFF3108B012181F3108865002E19F600FC
:10E7D000331C4344DA6A012A67D0002A3DD0022A5A
:10E7E0002FD1002201345D6A1E1C63001C19E30056
:10E7F000914601931DE0013C336A641BBC4200D981
:10E800003C1C5B1B9C4200D91C1C019B5146434491
:10E810005868221C401918F07DFC336A2D19EB1A38
:10E820005A1E93415B421D40A144A2443F1B7562A6
:10E8300009D0B46AAC42DED8336AE418013C641BE8
:10E84000DCE7002399468BF31088484603B03CBCB4
:10E8500090469946A246AB46F0BD9A6A5E6AB242BD
:10E8600051D9013A921B002399469742EBD82D19B2
:10E87000ED0045442B6A01349B1B994663001C192B
:10E88000E4004F4555D3444463684A4698195146BD
:10E8900018F040FC4B465146FE1A49446068321C51
:10E8A00018F038FCB9466E62CDE79A6A5E6AB242E9
:10E8B00024D9013A196A921B9146BA4200D9B94645
:10E8C0008B1B1A1C994523D3631C5F00FB18DB00CC
:10E8D00043441F1C5B6851469819161C18F01AFC1B
:10E8E0004A46331C2C19961B5344E4007868191CC3
:10E8F000321C444418F00EFC6662A4E7196A5218F0
:10E90000013A921BD8E71B6AD218013A921BAAE778
:10E91000631C5A00D318DB00434458682C19E400E8
:10E92000801951464A4644444E4418F0F3FB66624F
:10E9300089E7231C43445868514680193A1CBE1984
:10E9400018F0E8FBB9466E627DE7C046A8370020A4
:10E95000207F0300C03E0020403F00202C7F0300AA
:10E96000307F0300F0B544465F464D465646F0B44E
:10E97000041C83B0081C894618F0EAFB754B071C81
:10E9800098461B78002B20D14146022240460A615E
:10E990004A61714A83628A6182647049704AC161C6
:10E9A000C264802110224362C362026583654365AD
:10E9B000C36501626B49073018F0C2FB40466A49E3
:10E9C00018F0BEFB202342469371EFF3108B012118
:10E9D00081F3108865002E19F600331C4344DA6A6F
:10E9E000012A67D0002A3DD0022A2FD1002201340B
:10E9F0005D6A1E1C63001C19E300924601931DE032
:10EA0000013C336A641BBC4200D93C1C5B1B9C422A
:10EA100000D91C1C019B494643445868221C4019DC
:10EA200018F078FB336A2D19EB1A5A1E93415B429A
:10EA30001D40A244A1443F1B756209D0B46AAC4298
:10EA4000DED8336AE418013C641BDCE700239A46F5
:10EA50008BF31088504603B03CBC90469946A246C2
:10EA6000AB46F0BD9A6A5E6AB24251D9013A921B36
:10EA700000239A469742EBD82D19ED0045442B6AA6
:10EA800001349B1B9A4663001C19E400574555D37B
:10EA90004444636852469819494618F03BFB534674
:10EAA0004946FE1A51446068321C18F033FBBA46DE
:10EAB0006E62CDE79A6A5E6AB24224D9013A196A57
:10EAC000921B9246BA4200D9BA468B1B1A1C9A4531
:10EAD00023D3631C5F00FB18DB0043441F1C5B68EF
:10EAE00049469819161C18F015FB5246331C2C1970
:10EAF000961B4B44E4007868191C321C444418F0FF
:10EB000009FB6662A4E7196A5218013A921BD8E71A
:10EB10001B6AD218013A921BAAE7631C5A00D31849
:10EB2000DB00434458682C19E400801949465246DA
:10EB30004444564418F0EEFA666289E7231C4344C5
:10EB40005868494680193A1CBE1918F0E3FABA46CB
:10EB50006E627DE7A8370020207F0300C03E0020C2
:10EB6000403F00202C7F0300307F0300022310B5BC
:10EB70000F4C104A236163610F4BA261E361802354
:10EB8000A2640E4A2362E26400231022A36263623D
:10EB9000E362A3656365E3652265E01D084918F03B
:10EBA000CFFA201C074918F0CBFA2023A37110BD1F
:10EBB000A8370020207F0300C03E0020403F0020F7
:10EBC0002C7F0300307F0300F0B55F464D4656466C
:10EBD0004446F0B483B01D1C0C9B061C8946171CD0
:10EBE0009B46914200D2DBE0081C0124391C16F040
:10EBF00005FA01348742F9D90094AC4200D200955D
:10EC000001230D9A1A40019203D15B46002B00D0DC
:10EC10008CE0F3689A46002B7BDBB36898464B4642
:10EC20000124B1461E1C012D03D9013D7C43012D59
:10EC3000FBD8301C211C16F0E1F98742F6D9331CB1
:10EC40004E4699463B1C5D4D474698460AE0534662
:10EC5000002B00DA9BE0201C414616F0CFF9041E81
:10EC600000D194E04846211C16F0C8F9231C4A46FE
:10EC70004343D31A994673687A1C295C9A420BD88D
:10EC80003368D955F368171C9A4601239C46E24421
:10EC90005346F3607368B2609F42D8D13A1C306922
:10ECA0003168FFF75DFDB768B84239D00123B84637
:10ECB0005B42F360019B002B2BD05B46002B28D0DE
:10ECC000009B202400259B4523D942465F46984659
:10ECD00006E0F368002B1CDB002F1AD0474518D93B
:10ECE0007368511C013F994207D833689C540A1C31
:10ECF000F368B1600133F36073689A42E9D1306917
:10ED00003168FFF72DFDB368984242D001235B4282
:10ED1000F36003B03CBC90469946A246AB46F0BDBA
:10ED20000023B360F36800279A4690E70D9B2024E8
:10ED30009B0731D4009B9B4500D86AE75A46AA46F8
:10ED4000BB46B368271C009D0C92141C06E0F268B9
:10ED5000002ADEDB002C25D0AC4229D97268591C70
:10ED6000013C914207D83268D754F3687268013386
:10ED7000F3600B1CB1609A42E9D130693168FFF74A
:10ED8000EFFCB3689842C1D10023B360DFE7B84617
:10ED900090E7B56000229CE7002DCBD11034C9E785
:10EDA000012429E75F4655469846A346924636E732
:10EDB0005F465546A34692462FE7C046387F03007C
:10EDC000F0B5564644465F464D46F0B49DB00CAB98
:10EDD00007934023089300239B4609930A93043327
:10EDE000924698460C1C5E4604900B9023780134A2
:10EDF000002B00D18CE0252B5CD1221C137800273E
:10EE000002200821141C2B2B0BD02B2B0DD92D2BC2
:10EE10004CD0302B0ED1074301321378141C2B2B0E
:10EE2000F3D1434601321F43F7E7232B02D10F43AF
:10EE30000132F2E71A1C303A0025092A00D9BAE05B
:10EE4000AA00551901346D00ED182378303D1A1CC5
:10EE5000303A092AF4D9002291462E2B02D180E0C3
:10EE6000013423781A1C41468A43682AF8D0642B5F
:10EE700000D1F6E055D9732B00D1B0E000D886E080
:10EE8000752B00D099E0534651461B6807A81A1D00
:10EE90000A6019680A22009501974B46FFF794FE15
:10EEA0000A9E0134002EA1DAB34622E0012301328A
:10EEB0001F43B2E70999089A481C904221D8079A43
:10EEC00053540A9B089A5E1C099002930A9690423A
:10EED000E8D10B9B0293079B0298191C0393FFF741
:10EEE0003FFC099B0293984200D14BE101235B4216
:10EEF0009B4658461DB03CBC90469946A246AB4640
:10EF0000F0BD8A42E5D023780134002B00D072E7AF
:10EF1000B346002EEDDD099A002A00D036E1934475
:10EF2000E7E7582B4CD0632B00D18AE0252BB8D1D2
:10EF300009980899421C8A4200D81AE1021C8A42A8
:10EF4000AFD10B9B0293079B0298191C0393FFF709
:10EF500007FC099B029398426FD100230A9E0993F4
:10EF60009FE76378611C1A1C303A0C1C092A00D9EF
:10EF700078E74A4691008A1801345200D218237863
:10EF8000303A191C30390929F4D991466AE7702BB7
:10EF900000D086E7534651461B6807A81A1D0A6031
:10EFA0001968082300930023102201930833FFF708
:10EFB0000BFE0A9E75E700254DE7782B00D070E721
:10EFC000534651461B6807A81A1D0A60196810228B
:10EFD000009501974B46FFF7F7FD0A9E61E7534600
:10EFE00051461B681A1D0A601D680CE00798C15441
:10EFF0000A9B09925E1C089B0A9602939A420FD0C4
:10F00000002E00DA4DE729780135002900D148E7C4
:10F01000099B08985A1C8242E8D98342F3D11A1CF2
:10F020000B9B0293079B0298191C0393FFF798FB15
:10F03000099B0293984200D183E0012676420A960A
:10F040002FE7534651461B681A1D0A600999186834
:10F05000089B4A1C9A427CD90A1C9A4200D020E79D
:10F060006FE7534651461B681A1D0A601B68DA1782
:10F0700098180293012350409B4609280ADDA346B5
:10F080001C1C0A2116F04AF801340928F9DC231C5B
:10F090005C469B46CB4558D3002D06D0029B002BE7
:10F0A00002DB43463B4200D0013DBB075AD401235B
:10F0B0003B4232D1002D30D05D452ED9301C099A0B
:10F0C0005E4606E0002800DAD5E0002D23D0B542E8
:10F0D00021D9089B511C013D994209D82020079B4A
:10F0E00098540A1C0A9B0991581C0393089B0A9088
:10F0F0009A42E7D10B9B0393079B0398191C059336
:10F10000FFF72EFB099B0393984296D100230A98A0
:10F1100009930022D6E7B346061C029B002B3EDB78
:10F1200043463B4259D103233B40022B6ED000950E
:10F13000019707A802990A224B46FFF745FD0A9E50
:10F14000AFE600230A9E09935AE7CB46002DACD0C8
:10F15000A4E7079B58540A9B09925E1C02930A96E7
:10F16000089B7AE74B46002BD7D001233B42D4D1F2
:10F17000A0E707990B540A9B09925E1C02930A961A
:10F180000899DCE600230A9E09938BE604980CA9F3
:10F19000FFF7E6FA0A9B099A9B469344A9E65B426D
:10F1A0000293099B089A591C914203D8079A03922B
:10F1B0002D221AE09342B6D10B9B0393079B039831
:10F1C000191C0593FFF7CCFA099B0393984200D0D2
:10F1D00033E700230A9E099311E0099B089A591C02
:10F1E0009142E7D8079A03922B220398C2540A9BB4
:10F1F000089A5E1C099103930A969142DCD0002E76
:10F2000000DA4EE603233B40022B90D14B46002B05
:10F210008DD1002D2DD0AB4589D2099A06E0002E64
:10F2200000DA3EE6002D24D05D4580D9089B511CB4
:10F23000013D994209D83020079B98540A1C0A9B2B
:10F2400009915E1C0393089B0A969A42E7D10B9B97
:10F250000393079B0398191C0593FFF781FA099BF9
:10F260000393984200D0E8E600230A9E0993002207
:10F27000D5E700255BE7061C13E6C0460EB400B5D3
:10F2800082B003AB02CB01AA0193FFF799FD02B054
:10F2900008BC03B01847C04690DF704792DF704744
:10F2A00093DF7047F0B54746342280B4835C2B4D22
:10F2B0000133DBB283542A7882B09A4206D8002206
:10F2C0003323C25402B004BC9046F0BD0027312362
:10F2D0003226C754835D041C0133835500212E223E
:10F2E000FCF766FF1E4BA15D9846C900414404220D
:10F2F000201C17F00FFF2771E08D0121221CFFF762
:10F30000CBFF0028DED03323E7542B78002BD9D055
:10F310004146A2788978914219D0012BD2D0434638
:10F320009B7A9342CED143461A8923889A42C9D107
:10F330000123DB0043445A68002AC3D06946E38DA9
:10F3400001904B80012368460B709047BAE7414615
:10F350000D8821888D42E0D10023EAE7B127002003
:10F36000A02700200022034B00201A70024B01321C
:10F370001A707047B1270020B0270020F8B5002888
:10F3800008D0002906D00F4B1A780823002A03D191
:10F39000181CF8BD0E23FBE70B4E023B3578022DFF
:10F3A000F6D0023B012DF3D80C1C084FEB00FF18E0
:10F3B000011C0422381C013517F0ACFE7C6035704E
:10F3C0000023E5E7B0270020B1270020A027002078
:10F3D000F8B5041C0D1C002827D0154B08201B78FD
:10F3E000002B00D1F8BD134B1B78002BFAD033272C
:10F3F000E65D0930002EF5D100213622201CFCF7F5
:10F40000D7FE3423E585E654023B0B490422E6543B
:10F41000201C17F07FFE281C0121221CFFF73CFF57
:10F420000028DFD10123E355DCE70E20DAE7C046F0
:10F43000B0270020B1270020A0270020F0B55746B4
:10F440004E464546E0B482B000286ED000296CD00C
:10F45000B34B1B78002B68D00B88103B9BB2232B3F
:10F4600063D8B04A9B00D3580D1C041C9F46002350
:10F470005900CB185B00E91853009A189200C9890B
:10F48000A31899823123E25C217901328A4200D1AA
:10F4900054E13123D2B2E25453009B189B00E3188D
:10F4A000501C0A33814200D144E14D1E3126914265
:10F4B00000D843E1AA4200D153E101321889530038
:10F4C0009B189B00E7183F8A0130B84200D17FE1CA
:10F4D0006D46013F28806F80E08D291CFFF7E0FE1C
:10F4E000002822D000223323E2548F4B1A78002ABE
:10F4F0001BD08E4EA378B178994200D1E6E1012A63
:10F5000013D0B27A9A4210D1328923889A420CD110
:10F510000123DB00F6187268002A06D0E38D6860CC
:10F520006B800123281C2B70904702B01CBC9046B6
:10F530009946A246F0BD3123C25CCB88002BA3D1F3
:10F540008F89002FA0D07A4E0B8AB34200D18EE76C
:10F550001631002305E00631881F0088B04200D133
:10F5600086E70133BB42F6D38EE7CB88002B6AD007
:10F57000077900223123251CE2540A35012F00D1DE
:10F58000B2E1002F00D101E13123201C00219C4673
:10F590007E1E16302B89B14200D1EBE0C2880133C8
:10F5A000051C934200D1E9E06D46013A2B806A8048
:10F5B00092E78A88C38D9A42B7D100213622FCF7A0
:10F5C000F7FD01235B42E385AFE78B88C385ACE79A
:10F5D000CB88002B1BD0544D2A78002A0BD0534ED9
:10F5E0008378B178994200D167E1012A03D0B17ADA
:10F5F000994200D14CE13421635C0133DBB26354A6
:10F60000934200D2FDE000223323E2548DE70E3115
:10F61000042217F07FFD291CA01D1231042217F0CF
:10F6200079FD3123E35C002B00D0E0E0E3886D46F8
:10F630002B80238969466B80E08DFFF72FFE002821
:10F6400000D172E74EE703790F7BDF19032F00DD4E
:10F65000C9E0FFB2B8462771984500D834E15E0092
:10F66000F3189B00E61843465B0043449B00994611
:10F6700000239A460E35A144301C291C0A300A2268
:10F6800017F048FD53460C3633810A354E45F3D109
:10F690004346013B5900CB189B00E31822895B8A43
:10F6A000934200D365E7032F00D162E73123E7548B
:10F6B000002F00D01EE1E3886D462B806A80E08D2C
:10F6C0006946FFF7EBFD002800D12EE70022332327
:10F6D000E254154B1A78002A00D126E7134EA3787E
:10F6E000B178994200D11CE1012A00D11DE7B27A1C
:10F6F0009A4200D019E7328923889A4200D014E751
:10F700000123DB00F6187368002B00D10DE7E28DB2
:10F7100068606A800122281C2A70984705E7C04665
:10F72000B0270020487F0300B1270020A027002039
:10F73000022900001B892289934216D17C4B1B7839
:10F74000002B0AD07B4EA278B178914200D1C4E060
:10F75000012B02D0B37A934227D0201CFFF7A2FDE1
:10F76000E3E61B89228993423AD06D4601332B8010
:10F770006A80B1E622899342F7D1002563460131C0
:10F78000E154CBB20C30BB4200D203E7684B19788E
:10F790000029E2D0674EA378B2789A4200D1B3E054
:10F7A0000129DAD0B27A9A42D7D1328923889A4293
:10F7B000D3D10123DB00F6187268002ACDD0694648
:10F7C000E38D68464B8000230B7001949047C4E79B
:10F7D000E3180A33D2B2A255914200D96AE6ADE7E6
:10F7E00000236A1CF6E703220327904633E7013B18
:10F7F000DBB25A00D3189B00E3185B8A01339BB23B
:10F8000015E700239846424632273133E254E35D40
:10F8100000210133E3552E22201CFCF7C9FCE15DD9
:10F82000444EC90071180422201C17F073FC434693
:10F83000E08D23710121221CFFF72EFD002800D14D
:10F8400073E642463323E2542A78002A00D16CE65C
:10F85000A378B17899425ED0012A00D165E6B27AE8
:10F860009A4200D061E6328923889A4200D05CE651
:10F870000123DB00F6187368002B00D155E66946BA
:10F88000E28D01904A80012268460A7098474CE652
:10F8900031892388994200D0ADE60123DB00F618B8
:10F8A0007168002900D1A6E66A46E38D6846538058
:10F8B0000223137088472A789DE630882188884281
:10F8C00000D092E60023E9E79846E1E637882188F0
:10F8D0008F4200D013E600231BE63088218888423F
:10F8E00000D035E7002365E7638A2289934200D080
:10F8F0003BE74BE7013FFFB27B00DF19BF00E31995
:10F900005B8A01339BB2D7E630882288904200D0D0
:10F9100046E700234EE7358821888D429CD100239D
:10F92000A7E7378821888F4200D0DDE60023E8E68C
:10F93000B1270020A0270020F0B5254B82899A42EC
:10F940003AD0244F0389BA889A423FD00121BA8A1B
:10F9500000258C469A4235D01F4E2B018021FA5843
:10F96000C900131C54181269103301321BD00168EE
:10F9700008E05A88033292009B18A34213D21A68F7
:10F98000013210D09A688A42F3D11A88002AF0D046
:10F990009A88B242EDD04360104B8381104B1B8894
:10F9A00043810020F0BD6346002B03D00135ADB28A
:10F9B000032DD2D10520F5E7094B42891B889A42D5
:10F9C000BFD1EEE7013500239C46C5E70025FAE7E5
:10F9D0001EF1000030280020FFFF00001EF1FFFF95
:10F9E00066280020033083B230B50920FB2B00D9F4
:10F9F00030BD134C227B1207120F022A0ED0227F39
:10FA000004201207120F022AF2D1E28A258BAA18CB
:10FA10009A1892B2FF2AEBD8012207E0E2882089E7
:10FA200082189A1892B2FF2AE9D800221201A4186B
:10FA3000A28800200A8022899B189BB22381D7E7E5
:10FA400030280020F8B54F464646C0B4554B8A884A
:10FA50009C88944200D19EE09C8A0025944200D16B
:10FA60009DE000280ED10C1C2B68E9889C46237869
:10FA7000890061441B09072B00D988E04A4A9B0092
:10FA8000D3589F46EA884B88D3189BB2EB802B89CA
:10FA90004A889B1A9BB22B810CBC90469946F8BDB4
:10FAA000EA8863884148D3189BB2EB802B8962882F
:10FAB0009B1A9BB22B81EFE7221C012308323C48A2
:10FAC00013F07EFB0F212378021C0B4020210B43F7
:10FAD00023700020002ADFD0E9886388101CCB182F
:10FAE0009BB2EB802B8961885B1A9BB22B81D3E799
:10FAF000221C0831103201232D4813F061FB0F2125
:10FB00002378021C0B4030210B432370E1E7412096
:10FB10006378013B6370274B1A5CD2B2002A38D05D
:10FB20004027DA5D9146DA5D01329046072246466B
:10FB30001640DE551A5C013AD2B21A5462881C484B
:10FB4000920089184A46D600F2589E19B38813F0DD
:10FB500037FBB1886388021CCB1863806378002B65
:10FB6000B7D10F2123780B4040210B432370B0E71E
:10FB7000221C04310C3201230D4813F021FB0F210C
:10FB80002378021C0B4070210B432370A1E7032252
:10FB9000A2E71368FFDE00252D015D1961E701353D
:10FBA000FAE7C04630280020D87F03003412000056
:10FBB0007C270020B4270020F0B544465F46564617
:10FBC0004D46F0B4037885B0041C1B09062B21D0E8
:10FBD000072B1DD0052B07D00B2005B03CBC904651
:10FBE0009946A246AB46F0BD6A46838813810369F5
:10FBF00068460093FFF7A0FE031C0520002B00D1F0
:10FC000095E00F2223781340702213432370E4E71A
:10FC10005C48E2E75C4B5D481B789B072DD40F22C4
:10FC20002378A025134070221343237000210C2257
:10FC3000FCF7BEFA564C1422635D00219800C018F0
:10FC40008300E018FCF7B4FAA123E25C002A08D094
:10FC50000721625D01320A406255E25C013AD2B28C
:10FC6000E254A123E35C002BD2D10422464B454849
:10FC70001B789343444A1370AFE7464B42689A425D
:10FC800064D0444B4360002303810360424FBA8831
:10FC90009246BA8A934600229046404A914605E031
:10FCA00001339AB202810123022A61D0534562D006
:10FCB0005A46D21A554255412A01B918097B0907FB
:10FCC000090F0229ECD10168BE58002955D08025C2
:10FCD000ED00AC466644B14235D20D68013532D0F4
:10FCE0009C4609E04D880335AD0049190160B142D9
:10FCF00028D20B68013325D00D88002DF2D08D88D5
:10FD00004D45EFD0A389AB42ECD1BA1893886A462F
:10FD100013818B6822480093224B01919381224BDF
:10FD20001B885381214A012313F04AFA55E70199B0
:10FD30001E4A0B881A4823818B88A381012313F064
:10FD40003FFA5EE7634642460260A9E7144B026849
:10FD500099688A4295D3DB689A4292D8930790D1EA
:10FD6000518803890331890052180260012B8DD913
:10FD70000023436053E700259EE7311C10310160EA
:10FD8000A5E7C046341200002C280020F8270020E8
:10FD9000682800201AE1AB1530280020FFFF000082
:10FDA0007C2700201EF1FFFF66280020C080030092
:10FDB00070B5294E72683388002A46D05488274D82
:10FDC0000334A4001B011419EA588023DB009C466D
:10FDD0006244A2422ED9236801332BD020492388C4
:10FDE000002B1ED0A3888B421BD004233372738850
:10FDF00074601B01EA18D188EB5889005918638890
:10FE0000221C03339BB2174813F0DAF900207288E2
:10FE100063881201AA18D188CB1803339BB2D38010
:10FE200070BD638803339B00E418A24202D92368A3
:10FE30000133D4D10523337273880B4A1B01E9586F
:10FE40000848042313F0BCF9EAE7044D1B01EA5803
:10FE5000141C1034B9E7C046502800203028002078
:10FE6000FFFF00007C270020D4800300F0B5474648
:10FE700080B44D4A137A072B00D982E04B499B008E
:10FE8000CB589F46FFF794FF04BC9046F0BD00237B
:10FE9000517A5360002904D04548418953720029A2
:10FEA00071D0937A002B05D000214148438B917289
:10FEB000002B76D00123137200233E481380E3E722
:10FEC00006230F241372538839481B01C318197B6A
:10FED000A446A14302242143197311889D888846B2
:10FEE0000E0181198C889C800C898D80A4B21C81A4
:10FEF0004346538062460B7B9343032213430B73A9
:10FF000004238022CB80002352000B8131582A48E1
:10FF100013F086F9B8E7072313725388244A1B01AC
:10FF200099582548254A042313F04AF9ACE7244997
:10FF30001F480B8801330B80037B1B071B0F023B01
:10FF400059424B41017FDBB20907090F02394C428C
:10FF50006141C9B253729172002B04D000244389CD
:10FF60005472002B0FD0002904D00021438B9172D2
:10FF7000002B16D00123137200230E481380536008
:10FF800082E7032080E700230021118003211B0169
:10FF90001172C1580B4A0C310123074813F010F9B4
:10FFA00072E701330131F0E750280020F87F0300A9
:10FFB00030280020341200007C270020C480030079
:10FFC00066280020E4800300B94BF0B5444698460B
:10FFD0004D4656465F46A023894641464046F0B40A
:10FFE000CC5C83B0E4B2A5002B199B00C65CC91899
:10FFF0003607360F062E00D97EE0AE48B300C35850
:020000022000DC
:100000009F464B460626002B00D178E02B199B001B
:10001000A948434419899A89814500D1A0E05B78B9
:10002000A64F9C4641239A46FB5C634506D3534644
:100030006046FB5C1B1A5046DBB23B542C19A400F3
:10004000444423699E4C9B4628239A4601AF39803D
:100050007A80A2442568002D04D04846311C5A46B7
:100060003B68A84704345445F4D1A02443461B5DA3
:1000700014229800C01883004344181C0021FCF788
:1000800097F8A12243469B5C002B0AD043460721E8
:100090001B5D01330B4041460B558B5C013BDBB2D2
:1000A0008B54A1234246D35C002B03D0854B1B7895
:1000B000002B69D00421844A13788B43137014E019
:1000C0004B46002BA2D1081CFFF776FD814608E0C5
:1000D0004B46002B17D0012698E74846FFF7B2FCA5
:1000E00081464B46002B00D0DBE003B03CBC904681
:1000F0009946A246AB46F0BD0323994686E7FFF733
:10010000B5FE8146EDE7714F002A79D03B68D21ADF
:10011000920A93B25A1C92B29146022A00D19BE0F5
:10012000012A10D8111C1201BA18127B1207120FE3
:10013000012A6DD0664A934205D13B7F1B071B0FF6
:10014000012B00D1A6E0634B1B78002BCDD042469B
:100150002B199B00D65C584B3607360F994655E74E
:100160001B69574C9946271C6B46283719805A80C3
:100170002568002D04D00020311C4A46009BA8476A
:100180000434BC42F4D170E7A033D35C9A00D31896
:1001900042469B00D118D35C1B071B0F062BA4D82B
:1001A0004D489A0082589746081CFFF705FD9CE7CA
:1001B0000020FFF747FC98E7444F3A7B1207120FE5
:1001C000012A6BD03A7F01261207120F012A00D0B4
:1001D0008BE7404D1C012A7840483959002A48D005
:1001E0003F4A042312F0ECFF0F213B191A7B8A438C
:1001F000111C02220A431A7377E7FFF737FE74E7F0
:100200003B7B1B071B0F012B97D100230021994635
:10021000304D0C012B7831483959002B0BD0304A26
:10022000042312F0CDFF0F223C19237B93430222BB
:100230001343237359E72B4A042312F0C1FF0F2203
:100240003F193B7B9343032213433B7301234A46ED
:100250002B70254B5A8048E702221B4B0126197848
:100260000A4301211A701A788A431A70124B994670
:10027000CCE61C4A042312F0A3FF0F213B191A7B82
:100280008A43111C03220A431A7301232B70164B55
:100290005E802AE70123311C9946B9E70023002636
:1002A00097E7142342466343D65C3607360FADE624
:1002B000682800201880030034120000B4270020B2
:1002C000042800205C2800202C2800203028002052
:1002D000FFFF000064280020348003007C270020FA
:1002E000D4800300C480030050280020F8B5334BAD
:1002F0001A78520728D4042219780A43D2B21A7005
:10030000A0232F4AD35C9900CB189B00D118D35C53
:100310001B071B0F062B3BD82A489A00825897468A
:1003200000230027284D2A78002A33D01D01715957
:10033000264A0423264812F043FF0F2275192B7B0F
:100340009343022213432B730020F8BD214E327BCE
:100350001207120F012AE3D0327F01271207120F72
:10036000012ADFD0184B1B78002BEDD01A4803E090
:10037000FFF77CFD0028E7D0174B9842E5D1E3E773
:10038000081CFFF719FCF5E70020FFF75BFBF1E71E
:100390000F20F1E71C013159104A04230C4812F0D8
:1003A0000FFF0F2133191A7B8A4303210A431A7363
:1003B00001232B700A4B5F80C6E7C0462C28002023
:1003C000682800205080030064280020D4800300A7
:1003D0007C2700203028002034120000C480030055
:1003E00050280020F0B544465F4656464D46F0B4CE
:1003F000AE4C8BB023789B071AD5AD4C0023261C3E
:1004000008AA1380013B538028362568002D04D0AC
:10041000002001210022089BA8470434B442F4D1F3
:1004200000200BB03CBC90469946A246AB46F0BDBE
:1004300023780820DB07F4D412F074FE051EF0D1F7
:100440000021A4229B48FBF7B3FE002144229A48D6
:10045000FBF7AEFE002299499346081C984B019287
:100460001D609A46974B05921B7807920693964B10
:1004700002929B6895B204262F1C120104958D18D8
:100480000360EE802E1C87800027083677800027C7
:100490002F811F680396BC469F68B846DF68B9463F
:1004A0005F683E1E894FBE4226D00F278D182E7BD7
:1004B000BE432E738025ED005D1903E004339D4299
:1004C00000D1D6E01E680136F8D0019A2B1C1030FE
:1004D000012A0ED153465A461A606A46794B127E5B
:1004E0001A70029B002B2BD1059B002B51D10420AD
:1004F00097E701220192BDE7754FB845D5D1754FF9
:10050000B94577D0744DA945CFD1744DAC4502D0D3
:10051000734DAC45C9D10F268A18157BB5432E1CE7
:100520000425354315736D466E4A2D8A15800322C6
:100530006C4D2A72023A07928022D2009D18C4E7BD
:100540000123227813432370079B002B00D067E719
:10055000059B002B25D10223227809AE134323707B
:100560002378019A934323706B469B8A504C3380C7
:100570000123271C5B42738028372568002D04D097
:100580000020012100223368A8470434BC42F4D182
:1005900046E70123227813432370079B002B00D0EA
:1005A0003EE7A121434B11205B5C072B00DD38E7C0
:1005B0004123414AD35C082B00DD32E7A0223D4BAA
:1005C0003C485B5C805CC0183A4B5A5C0132D2B24A
:1005D0005A54072303409A00D318364A9B009A5C6A
:1005E00092398A43111C01220A4332495A54FFF7B7
:1005F0007DFE16E7394FBC4545D0394FBC4500D08C
:1006000053E7039E37790F26B743BC460227664659
:100610003743039E37710427EF8080251E1CED00B1
:1006200010365D19AE421FD21B69DC4601331BD068
:10063000131C80466246D9469C46B368934201D952
:1006400099461A1C63467088C71CBF00F619CF185C
:10065000FB88C31803339BB2FB80AE4202D23368DF
:100660000133EAD14046CB46029B01339BB2029351
:100670002BE70F268A18137BB3430E3E33431373C5
:100680000123059321E70F25039E3279AA43151C08
:1006900003222A436D4632712D8A124A5580012267
:1006A00006928022D2009D180FE7C0462C28002019
:1006B0000428002068280020B427002030280020CB
:1006C00060280020642800207C270020DDCCBBAA05
:1006D000DD01BBAADA00EB1CD800EB1CA5A5A5A583
:1006E000A4A4A4A450280020F8B5031E0CD000290F
:1006F0000AD0174E0289B088904207D0B48A0B20E6
:100700000127944203D0F8BD0E20FCE70027181CF7
:100710000D1C1C1CFFF710F9002801D00520F2E782
:1007200063681A88002AF9D09A880A4B9A420DD039
:100730003F01F619738901339BB273812B1C6268E8
:10074000C2CAC2C363680C33EB60DCE70530DAE78A
:1007500030280020FFFF0000002809D00B4B028941
:100760009988914206D0998A0B2091420BD070470C
:100770000E20FCE7002212019B185A890020013A42
:1007800092B25A81F3E70122F5E7C04630280020F3
:1007900070B51B4B1A780823920701D4181C70BD42
:1007A00006330028FAD0CA1C92B20A3BFB2AF5D8BD
:1007B000144D2B7B1B071B0F022B0ED02C7F042309
:1007C0002407240F022CE9D1EC8A2E8B341914193A
:1007D000A4B2FF2CE2D8033B07E0EB882C89E31896
:1007E000D3189BB2FF2BE9D800231B01ED182B89EE
:1007F000AC88D21892B22A81002304804180CDE7D0
:100800002C2800203028002010B5134B1A7808231C
:10081000920701D4181C10BD002818D00F4A018877
:1008200093888B4215D0948A0B238C42F2D10A3BD9
:100830001B01D218148941880B23641AEAD4138946
:100840005B1A9BB21381002303804380E2E70E23EF
:10085000E0E70023ECE7C0462C28002030280020E9
:10086000F0B54D4644465F465646F0B4764C87B0E8
:1008700003911D1C23788146013303A8DBB223704A
:10088000438806889846714B171C1B7808209B07E5
:100890000AD42378013BDBB2237007B03CBC9046FE
:1008A0009946A246AB46F0BD0330002EF1D0684B0E
:1008B0009845EED0002A13D02B689B0700D09BE010
:1008C0002B1C511EC9B20131C90008336918083800
:1008D00004E01A680833024200D08DE08B42F8D160
:1008E000A1235C4A1120D25C072AD2DC4122924625
:1008F0005146594A525C94460822D21B9445C8DCA2
:10090000A0205449534AD25C085C8018072210404A
:100910000190C85C0130C0B2C854002F00D190E0F3
:10092000514640204C4B5B5C4B498B46085CC318DE
:100930001A40D200934452468B5C0A1C5146FB1865
:10094000DBB253540022791EC9B2C9000C312B1DF1
:10095000691818880833121892B28B42F9D192465E
:1009600002AA0E23944663445046191CFFF73AF836
:10097000002857D1019A944693000293354A634464
:100980009B00D15C0F229446914302220A436146A8
:100990000A4010210A432F498C46CA54032263445B
:1009A0005A8002AAD2892D499A8094460A685F70BB
:1009B00001321A610A601E811A1C53465381434654
:1009C000D0819381002F19D023487A1E011CD2B206
:1009D0000132D200AA1838315B4603E0331C0835D7
:1009E00095420BD02E681E60AE889E801E1C083675
:1009F0008B42F3D1031CF2E710204AE74B46002B51
:100A00000DD062464B461A81019A029B9446114AC8
:100A1000634494464A469B0063441B691360FFF796
:100A200065FC36E7A1220B4B0A499B5C013BDBB21C
:100A30008B54094B603A9B5CDF1B074BFFB29F5402
:100A400027E7BB46BA468BE75C2800202C2800200D
:100A5000FFFF000068280020B42700206028002045
:100A6000F0B54D465F4656464446F0B4854C87B0D7
:100A700003921D1C237889460133DBB22370824B1D
:100A800003A91B780E884F8808229B070BD4101CE3
:100A90002378013BDBB2237007B03CBC90469946FB
:100AA000A246AB46F0BD0332002EF0D0774B9F42FA
:100AB000EDD0002D1BD0109B1B6801939B0700D02D
:100AC00098E0109A691E94460322C9B2109B013126
:100AD000C900614408339446804605E060461A68C0
:100AE0000833024200D085E08B42F7D14046684B84
:100AF0009A46A1235246D15C9B4611220729C6DCA7
:100B000041218C4663466349CB5C0821491B8B42DB
:100B1000BDDC53465A46A0219A5C595C07238918CC
:100B200019405A4653460191995C0131C9B2995412
:100B3000002D00D1A0E06146564B07225B5C0139D5
:100B40009846544B595C0B1C43441A40514BD200FD
:100B500098469044624661469B5C4E4AEB18DBB275
:100B6000535400285AD0438802AA9B4694460E2329
:100B7000008863441880019A944693005246029379
:100B800063449B00D15C0F229143944602220A43A6
:100B900061460A4010210A435146CA5403223E4985
:100BA00053445A800A685D7001321A6198800A6065
:100BB0001E811A1C5B46538100239781D381002D2F
:100BC0001AD0344E691E351CC9B2109B0131C900C0
:100BD00059183835424603E03A1C08338B420BD093
:100BE0001F6817609F889780171C0837AA42F3D1A7
:100BF000321CF2E710224AE74B46002B0AD04B4644
:100C0000019A188194464A46029B63449B005344D0
:100C10001B691360FFF76AFB021C38E7109A691E14
:100C20009446021CC9B2109BC9000C3104336144C4
:100C300018880833121892B28B42F9D1934602AA4F
:100C40000E23944663445846191CFEF7CBFE002839
:100C500002D102ABD8898EE7A122534651469B5C54
:100C6000013BDBB28B540B4B603A9B5C5D1B094B29
:100C7000EDB29D54021C0AE7A846002800D072E796
:100C8000AB46DCE75C2800202C280020FFFF00009A
:100C900068280020B427002060280020F0B54746CF
:100CA00080B4544C011C237808200133DBB223703C
:100CB000514B1A78920706D42378013BDBB223709C
:100CC00004BC9046F0BD06300029F5D0A1254B4A62
:100CD0000330565D072EEFDC4126494FBE5D082EDE
:100CE000EADCA026505D975DB0463F1807203840EB
:100CF000575D0137FFB257550F27BC4685002D18A9
:100D0000AD00A85C6646B8430427384330405026FF
:100D1000B44666463043505508685519286109891C
:100D2000A9801978490725D419783943C9B21970AF
:100D30004346D35C9900CB189B00D118D35C1B07AA
:100D40001B0F062B26D82F489A00825897462E4F05
:100D50003A7B1207120F012A1ED03A7F1207120F98
:100D6000012A1BD0294B1B78002B03D02848284B85
:100D70009842A1D100209FE7FFF778F80028F6D12C
:100D8000002099E7081CFEF717FFF7E70020FEF7A1
:100D900059FEF3E70F20EAE7002300221B4E90469E
:100DA0003278002A10D01E01B9591A4A04231A4871
:100DB00012F006FA0F21BB191A7B00208A43111C7E
:100DC00002220A431A7377E71D017959134A042353
:100DD000114812F0F5F90F217B191A7B00208A4384
:100DE000111C03220A431A730123424633700C4B31
:100DF0005A8061E75C2800202C2800206828002009
:100E0000B42700206C8003003028002064280020D4
:100E100034120000D48003007C270020C48003002B
:100E200050280020F0B5474680B4504C011C237870
:100E300008200133DBB223704D4B1A78920706D499
:100E40002378013BDBB2237004BC9046F0BDA125A2
:100E5000484A0930565D072EF2DC4126464FBE5DFA
:100E6000082EEDDCA026505D975D3F180720384026
:100E7000575D0137FFB257550F27850028188000AE
:100E8000855CBC46BD4305273D4367463D40602722
:100E90003D431554101881811978490726D404213F
:100EA00018780143C9B21970935D9900CB189B0063
:100EB000D118D35C1B071B0F062B27D82F489A008D
:100EC000825897462E4F3A7B1207120F012A1FD0E5
:100ED0003A7F1207120F9046012A1BD0294B1B782C
:100EE000002B03D02848284B9842A9D10020A7E71F
:100EF000FEF7BCFF0028F6D10020A1E7081CFEF792
:100F00005BFEF7E70020FEF79DFDF3E70F20EAE721
:100F1000002398461B4E3278002A10D01E01B95982
:100F20001A4A04231A4812F04BF90F21BB191A7BF5
:100F300000208A43111C02220A431A7380E71D0114
:100F40007959144A0423124812F03AF90F217B19F7
:100F50001A7B00208A43111C03220A431A730123BF
:100F6000424633700C4B5A806AE7C0465C2800202A
:100F70002C28002068280020B42700208880030047
:100F8000302800206428002034120000D4800300A0
:100F90007C270020C480030050280020F0B54D4677
:100FA00044465F465646F0B4814C87B003911D1C01
:100FB00023788146013303A8DBB223704388068877
:100FC00098467C4B171C1B7808209B070AD4237873
:100FD000013BDBB2237007B03CBC90469946A24669
:100FE000AB46F0BD0330002EF1D0734B9845EED0E8
:100FF000002A13D02B689B0700D0A4E02B1C511EA5
:10100000C9B20131C90008336918083804E01A6808
:101010000833024200D096E08B42F8D1A123674A00
:101020001120D25C062AD2DC4121654A525C9446EA
:101030000822D21B9445CADCA020604AD25C9446A8
:101040005E4A105C07226044104001909246021CE8
:1010500014205043594A9446624660440290D05C42
:101060000230C0B2D054002F00D19EE04020544A3C
:10107000534B5B5C105C5246C3181A40504BD20075
:101080009B465B5C9344FB184D4ADBB253540022F1
:10109000791EC9B2C9000C312B1D69181888083394
:1010A000121892B28B42F9D1924602AA0E239446AC
:1010B00063445046191CFEF795FC002864D1019A40
:1010C0000F219446930063443C4A9B00D25C8C46BB
:1010D0008A4303210A4361460A4010210A433749E3
:1010E0008C46CA540322374963448C465A8002AA6C
:1010F000D28909689A8001926246013119615F7054
:1011000011601E81191C53464B814346C8818B8157
:10111000002F1BD02A4E791E301CC9B20131C900E4
:10112000691838305B46019A03E03B1C08358D4254
:101130000BD02F681F60AF889F801F1C0837834229
:10114000F3D1331CF2E7102041E7019202981B49CA
:10115000031C8C311433884225D00F2504201978C4
:101160004A46A9430143502029400143197011897F
:101170009980126869461A614A46898811811B69FB
:101180001360FFF7B3F822E7A1220C4B0B499B5CDD
:10119000023BDBB28B540A4B603A9B5CDF1B084B73
:1011A000FFB29F5413E7054BD7E7BB46BA467CE72F
:1011B0005C2800202C280020FFFF00006828002069
:1011C000B427002060280020F8B54F464646C0B43A
:1011D0004E4C082023780133DBB223704C4B1A7835
:1011E000920707D42378013BDBB223700CBC9046F6
:1011F0009946F8BDA121474A0930555C072DF1DC1D
:101200004125454E755D082DECDC8F30555C165C34
:101210007619555C0135EDB255549A3931400F2697
:101220008D00691889008D5CB543062635438D54C1
:1012300001213A4D29721978490726D404211E78D4
:101240003143C9B21970135C9900CB189B00D118B7
:10125000D35C1B071B0F062B27D831489A008258F6
:101260009746304E327B1207120F012A1FD0327F71
:101270001207120F9046012A1BD02B4B1B78002B14
:1012800003D02A48294B9842ACD10020AAE7FEF7A8
:10129000EDFD0028F6D10020A4E7081CFEF78CFC29
:1012A000F7E70020FEF7CEFBF3E70F20EAE7002385
:1012B00098461D4F3A78002A10D01D0171591C4ADA
:1012C00004231C4811F07CFF0F2173191A7B0020A6
:1012D0008A43111C02220A431A7383E71B01F15847
:1012E0009946154A0423134811F06AFF331C0F2155
:1012F0004B441A7B00208A43111C03220A431A73B1
:1013000001233B7043466B806CE7C0465C2800209D
:101310002C28002068280020B42700205028002016
:10132000A48003003028002064280020341200002C
:10133000D48003007C270020C4800300F0B556460B
:101340005F464D4644468C46F0B48246111E0DD091
:10135000002B0BD0414A14780822A00708D4101C97
:101360003CBC90469946A246AB46F0BD0E22F6E73D
:101370003B4A5868904254D0394A5A6000221A8138
:101380001A60002081463748374F804605E0013219
:1013900094B21C810122022C55D0BC88944256D0B4
:1013A000BE8AB61A704270410601BC19247B24071C
:1013B000240F022CEBD11C68002C4AD0B859051C14
:1013C0008020C00083465D44AC4217D220680130C3
:1013D00014D02588002D04D0A088404501D0604558
:1013E0000FD065880335AD0064191C60B859051C21
:1013F0008020C00083465D44AC42E7D34846186075
:10140000C5E75545EDD1BE19B2880A81A2680A60C8
:101410001B6800224B60154B8B81154B1B884B8141
:101420009DE7144A1C6890688442A5D3D268944210
:10143000A2D8A207A0D165881A890335AD00641926
:101440001C60012A9DD900225A60053287E70020DE
:10145000AAE7BC5910341C60C8E7C0462C280020FD
:101460001AE1AB15FFFF0000302800201EF1FFFF3E
:10147000662800207C270020F0B557464E4645469A
:101480008246E0B400290CD0002A0AD0424B1C78D6
:101490000823A00707D4181C1CBC90469946A246F6
:1014A000F0BD0E23F7E73D4B5068984257D03B4BB9
:1014B0000027536000231381136000239846384BA4
:1014C000384E9C4605E00137BBB213810127022B41
:1014D00057D0B388BB4258D0B58AED1B68426841EB
:1014E000050173191B7B1B071B0F022BEBD1136824
:1014F000002B4CD07059041C8020C00081464C4405
:10150000A34229D21868013010D125E05C88033449
:10151000A4001B1913607459201C8024E400A14608
:101520004844834218D21C68601C15D01C88002CCB
:10153000ECD098886045E9D05445E7D17519A88862
:1015400008819B680B6013684B60174B8B81174BAE
:101550001B884B8100239EE743461360B3E7144C7E
:101560001368A0688342A2D3E468A3429FD8980777
:101570009DD15C8817890334A4001B191360012FC7
:101580009BD900235360053385E70020A8E77359F2
:1015900010331360AEE7C0462C2800201AE1AB15CB
:1015A000FFFF0000302800201EF1FFFF662800200A
:1015B0007C27002010B5064904220B780A2B05D0A1
:1015C000044A9C00A050002201330B70101C10BD77
:1015D0006528002004280020002805D001235B4254
:1015E00001600381002070470E20FCE7002805D031
:1015F000002903D0036800200B6070470E20FCE731
:1016000036DF704737DF7047437900215A00D3181F
:101610000F4ADB00D318822210B504685200A15093
:101620005A8242790B4992005258002A0AD0C222AB
:1016300001685C6992008C5002225A61C1230168E2
:101640009B00CA500123026813620268536110BDF7
:10165000182900201029002043795A00D318034A82
:10166000DB00D31801229A717047C0461829002068
:10167000F8B54F464646C0B4802244790168051C3F
:10168000032092008B58670083438B50364E3B19E2
:10169000DB00F3189889191C8446DA890831013275
:1016A0000120624514D08022296892008B583C1991
:1016B00003438B50E400E13A3419FF3A237C22744F
:1016C0002A68D31801221A600CBC90469946F8BDCE
:1016D0005A79002AE7D10430FF30488129680A503E
:1016E0006A7991009046214A8A58002A0CD0C22279
:1016F000296858699200885002225A61C1232968DA
:101700009B00CA506B79984643465B009946434418
:10171000DB00F3185A7816499200164B5058D358EC
:1017200000280FD01A78042A0ED00833002206E0D1
:101730009C460833191C08390978042905D0013260
:101740008242F5D10220AEE79C464B4662464344B6
:10175000DB005278F3185A7063465B68002BF1D0B7
:10176000281C984702209EE71829002010290020F5
:10177000E8800300DC810300F8B546464F46C0B45C
:101780004379A3255A00D318434CDB00E318191CF6
:101790000668ED00DA8975599B689D54013293B251
:1017A0008A89CB819A4203D80CBC90469946F8BDF1
:1017B000802246790168051C032092008B5877002F
:1017C00083438B50BB19DB00E3189889191C8446AE
:1017D000DA89083101320120624511D0802229685E
:1017E00092008B58BE1903438B50F600E13AA419BE
:1017F000FF3A237C22742A68D31801221A60D3E7A7
:101800005A79002AEAD10430FF30488129680A5009
:101810006A7991009046214A8A58002A0CD0C22247
:10182000296858699200885002225A61C1232968A8
:101830009B00CA506B79984643465B0099464344E7
:10184000DB00E3185A7816499200164B5058D358CB
:1018500000280FD01A78042A0ED00833002206E0A0
:101860009C460833191C08390978042905D001322F
:101870008242F5D10220B1E79C464B466246434482
:10188000DB005278E3185A7063465B68002BF1D096
:10189000281C98470220A1E71829002010290020C1
:1018A000E8800300DC810300F8B54F464646C0B42B
:1018B0004379414E5A00D318DB00F318DA899B684C
:1018C00001689A5C3D4B051CCA508022447901682E
:1018D000032092008B58670083438B503B19DB0039
:1018E000F3189889191C8446DA89083101320120DD
:1018F000624514D08022296892008B583C1903431A
:101900008B50E400E13A3419FF3A237C22742A68B0
:10191000D31801221A600CBC90469946F8BD5A793A
:10192000002AE7D10430FF30488129680A506A79DB
:1019300091009046224A8A58002A0CD0C222296877
:1019400058699200885002225A61C12329689B007D
:10195000CA506B79984643465B0099464344DB0086
:10196000F3185A7817499200174B5058D35800284B
:101970000FD01A78042A0ED00833002206E09C46C5
:101980000833191C08390978042905D0013282422C
:10199000F5D10220AEE79C464B4662464344DB004D
:1019A0005278F3185A7063465B68002BF1D0281CFC
:1019B000984702209EE7C046182900201C05000019
:1019C00010290020E8800300DC810300F8B54F46B1
:1019D0004646C0B44379514E5A00D318B122DB00B9
:1019E000F318051CD9790068D200815001212A68BA
:1019F0001162842200212868520081505A82484A8C
:101A00001974914649466C79A2008A58002A0BD075
:101A1000C222296858699200885004225A61C12361
:101A200029689B00CA506C7980220327286892009D
:101A30008358BB43670083503B19DB00F318998937
:101A4000181C88460121DA89083001328C4642454B
:101A500015D080226046296892008B583C191843A3
:101A60008850E400E13A3419FF3A237C22742A6852
:101A7000D31801221A600CBC90469946F8BD5A79D9
:101A8000002AE6D10431FF318C4641816046296845
:101A90000A5049466A79944692008A58002A0CD026
:101AA000C222296858699200885002225A61C123D3
:101AB00029689B00CA506B799C4663465B00994637
:101AC0006344DB00F3185A7816499200164B5058BD
