:020000023000CC
:10C00000E03E002029F8030089F803008BF80300C4
:10C010000000000000000000000000000000000020
:10C0200000000000000000000000000081CA0300C2
:10C0300000000000000000008FF8030091F80300EA
:10C0400093F8030093F8030093F8030093F80300B8
:10C0500093F803000000000093F8030093F8030036
:10C0600093F8030093F8030093F8030093F8030098
:10C0700093F8030093F8030093F8030093F8030088
:10C0800093F803002DD2030093F8030093F8030004
:10C09000E5D2030093F8030099F7030093F8030037
:10C0A00093F8030093F80300000000000000000074
:10C0B0000000000000000000000000000000000080
:10C0C000164B002B00D1144B9D46402292029A1A27
:10C0D000924600218B460F461348144A121A00F06C
:10C0E00067F80F4B002B00D098470E4B002B00D069
:10C0F00098470020002104000D000D48002802D0C0
:10C100000C4800E000BF00F02DF82000290000F0EE
:10C1100051FD00F011F8C04600000800E03E00208C
:10C120000000000000000000E02A0020D8320020BB
:10C130000000000000000000084B10B5041C002B9C
:10C1400002D0002100E000BF054B1868836A002B75
:10C1500000D09847201C00F033F8C04600000000D3
:10C160003CFA03000E4B70B500251E1C0D4CE41A62
:10C17000A410A54204D0AB00F35898470135F8E766
:10C1800003F04EFC084B00251E1C084CE41AA410BA
:10C19000A54204D0AB00F35898470135F8E770BDCD
:10C1A000E02A0020E02A0020E02A0020E02A0020E7
:10C1B000031C8218934202D019700133FAE77047CA
:10C1C000FEE7C046021C4378180293781B04034321
:10C1D00010781843D3781B061843704770DF7047F8
:10C1E00071DF704773DF704774DF704776DF704729
:10C1F0007ADF70477CDF70477FDF704786DF7047EC
:10C20000A7DF7047A8DF7047A9DF7047AADF704734
:10C2100067DF704700B50C2814D803F03BFB1513FB
:10C220001313131309130713130D0B0002200CE053
:10C2300003200AE0042008E0081F41424841062389
:10C24000181A02E0062000E0012000BD08B500F049
:10C250009BFE08BD08B500F097FE08BD10B5041C94
:10C26000081C0321FFF7D6FF0321021C201C03F04A
:10C2700079F8002801D000F087FE10BD70B50F4B93
:10C2800090B09B7901AD02ACAB700D4B061C002148
:10C29000201C38222B80FFF78BFF02230021237004
:10C2A000201C013BA170E6702381E56002F072FD65
:10C2B000002801D000F068FE10B070BDF42A002004
:10C2C0003015000010B5141C03281BD0042826D1FB
:10C2D000002908D0124B1888124B98421FD0132106
:10C2E000FFF784FF17E0101C02F0C0F8002801D00F
:10C2F00000F04AFE0C4B1B68A34210D10B480321EF
:10C30000012206E0081C0121FFF784FF0121021C25
:10C31000064803F027F8002801D000F035FE10BDD4
:10C32000D82A0020FFFF0000E42A0020F42A002081
:10C33000F0B52B4B8DB01D780193002D4DD1294CBC
:10C34000291C201C1822FFF733FF274B1E78002ED4
:10C350002CD0291C102204A8FFF72AFF234804A987
:10C360001022234F03F03CFB061E08D10520FFF7E7
:10C3700085FF012367602370267226821EE01B4B17
:10C3800008AE02930123337103AB08930123042009
:10C39000337302AB0A930397FFF770FF02232372F4
:10C3A00026332570E6602382658208E00620FFF7C9
:10C3B00065FF282326706660267223826682201C11
:10C3C000FFF710FF002801D000F0DEFD0020012162
:10C3D00000F076FD0123019A13700DB0F0BDC04648
:10C3E000E12A0020702B0020E02A0020312B0020C1
:10C3F0002A2B002070B5041CB0B002F0BBFD7948B8
:10C40000211C02F0E1FF2388142B00D1A6E02DD8D7
:10C41000102B3AD008D8022B00D0E1E0724B00215B
:10C420001888FFF7F5FEA6E0112B3DD0132B00D0A6
:10C43000D6E06E4C03AE211C07A8072203F0DFFAFA
:10C44000E11D301C102203F0DAFA211C09AD18316D
:10C45000281C1C2203F0D3FA634B85211888644AF8
:10C4600010AB15961495FFF7C7FE84E0512B61D0F1
:10C4700005D81A2B00D181E01B2B3ED0B0E0522B07
:10C4800000D17BE0552B2ED0AAE00020011C00F04B
:10C4900017FD0120011C00F013FDA288524B1A80E9
:10C4A0000022544B1A709BE08023322209AD2B806E
:10C4B000514B012000211A6000F002FD4A4C10A9E6
:10C4C00020882A1C0123FFF7A1FE002801D000F0DC
:10C4D0005BFD4A4B1B78002B01D1FFF729FF01239D
:10C4E0005B4223807CE0A379002B00D078E03E4BB8
:10C4F00013211888FFF77AFE3DE0237A002B6FD1D5
:10C500003C4A13703C4B1A68511E196000290ED129
:10C5100010AC201C1422FFF74BFE05232370236967
:10C520000434009310980ECC01F032FA58E0FFF773
:10C53000FFFE55E0A379002B52D0A27B043A022AD9
:10C540004ED810A9022B00D001230B70C1235B0031
:10C550008B80254B1888FFF755FE0CE0234A208A74
:10C56000538D0021984201D1111C1831A088073247
:10C570000023FFF743FE002832D02CE01A4B204D59
:10C580001C88AC422AD01F4B201C1B78002B1BD0D0
:10C590001649082234310123FFF736FE021E19D155
:10C5A000111C201C0223FFF72FFE021E12D12A1C91
:10C5B000201C0C21FFF724FE0222134BC3189343C7
:10C5C0000ED0082804D10BE0191C1A1CFFF71CFE22
:10C5D000021E05D0101C00F0D7FC01E00822F9E78C
:10C5E00030B070BDF42A0020D82A00202A2B002069
:10C5F000242B0020E12A0020DC2A0020882B0020A8
:10C60000FFFF0000E02A0020FECFFFFF002330B52F
:10C61000454A89B01370454A4548137003F0A8F89D
:10C6200000287ED1434801F08BFC01F0E3FE002896
:10C6300077D1414800F034FA01AC002803D101223F
:10C640003E4B1A7011E0201CFFF7CAFD002801D0F4
:10C6500000F09AFC637800200133211C6370FFF71F
:10C66000BDFD002801D000F08FFC6A461123344D37
:10C670001370281C03F0CCF9291C82B26846FFF71E
:10C68000B9FD002801D000F07FFC201C0021082209
:10C69000FFF78EFD0C232380DB1863800023A3802B
:10C6A0009133FF33201CE380FFF7A2FD002801D067
:10C6B00000F06AFC0021201C0C22FFF779FD082302
:10C6C0002380204B20486360204B211CA36002F094
:10C6D000B3FC002801D000F057FC1C22201C0021D4
:10C6E000FFF766FD1A4A002362608022D201A26031
:10C6F00003220193E38123746361164B201C227390
:10C70000A36102F0F7FB002801D000F03DFC3022CD
:10C71000114B1A70293A5A7009329A70FFF708FEC5
:10C72000002009B030BDC046882B0020F02A002030
:10C73000F5C30300C5C203002A2B0020E02A002015
:10C7400040FA0300C1C70300F42A00204DC20300D1
:10C75000CD0C000055C20300242B0020012210B58F
:10C76000134B1A70134B1888134B984207D01321A0
:10C77000FFF73CFD002813D000F006FC10E00F4B43
:10C780001A781C1C002A0BD0FFF72EFD002801D0C0
:10C7900000F0FAFB0020011C00F092FB0023237044
:10C7A00002F0E0FB002801D000F0EEFB002010BDFD
:10C7B000882B0020D82A0020FFFF0000E12A00205B
:10C7C000F0B50B7889B0092B00D91CE1051C181CA9
:10C7D0000C1C03F069F828002F0042000A00130027
:10C7E00021000101090146000F0101F09DFC042117
:10C7F000FFF710FD0421021C281C2BE0FFF7AEFF01
:10C80000002801D000F0C0FB01F0B4FC002800D1EA
:10C81000F9E001F0C7FCF6E0FFF7A0FF0028F8D030
:10C8200000F0B2FBF5E70122784B1A704B681A78DA
:10C83000774B14E00226754B1E704B681B78012B5A
:10C8400000D0E0E001F01AFC311CFFF7E3FC021C11
:10C85000281C311C02F086FDD1E003226B4B1A70BC
:10C86000D1E06A4B1E78022E2DD0032E54D0012E1B
:10C8700000D0C8E004AF00211022381CFFF798FC5C
:10C88000634B0C221B7801A800213B70FFF790FC42
:10C89000032202970192237A0C2BD9D16468201CC1
:10C8A000FFF790FC7860201DFFF78CFCB860201C1F
:10C8B0000830FFF787FCF86001A801F047FB00286B
:10C8C00000D1A0E0C0E70B7A0321194010D05A1A1A
:10C8D0000432D2B29446181C00276268461C1754D2
:10C8E000F0B26045F8D10133DAB2531A0333237240
:10C8F00001230493636804A80693237A9B08059395
:10C9000001F0DEFB002800D17DE00221FFF782FC70
:10C910000221021C281C9DE7087A304203D0281C03
:10C92000311C321C96E73B4E0190311C01F076FD24
:10C93000011E0FD16168019A306803F060F8019818
:10C9400001F0D0FD011E05D101A9301C01F0D8FD78
:10C95000011E01D0281C3CE004230493019B04A881
:10C960009B0805933368069301F04AFB071E08D124
:10C97000294A237A11685B1813603268274B1A60C2
:10C9800041E009281BD1244B217A1A6889181960C3
:10C99000234B1B78002B36D0224A1388141C013BF2
:10C9A0009BB21380002B2ED1281C02F0A3FC002880
:10C9B00001D000F0E9FA1C4B1B88238023E030688B
:10C9C00001F054FD011E02D0281CFFF747FC281C73
:10C9D000391CFFF743FC16E00122114B1A708B88BB
:10C9E000114A13800F4A03E000230D4A13700E4AC8
:10C9F000138008E0084B281C196802F041FC00284D
:10CA000001D000F0C1FA09B0F0BDC046F02A002004
:10CA1000292B0020EC2A00206C2B0020E42A002087
:10CA2000682B0020E82A0020662B002070B5002823
:10CA300021D10D1C09680E2300291AD00F4CA142E8
:10CA400010D0631A3B2B09D80B1C4A1E3C3393426F
:10CA500008D01E78601AC654013BF8E7201C3C221F
:10CA600002F0CDFF201C3C21002201F0E9F8002358
:10CA7000A0872B6001E001230B6070BDE03E002029
:10CA80000323064A5B429E4502D1EFF3098101E090
:10CA9000EFF3088188690238007810472DCA030037
:10CAA00070B50E23002812D00A4C061C3C21201C15
:10CAB000002201F0C5F8A58F0B23854207D1301C59
:10CAC000211C3C2202F09BFF00230135A587181C86
:10CAD00070BDC046E03E002044DF704713DF704762
:10CAE00018DF7047C0230249024ADB00D15070476B
:10CAF0003546526E0000014010B58AB0041C00217A
:10CB000001A81022FFF754FB02236846019300F0AE
:10CB1000B9F9002C06D001A8FFF7E2FF002801D0E8
:10CB200000F032FAF0208002FFF7D8FF002801D091
:10CB300000F02AFA684613494822134B02F0DCFD44
:10CB4000002801D000F020FA012005AC011C221CB5
:10CB500002F032FE002801D000F016FA0122237BF9
:10CB6000201C1343237302F03FFE002801D000F085
:10CB70000BFA064802F006FE002801D000F004FA85
:10CB80000AB010BD8C2B002015F8030091CB0300D8
:10CB900008B501F095FD08BD08B508201421044A28
:10CBA00000F00EFA002801D000F0EEF908BDC046F2
:10CBB0009C2D0020802238B5534BD205D458B13C6F
:10CBC00061424C41E4B2002C01D00021D15000F070
:10CBD000B7F84E4B1A68F0239B029A4202D000200D
:10CBE00000F0D2F980235B051A698023DB009A42AA
:10CBF00002D0002000F0C8F900200521444A454B2E
:10CC000000F02CFD002801D000F0BEF980220121A7
:10CC1000414BD2009A580A4215D0C0223F48D20058
:10CC200098503F483F4A00F07BFD002801D000F0BB
:10CC3000ABF980213C480902002200F089FD002860
:10CC400001D000F0A1F900F029FF00F073FF0028E7
:10CC500021D00220012100F033F900F07AFF0028F2
:10CC600001D000F091F901206040FFF745FFFFF788
:10CC700093FF00F093FF002801D000F085F9022017
:10CC8000002100F01DF9B220FFF726FF002808D090
:10CC900000F07AF905E001206040FFF72DFFFFF773
:10CCA0007BFF00F0FDF8214D002801D1002C0AD0B7
:10CCB0000220012100F004F900F00AFF002808D04A
:10CCC00000F062F905E0286800F042FE002804D177
:10CCD000EEE70220002100F0F3F8286800F038FEAB
:10CCE000002807D000F026FF002803D10F4B18685A
:10CCF00000F0FAFEBFF34F8F0D4A0E4BDA60BFF320
:10CD00004F8FC046FDE7C0461C0500001410001000
:10CD1000D42B002049D80300000001403546526E54
:10CD20004CFA0300E5CA0300EC2E00200830000096
:10CD30000400FA0500ED00E011DF704712DF7047D4
:10CD4000F7B5002514236B43464F191CDB59A02669
:10CD50001C1C0422C134FF34F605A400A251322069
:10CD60000138C046C046C046C046C046C046C04660
:10CD7000C046C046C046C046C046F1D1A222D2003D
:10CD8000B2580220DA40131C0122A051134001D0F6
:10CD90007B1803E0012D01D0151CD3E7324C236032
:10CDA000002B5ED001AD31490422281C02F027FE81
:10CDB0002F4B29881A88914203D158886988884264
:10CDC00029D02C498A4223D15B88934220D16B46DB
:10CDD000DE1C301CFFF7B2FF3378002B08D124484B
:10CDE000291C012201F0CAFB642001F0ABFB03E027
:10CDF000FFF7A2FF0028F2D03378002B0BD0BFF34F
:10CE00004F8F1D4A1D4BDA60BFF34F8FC046FDE7C1
:10CE1000002000F0B9F8A0230C202268DB0551683F
:10CE2000C131FF318900C85010699168884205D12D
:10CE30000222C130FF308000C25012E003250120E1
:10CE4000C131FF318900CD50011C9468A1400C4CC8
:10CE500019511169C131FF318900CD5012699040DB
:10CE60001851F7BD54FA03000C2F002050FA0300AC
:10CE700080100010FFFF00000400FA0500ED00E044
:10CE80000C05000010B5002808D000210422041C65
:10CE9000FFF78EF9102363700F3BA37010BD0000E5
:10CEA000064B1A68101E08D0A223A021DB00C9057A
:10CEB000CB5852680120D340984370470C2F002074
:10CEC00030B52E4B1A68002A56D0012812D00028FF
:10CED0000AD0022850D1012319409940284C2378C8
:10CEE0008343194321700DE00124254B214018781C
:10CEF000A04305E00424224B014088001978A14397
:10CF000001431970136990681D4983421BD1087849
:10CF1000A021C133FF33C9059B00C40706D50320F8
:10CF2000C850012392689340164A24E0400707D571
:10CF30000320C850012312699340A122D2001AE0B5
:10CF40000222CA5018E00123A0240D78E405834092
:10CF5000ED0702D5A120C00000E00A482350087860
:10CF600001231169A0228B40D205400702D5A121DF
:10CF7000C90000E00349535030BDC0460C2F0020CB
:10CF8000102F00200C0500001FB5002101AA9060A1
:10CF900003481180516000F005F805B000BDC0469F
:10CFA00001400000BFF34F8F034A044BDA60BFF328
:10CFB0004F8FC046FDE7C0460400FA0500ED00E0D3
:10CFC00010B503240723144010D1094B1A604B1CE1
:10CFD000DB009BB2D218074B1A60074B1C70074B43
:10CFE0001C70074B1880074B1980231C181C10BDA0
:10CFF000142F0020182F00201F2F00201E2F00208C
:10D000001C2F0020202F0020F0B5284B87B0029263
:10D010001A8801900E1C039309208A4244D30024ED
:10D0200004ABDD1D281C2C7000F01AFC204B214A9B
:10D030001B782149DBB29C4613780988DBB2201C9F
:10D040008B4201D20133D8B21C4F3C1C604509D041
:10D05000147813780022DBB28B4201D20133DAB2AA
:10D06000144B1A70287800F019FC0420BC421BD025
:10D07000134F029A3B68E5005B191A60019A002A77
:10D0800010D0002E0ED0039B111C18880D4B44436A
:10D090001868321C001902F0B2FC3B6800205D19D0
:10D0A000AE8001E00020988007B0F0BD1C2F00206A
:10D0B0001E2F00201F2F0020202F0020FFFF000028
:10D0C000142F0020182F002010B51049104A0B789B
:10D0D00012789A4219D00F480B780A780488D2B295
:10D0E000DBB20020944201D90132D0B20A4A087062
:10D0F00010880A4A58431268DB001018084A126860
:10D10000D31899881B689847DFE710BD1E2F0020B1
:10D110001F2F0020202F00201C2F0020182F002060
:10D12000142F002010B5437882780133DBB2D21A75
:10D13000041C501E824152421340227800209A4221
:10D1400005D00B701823607843436068C01810BD89
:10D15000EFF30581C905C90D0220002924D010393B
:10D16000CBB25AB2002A0BDA0F221A40083AC24058
:10D1700082400E49521803210B4052688B4007E051
:10D1800092080B4BC0329200D25803230B40DB00B5
:10D19000DA40D3B29B09DBB20020012B04D0033B61
:10D1A0005A425A410230801A7047C04618ED00E0DA
:10D1B00000E100E08022194B9202DA67D22180223E
:10D1C000174B520289005A5040395A5001212F22E0
:10D1D0005960101C0138C046C046C046C046C04613
:10D1E000C046C046C046C046C046C046C046F1D153
:10D1F000996000230B49101C0B600138C046C046E3
:10D20000C046C046C046C046C046C046C046C046EE
:10D21000C046C046F1D1044A1370704704E100E0F3
:10D2200000100140242F0020442F002070B500245E
:10D23000224B5C649C64DC641C655C609C60204BDD
:10D240001B68A34239D01F491F4A8A581F490D68DD
:10D25000551B2D022D0A1A6895421AD3AD1AA4182F
:10D260001A7CDE69002A10D000221A74184A12684B
:10D27000002A07D0586999699047002805D0FFF720
:10D2800083FE02E05A6998699047002E01D0331C52
:10D29000E1E7104B104A197813788B4205D101331E
:10D2A000DBB2022B00D10023137013780B4A9B00D2
:10D2B0009C5080220A4B52035A6070BDFC10014002
:10D2C000282F00200010014004050000242F00201A
:10D2D0002C2F0020382F0020392F00203C2F002039
:10D2E000FCE100E0F0B5BF48BF4A0368BF4989B020
:10D2F000049309781378994211D00133DBB2022BE1
:10D3000000D1002313701378B94A9B009958049BED
:10D31000CB181B021B0A03600123039301E00021C9
:10D320000391B44B1B680593B34B1B780193B34B2C
:10D33000019A1B6802920793AA4B1E68B04B1B7898
:10D340000693059B02980138C2B20292FF2A2DD0A3
:10D35000029AD400079A1419227865789542F1D080
:10D3600018255543A77801326068D2B2BF1A451913
:10D37000381C471EB84147423A402F78022F02D04E
:10D38000032FEAD10CE09C461F1C6D686046002804
:10D39000E3D0AC4500D148E16746F8698446F5E73B
:10D3A000002BDAD000251D74DB69F9E76846944A42
:10D3B000007E8C4C10708F4D039A26602B60002AE3
:10D3C00007D1059A03989B1A5A1E9341DBB29C46DB
:10D3D00022E00020061C002B1AD01A68914204D2C9
:10D3E000511A2B601960012315E0891AB618002222
:10D3F000DF681A60DA699446002F07D0D861181CDC
:10D40000049A9F60B2181202120A5A606346E2E759
:10D41000784A136001339C46764B1B680293774B26
:10D42000029A1B68059323680393754B1B78069338
:10D43000019B013BDBB20193FF2B6AD0019BD9001A
:10D44000059B5918002802D0031CC06922E00B7804
:10D450004C789C42ECD018245C434D6801332C1965
:10D460008D78DBB20B709D4200D10870267863681E
:10D47000151C012E4BD11E7C002E48D1A5685D6085
:10D48000E5689D602569DD6064699C61069C002CEF
:10D4900000D05E605C68039D5A4F651B2D022D0A0B
:10D4A0009E68BD4202D8AD191D600AE0039D2C1B89
:10D4B0002402240AA64202D9361B1E6001E0002481
:10D4C0001C60002401255C601D749C60DC611D1CD7
:10D4D000A2421CD01D681468A54204D8651B1560C3
:10D4E000DA611D1C13E0141C04922768BD4206D9A2
:10D4F000E669ED1B0494002E05D0341CF5E77F1B74
:10D50000261C2760049C1D60151CDE61E3612A1C3B
:10D5100098E7384B1A60029B9A4203D16346002B6E
:10D5200000D17DE0002A00D178E0374837492D4B03
:10D530000C581B681568364EE21A1202120A377828
:10D54000033201920290002F1FD18020D127400288
:10D55000BF00C851403FC851C02280272D48BF029C
:10D5600052008750076001272F200F600138C04606
:10D57000C046C046C046C046C046C046C046C0467B
:10D58000C046C046C046F1D13770019AAA4200D2C7
:10D590002A1CA820D3181B021B0AC0000B50029A99
:10D5A0001A4D8958091B0902090A1C1B2402033160
:10D5B000240AA14234D9144BEB582B502F200138A8
:10D5C000C046C046C046C046C046C046C046C0462B
:10D5D000C046C046C046C046F1D180220E4B9202E2
:10D5E0005A601DE0242F0020382F0020392F002002
:10D5F0003C2F0020282F0020302F0020342F002027
:10D600003A2F0020FEFF7F000405000000100140BB
:10D61000442F002000E100E0FCE100E0FFF7CAFD3C
:10D6200000220C4B1A7009B0F0BDAF4207D1DB6984
:10D63000002B04D10120084EB0601E1C0690286803
:10D64000ED698446FD61002D00D186E628686044BE
:10D65000286082E63A2F002000100140F7B503272A
:10D6600000900D1C141C019307203A4241D1214E19
:10D67000002A01D132603CE0FFF79CFD1E4B019A6D
:10D6800034601A601D4B18221F70231C1833191C9C
:10D690006A430020636020706070A57008349B1896
:10D6A0008C42F6D18021C022C524FF25144B4903AA
:10D6B0001860144B52001870134BA4001870134BD1
:10D6C00099501A59AA433F3D2A431A51A122196081
:10D6D000009C0F49D2008C50C424A4001D590D4A4F
:10D6E0002A40C0252D022A431A510B4BCA580B4B16
:10D6F0001A60FEBD342F00202C2F0020302F002078
:10D70000282F0020382F0020392F002000E100E0D2
:10D7100000100140FF00FFFF04050000242F00203F
:10D7200010B50A4B1C680823002C0CD0013B002AC2
:10D7300009D0002807D000680133047C002C02D1F6
:10D74000231C41744261181C10BDC046342F0020B8
:10D75000F0B51D4B051C1E6885B00820002E30D08A
:10D76000002D2ED0013804292BD96B690130002BF4
:10D7700027D06B7C0027012B00D10F1C0192009158
:10D78000FFF7E6FC02ABC0003418DE1D201C311C84
:10D79000FFF7C8FC031C0420002B12D001220B4908
:10D7A0001A700B4A5D608A5800209A60009A1F61C7
:10D7B000DA60019A5A618022337852036370054B14
:10D7C0005A6005B0F0BDC046342F00200010014063
:10D7D00004050000FCE100E0F7B5134B1F680823C7
:10D7E000002F1ED000281CD04269002A19D0002624
:10D7F0000674051CFFF7ACFC6B46C0003C18DF1D2F
:10D80000201C391CFFF78EFC0423B04209D0802273
:10D81000023B03703B7845606370044B52035A60CF
:10D82000331C181CFEBDC046342F0020FCE100E074
:10D8300010B5041C082902D00020FFF7A5FB2368BF
:10D840006068984710BD000007B5044A0090019138
:10D8500068460821FFF7D8FB0EBDC04631D803004B
:10D8600070B5EFF3108672B6094B01225968002992
:10D8700008D1084C5A60E26F074D2A401A60E567EC
:10D88000017000E00270002E00D162B670BDC0468B
:10D89000D032002004E100E0FC06FFBC10B5084ACD
:10D8A0005368002B0BD0002809D1EFF3108372B618
:10D8B000044914680C605060002B00D162B610BDA2
:10D8C000D032002000E100E048DF704711DF7047F0
:10D8D00013DF704708B5074B1878012803D10129D9
:10D8E00001D101311970002A02D0101CFFF74CFB46
:10D8F00008BDC046452F002008B5FFF7E5FF00280A
:10D9000001D0FFF741FBFFF7DFFB034B1B78023B26
:10D91000022BF2D808BDC046452F002010B50A4C96
:10D920001C21201C00F066FF002801D0FFF72CFB13
:10D93000201C06491C22002300F04CFF002801D0C7
:10D94000FFF722FB10BDC046642F0020482F0020A7
:10D9500007B50368013301D1002016E001A800F0EB
:10D960004BF9019B1A78012AF6D10022598891427D
:10D9700005D006490868996800F062F9021C019B0D
:10D980005888801A42425041C0B20EBD0830000093
:10D99000844684B0F0B585B01D1C0D936346C4B2B7
:10D9A0000A901B0C03A80F1C0B91161C0C920193E0
:10D9B00000F022F9002C09D16A46364B9288FF21EB
:10D9C0005A8001229D601A70197140E0012C14D117
:10D9D0006A46304B9288DF605A80F21952199A6079
:10D9E000A5221A705A321A710E9A1E615D619A61EF
:10D9F000294B1C70FFF792FF47E0032C0ED1039ACE
:10DA0000244B117819705188926859809A60AA2223
:10DA1000DF601A711E615D61A93A18E0022C19D10C
:10DA2000039A1C4B1178A52905D100225A809A60CF
:10DA3000FF321A7004E019705188926859809A6018
:10DA4000FF221A710022DA601A615A610132124B08
:10DA50001A70CFE7052C07D1FEF780FE002801D011
:10DA6000FFF792FA03220EE0042C09D10022094BA1
:10DA70005A809A60FF321A70039A12791A71B9E7C4
:10DA8000062C02D10422044B1A7005B0F0BC08BC6D
:10DA900004B01847482F0020452F00201FB5002153
:10DAA00001A80C22FEF784FB074B019300F05AFEFD
:10DAB000002806D1FF2305499B0201A84B6000F016
:10DAC00075FE05B000BDC046D5D80300642F002008
:10DAD00010B500F0EBF9002805D1FEF797FD041C06
:10DAE000FFF70AFF201C10BD10B5FFF7EFFE00285E
:10DAF00001D0FFF749FA0C4B1968002301229A4024
:10DB0000114201D00948C2670133202BF6D1084CDD
:10DB10002068FFF7DDFE002801D0FFF735FA206806
:10DB200000F070F810BDC04600E100E004E100E044
:10DB30000830000007B501A800F05EF8019B012045
:10DB40001A78A52A04D01879AA3843425841C0B29D
:10DB50000EBD10B500F0BEFB002809D0642000F017
:10DB6000F1FC00F02FFB002807D0FFF70DFA04E0CE
:10DB700000F090FB0028F1D10FE000F0ABFB002893
:10DB800001D0FFF701FA00F069FB041C0020844279
:10DB900003D0201CFFF7F8F9201C10BD10B588B089
:10DBA00003AC201C00211422FEF702FB0223237089
:10DBB00000230434009303980ECCFFF7E9FEFFF72F
:10DBC0009BFE002008B010BD13B5041C01A800F096
:10DBD00013F8019B1A7822705A8862809A68A260B2
:10DBE0001A792271DA68E2601A6922615A696261FF
:10DBF0009B69A36113BD0000014B03607047C046E1
:10DC000000FC0300F0B5031C186880F3088858680E
:10DC1000FF2464B2EFF30585002D01D1A64600472D
:10DC2000251C061C21273FBAF0B40024002500263D
:10DC30000027F0B4F92040B20047C046F0BDC0460E
:10DC400030B5002A01D0138800E00B4B051C4118A9
:10DC50008D420FD02C785BBA9BB263401A1CDBB2AA
:10DC60001B095340180343409BB2DAB252015340A0
:10DC70000135EDE7181C30BDFFFF000018DF7047CD
:10DC8000F8B50D1C141C1E1C012902D003290AD052
:10DC900019E0104B1B78052B15D10F4B04201B6886
:10DCA000002B0DD10FE00B4F3B78022B0BD10B4B10
:10DCB0005B689847084B3D701B68002B03D0281CFD
:10DCC000211C321C9847002C02D0201CFFF75CF965
:10DCD000F8BDC046742F00206C2F0020B42F002008
:10DCE000012200B5074B89B01A7003AB04321A70D9
:10DCF000079A039800920499059A069BFFF748FE3D
:10DD000009B000BD802F0020032300B589B003A80F
:10DD10000370074B1B884380064B079859689A6825
:10DD2000DB6800900398FFF733FE002009B000BDC8
:10DD3000722F0020A42F0020012200B589B003AB70
:10DD40001A70084A12885A80074B03981B68009380
:10DD5000064B59689A68DB68FFF71AFE002009B085
:10DD600000BDC046722F002008300000A42F002004
:10DD700010B588B003AC201C00211422FEF718FA5D
:10DD80000423237000230434009303980ECCFFF780
:10DD9000FFFD08B010BD000030B5002589B003AC10
:10DDA000201C00211422FEF703FA084B22691B886D
:10DDB00025706380064B0398DB68E360009261681E
:10DDC000A268FFF7E5FD281C09B030BD722F0020C6
:10DDD000A42F0020022208B50648074B1860074B05
:10DDE0001A70074B196800F005FD002801D0FFF7F5
:10DDF000CBF808BD782F002000300020742F0020C1
:10DE00000830002010B50E4B08201B78002B15D1D0
:10DE10000C4C201CFFF7E0FC002801D0FFF7B4F801
:10DE2000F021201C89030022FFF792FC041C002033
:10DE3000844203D0201CFFF7A7F8201C10BDC04669
:10DE4000802F0020842F0020F0B51F1C032385B0F5
:10DE5000061C0190940868460D1C009302910394DF
:10DE6000FFF70CFF00281ED080235B019D4212D8D3
:10DE7000012368460093019602950394FFF7FEFE86
:10DE8000002810D10323684600930196029503945D
:10DE9000FFF7F4FE07E0F01BE91B3A1C3B1CFFF701
:10DEA000D3FF0028E4D005B0F0BD00007FB500240A
:10DEB00000210C2201A8FEF77BF9174B174E0193A6
:10DEC000174B311C1C70174B01A81C8000F06EFC16
:10DED000154D011EA14201D02C7019E0134B1448BE
:10DEE0001B68144A7360FFF71BFC002801D0FFF782
:10DEF0004BF8F021104889030022FFF729FC002885
:10DF000001D0FFF741F800210C4B196001232B7061
:10DF1000081C04B070BDC04681DC0300782F0020CF
:10DF2000702F0020722F0020742F00200830000076
:10DF30007CFA0300E1DC0300842F00200430002081
:10DF4000014B18607047C0466C2F0020224B70B503
:10DF5000191C426831CA31C112680A601A78510727
:10DF600002D50625910735D103245968062521429B
:10DF700030D1986820422DD1DB6823422AD1411844
:10DF8000CB18F021154E6D1933608901884221D8D4
:10DF900013490868EC218902091A8B421AD8114CDE
:10DFA000114B2360114B6360D30701D5104B04E084
:10DFB000930701D50F4B00E00F4BA3600F4B0825D3
:10DFC0001B78012B06D1FFF71DFF051E02D1236828
:10DFD00030689847281C70BDA42F0020083000200E
:10DFE00008300000B42F0020D5DD030071DD0300F0
:10DFF00039DD030009DD030099DD0300742F0020E3
:10E00000F8B5041C0E20002C2ED0A36802309B070C
:10E010002AD1164B1B78052B25D16368144D154F5B
:10E020009E002B683A68F318934204D901235B429F
:10E030002B60043818E0FFF7E5FE002814D10E4BE2
:10E04000A1681868321C2B6800F0C4FB00280BD1B3
:10E050002B680930F6183B682E60F61A731E9E4135
:10E060007642304000E00820F8BDC046742F002002
:10E0700004300020083000200030002070B50C4B28
:10E080001C68002C10D10B4E3378042B0CD10A4D98
:10E090000A48297800F050F9002802D1052333708E
:10E0A00003E02C70041C00E00824201C70BDC04656
:10E0B00004300020742F0020702F0020C02F00207B
:10E0C000F8B5154B1A78032A02D0042A02D01BE0B7
:10E0D00004221A70114B1C68002C15D1061CFFF786
:10E0E00091FE002812D173680D4F9D003B785A199C
:10E0F000402A0DD80B482A1CC018B16801F07FFCDB
:10E100003B78ED183D7004E0082402E0041C00E0B8
:10E110000924201CF8BDC046742F002004300020C4
:10E12000702F0020C02F002038B50E4C0820237817
:10E13000052B16D10C4D0D4B2A681B680820934205
:10E140000FD106232370FFF75DFE002809D1084B8D
:10E1500029681B68586800F039F9002801D10723A5
:10E16000237038BD742F00200830002004300020B8
:10E170000030002008B5084B08201B78072B09D178
:10E180000648FFF729FB002801D0FEF7FDFE044BEF
:10E190009B68984708BDC046742F0020842F00203C
:10E1A000B42F0020062200B589B003AB1A70079A7D
:10E1B000039800920499059A069BFFF7E9FB09B0C2
:10E1C00000BD0000F0B58DB005A8FFF7FDFC089C70
:10E1D000002C3BD080230B9D5B01E318AB4229D977
:10E1E0001C4BEE181C4B76081B68A34209D38023F6
:10E1F00072005B01D1185019331CA21AFFF724FEDC
:10E2000023E0802301275B01F31801A80197029303
:10E2100003930497FFF732FD002816D1802301A84D
:10E220005B010197029303930497FFF727FD0028F2
:10E230000BD1DCE7012301938023A4085B0101A833
:10E24000029503930494FFF719FD041C201C0DB0E4
:10E25000F0BDC04600F0FFFF0830000000B58DB0F3
:10E2600005A8FFF7B1FC099800280FD0089A002AEA
:10E2700002D1074B1B6801E00B9BD31800228008DA
:10E28000039001A801920293FFF7F8FC0DB000BDC6
:10E290000830000000B58DB005A8FFF795FC09987F
:10E2A000002812D0089A002A02D1094B1B6801E00D
:10E2B0000B9BD31803220192F02280089202049053
:10E2C00001A802920393FFF7D9FC0DB000BDC04630
:10E2D0000830000010B58CB005A8FFF775FC089851
:10E2E000002823D080230B9C5B01C318A34210D9C4
:10E2F0000F4B1B68834218D380210E4B4901E31852
:10E300005B085A0014195118821A201CFFF79CFD53
:10E310000CE003230193802380085B01049001A893
:10E3200002930394FFF7AAFC00E00E200CB010BD8E
:10E330000830000000F0FFFF38B50B2901D8092094
:10E3400036E003891B4C04335B00C3180233C21A46
:10E350005218D2B22270012AF1D941188B42EED85C
:10E36000191C041C144801F04AFB144B144A198868
:10E37000914203D025880B208D4219D15B889342AE
:10E3800003D062880B209A4212D1002321898B424C
:10E390000BD25A00A21852890A48824207D00A4872
:10E3A000013300888242F2D101E00B2000E000201E
:10E3B00038BDC046163000200C3000208010001000
:10E3C000FFFF0000FEFF00000C30000008B5002237
:10E3D000FFF736FC021C06494B7808781B02034302
:10E3E000D31A5A1E93410B205B42184008BDC04609
:10E3F0000C3000200020064B064A1870064B1A60AD
:10E40000082298605A60D860186158619861704716
:10E4100054310020183000203831002030B50E2251
:10E4200000291ED00025104B0D605C680A3AAC42F2
:10E4300017D00832202814D82420DA68013C013291
:10E44000DA601A695C6050431C682018086001217A
:10E450009140986901320143996107210A401A618C
:10E460002A1C101C30BDC04638310020F7B51C4BAB
:10E47000061C9A680420002A30D007215C691868BD
:10E48000A21A0A40111C24254D434519AE420DD154
:10E490000C1C0121A14098694140002099619969B3
:10E4A0009F68019159688C46391C0CE007250131A1
:10E4B0002940A142E7D11020F1E700290CD0072222
:10E4C000651C01392A40012696406546321C019E92
:10E4D000ED196D1A1642F0D099605D60FEBDC04620
:10E4E0003831002005490B6909685A1E072313407B
:10E4F00024225343CB181862002070473831002083
:10E5000030B50E22002818D0002916D00C4B0A3A3C
:10E51000DC68002C11D09A68013C01329A602422F8
:10E52000DC605C691D686243AA180260126A0134EB
:10E530000A600722144000225C61101C30BDC046F6
:10E540003831002082B00190019B002B12D0019B3A
:10E550000948013B01930138C046C046C046C04649
:10E56000C046C046C046C046C046C046C046C0467B
:10E57000F1D1E9E702B07047E7030000F0B5104CB5
:10E580000125A4460F4B1D518024E4001C59002C8A
:10E59000FAD00C1C92008A188025ED00944207D016
:10E5A0002668671A3E505F59002FFCD00434F3E709
:10E5B000002261465A505A59002AFCD0F0BDC0468C
:10E5C0000405000000E0014029DF704728DF7047A4
:10E5D0000B1C37B5021C181CC9685D688C001978C3
:10E5E0000095034D0C3064595B69A04737BDC046A8
:10E5F0004C32002038B51823184C22785A43A21800
:10E60000151C13790835E868012B0DD0032B23D195
:10E6100080235B05196989B201F050F9104B1B6822
:10E62000C018FFF7D3FF12E00D4B6D681B689169AE
:10E6300092689B024019D21AC918C018094B9A4215
:10E6400001D8920801E080225200FFF7BDFF0028A8
:10E6500003D10123A37000E00F2038BD5831002002
:10E660005C320020FF030000F8B5144D061C6F78E3
:10E6700004200A2F20D02C783C19E4B2092C01D9AF
:10E680000A3CE4B2182044432C19201C0830A26133
:10E69000021C26710832C0C9C0C2A360069B436039
:10E6A000AB78002B01D0002003E0FFF7A3FF112877
:10E6B000F9D06B7801336B70F8BDC046583100203B
:10E6C00038B5264A9378141C002B45D00021917050
:10E6D000022808D003283FD1182311780D20594370
:10E6E0005118043136E0157818226A431C48A218E4
:10E6F00003689268013303609B02934219D301605F
:10E700006378013B63706B1CDBB2092B01D92B1CB6
:10E71000093B237018235D436519291D0020FFF76D
:10E7200057FF002303212B71AB6029616B61AB6143
:10E73000EB606378002B0FD0A378002B0CD1FFF790
:10E7400059FF002808D0112806D0182321785943F2
:10E7500061180431FFF73CFF38BDC0465831002036
:10E760005C32002000230D4A13600D4A1370537071
:10E770009370131DF4320020032118705860D96083
:10E7800018615861986018339342F4D1054B1860B2
:10E79000054B1860586098607047C0465C32002096
:10E7A00058310020583200204C32002010B5074C60
:10E7B00004222368032B07D05A1C0B6022600168D7
:10E7C000034A9B0099500022101C10BD58320020B3
:10E7D0004C32002037B5CC180C43051C1020A40780
:10E7E00007D11C1C0F38131C00940A1C291CFFF7AE
:10E7F0003BFF3EBD13B50022041C0B1C0092211CE4
:10E800000320FFF731FF16BD71DF704772DF7047DD
:10E8100079DF70477DDF704765DF7047F0B5002511
:10E82000061C2F1C89B001930EAB10CB04911B88E2
:10E83000039205932388029333889F423DDA7368DD
:10E84000B9005918042207A801F0D9F806AB07A8A7
:10E85000D91C0022FFF7E0FF00283DD106ABDB7892
:10E86000039A934225D16A426A4103992388520050
:10E8700059188A1805998A421DDC002D09D169466C
:10E880000133019A097C9BB22380D1542388013340
:10E89000238006ABDD1C2288019B07A89A18291C3F
:10E8A000FFF7BAFF002817D12A7801252388D3184B
:10E8B00023800137C0E70C200EE0002085420BD0FA
:10E8C0002388029A013B9B1A9BB20C30FF2B03D882
:10E8D0000020019A0299535409B0F0BDF0B51C1CF8
:10E8E00085B00AAB80CB03921E8802220097019666
:10E8F000231C051CFFF792FF002807D10097019603
:10E90000281C03991022231CFFF788FF05B0F0BDD7
:10E91000F0B5031C108887B0029000201080586B5F
:10E92000002814D004780298022800D8EEE10220D2
:10E93000112508701088013080B210800D541088A5
:10E94000013080B210800C541088013010801C6B94
:10E95000002C05D1181C2E300578002D47D01EE064
:10E960001088029E051C1235B54200D9CEE1112552
:10E970000D541088013D013080B210800D54108874
:10E9800001301080201C013C0F30067815880138BA
:10E990004E55158801351580A042F6D1DAE7148866
:10E9A000029FE61C0C20BE4200D9EBE102260E5568
:10E9B000148810300134A4B2148008551488013D25
:10E9C0000134A4B214801538032D00D9DAE1281CD3
:10E9D00000F060FF02040608002004E0012002E0CD
:10E9E0000E5501E0032008551088013010801F1CCF
:10E9F0002D331B78141C0D1C002B03D1BB78002B6E
:10EA000052D02EE01388029A09330C20934200D989
:10EA1000B8E104AE301CFFF7F7FE002800D0B1E1EA
:10EA2000082209212388EA542388133201339BB238
:10EA30002380EA54208802AB013080B22080C918BC
:10EA4000153A281800F0DBFF2388327806339BB292
:10EA50002380002A00D00122EA5423880133238036
:10EA6000CCE72388029A04330C20934200D989E131
:10EA700004AE301CFFF7CCFE002800D082E1032258
:10EA80002388EA542388163201339BB22380EA5448
:10EA90002388328801339BB22380EB181A70120A44
:10EAA0005A70238802332380FA78002A15D02388ED
:10EAB0000298D91C814200D928E10221E954238817
:10EAC000013901339BB22380E95423885B189BB240
:10EAD0002380EA5423885B1823807B68002B16D0A0
:10EAE0001A7823880298D91C814200D90EE10221AC
:10EAF000E9542388083101339BB22380E9542388E9
:10EB000001339BB22380EA542388013323803B895D
:10EB1000002B03D13B8A002B1AD00CE0381C029B3F
:10EB2000009401930830022106222B1CFFF7D6FE29
:10EB30000028EFD026E1381C029B0094019310308E
:10EB4000032107222B1CFFF7C9FE002800D019E182
:10EB50003B8B002B0CD0381C029B00940193183087
:10EB6000142115222B1CFFF7B9FE002800D009E163
:10EB70003B6A002B46D022880299944606320C202C
:10EB80008A4200D9FEE019880538052900D8F9E045
:10EB90007D4A7E4E8A1892B2B24200D8F2E05A887C
:10EBA0000392052A00D8EDE0774E9619774AB6B25F
:10EBB000964200D8E6E0764EB14205D0039AB242C2
:10EBC00002D0914200D9DDE0052261466A5412214B
:10EBD0002288013292B22280A9542288013292B254
:10EBE00022801988AA181170090A517022880232ED
:10EBF00092B222805988AB181970090A597023887B
:10EC0000023323807E6A002E31D0B38821881A1DFA
:10EC100052189446029A0C20944500D9B2E09A1CEE
:10EC2000FE2A00D9AEE0FF2203336B542388013360
:10EC30009BB22380EA54238801339BB2238032881D
:10EC4000EB181A70120A5A70238802339BB2238081
:10EC5000B288002A0BD0B1680538002900D191E0B4
:10EC6000E81800F0CCFE2288B388D31823803B1C20
:10EC70002C331B78002B04D13B78181E00D181E087
:10EC80003BE0BB6A002B00D17BE0002303933B1CDD
:10EC90002C331B78039A9342EED90C20039EBB6A57
:10ECA00046439E19B3889A1CFE2A6BD822880333E8
:10ECB000AB541622238801339BB22380EA54238865
:10ECC00001339BB223803288EB181A70120A5A70F3
:10ECD0002088023080B22080B288002A09D0B16832
:10ECE00000294ED0281800F08AFE2288B388D31855
:10ECF0002380039B0133DBB2C8E73A880720012A4F
:10ED000040D022880299901C884201D90C2039E019
:10ED1000012B05D17B78029902339B188B42F5D8E1
:10ED2000029E2818023EB61AB3B202936B4604AE96
:10ED30001B89311C3380FFF76DFD002822D13B7801
:10ED4000022B05D13388029909228B420AD905E0AA
:10ED5000012B03D17B78029A934201D96B461B8920
:10ED6000082233803188FE29D0D823880131E95424
:10ED7000238801339BB22380EA542388C918218059
:10ED800000E0072007B0F0BD7FF3FFFF7DF3000038
:10ED9000FFFF0000F0B593B06A461F2301AE971D38
:10EDA0000D1C33803B80002804D0C3785B0711D44E
:10EDB00007201FE0041C3080002D03D0EB78002BCF
:10EDC000F6D10FE02A1C3D8031783B78201CFFF7FC
:10EDD0001DFD0FE002A9321CFFF79AFD02AC0028CE
:10EDE000EAD007E03A1C281C0AA9FFF791FD0AAAFD
:10EDF0000028E9D013B0F0BD75DF704776DF7047AB
:10EE00007ADF70477BDF704737B5174B1888174B91
:10EE1000984227D0164A174D13782C1C0133DBB2C9
:10EE20001370297B994208D31349FFF7E5FF0028A7
:10EE300018D0AB69002B14D114E0002313702B7C85
:10EE4000002B08D03B21FFF7D9FF002803D0AB6986
:10EE5000002B00D098476369002B03D0002201A843
:10EE60000270984737BDC046A8320020FFFF00005F
:10EE70006A3200206C320020AA32002037B5174BCE
:10EE8000174A5B881188174C174D99420CD8528845
:10EE90009A4209D36369002B03D0012201A80270B2
:10EEA000984700232B7037BD2B78002B05D0636962
:10EEB000002BF6D001A80022F1E70C4B1B78002BA9
:10EEC00001D1616800E0A16809480022FEF740FC1A
:10EED0000028E6D0A369002BE2D1E2E762320020ED
:10EEE000AA3200206C320020603200206A320020FA
:10EEF00088320020144938B5021C0B1C32CA32C3B8
:10EF000032CA32C31268114C1A600022104B0168D9
:10EF10001A70201C914213D0083200F070FD201CA2
:10EF2000FFF76EFF00280ED101220021094B52424B
:10EF30001A80094B094A0A481970FEF7F1FB02E0F2
:10EF4000FFF760FFEEE738BD6C320020AA320020E8
:10EF500060320020A83200206A32002009EE03004F
:10EF600080FA030008B50248FEF736FC08BDC0462B
:10EF70008832002010B50388112B19D002D8102B2D
:10EF800005D041E0122B37D0502B20D03CE0011CA3
:10EF900082881E4B18311A801D48082200F02FFD70
:10EFA00000221C4B1A701C4BDB8993422CD129E0A8
:10EFB0000122164B52421A800022164B17481A7033
:10EFC000FEF70AFC00281FD0134B9B6910E0124C7F
:10EFD000C188E289914217D1038A022B14D1837C24
:10EFE000DB070FD40D48FEF7F7FB00280CD0A36910
:10EFF000002B09D0984707E0011C0822083104487B
:10F0000000F0FDFCFFF73AFF10BDC046A83200201B
:10F01000623200206A3200206C32002088320020E8
:10F02000A0DF7047A2DF7047A5DF7047A6DF7047FB
:10F03000A8DF704763DF7047F0B50E2499B0002851
:10F0400000D10EE1002900D10BE14B68002B00D16B
:10F0500007E101235B420380029101908249102263
:10F0600008A800F0CCFC0A21804B06AD2B8004AB35
:10F0700008A8C918FFF7DEFF041E00D0F1E0019BCD
:10F0800001201A1D291CFFF7CBFF041E00D0E8E069
:10F09000AB78019A11AD9371211C1C22281CFDF73D
:10F0A00087F804222B786C6013432B70019BEC6073
:10F0B0002C616C61AC619B7904AA93736C4B05AFB6
:10F0C0009381211C0322381CFDF772F800230122D2
:10F0D0003B70103313437B70BB7805329343043A83
:10F0E00013430632934308320CAE93430F3A134353
:10F0F000211C1332301CBB70FDF75AF807AB0C9380
:10F100001423B381019B34817481346177609888C2
:10F11000291C321C0833FFF785FF041E00D0A0E035
:10F12000211C1C22281CFDF743F808222B786C6058
:10F130001343921813432B70019BEC602C616C619C
:10F14000AC619B7904AA93734A4B211C9381381CB0
:10F150000322FDF72DF800230F223B707B78211C42
:10F1600093430E3A13430E321340013213437B7024
:10F17000BB780A3A9343043A134306329343083266
:10F1800013430F3A1343301C1332BB70FDF710F8D2
:10F1900007AB0C931723B381019B348174813461D5
:10F1A00077609888291C321C1033FFF73BFF041E40
:10F1B00057D1211C1C22281CFCF7FAFF02222B78B5
:10F1C0006C6013432B70019BEC602C616C61AC6133
:10F1D0009B7904AA9373284B211C9381381C03222A
:10F1E000FCF7E6FF0F223B78211C93430E3A1343B2
:10F1F0000E321340013213433B7000237B70BB7807
:10F200000A3A9343043A1343063293430832934332
:10F210000F3A1343301C1332BB70FCF7C9FF07AB26
:10F220003360022333810223B381029B74813361F3
:10F23000019B77609888291C321C2033FFF7F2FE6F
:10F24000041E0ED1029B5B680393039A019B9A6292
:10F25000029B9B68002B01D0019AD3620122074BCD
:10F260001A70201C19B0F0BD84FA0300301500009C
:10F27000321500003115000034150000B2320020B4
:10F28000F0B5061C87B00E20002E2AD03288164B0F
:10F2900006389A4225D0154B1B78002B21D0144CF0
:10F2A000080AE1702071080C090E0723A171694654
:10F2B0001022012702ADCB8060710021281C6370F1
:10F2C0002270A770FCF774FF338A30882B800023EC
:10F2D000AB806B46291C0633AF70AB60EC60FFF768
:10F2E000A5FE07B0F0BDC046FFFF0000B23200200F
:10F2F000B3320020F0B5061C87B00E20002E28D0B7
:10F300003288154B06389A4223D0144B1B78002BB9
:10F310001FD01123124D02AC2B700B0AAB700B0CDB
:10F32000EB706B469F1D05236970090E2971201C27
:10F33000002110223B80FCF73BFF338A308823807A
:10F340000123A3700023211CA380A760E560FFF7C1
:10F350006DFE07B0F0BDC046FFFF0000B2320020D6
:10F36000B3320020F0B5051C87B00E20002D23D04D
:10F370002C88124B06389C421ED0114B1B78002B58
:10F380001AD0104E1023717069468F1D032102ACF4
:10F390003980B27000211A1C201C3370FCF708FF62
:10F3A0002B8A288823800123A3700023211CA3809B
:10F3B000A760E660FFF73AFE07B0F0BDFFFF000070
:10F3C000B2320020B3320020F0B589B0002800D15D
:10F3D000BEE0002900D1BBE0826A002A00D1B7E07C
:10F3E0000B88112B1AD004D8102B00D0B0E08B88DA
:10F3F00016E00D1C041C502B02D0512B12D0A7E09C
:10F40000C9880389994200D0A2E0082304A90B709F
:10F410002B8A12350B724D60904799E001235B42B5
:10F42000038095E08A79022A00D091E00A89038A54
:10F430009A4200D08CE08B7B043B022B00D887E003
:10F440000223012204AF3B70BB7901AE1343BB71B1
:10F450000B8A07323B814B8A301C7B810B1C0021BD
:10F460001433FB60FCF7A4FE022333800023738077
:10F470006B4673602088A18A321CFFF7D5FD0028F7
:10F4800004D0E36A002B0AD0984708E06B466A462E
:10F490005B7812781B0213430122134207D1FE232B
:10F4A0002088FF33391CBB80FFF7C2FD4AE0B880DB
:10F4B000391C2088FFF7BCFD002843D1297D481E58
:10F4C00007283BD800F0E6F9040E1B1D1F21382346
:10F4D000002333706B8A012B02D8201C012108E025
:10F4E000012308E0012333706A8A9A4203D8201C62
:10F4F0000221062224E015353372756017E00223DD
:10F5000014E0032312E0042310E005230EE06B8ACD
:10F51000022B02D8201C082111E0AB7D6A7D1B0262
:10F520001343B38001D1073300E006233370A36A8D
:10F53000201C311C98470BE00923F7E7201C03220D
:10F54000FFF710FF002803D0E36A002B00D0984794
:10F5500009B0F0BD10B52D4B1A78012A19D12C4AEB
:10F560001268120715D12B4AE0241168F022081CFA
:10F57000104021420BD128490968114209D127497D
:10F58000274A11608021274A0902116001E03028D2
:10F59000F1D01A78012A0DD11D490968090709D14E
:10F5A000F0201C4909680140402903D11A49096823
:10F5B000014223D01B68DBB2012B25D1144B1B6801
:10F5C0001B0721D1134B1A68F0231A40A02A04D13B
:10F5D000114A12681A4203D016E0D02A14D1F7E774
:10F5E000114B1A68012A03D1C022104B1A600BE09C
:10F5F0000F4A1A601A68012AFCD1F5E7C121802060
:10F60000C900C0054250D5E710BDC046E00F00F06C
:10F61000E40F00F0E80F00F0EC0F00F0DFFF07C090
:10F6200004050040186C004000EC064014EC064055
:10F630007593000052DF704710DF704760DF70473E
:10F6400061DF704708B5FDF7ADFC08BDF0B5254B8F
:10F6500085B01B78002B43D0234D244E2B68346893
:10F660005A425341DBB2009363425C41E4B2009BD7
:10F67000002B33D103A8FFF7DDFF052808D00028B1
:10F6800002D0FDF781FC05E003982B68984701E064
:10F6900001230093002C1DD1154B03A91B880124C5
:10F6A0000B80144B1B68181C0193FFF7C9FF071E42
:10F6B000052F09D0002803D0FDF766FC002403E0E5
:10F6C0000198336898473C1C009B002BCFD0002C3E
:10F6D000CDD005E0009B002B02D1C8E7002CDBD089
:10F6E00005B0F0BDBA320020C4320020C83200207C
:10F6F000BC320020C032002038B5041C072000298D
:10F7000024D08D0722D1124801601249201C0A80A2
:10F71000114A12491360FFF78FFF051E16D101220F
:10F720000F4B10491A70C5239B00CB585B0201D4C4
:10F730000D480BE080240D4BE4035868002804D0EA
:10F740001A68281C22431A6000E00C6038BDC046CD
:10F75000C0320020BC320020CC32002045F603002D
:10F76000BA32002000E100E002200000D032002088
:10F770000E23002802D0024B18600023181C70478B
:10F78000C83200200E23002802D0024B186000234C
:10F79000181C7047C432002008B5064B1B68002BAC
:10F7A00005D09847002804D0FDF7EEFB01E0FFF7F5
:10F7B0004DFF08BDCC32002070B5141C051C0E1C7A
:10F7C000101C00211422FCF7F3FC0022012322610B
:10F7D000227B23809A43227326726572002D00D00B
:10F7E000A372002070BD000007B5044B6946019369
:10F7F000019B0093FFF722FF0EBDC046782A002030
:10F8000008B5002902D00020FDF7BEFBFFF71EFF60
:10F8100008BD0000002008B5011C024AFDF7F4FBFA
:10F8200008BDC04601F8030003210D4802680A43E1
:10F8300002600C4802680A4302600B490B4A0C4BF9
:10F840009B1A03DD043BC858D050FBDC09490A4A27
:10F850000A4850500439FCDA0948804709480047F3
:10F8600024050040540500409CFA0300782A00203B
:10F87000E02A0020FC050000E038002055555555D1
:10F8800055F50300C1C00300FEE7FEE7FEE7FEE713
:10F89000FEE7FEE702B4714649084900095C4900E9
:10F8A0008E4402BC7047C04603B47146490840000C
:10F8B0004900095A49008E4403BC7047002243089E
:10F8C0008B4274D303098B425FD3030A8B4244D328
:10F8D000030B8B4228D3030C8B420DD3FF2209026A
:10F8E00012BA030C8B4202D31212090265D0030B29
:10F8F0008B4219D300E0090AC30B8B4201D3CB031F
:10F90000C01A5241830B8B4201D38B03C01A524160
:10F91000430B8B4201D34B03C01A5241030B8B4262
:10F9200001D30B03C01A5241C30A8B4201D3CB024D
:10F93000C01A5241830A8B4201D38B02C01A524132
:10F94000430A8B4201D34B02C01A5241030A8B4235
:10F9500001D30B02C01A5241CDD2C3098B4201D34D
:10F96000CB01C01A524183098B4201D38B01C01ACB
:10F97000524143098B4201D34B01C01A5241030942
:10F980008B4201D30B01C01A5241C3088B4201D3F1
:10F99000CB00C01A524183088B4201D38B00C01A9E
:10F9A000524143088B4201D34B00C01A5241411AC5
:10F9B00000D20146524110467047FFE701B50020D2
:10F9C00000F00CF802BDC0460029F7D003B5FFF7E0
:10F9D00075FF0EBC4243891A1847C0467047C0469F
:10F9E00030B50024944208D0035D651C0C5DA34231
:10F9F00001D0181B02E02C1CF4E7002030BD0023CE
:10FA000010B5934203D0CC5CC4540133F9E710BD68
:10FA10000023C25C0133002AFBD1581E704700004E
:10FA2000F8B5C046F8BC08BC9E467047F8B5C0465D
:10FA3000F8BC08BC9E46704743000000782A0020AE
:10FA4000486C6E42746C647200000000EC2E002062
:10FA5000248700020E0000000B0000000A000000D6
:10FA6000FF0000001B000000030000000900000070
:10FA70000D000000FF0000000D000000842F00209A
:10FA80008832002023D1BCEA5F782315DEEF121202
:04FA90000000000072
:08FA94002CC6FF7F01000000F9
:10FA9C00000000000000000000000000000000005A
:10FAAC00000000000000000000000000000000004A
:10FABC0038FA030000000000000000000000000005
:10FACC00000000000000000000000000000000002A
:10FADC00000000000000000000000000000000001A
:10FAEC00000000000000000000000000000000000A
:08FAFC00FFFF000032000000D2
:020000020000FC
:020000041000EA
:0410140000C0030015
:0410800024870002BF
:040000033000F829A8
:00000001FF
