:020000021000EC
:10C00000C03E002099140300F9140300117A0200C5
:10C010000000000000000000000000000000000020
:10C02000000000000000000000000000FD140300FC
:10C030000000000000000000FF14030001150300D1
:10C040000315030003150300031503002904020070
:10C050000315030000000000BDDD020005B802006A
:10C060000315030065E20200031503000315030036
:10C070000315030003150300031503000315030054
:10C080002DE302000D060300031503000315030052
:10C09000F106030003150300C51303000315030095
:10C0A000031503000315030000000000000000005A
:10C0B0000000000000000000000000000000000080
:10C0C000164B002B00D1144B9D46402292029A1A27
:10C0D000924600218B460F461348144A121A00F06C
:10C0E00067F80F4B002B00D098470E4B002B00D069
:10C0F00098470020002104000D000D48002802D0C0
:10C100000C4800E000BF00F02DF8200029000DF0E1
:10C11000A5FB00F011F8C04600000800C03E00205A
:10C1200000000000000000001C2700205C370020F9
:10C130000000000000000000084B10B5041C002B9C
:10C1400002D0002100E000BF054B1868836A002B75
:10C1500000D09847201C00F033F8C04600000000D3
:10C16000F44103000E4B70B500251E1C0D4CE41A63
:10C17000A410A54204D0AB00F35898470135F8E766
:10C1800018F02AF8084B00251E1C084CE41AA410CD
:10C19000A54204D0AB00F35898470135F8E770BDCD
:10C1A0000C2700200C2700200C2700200C27002043
:10C1B000031C8218934202D019700133FAE77047CA
:10C1C000FEE7C046F0B54D4644465F46564601235D
:10C1D000F0B485B001AE33700023AC4F73707B6850
:10C1E000051C18783B680C1C9146597D0222331CB3
:10C1F0000BF0C8FF8046002800D022E1C82011F0D3
:10C200006BFC434633707B68012218783B68597C8D
:10C21000331C0BF0B7FF002800D012E17B6801222D
:10C2200018783B685979331C0BF0ACFF002800D01C
:10C2300007E17B68012218783B68597D331C0BF0BD
:10C24000A1FF002800D0FCE07B68012218783B6841
:10C25000997E331C0BF096FF002800D0F1E07B683C
:10C26000012218783B681979331C0BF08BFF0028EA
:10C2700000D0E6E00C2333707B68012218783B681D
:10C280001979331C0BF07EFF002800D0D9E00F3065
:10C2900011F022FCBB6A01225B7A33707B6818784C
:10C2A0003B689978331C0BF06DFF002800D0C8E084
:10C2B000BB6A01221B7A33707B6818783B68597817
:10C2C000331C0BF05FFF002800D0BAE04B46002B78
:10C2D00000D1BFE02022BB6A52429B7A90461343B2
:10C2E00033707B68213218783B689979331C0BF0E6
:10C2F00049FF002800D0A4E04246BB6ADB7A1A431B
:10C300007B68327018783B680122D979331C0BF0B6
:10C3100039FF002800D094E0C83011F0DDFB402345
:10C3200033707B68012218783B681979331C0BF055
:10C3300029FF002800D084E0782333707B68012235
:10C3400018783B685979331C0BF01CFF8046002895
:10C3500077D1322011F0C0FB434633707B68012255
:10C3600018783B685979331C0BF00CFF002868D112
:10C370007B68022218783B68197B331C0BF0A2FE05
:10C38000814600285DD130787378000218430C2173
:10C3900015F0DAFDC3B298464B46AB606B602B607C
:10C3A000A36063602360002399464346002B3ED17F
:10C3B0006EE0B378F1781B021943337972791B026E
:10C3C0001A43337870781B02034320681BB28446FB
:10C3D000634423600BB261688C466344636013B2AC
:10C3E000A26894466344A360327A707AB37A1202E8
:10C3F0000243F07A1B020343B079F179000208434B
:10C40000296812B28C4669681BB28B4693445A461F
:10C410006A60AA6800B292469A445346AB604B46A3
:10C4200001336044DBB228609946984535D97B6872
:10C430000C2218783B68597B331C0BF043FE002814
:10C44000B7D00120404205B03CBC90469946A24678
:10C45000AB46F0BDBB6A01229B7A33707B681878CB
:10C460003B689979331C0BF08DFE0028E9D1182325
:10C4700033707B68012218783B68D979331C0BF044
:10C4800081FE002800D14AE7DBE7C0466426002091
:10C490006B6828689B46AB689A46C117030C090471
:10C4A000194383220023000415F066FF424600234F
:10C4B00015F062FF5B46D91709041B0C19435B4654
:10C4C000286083221804002315F056FF42460023FB
:10C4D00015F052FF5346D91709041B0C1943534654
:10C4E000686083221804002315F046FF42460023AB
:10C4F00015F042FFA8602368D9171A0C1E04002308
:10C500000F041743F9174A0D92197B415905D00AB8
:10C5100008434246D912002315F02EFF63682060BD
:10C52000DE171A0C1804002331041143CE17720DC4
:10C5300012184B415905D00A08434246D91200232C
:10C5400015F01AFFA3686060DE171A0C18040023A8
:10C5500031041143CE17720D12184B415905D00A00
:10C5600008434246D912002315F006FFA0600028B8
:10C5700005DD064B9C466044A060002063E78023F5
:10C580005B029C466044A06000205CE70000FFFF67
:10C5900030B5244C83B0A37C002B40D063680122CB
:10C5A0001878236819796B46DD1D2B1C0BF08AFD6A
:10C5B000002831D1A37ADB072AD420222B78934399
:10C5C0002B70636801221878236819792B1C0BF0F3
:10C5D000D9FD002820D1033011F07EFA2223E35C3C
:10C5E0003022002B01D0B02280232B702323E35C68
:10C5F000002B00D02A706368012218782368D97D47
:10C600002B1C0BF0BFFD002806D1A07403B030BD79
:10C6100020232A781343D3E701204042F6E7002085
:10C62000F4E7C0466426002030B51C4C83B0636834
:10C63000051C0621187802226B460BF043FD0028EA
:10C6400029D16368082118786B46022202330BF067
:10C6500039FD00281FD163680A211878022201AB36
:10C660000BF030FD002816D16B466A461B785278D5
:10C670001B0213432B606B466A469B78D2781B02E1
:10C6800013436B606B466A461B7952791B02134356
:10C69000AB6003B030BD01204042FAE764260020C1
:10C6A00030B51C4C83B06368051C13211878022236
:10C6B0006B460BF007FD002829D163681521187817
:10C6C0006B46022202330BF0FDFC00281FD1636889
:10C6D00017211878022201AB0BF0F4FC002816D1C8
:10C6E0006B466A461B7852781B0213432B606B46DD
:10C6F0006A469B78D2781B0213436B606B466A468E
:10C700001B7952791B021343AB6003B030BD01208B
:10C710004042FAE764260020002330B589B003AC1C
:10C72000051C05A823706370A370E3702371637107
:10C73000059306930793FFF7B3FF002836D1059BB7
:10C740002A68991A069B6A6805919A1A079B0692AD
:10C7500001930198AB68174DC31A079308126170D3
:10C76000E270111263711A126B68A170227120704D
:10C77000187813210222231C0BF004FD002815D188
:10C780006B681521187802AB022206330BF0FAFC15
:10C7900000280BD16B6817211878022204AB0BF02C
:10C7A000F1FC431E9841404209B030BD0120404297
:10C7B000FAE7C04664260020002330B589B003ACF8
:10C7C000051C05A823706370A370E3702371637167
:10C7D000059306930793FFF727FF002839D101201F
:10C7E0002968059B81436A68591A069B82439A1AF5
:10C7F000AB68194D834307980591C31A06920793B6
:10C800006170E27063710190081211121A126B6864
:10C81000A17022712070187806210222231C0BF0CF
:10C82000B1FC002815D16B680821187802AB0222F0
:10C8300006330BF0A7FC00280BD16B680A2118788F
:10C84000022204AB0BF09EFC431E9841404209B00B
:10C8500030BD01204042FAE76426002030B5574C35
:10C8600083B0A37A002B00D19BE06B46DD1D002333
:10C870002B706368012218782368597C2B1C0BF0FD
:10C8800081FC002800D08CE06368012218782368BE
:10C8900059792B1C0BF076FC002800D081E06368EE
:10C8A00001221878236819792B1C0BF06BFC0028E7
:10C8B00000D076E02423E35C002B38D00C232B70CF
:10C8C000636801221878236819792B1C0BF05AFC35
:10C8D000002866D1323011F0FFF8C0232B70A37A04
:10C8E000DB0766D4636801221878236819792B1C4A
:10C8F0000BF048FC002854D1637C002B5CD12B70DA
:10C900006368012218782368597C2B1C0BF03AFCD1
:10C91000002846D163682870187823680122597965
:10C920002B1C0BF02FFC431E9841404237E00423A0
:10C930002B70636801221878236819792B1C0BF07F
:10C9400021FC00282DD1A27C4023002A2CD02B7062
:10C95000636801221878236819792B1C0BF012FCEC
:10C9600000281ED1323011F0B7F8637C5A1E934173
:10C970002B706368012218782368597C2B1C0BF0FC
:10C9800001FC00280DD163680122187823685979C9
:10C99000231C10330BF0F6FB431E9841404203B0BA
:10C9A00030BD01204042FAE7A27AD207CFD520332A
:10C9B000CDE7E0232B7095E70223A0E76426002053
:10C9C00010B5114A011C537A012B19D0002B13D03A
:10C9D000022B0AD0032B0CD1102320240370D37C0C
:10C9E0000020002B00D00C7010BD08231024037011
:10C9F000F5E701204042F7E7022304240370EEE745
:10CA0000042308240370EAE76426002070B51D4C57
:10CA100082B0A37A002B24D004282DD009D908286D
:10CA200024D010281DD16B46DD1D18232B70153B1B
:10CA300005E0022815D16B46DD1D00232B70627ABC
:10CA400000269A420FD06368012218782368D979AA
:10CA50002B1C0BF097FB002803D12B78DB086372AB
:10CA600001E001267642301C02B070BD6B46DD1D30
:10CA700010232B700E3BE2E76B46DD1D08232B7065
:10CA8000073BDCE76426002070B51C4C82B0A37A1B
:10CA9000002B27D06B46DD1DBB2816D8612817D97F
:10CAA00002232B70E27A00269A420BD0636801229F
:10CAB0001878236899782B1C0BF064FB002811D19F
:10CAC0002B78E372301C02B070BD01232B70E9E7B4
:10CAD000292804D8132808D904232B70E2E703235C
:10CAE0002B70DFE701267642ECE7092802D90523FF
:10CAF0002B70D7E706232B70D4E7C04664260020AE
:10CB000010B5144A011C537A012B1FD0002B17D0EB
:10CB1000022B0CD0032B10D1802380241B01038017
:10CB2000E400D37C0020002B00D00C8010BD8023BB
:10CB300080245B0103802401F3E701204042F5E7F4
:10CB400080238024DB010380A401EAE7024B034C2D
:10CB50000380E6E7642600209C1F0000CE0F000043
:10CB6000242370B52C4D82B0EB5C0024002B23D124
:10CB7000AC7A002C4CD00133984304402E7C2C74AA
:10CB8000041B621E94416442002818D12A7D002AA9
:10CB900030D06A7C002A0FD16A46D3716B680122BB
:10CBA00018782B68597C6B4607330BF0EBFA00289A
:10CBB00002D16B46DB796B74201C02B070BD6A7CBD
:10CBC000002A0FD16A46D3716B68012218782B684E
:10CBD000597C6B4607330BF0D5FA002802D16B461F
:10CBE000DB796B74FFF73AFE0028E5D001242E7440
:10CBF0006442E1E76B46DA716B68013218782B68A2
:10CC0000597C6B4607330BF0BDFA0028D1D0D3E72F
:10CC100001246442D0E7C04664260020232370B577
:10CC20005E4C82B0061CE35C01AD00282CD1002BC9
:10CC300018D02870A27C8023002A02D07E3B2B7063
:10CC400080332222A25C002A00D02B70636801226C
:10CC500018782368D97D2B1C0BF094FA002801D199
:10CC60002323E05400232B7007336B706368022288
:10CC700018782368597D2B1C0BF084FA002800D00B
:10CC800073E0207502B070BD012B1AD030232B70D9
:10CC9000A27C8033002A02D07E3B2B70803322227C
:10CCA000A25C002A00D02B706368012218782368E8
:10CCB000D97D2B1C0BF066FA002802D10122232318
:10CCC000E25420232B70012E42D0052E50D9142E71
:10CCD00031D903236B70A37A002B56D004236A4604
:10CCE000D370E37A042B50D063680122187823684C
:10CCF00099786B4603330BF045FA002847D16B4611
:10CD00000722DB78E3726B789B011343DBB26B7015
:10CD10006368022218782368597D2B1C0BF032FAC5
:10CD2000002822D10823A372073B20732375FFF745
:10CD300017FF0020A6E702236B70A37A002B05D013
:10CD400005236A46D370E37A052BCDD18723DEE72E
:10CD500000236B70A37A002B05D006236A46D3709C
:10CD6000E37A062BC0D10723D1E70120404289E7AF
:10CD700001236B70A37A002B05D006236A46D3707B
:10CD8000E37A062BB0D14723C1E7C723BFE76B780F
:10CD90009A0107231343DBB2B9E7C046642600209B
:10CDA00070B5584C82B0A37A061C002B00D195E0D8
:10CDB0002423E35C002B00D090E0227D002A30D0B9
:10CDC000421E272A00D885E02322A25C01AD002A5A
:10CDD00018D02B70A37C8022002B02D002230232B9
:10CDE0002B702223E35C002B00D071E063680122EA
:10CDF00018782368D97D2B1C0BF0C4F9002801D1C9
:10CE00002323E05400232B7007336B7063680222E6
:10CE100018782368597D2B1C0BF0B4F9002800D139
:10CE20002075F920032E31D86B46D8706368012233
:10CE30001878236859786B4603330BF0A3F9002860
:10CE40004CD16B46FA20D9788000013115F00CF9ED
:10CE5000A37A80B2E0814008002B14D001ADBB283A
:10CE600021D9012301222B70E37A93420BD063680E
:10CE700001221878236899782B1C0BF083F900287D
:10CE800001D12B78E372002002B070BDFA23311C6F
:10CE90009B009E420FD8FA2089B2800015F0E4F87A
:10CEA0000138C0B2C0E761280ED8292819D9032358
:10CEB00003222B70D8E7FA20191C89B2800015F0E4
:10CEC000D3F80138C0B2AFE7022302222B70CBE7C0
:10CED0002A708BE7FFF7A2FE0020D5E70120404231
:10CEE000D2E7132805D8092807D9052305222B7076
:10CEF000BAE7042304222B70B6E7062306222B7020
:10CF0000B2E7C04664260020F0B54F46464670237F
:10CF1000C0B4051C83B0034069D06B469E1D01233D
:10CF20003370484C0122636818782368597D331C9C
:10CF30000BF028F9002800D07EE0402233783070D2
:10CF4000934323732A4266D03A2084463738814679
:10CF500001383823392201213B278046A80604D412
:10CF600043463A1C337049466346E80601D4131C15
:10CF700031702A0700D4337063680122187823685F
:10CF8000997D331C0BF0FEF8002855D108232A1C8C
:10CF90009A4320D02323E35C002B1CD06B46D8712E
:10CFA000A37C8022002B03D06A460223D371822205
:10CFB0002223E35C002B01D06B46DA716368012207
:10CFC00018782368D97D6B4607330BF0DBF800280F
:10CFD00001D12323E05400233220A572237510F0E1
:10CFE0007BFD002003B00CBC90469946F0BD0028A4
:10CFF0001ED16B464027134C9E1D6368377018780E
:10D0000023680122597D331C0BF0BCF8002813D192
:10D010003378BB4323733E2004238446373881464C
:10D02000013833703D22383305213F27804695E78C
:10D030006A46961D337074E700230120A3724042B4
:10D04000D0E7C0466426002030B585B080236A460C
:10D05000484C13726368012218782368597D02AB2B
:10D060000BF090F8051E00D081E0642010F034FD34
:10D070006B461D726368012218782368597D02ABE4
:10D080000BF080F8051E00D071E00122FF23524210
:10D09000A37223726372E372E2812274A374233257
:10D0A000FE3BA35423732233E054E0746075207573
:10D0B000201C00211630163AFFF77AF82423E55495
:10D0C0000133E554A37AE584002B50D06B46DD1D77
:10D0D00018232B70237A032B0FD063680122187852
:10D0E000236899792B1C0BF04DF800283FD12B7841
:10D0F000DB082372A37A002B39D000232B70637ACC
:10D10000002B0FD06368012218782368D9792B1C73
:10D110000BF038F800282AD12B78DB086372A37A49
:10D12000002B24D003232B70E37A032B0BD06368EE
:10D1300001221878236899782B1C0BF023F800281B
:10D1400015D12B78E3723220FFF72AFE00280ED18A
:10D150000020FFF705FD002809D1FFF719FA041E8A
:10D1600005D10020FFF7D0FE201C05B030BD012402
:10D170006442F9E764260020F0B54F464646242372
:10D18000C0B4284C83B0E35C071C89469046002B52
:10D190003BD0A37A002B38D0636801AE187823689F
:10D1A0000222197B331C0AF08DFF00282DD135781F
:10D1B00073782D021D43BD422AD3626853885B08F1
:10D1C0009D420CD923681078D97C0122331C0AF0C7
:10D1D00079FF002819D13378DB061DD462682368F3
:10D1E0001078597BFAB24B460AF06CFF00280CD13C
:10D1F000281C391C14F0A8FE434601381870002082
:10D2000003B00CBC90469946F0BD01204042F7E7C0
:10D21000434618700138F3E7FFF720FB0220404235
:10D22000EEE7C0466426002070B50D1C82B0161EC5
:10D2300022D0134CA37A002B1ED0020A01AB1A7025
:10D24000C0B26268587040185189884214DC107866
:10D250002268D17E02220AF095FF00280CD1636873
:10D26000EAB218782368197E331C0AF08BFF431E3C
:10D270009841404202B070BD01204042FAE7C046EA
:10D2800064260020F0B556465F464D464446F0B44D
:10D290008BB003932523514E01910292F35C824699
:10D2A000002B75D1002973D0002800D17BE0041E2B
:10D2B000102C00DD75E0A3B29B46B37A002B67D03B
:10D2C000002305AF71683B707B704B899C425FDC2B
:10D2D000019B0025984638E033681078D97E0222F9
:10D2E0003B1C0AF04FFF002852D173684A46187859
:10D2F0003368197E06AB0AF0E5FE002848D14046A7
:10D3000006A9221C16F0D9FE002863D15D44ADB2F7
:10D31000AA4549D953465C1B102C00DD1024A3B24A
:10D320009B46019B9846A8444346002B30D0B37AD5
:10D33000002B2DD02B0AEAB23B70716823047A705F
:10D340001B0CD3184A89934222DC336808780222E6
:10D35000D97E3B1C0AF016FF002819D1E3B299468A
:10D3600073684A4618783368197E43460AF00AFF04
:10D3700000280DD1B37A002B0AD02B0A3B707268BB
:10D38000EBB27B702404240C51891B198B42A3DD62
:10D39000012040420BB03CBC90469946A246AB46A9
:10D3A000F0BD102487E705AF029A130A3B7073683B
:10D3B0007A70187833680222597F3B1C0AF0E2FE2B
:10D3C0000028E5D125230122F2546B469B890020D9
:10D3D000F384DFE702204042DCE7C04664260020F9
:10D3E000242330B53A4C83B0E35C83423AD0002822
:10D3F0003FD02522A25C002A60D0002B35D1A27A32
:10D40000002A5ED06A46D51D2B7063680122187809
:10D410002368597C2B1C0AF0B5FE002801D12B781B
:10D420006374FFF7B5F8E08CFFF7BAFC6B46002297
:10D4300006331A7062682321107801220AF0A2FED6
:10D4400024230122E254223B2B706368187823685E
:10D45000597C2B1C0AF096FE002801D12B786374AE
:10D46000FFF7FCF9002003B030BD6B46DD1D002343
:10D47000CAE7002B1ED1A27A002A25D06A46D51D04
:10D480002B706368012218782368597C2B1C0AF0E2
:10D4900079FE002801D12B786374237C01222B7044
:10D4A0006368232118782B1C0AF06CFE00222423C9
:10D4B000E254D5E76B46DD1D2870E2E701204042CB
:10D4C000D1E76B46DD1DACE76B46DD1DE5E7C046E9
:10D4D00064260020F0B55F46444656464D46242358
:10D4E000F0B4C54C97B00190E25C0F1C002A00D04C
:10D4F00090E1002313AD0693237A012B2DD0002B4E
:10D5000028D0022B1CD0032B33D1FA23DB009A4600
:10D51000637A012B1AD0002B27D0022B21D0032BAA
:10D5200006D1202310219B46E37C002B00D18B46A3
:10D53000E37A062B00D9C6E0B0499B00CB589F4642
:10D54000FA239B009A46637A012BE4D10823042135
:10D550009B46E9E7FA239A46DAE7FA235B009A4604
:10D56000D6E7102308219B46DEE7042302219B46D1
:10D57000DAE700239A46CBE7BC230093002A01D1C7
:10D58000E3890793A37A019E0593237C301C391C01
:10D5900000220493FEF716FE002800D196E0301C0E
:10D5A000391C0022FEF70EFE002800D18EE0002676
:10D5B000FF23012223726372E3722374FE3B237301
:10D5C000F4335242FF33E281A2729A4500D10FE157
:10D5D00000D8E8E0FA239B009A4500D105E1FA2340
:10D5E000DB009A4511D118232B706368012218784B
:10D5F000236899792B1C0AF0C5FD002802D12B78ED
:10D60000DB082372A37A002B37D05B46042B00D1B2
:10D61000E3E000D8D4E05B46082B00D1E1E0102B1A
:10D6200015D1182303222B70637A93420FD06368BD
:10D63000012218782368D9792B1C0AF0A3FD002851
:10D6400002D12B78DB086372A37A002B15D0009BE4
:10D65000BC2B00D0AEE00122BB3B2B70E37A93429F
:10D660000BD0636801221878236899782B1C0AF084
:10D6700089FD002801D12B78E3720798FFF790FB12
:10D680000598FFF741FC0498FFF76AFA069B002B08
:10D6900002D00120FFF7A4FE301C17B03CBC90461E
:10D6A0009946A246AB46F0BD0523009366E70A23E0
:10D6B000009363E71423009360E72A2300935DE758
:10D6C000622300935AE70023009357E70DA810A99F
:10D6D0000122FEF777FD002807D00DA810A901222E
:10D6E000FEF770FD002800D061E763680CAE187883
:10D6F0000D210422331C0AF0E5FC002800D130E1A2
:10D700000023984603935346B94600264746AA4647
:10D71000089318220AAB9B189B5902934B46029A16
:10D720009B59981A16F0C5FC15F000FDDE218905FD
:10D7300015F02CFA53469B59051C0021181C9846DD
:10D7400014F0CEFD002800D18FE0281C2C4914F0E5
:10D75000CDFD002805D1281C2A4914F0DBFD002846
:10D7600004D00123BB40039A1A43039204360137C5
:10D770000C2ECED1089B55469A466B461B7B0D213D
:10D7800002936368032218782B1C0AF09BFC002389
:10D79000002800D17EE0029A002A01D10232134310
:10D7A00004261E4304E75346FA2B00D02DE700233E
:10D7B0002B701AE7612B0AD9022302222B704DE746
:10D7C000022B00D043E7002300222B702CE7292BEB
:10D7D0001AD9032303222B7040E7082301222B7060
:10D7E00022E7102302222B701EE710232B70FCE689
:10D7F00008232B70F9E6C04664260020F841030098
:10D800009A99993E3333733F132B24D9042304226E
:10D810002B7023E7002313AD2B7063680122187867
:10D820002368597C2B1C0AF0ADFC002801D12B7811
:10D830006374237C01222B706368232118782B1CCE
:10D840000AF0A0FC24260023A355FFF707F80123C4
:10D85000A25D069350E6092B03D9052305222B7000
:10D86000FCE6062306222B70F8E64146281C14F03D
:10D870009BFFFE21890515F0BBFA16F061F914F043
:10D88000D3F88022564B920514F00AFD002800D1EF
:10D890006CE766E71F222B78A94613402B706B7844
:10D8A000002713406B70AB781340AB7000231D1C36
:10D8B00009930C22019B5B5903930AAB9B185B599C
:10D8C0000893089A039B981A16F0F3FB15F02EFCA8
:10D8D000DE21890515F05AF94B46DE5D8046002EA3
:10D8E00033D0013EF6B2DE553E49002E0AD0081C68
:10D8F000013E3D49F6B215F049F9002EF8D14B46EC
:10D90000011CDE55404614F04FFFFE21890515F03D
:10D910006FFA16F015F914F087F88022304B920553
:10D9200014F0BEFC002804D00123BB40099A1A431E
:10D93000099201370435032FBBD16B4624229B1873
:10D940001E784D467342734125E7284914F0CEFCFA
:10D950000028E9D14046264914F0DCFC0028E8D034
:10D96000E2E71F21F378A9469A06900F3278B8466D
:10D970008A43D21002430AA802711A07900F7278E4
:10D980004F468A43D21002430AA84271B2788A43B2
:10D990001C39D2100B401343837100231D1C0BABA9
:10D9A0005E5D002E08D100233B6001350437032D56
:10D9B000F5D147464D46A3E60E4B013E3B60F6B21D
:10D9C0000BAB5E55002EF0D00A48013E0A49F6B274
:10D9D00015F0DCF8002EF8D10BAB38605E55E4E7AB
:10D9E00085EBC13F0000C84154E3853F0000204162
:10D9F0000000D2427B14AE3E1D5A843F802208B5FF
:10DA000003480449D200C823FFF73CFC08BDC046C8
:10DA1000F60B0000B4420300F0B5404C87B002AFF3
:10DA2000051C03AE211C0322381C16F055FB211DDA
:10DA30000322301C16F050FB211C0322083104A8DD
:10DA400016F04AFB211C03220C3105A816F044FBFA
:10DA50000321081C6A466C4628403B5C1370EA08A8
:10DA60000A40BB5CB25C6370AB090B40F95CF35CD1
:10DA7000A170315C01AC21706270294803216A46B3
:10DA8000A370FFF7D1FB002845D126480321221CB3
:10DA9000FFF7CAFB00283ED104A90322684616F00E
:10DAA0001BFB201C05A9032216F016FB6B0708D5EB
:10DAB0006A460123694612781A430A702278134392
:10DAC0002370AB0608D56A460123694652781A438B
:10DAD0004A70627813436370EB0512D488200321E7
:10DAE000C0006A46FFF7A0FB002814D10E480321AE
:10DAF000221CFFF799FB00280DD10C4B1D8107B0AC
:10DB0000F0BD6A460123694692781A438A70A2786A
:10DB10001343A370E2E701204042F0E768420300AC
:10DB2000260400002A040000310400001C27002005
:10DB300010B5144986B0041C103103A80C2216F04D
:10DB4000CBFAC82C1AD8211CC82014F08DFA013841
:10DB500080B201AA030A507002210B481370FFF72C
:10DB600063FB00280AD109480C2103AAFFF75CFBDC
:10DB7000002803D1064B9C8106B010BD0120404215
:10DB8000FAE7C0466842030016020000C10A00001E
:10DB90001C270020F0B583B043076CD0C823DB00FE
:10DBA000994268D8041C081C15F008FB4D4914F074
:10DBB000FBFD6B46DD1C071C281CFEF701FF2B78C4
:10DBC000042B00D17DE033D9082B6AD0102B52D121
:10DBD0008A21381CC90514F0D9FF14F01BFC4249F6
:10DBE00086B2381C14F0D2FF14F014FC80B201ADE0
:10DBF000330A2B70030A6E70AB70E870E30729D408
:10DC0000A3073CD40020630737D5EE200221400053
:10DC10002A1CFFF709FB00282DD16B462D309A1DD9
:10DC2000FF300221FFF700FB431E9841404224E0F1
:10DC3000022B20D18D21381CC90514F0A7FF14F048
:10DC4000E9FB2A4986B2381C14F0A0FF14F0E2FB6D
:10DC500080B2CCE7EA20022140002A1CFFF7E4FA58
:10DC6000002808D16B462530FF3002219A1DFFF7AE
:10DC7000DBFA0028C4D00120404203B0F0BDEC2004
:10DC8000022140002A1CFFF7CFFA0028F3D16B468F
:10DC90002930FF3002219A1DFFF7C6FA0028B1D0C3
:10DCA000E9E78B21381CC90514F070FF14F0B2FBB2
:10DCB0000F4986B2381C14F069FF14F0ABFB80B238
:10DCC00095E78C21381CC90514F060FF14F0A2FB05
:10DCD000084986B2381C14F059FF14F09BFB80B23F
:10DCE00085E7C046000048430000C04400004046AD
:10DCF000000040450000C045F0B54E464546574639
:10DD0000E0B486B0934B03AC061C221C68200421AF
:10DD10000393FFF789FA4022A323324023709046F1
:10DD200000D110E11D3363700833A370063BE3702C
:10DD3000C0277F00374000D100E1C423237108339E
:10DD40006371063BA371A323221C83480A21E3715C
:10DD500023726372FFF768FA0323334099464A46F9
:10DD6000D823002A00D0B83B01217C48221C237014
:10DD70006D46FFF759FA68467949B30600D4DBE0EF
:10DD80001C31092216F0A8F997200921C0002A1C8D
:10DD9000FFF74AFA002F09D0F30500D5D7E0714B01
:10DDA000039371480421221CFFF73EFAF30700D4C5
:10DDB000B9E08B20F823221C012100012370FFF71A
:10DDC00033FAFA210720FFF7E5FEA4203F230121C3
:10DDD0002A1C40002B70FFF727FA002350209A4698
:10DDE00001212A1CFF302B70FFF71EFA5346EF204B
:10DDF0002B70142302212A1C40006B70FFF714FAC9
:10DE00005346ED202B70642302212A1C40006B70C6
:10DE1000FFF70AFA53462B708E23AE206B706B33DC
:10DE2000AB700421693B2A1C4000EB70FFF7FCF942
:10DE30005346AD202B70082302212A1C40006B7032
:10DE4000FFF7F2F95346AC202B7002234000022169
:10DE50002A1C6B70FFF7E8F9022333405A42534102
:10DE6000D9224248D31A0121221C2370FFF7DCF982
:10DE7000730752D53E4B009304212A1C3D48FFF7FF
:10DE8000D3F9FEF7EBFCF30641D53B4B009304219D
:10DE90002A1C3A48FFF7C8F9FEF7E0FC0823384C83
:10DEA00033436381FEF7DAFC4346002B22D10A207C
:10DEB000434684460C3082461038A3731422042350
:10DEC00010211A258046002F04D043462A1CA37334
:10DED000514663461420304201D0131CA1734A46B8
:10DEE000002A00D0A373002006B01CBC90469946BF
:10DEF000A246F0BD1020062384460C30824610381E
:10DF0000A3731A220433162120258046DBE7281C40
:10DF1000A3210422FEF74CF9B9E7281C8B21042227
:10DF2000FEF746F9A8E78B20D8230121221C000127
:10DF30002370FFF779F98FE7283122E7A3232371B4
:10DF40006371A371FFE66370A370E370F0E60D4B9D
:10DF5000039326E702CAE309A70A0000B60A0000F5
:10DF600068420300B080B490A20A00003D070000A0
:10DF7000C0C2C4C6980A0000202830389E0A00009B
:10DF80001C270020B28BB69BF0B55F464446564630
:10DF90004D469B460023F0B493B0141C1C9A071CFA
:10DFA0001380984B8846987B0AA91D9AFFF7E4F8DE
:10DFB000061E00D01DE11422924B5B891A4200D04C
:10DFC00087E002250022AC46013D062404210320FF
:10DFD000A946924602920C320992013A0892013AFD
:10DFE0000792013A0692013A0592013A0492013AE7
:10DFF0000392013A01925D0630D552460AADAA5C01
:10E000000294120292462A1C4D46525D5546154313
:10E010004246158065460AAA525D099C1202944642
:10E020000AAA105C624610434246508001980AAA30
:10E03000515C125C09021143424691801C9A069879
:10E04000118808220A431C990A80089A07990192AC
:10E05000059A9446049A9146039A9246C0256D000B
:10E060002B4222D055460AAA525D4D4612029046D6
:10E070000AAA525D454615433D8065460AAA525D8F
:10E080000294120294460AAA105C624610437880F9
:10E090000AAA0198515C125C09020A43BA801C9AD0
:10E0A000118870220A431C990A809B0700D081E0E6
:10E0B000554C201C12F0AEFE5A4623685B092360C3
:10E0C0001360301C13B03CBC90469946A246AB4648
:10E0D000F0BD0AAA107852780006120410430AAA6A
:10E0E000D178927808431202104320600AAA84462D
:10E0F000107952790006120410430AAAD179927954
:10E1000008431202104360600AAA117A527A090683
:10E11000120411430AAAD27A001411430AAA927A6D
:10E12000404312021143A1600AAA127B091412068D
:10E13000924655460AAA527B494312042A430AAD25
:10E14000ED7B15430AAA927B12022A43E2606446E1
:10E150002414644312145243201841188A18F121E0
:10E1600009068C468021624489048A4244D8802171
:10E170001C9A4900128816240A431C9913200A800D
:10E18000102202920C320992013A0892013A079247
:10E19000013A0692013A0592013A0492013A039239
:10E1A000013A0192033A9446013A9146013A142108
:10E1B000924620E70AAA9446029B63441C1CDF781F
:10E1C0005B78DA070AD50F4A1268002A06D00721C1
:10E1D000B8063940400F0131904763781B0700D4DF
:10E1E00066E7084B5B68002B00D161E7B8099847E8
:10E1F0005EE70126764264E7FEF730FB1C9B1E803B
:10E20000023E5EE71C2700202C270020F0B5444684
:10E210005F4656464D46F0B4774B83B098461B7820
:10E22000041C8A46171C002B20D14146022240467E
:10E230000A614A61714A83628A6182647049714AE3
:10E24000C161C264802110224362C362026583659A
:10E250004365C36501626C49073015F046FF4046CF
:10E260006A4915F042FF202342469371EFF3108B69
:10E27000012181F3108865002E19F600331C4344F8
:10E28000DA6A012A67D0002A3DD0022A2FD1002263
:10E2900001345D6A1E1C63001C19E3009146019362
:10E2A0001DE0013C336A641BBC4200D93C1C5B1B73
:10E2B0009C4200D91C1C019B514643445868221CB7
:10E2C000401915F009FF336A2D19EB1A5A1E9341B4
:10E2D0005B421D40A144A2443F1B756209D0B46A51
:10E2E000AC42DED8336AE418013C641BDCE700234F
:10E2F00099468BF31088484603B03CBC904699463B
:10E30000A246AB46F0BD9A6A5E6AB24251D9013A62
:10E31000921B002399469742EBD82D19ED004544F6
:10E320002B6A01349B1B994663001C19E4004F457E
:10E3300055D3444463684A469819514615F0CCFEBB
:10E340004B465146FE1A49446068321C15F0C4FE23
:10E35000B9466E62CDE79A6A5E6AB24224D9013A42
:10E36000196A921B9146BA4200D9B9468B1B1A1CF6
:10E37000994523D3631C5F00FB18DB0043441F1C3B
:10E380005B6851469819161C15F0A6FE4A46331CC8
:10E390002C19961B5344E4007868191C321C444421
:10E3A00015F09AFE6662A4E7196A5218013A921BA8
:10E3B000D8E71B6AD218013A921BAAE7631C5A00DD
:10E3C000D318DB00434458682C19E40080195146E7
:10E3D0004A4644444E4415F07FFE666289E7231C9A
:10E3E00043445868514680193A1CBE1915F074FE12
:10E3F000B9466E627DE7C046E0360020AC4E0300B1
:10E40000C03E0020403F0020B84E0300BC4E030039
:10E41000F0B544465F464D465646F0B4041C83B002
:10E42000081C894615F069FE754B071C98461B7839
:10E43000002B20D14146022240460A614A61714ABE
:10E4400083628A6182647049704AC161C2648021BA
:10E4500010224362C362026583654365C36501623E
:10E460006B49073015F041FE40466A4915F03DFE04
:10E47000202342469371EFF3108B012181F3108822
:10E4800065002E19F600331C4344DA6A012A67D06E
:10E49000002A3DD0022A2FD1002201345D6A1E1CC1
:10E4A00063001C19E300924601931DE0013C336AAE
:10E4B000641BBC4200D93C1C5B1B9C4200D91C1C49
:10E4C000019B494643445868221C401915F004FE3C
:10E4D000336A2D19EB1A5A1E93415B421D40A24428
:10E4E000A1443F1B756209D0B46AAC42DED8336ADE
:10E4F000E418013C641BDCE700239A468BF3108888
:10E50000504603B03CBC90469946A246AB46F0BD8F
:10E510009A6A5E6AB24251D9013A921B00239A4626
:10E520009742EBD82D19ED0045442B6A01349B1B13
:10E530009A4663001C19E400574555D34444636868
:10E5400052469819494615F0C7FD53464946FE1AEA
:10E5500051446068321C15F0BFFDBA466E62CDE7CB
:10E560009A6A5E6AB24224D9013A196A921B9246AB
:10E57000BA4200D9BA468B1B1A1C9A4523D3631C96
:10E580005F00FB18DB0043441F1C5B684946981979
:10E59000161C15F0A1FD5246331C2C19961B4B443A
:10E5A000E4007868191C321C444415F095FD66623D
:10E5B000A4E7196A5218013A921BD8E71B6AD218CD
:10E5C000013A921BAAE7631C5A00D318DB004344AC
:10E5D00058682C19E4008019494652464444564470
:10E5E00015F07AFD666289E7231C43445868494662
:10E5F00080193A1CBE1915F06FFDBA466E627DE7B0
:10E60000E0360020AC4E0300C03E0020403F00201A
:10E61000B84E0300BC4E0300022310B50F4C104A45
:10E62000236163610F4BA261E3618023A2640E4A00
:10E630002362E26400231022A3626362E362A365A3
:10E640006365E3652265E01D084915F04EFD201C59
:10E65000074915F04AFD2023A37110BDE0360020C4
:10E66000AC4E0300C03E0020403F0020B84E0300E7
:10E67000BC4E0300F0B55F464D4656464446F0B4E6
:10E6800083B01D1C0C9B061C8946171C9B4691429F
:10E6900000D2DBE0081C0124391C13F055FC0134C6
:10E6A0008742F9D90094AC4200D2009501230D9A1B
:10E6B0001A40019203D15B46002B00D08CE0F36836
:10E6C0009A46002B7BDBB36898464B460124B14643
:10E6D0001E1C012D03D9013D7C43012DFBD8301CAC
:10E6E000211C13F031FC8742F6D9331C4E46994663
:10E6F0003B1C5D4D474698460AE05346002B00DA26
:10E700009BE0201C414613F01FFC041E00D194E046
:10E710004846211C13F018FC231C4A464343D31AD5
:10E72000994673687A1C295C9A420BD83368D9558C
:10E73000F368171C9A4601239C46E2445346F36053
:10E740007368B2609F42D8D13A1C30693168FFF7D4
:10E750005DFDB768B84239D00123B8465B42F3602B
:10E76000019B002B2BD05B46002B28D0009B202444
:10E7700000259B4523D942465F46984606E0F3684C
:10E78000002B1CDB002F1AD0474518D97368511C89
:10E79000013F994207D833689C540A1CF368B16062
:10E7A0000133F36073689A42E9D130693168FFF749
:10E7B0002DFDB368984242D001235B42F36003B061
:10E7C0003CBC90469946A246AB46F0BD0023B360E0
:10E7D000F36800279A4690E70D9B20249B0731D4CD
:10E7E000009B9B4500D86AE75A46AA46BB46B368D9
:10E7F000271C009D0C92141C06E0F268002ADEDB48
:10E80000002C25D0AC4229D97268591C013C914298
:10E8100007D83268D754F36872680133F3600B1C71
:10E82000B1609A42E9D130693168FFF7EFFCB36813
:10E830009842C1D10023B360DFE7B84690E7B560E6
:10E8400000229CE7002DCBD11034C9E7012429E731
:10E850005F4655469846A346924636E75F4655467C
:10E86000A34692462FE7C046C44E0300F0B5564675
:10E8700044465F464D46F0B49DB00CAB0793402331
:10E88000089300239B4609930A93043392469846C3
:10E890000C1C5E4604900B9023780134002B00D1B1
:10E8A0008CE0252B5CD1221C137800270220082144
:10E8B000141C2B2B0BD02B2B0DD92D2B4CD0302BEC
:10E8C0000ED1074301321378141C2B2BF3D143468E
:10E8D00001321F43F7E7232B02D10F430132F2E746
:10E8E0001A1C303A0025092A00D9BAE0AA005519A5
:10E8F00001346D00ED182378303D1A1C303A092A96
:10E90000F4D9002291462E2B02D180E001342378E5
:10E910001A1C41468A43682AF8D0642B00D1F6E0DD
:10E9200055D9732B00D1B0E000D886E0752B00D00C
:10E9300099E0534651461B6807A81A1D0A601968DA
:10E940000A22009501974B46FFF794FE0A9E013478
:10E95000002EA1DAB34622E0012301321F43B2E7C1
:10E960000999089A481C904221D8079A53540A9B47
:10E97000089A5E1C099002930A969042E8D10B9B7C
:10E980000293079B0298191C0393FFF73FFC099B16
:10E990000293984200D14BE101235B429B465846CB
:10E9A0001DB03CBC90469946A246AB46F0BD8A429B
:10E9B000E5D023780134002B00D072E7B346002E57
:10E9C000EDDD099A002A00D036E19344E7E7582BA1
:10E9D0004CD0632B00D18AE0252BB8D10998089937
:10E9E000421C8A4200D81AE1021C8A42AFD10B9B1A
:10E9F0000293079B0298191C0393FFF707FC099BDE
:10EA0000029398426FD100230A9E09939FE763788F
:10EA1000611C1A1C303A0C1C092A00D978E74A46B6
:10EA200091008A1801345200D2182378303A191C08
:10EA300030390929F4D991466AE7702B00D086E76E
:10EA4000534651461B6807A81A1D0A601968082317
:10EA500000930023102201930833FFF70BFE0A9E58
:10EA600075E700254DE7782B00D070E753465146F7
:10EA70001B6807A81A1D0A601968102200950197E3
:10EA80004B46FFF7F7FD0A9E61E7534651461B6868
:10EA90001A1D0A601D680CE00798C1540A9B099270
:10EAA0005E1C089B0A9602939A420FD0002E00DA51
:10EAB0004DE729780135002900D148E7099B0898DE
:10EAC0005A1C8242E8D98342F3D11A1C0B9B029351
:10EAD000079B0298191C0393FFF798FB099B02936D
:10EAE000984200D183E0012676420A962FE75346EA
:10EAF00051461B681A1D0A6009991868089B4A1C30
:10EB00009A427CD90A1C9A4200D020E76FE753460C
:10EB100051461B681A1D0A601B68DA179818029381
:10EB2000012350409B4609280ADDA3461C1C0A21EC
:10EB300013F09AFA01340928F9DC231C5C469B4641
:10EB4000CB4558D3002D06D0029B002B02DB434659
:10EB50003B4200D0013DBB075AD401233B4232D196
:10EB6000002D30D05D452ED9301C099A5E4606E056
:10EB7000002800DAD5E0002D23D0B54221D9089B2A
:10EB8000511C013D994209D82020079B98540A1C2A
:10EB90000A9B0991581C0393089B0A909A42E7D15B
:10EBA0000B9B0393079B0398191C0593FFF72EFB00
:10EBB000099B0393984296D100230A980993002257
:10EBC000D6E7B346061C029B002B3EDB43463B4286
:10EBD00059D103233B40022B6ED00095019707A823
:10EBE00002990A224B46FFF745FD0A9EAFE6002335
:10EBF0000A9E09935AE7CB46002DACD0A4E7079BA9
:10EC000058540A9B09925E1C02930A96089B7AE765
:10EC10004B46002BD7D001233B42D4D1A0E7079924
:10EC20000B540A9B09925E1C02930A960899DCE633
:10EC300000230A9E09938BE604980CA9FFF7E6FAD5
:10EC40000A9B099A9B469344A9E65B420293099B5F
:10EC5000089A591C914203D8079A03922D221AE070
:10EC60009342B6D10B9B0393079B0398191C059302
:10EC7000FFF7CCFA099B0393984200D033E70023B7
:10EC80000A9E099311E0099B089A591C9142E7D802
:10EC9000079A03922B220398C2540A9B089A5E1C7F
:10ECA000099103930A969142DCD0002E00DA4EE6D9
:10ECB00003233B40022B90D14B46002B8DD1002DDE
:10ECC0002DD0AB4589D2099A06E0002E00DA3EE647
:10ECD000002D24D05D4580D9089B511C013D9942EF
:10ECE00009D83020079B98540A1C0A9B09915E1C86
:10ECF0000393089B0A969A42E7D10B9B0393079BC9
:10ED00000398191C0593FFF781FA099B0393984216
:10ED100000D0E8E600230A9E09930022D5E70025EB
:10ED20005BE7061C13E6C0460EB400B582B003AB29
:10ED300002CB01AA0193FFF799FD02B008BC03B012
:10ED40001847C04690DF704792DF704793DF7047E7
:10ED5000F0B547467A2380B41A4AC35C1668002E81
:10ED600007D076277B43184DC318AC789A78944225
:10ED700002D004BC9046F0BD2C881A889442F8D189
:10ED80006A689046002AF4D0104C2268002AF0D11C
:10ED90000F4DC05B6880002910D02A70281D191CF7
:10EDA000763215F099F94346EB6701232360012E73
:10EDB000DFD1281CC04700232360DAE702232B7031
:10EDC000F1E7C046C0270020B4270020B02700206C
:10EDD00030270020F0B54F4646467A238C467621F0
:10EDE000C0B4C45C013B4C43011988460979C25C3C
:10EDF000894653009B189B001B19C318511C83B0F4
:10EE00000A33494539D049464D1E79214A452CD20D
:10EE100095421AD001321E8953009B189B001B1982
:10EE2000C7183F8A0136BE4219D001A97B1E0E8049
:10EE30004B80634600221A707623C05AFFF786FF84
:10EE400003B00CBC90469946F0BD42461B8912891E
:10EE500093420FD001A901330B804A80E9E7C31820
:10EE60000A33D2B242549145D2D8012362460020DF
:10EE70001370E5E700236A1CF3E742461B891289F9
:10EE80009342E7D1F1E7C046F0B5454657464E46B6
:10EE90007C22E0B4835C0133DBB28354294A1568D9
:10EEA000AB4207D300227B23C2541CBC9046994638
:10EEB000A246F0BD00239A4652467933C25401332C
:10EEC000C15C99460131C9B2C154043B1E1C4E437A
:10EED0001D4F8619C900041C79180422301C98465D
:10EEE00015F0FAF85346337143460121E05A321CBB
:10EEF000FFF728FF0028D8D07B235246E2544B4628
:10EF00004246E35CB9785343E3189A789142CCD1F6
:10EF10003A881B889A42C8D179680029C5D00B4E1F
:10EF20003768002FC1D14246094BA25A58605A8017
:10EF30000122D9671A703260012DB6D1181C88479A
:10EF40003760B2E7C0270020B4270020B027002098
:10EF50003027002000230121034A00201360034AC8
:10EF60001170034A13607047C0270020BC2700209F
:10EF7000B0270020F8B5002808D0002906D00F4B94
:10EF800008241B78002B03D1201CF8BD0E24FBE7BE
:10EF90000B4E3468012C0CD0002C0CD1094F0D1CE9
:10EFA0000422011C381C15F097F801237D603360A2
:10EFB000EAE70624E8E70424E6E7C046BC27002089
:10EFC000C0270020B427002070B5041C0D1C0028A9
:10EFD00025D0144B08201B78002B00D170BD124B9C
:10EFE0001B68002BFAD07B26A35D0930002BF5D1DE
:10EFF0000E4A201C13607622A1520632A354023A14
:10F00000A3540B49763A15F067F8281C0121221CFD
:10F01000FFF798FE0028E1D10123A355DEE70E207B
:10F02000DCE7C046BC270020C0270020B027002016
:10F03000B4270020F0B55F4656464D464446F0B42E
:10F0400083B000285DD000295BD0514B1B78002B8A
:10F0500057D00B88103B9BB2232B52D84D4A9B00B4
:10F06000D3580D1C041C9F46CB88002B00D0CFE149
:10F0700076267A33C35C0E315E4387190422381C2E
:10F0800015F02AF8291CB81D1231042215F024F8B5
:10F090007923E35C002B00D047E2FB88762501A9A9
:10F0A0000B803B894B80605BFFF74EFE002828D029
:10F0B00000227B23E254384A013B1768E35C002FAF
:10F0C0001FD06B433549E3188E789A78964218D151
:10F0D0000A881B889A4214D14968002911D0304E01
:10F0E0003368002B0DD1625B2E4B5A800122586091
:10F0F0001A70D9673260012F03D1181C884700238A
:10F10000336003B03CBC90469946A246AB46F0BD86
:10F110007A23C35C9C467923C75CCB88002B14D12F
:10F120008E89002E11D020480B8A834200D1ECE159
:10F130000A1C0023163205E00632911F098881421D
:10F1400000D1E3E101339E42F6D8002398467625AC
:10F1500066466B4642466E431A71A61933790137EB
:10F160009F4200D1AAE17923201CE75401A9FFF7AF
:10F1700031FE002800D02CE26B461B79002BC0D05A
:10F18000201C0121FFF7E4FD201CFFF77DFEB8E7FE
:10F19000BC270020D44E0300C0270020B427002045
:10F1A000B027002030270020022900007A23C35C0A
:10F1B0009846CB88002B00D045E1762743465F4335
:10F1C000C7193E790A7BB218092A00DD9AE1D2B24A
:10F1D000131C3A71B34200D8BFE076224146514336
:10F1E000894673009B199B004B449A46A2445046A3
:10F1F000291C6C3A0A300E3114F06EFF534600227F
:10F200009A8292463A79731C9A4200D878E15A0061
:10F21000D3189B004B449B46A3445846291C0A2202
:10F220000A30183114F058FF5B4652469A823A79F8
:10F23000B31C9A4200D863E15A00D3189B004B4498
:10F240009B46A3445846291C0A220A30223114F056
:10F2500043FF5B4652469A823A79F31C9A4200D8A1
:10F260004EE15A00D3189B004B449B46A34458469A
:10F27000291C0A220A302C3114F02EFF5B4652461C
:10F280009A823A79331D9A4200D839E15A00D3184C
:10F290009B004B449B46A3445846291C0A220A3033
:10F2A000363114F019FF5B4652469A823A79731D43
:10F2B000934200D324E15A00D3189B004B449B4651
:10F2C000A3445846291C0A220A30403114F004FF96
:10F2D0005B4652469A823A79B31D934200D30FE1BE
:10F2E0005A00D3189B004B449B46A3445846291C04
:10F2F0000A220A304A3114F0EFFE5B4652469A82E7
:10F300003A79F31D9A4200D8FAE05A00D3189B00CC
:10F310004B449B46A3445846291C0A220A305431C8
:10F3200014F0DAFE5B4652469A82331C3A7908336F
:10F330009A4200D8E4E05A00D3189B004B44994607
:10F34000A1444846291C0A220A305E3114F0C4FE4A
:10F3500052464B469A823A790936013E73009B1910
:10F360009E007621434659437318E318588A3B8917
:10F37000984268D2092A66D07923E254002A00D044
:10F3800054E1FB88762501A90B803B894B80605BAB
:10F39000FFF7DAFC002800D1B3E600227B23E25419
:10F3A000AA4A013B1768E35C002F00D1A9E66B4332
:10F3B000A749E3188E789A78964200D0A1E60A8889
:10F3C0001B889A4200D09CE64A68002A00D198E641
:10F3D000A04E3368002B00D093E6615B9E4B5980B2
:10F3E000012158601970DA673160012F00D088E67A
:10F3F000181C904783E67E220021FCF7D9FE0122EB
:10F4000076235242E2527CE676238A88C25278E61C
:10F410007A238E4EC35C3568002D00D111E1762130
:10F420004B438B4FC3189A78B87890424AD07C22CD
:10F43000A35C0133DBB2A354AB4200D280E00022D4
:10F440007B23E2545DE600257923201CE55401A9C5
:10F45000FFF7C0FC002800D18EE67B237B4AE554F1
:10F460001568013BE35C002D00D14AE67626734324
:10F470007749E3189F788A78974200D041E60A8856
:10F480001B889A4200D03CE64968002900D138E642
:10F49000704F3B689846002B00D032E6A25B6E4B63
:10F4A0005A80012258601A70D9673A60012D00D045
:10F4B00027E6181C884743463B6022E601236A463C
:10F4C00013715DE63A881B889A42B0D17B68002BA5
:10F4D000ADD0604A904612689146002AA7D1625A80
:10F4E0005D484146428002220270013AC3670A60C9
:10F4F000012D9CD1984743464A4635681A6096E7E5
:10F500001E1C2AE70923092263E600235900CB18B1
:10F510005B00E9187B00DB199A00604676234343C1
:10F52000C989D318E31899820FE6013BDBB25A0070
:10F53000D3189B009B19E3185B8A01339BB2ADE59E
:10F5400000239A4652467933E2540133E15C9946EE
:10F550000131C9B2E154043B1E1C4E43C900A61937
:10F5600079180422301C984614F0B6FD53463371C6
:10F5700043460121E05A321CFFF7E4FB002800D18A
:10F58000BFE57B235246E2544B464246E35CB978E2
:10F590005343E3189A78914200D0B2E53A881B8829
:10F5A0009A4200D0ADE57A68524500D1A9E5294ECE
:10F5B0003368002B00D0A4E54146274B615A5860C0
:10F5C00059800121DA6719703160012D00D098E56A
:10F5D0000EE77B234246E2541C4A013B1668E35C7B
:10F5E000002E00D18DE56B431949E3188F789A7886
:10F5F000974200D085E50A881B889A4200D080E5B2
:10F600004968002900D17CE5124F3B689846002BE1
:10F6100000D076E5625B104B5A80012258601A7068
:10F62000D9673A60012E00D06BE542E7013AD2B2C9
:10F6300053009A189200511861184B8A01339BB2FB
:10F64000A0E67C22835C01338354F8E6C0270020C7
:10F65000B4270020B02700203027002036DF704775
:10F6600037DF7047437900215A00D3180F4ADB0077
:10F67000D318822210B504685200A1505A824279F0
:10F680000B4992005258002A0AD0C22201685C69D4
:10F6900092008C5002225A61C12301689B00CA501B
:10F6A0000123026813620268536110BDD027002055
:10F6B000C827002043795A00D318034ADB00D31827
:10F6C00001229A717047C046D0270020F8B54F46F6
:10F6D0004646C0B4802244790168051C032092008C
:10F6E0008B58670083438B50364E3B19DB00F31871
:10F6F0009889191C8446DA89083101320120624553
:10F7000014D08022296892008B583C1903438B50F7
:10F71000E400E13A3419FF3A237C22742A68D318B2
:10F7200001221A600CBC90469946F8BD5A79002A0D
:10F73000E7D10430FF30488129680A506A79910086
:10F740009046214A8A58002A0CD0C222296858695A
:10F750009200885002225A61C12329689B00CA5036
:10F760006B79984643465B0099464344DB00F318A7
:10F770005A7816499200164B5058D35800280FD08B
:10F780001A78042A0ED00833002206E09C4608337B
:10F79000191C08390978042905D001328242F5D1B3
:10F7A0000220AEE79C464B4662464344DB0052785B
:10F7B000F3185A7063465B68002BF1D0281C9847F9
:10F7C00002209EE7D0270020C8270020644F0300B6
:10F7D00058500300F8B546464F46C0B44379A325B8
:10F7E0005A00D318434CDB00E318191C0668ED00DF
:10F7F000DA8975599B689D54013293B28A89CB810D
:10F800009A4203D80CBC90469946F8BD80224679AE
:10F810000168051C032092008B58770083438B50AE
:10F82000BB19DB00E3189889191C8446DA89083172
:10F8300001320120624511D08022296892008B5844
:10F84000BE1903438B50F600E13AA419FF3A237C1A
:10F8500022742A68D31801221A60D3E75A79002A41
:10F86000EAD10430FF30488129680A506A79910052
:10F870009046214A8A58002A0CD0C2222968586929
:10F880009200885002225A61C12329689B00CA5005
:10F890006B79984643465B0099464344DB00E31886
:10F8A0005A7816499200164B5058D35800280FD05A
:10F8B0001A78042A0ED00833002206E09C4608334A
:10F8C000191C08390978042905D001328242F5D182
:10F8D0000220B1E79C464B4662464344DB00527827
:10F8E000E3185A7063465B68002BF1D0281C9847D8
:10F8F0000220A1E7D0270020C8270020644F030082
:10F9000058500300F8B54F464646C0B44379414EBF
:10F910005A00D318DB00F318DA899B6801689A5CF7
:10F920003D4B051CCA508022447901680320920097
:10F930008B58670083438B503B19DB00F318988981
:10F94000191C8446DA89083101320120624514D03D
:10F950008022296892008B583C1903438B50E400A5
:10F96000E13A3419FF3A237C22742A68D318012221
:10F970001A600CBC90469946F8BD5A79002AE7D126
:10F980000430FF30488129680A506A799100904616
:10F99000224A8A58002A0CD0C2222968586992004B
:10F9A000885002225A61C12329689B00CA506B7992
:10F9B000984643465B0099464344DB00F3185A7867
:10F9C00017499200174B5058D35800280FD01A7877
:10F9D000042A0ED00833002206E09C460833191C86
:10F9E00008390978042905D001328242F5D1022074
:10F9F000AEE79C464B4662464344DB005278F31820
:10FA00005A7063465B68002BF1D0281C984702208F
:10FA10009EE7C046D02700201C050000C827002014
:10FA2000644F030058500300F8B54F464646C0B433
:10FA30004379514E5A00D318B122DB00F318051C4C
:10FA4000D9790068D200815001212A68116284228C
:10FA500000212868520081505A82484A1974914600
:10FA600049466C79A2008A58002A0BD0C222296824
:10FA700058699200885004225A61C12329689B006A
:10FA8000CA506C7980220327286892008358BB43B0
:10FA9000670083503B19DB00F3189989181C8846CE
:10FAA0000121DA89083001328C46424515D0802286
:10FAB0006046296892008B583C1918438850E4002E
:10FAC000E13A3419FF3A237C22742A68D3180122C0
:10FAD0001A600CBC90469946F8BD5A79002AE6D1C6
:10FAE0000431FF318C464181604629680A504946FD
:10FAF0006A79944692008A58002A0CD0C22229685A
:10FB000058699200885002225A61C12329689B00DB
:10FB1000CA506B799C4663465B0099466344DB00A0
:10FB2000F3185A7816499200164B5058D3580028AB
:10FB30000FD01A78042A0FD00833002206E0984626
:10FB40000833191C08390978042906D00132824289
:10FB5000F5D102239C46AAE798464B4642466344A9
:10FB6000DB005278F3185A7043465B68002BF0D0E4
:10FB7000281C9847EDE7C046D0270020C827002062
:10FB8000644F030058500300F0B54D465F4656469B
:10FB90004446F0B487B0029310AB1B7801910393F5
:10FBA00011AB1F780023914604AA4479D371A74B67
:10FBB00082465B680425DB05DB0D31D104ABD81D23
:10FBC000FFF74CFD022800D1F3E0002800D01AE135
:10FBD0009F4B9B46630098461B19DB005B449A7859
:10FBE000002A18D101329A70012D38D0002662B651
:10FBF00004ABD879FFF734FD0223021C9A4300D0EE
:10FC0000FBE01120002E2AD007B03CBC904699465C
:10FC1000A246AB46F0BD0126012DE8D11120F3E745
:10FC2000103BD9B24AB2002A00DAF2E092088949C0
:10FC3000C0329200525803210B40DB00DA40130619
:10FC40009B0FDDB2012BB9D1814A934662009046E9
:10FC50001219D2005A4491780029DFD1937043469B
:10FC60006A4669461B191279DB005B44DA7109891F
:10FC70006A4699814946127B99605A710021002297
:10FC8000D9811F719A7101235F4053465E79724991
:10FC900073009C469B19DB005B445A786F4B9200C3
:10FCA0008D589B58002D11D01A78BA4200D193E09C
:10FCB0000833002107E01A1C0833181C08380078A4
:10FCC000B84200D189E00131A942F4D1331C644A21
:10FCD000B600B2580020002A96D1211C4144CA0027
:10FCE0005A441579141C2A1C551EAA410325AD1A25
:10FCF00000229146524601925A46A346039102922F
:10FD0000019A922416685A00D318029ADB0094468E
:10FD100063445B8AAC469846B04400216400514F6E
:10FD2000454601E0002846D12868335901315A1E62
:10FD300093418F42924152421343F3D092234A4659
:10FD400005255B00F250019B1E685B464A465B8AB4
:10FD50004149F3181A60019B029A5B7994469846D0
:10FD60005B009A464344DB0063445A783B4B920065
:10FD70008E589B58002E0FD01A78AA421DD00833F7
:10FD8000002106E01A1C0833181C08380078A84225
:10FD900014D00131B142F5D15B469A79002A43D1A2
:10FDA0005B46D98908339B88994247D2019B5B798E
:10FDB000A6E772B60CE76546C7E71A1C02995346D8
:10FDC0008C464344DB005178634459705368002BE0
:10FDD000E2D001989847DFE71A1C63469B19DB00C5
:10FDE00051785B4459705368002B00D16EE7504640
:10FDF000984753465E79331C69E7FE211A4A490049
:10FE000007F08EFDFDE6F421174AFF3107F088FD6B
:10FE1000DEE60F23154A0B409446083B9B089B00E7
:10FE200063445A68032307E7029B00229B46039B17
:10FE30000320DC00231C5B449A70E5E6029B002053
:10FE40009B46039BDB005B449A70DDE600ED00E01F
:10FE5000D027002000E100E0644F03005850030069
:10FE6000C8270020FE3F0000A04F030018ED00E06F
:10FE7000F8B54F464646C0B44379564D5A00D3189C
:10FE8000B122DB00EB18041CD9790068D200815044
:10FE9000012122681162082200211A74206815329B
:10FEA000FF3281505A8262794B4990000858894646
:10FEB00000280BD0C2222168586992008850802205
:10FEC0005A61C12321689B00CA50627953009A1875
:10FED000D200AA18D38992682068D25C3F4B0327CE
:10FEE000C25080222068920083586679BB43770015
:10FEF0008350BB19DB00EB189989181C8846012137
:10FF0000DA89083001328C46424514D0802260469E
:10FF1000216892008B58184388502021BB19DB00C0
:10FF2000EB181A7C197423689B1801221A600CBC08
:10FF300090469946F8BD5A79002AE7D10431FF313D
:10FF40008C464181604621680A5049466279944650
:10FF500092008A58002A0CD0C22221685869920067
:10FF6000885002225A61C12321689B00CA506379DC
:10FF70009C4663465B0099466344DB00EB185A7865
:10FF800017499200174B5058D35800280FD01A78B1
:10FF9000042A0FD00833002206E098460833191CC3
:10FFA00008390978042906D001328242F5D10223AA
:10FFB0009C46ABE798464B4642466344DB0052788A
:10FFC000EB185A7043465B68002BF0D0201C984712
:10FFD000EDE7C046D0270020C82700201C05000000
:10FFE000644F030058500300F8B54F464646C0B46E
:10FFF0004379454C5A00D318DB00E318191CDA8901
:020000022000DC
:100000000831013292B2DA818988914203D80CBC5E
:1000100090469946F8BD9B6801689A5C3B4B051C6D
:10002000CA50802246790168032092008B587700DD
:1000300083438B50BB19DB00E3189889191C844655
:10004000DA89083101320120624511D08022296805
:1000500092008B58BE1903438B50F600E13AA41965
:10006000FF3A237C22742A68D31801221A60CEE753
:100070005A79002AEAD10430FF30488129680A50B1
:100080006A7991009046224A8A58002A0CD0C222EE
:10009000296858699200885002225A61C123296850
:1000A0009B00CA506B79984643465B00994643448F
:1000B000DB00E3185A7817499200174B5058D35871
:1000C00000280FD01A78042A0ED00833002206E048
:1000D0009C460833191C08390978042905D00132D7
:1000E0008242F5D10220B1E79C464B46624643442A
:1000F000DB005278E3185A7063465B68002BF1D03E
:10010000281C98470220A1E7D02700201C050000EA
:10011000C8270020644F030058500300F0B557462D
:100120004E464546E0B44479061C6000694F00190C
:10013000C0003D5C0820002D04D01CBC90469946B0
:10014000A246F0BD002900D1C0E06348A4000251DE
:10015000624A8246A350624BE020E650A0230A6820
:10016000DB05C132FF32C0009200D0504A68C13274
:10017000FF329200D0500122101C0C68A040A12434
:10018000E40018514868A44682401A510A6855484C
:10019000C132FF329200D0504A68C132FF32920021
:1001A000D05004200138C046C046C046C046C046B4
:1001B000C046C046C046C046C046C046C046F1D153
:1001C000A222D2009046484A002501249146424688
:1001D00048689A58C240144200D074E0221C086853
:1001E000824048461A5004200138C046C046C046E6
:1001F000C046C046C046C046C046C046C046C046CF
:10020000C046F1D1221C0868824060461A50042082
:100210000138C046C046C046C046C046C046C0467B
:10022000C046C046C046C046C046F1D10135092D82
:10023000CDD1486801231A1C8240101CA0222A4CF0
:10024000D205105104200138C046C046C046C04601
:10025000C046C046C046C046C046C046C046C0466E
:10026000F1D148688340A120C0001350A022E020B3
:100270000B68D205C133FF33C0009B0098504B6818
:10028000C133FF339B00985032688868174BD050B9
:10029000A12233680C68D20048689C50124A9850DA
:1002A000504673799A008258002A05D00420097BB1
:1002B00030560DF0D1FB73795A00D3180122DB00C0
:1002C000FA54002039E7002DB4D1CFE708482101C6
:1002D00041183AE7D0270020C8270020CC2700206B
:1002E000C4270020010700000C05000024050000C1
:1002F000904F030030B54379194A9B009B58002B5F
:100300000FD003795AB2002A0BDB1F2213401E3A8A
:100310009A40131C802213498B50BFF34F8FBFF3B9
:100320006F8F0124036800225C61A0230168DB0059
:10033000CA5001210568F93B4942FF3BE950437926
:1003400009495D00EB18DB005C54802304689B00C6
:10035000E558E25043795800C318DB005A5430BDC9
:10036000C827002000E100E0D027002082220023DF
:10037000016852008B50016804328B5001681432BE
:100380008B50016808328B5043790D4A9B009B5873
:10039000002B05D08022C123016892009B00CA5027
:1003A000A02305220168DB00CA50427905495300A9
:1003B0009B180222DB005A540022CB185A70704757
:1003C000C8270020D02700200122036810B55A61F9
:1003D000A02300210468DB00E1500468F93B0139E7
:1003E000FF3BE15043795900CB180249DB005A54D6
:1003F00010BDC046D027002010B582B004AC2478D0
:10040000009401240194FFF7BFFB02B010BDC04669
:1004100010B582B004AC2478009400240194FFF756
:10042000B3FB02B010BDC046F0B547469223494A1F
:1004300080B49446484E5B00D158738A86B06344BA
:100440001C6884235B00D358002B0ED00820013891
:10045000C046C046C046C046C046C046C046C0466C
:10046000C046C046C046C046F1D192200022394B5A
:1004700040001A5008381A5014381A5004381A50CC
:10048000002932D1002C2CD03479631E9C410323E7
:100490001C1B2BE01F1C60447B78C000301843708D
:1004A0007B68002B01D040469847B379002B41D0A0
:1004B00000230222B37002AB1A70B368274903937A
:1004C000F389244804934358435002211A4200D12F
:1004D000023102AB1973224B02A81968214B1B6829
:1004E000984706B004BC9046F0BD05241E4B1F493A
:1004F0001B685879984643009C461B18DB00F3188C
:100500005A781B4B92005558D358002DCDD01A78ED
:10051000A242BFD00833002206E01F1C0833191C7A
:1005200008390978A142B6D00132AA42F5D1B3798F
:10053000002BBDD1F289B1899142D2D802930593A3
:10054000B370337902A90B70B368049201930393DB
:10055000C1E7C04600300040D0270020C40400009E
:10056000CC270020C8270020C4270020644F0300A8
:10057000585003007047C04670B584B0051C00F0A9
:10058000D9FA041E0C2C30D00C2816D8002829D0FB
:1005900004281AD1072301AE281C3370B58000F05F
:1005A0005DFE7080124C301C236898470022217930
:1005B000281C0DF02BFA04B070BD11280FD00D4B84
:1005C000984202D100220A4CF1E7082301AE281C10
:1005D000337000F043FEB5807080B460E2E7012222
:1005E000034CE4E701AE0123D6E701AE0623D3E7CF
:1005F000E82700200230000070B584B0041C00F031
:10060000F1FA051E0B2D2BD00B280FD911280AD07B
:10061000154B98421AD10022144D6979201C0DF017
:10062000F5F904B070BD0122104DF6E700280DD198
:10063000022301AE201C337000F010FEB4807080E5
:100640000A4D301C2B6898470022E6E7082301AECC
:10065000201C337000F002FEB4807080B560EFE7BC
:1006600001AE0323E6E7C04602300000E827002081
:1006700010B50378012B0BD1041C094B408898421C
:1006800002D0FFF7B9FF608800F02CFB002800D1F2
:1006900010BD044B6088997901220DF0B7F9F7E796
:1006A000FFFF0000E827002010B5037884B0041C89
:1006B000012B18D0002B06D0022B02D10379002B7E
:1006C0001BD104B010BD01A8037063884380114B97
:1006D0001B689847608800F077FE0F4B9842F0D077
:1006E000FFF78AFFEDE701A8037063884380A388C2
:1006F0008380084B1B689847E3E7408800F064FE5E
:10070000054B9842DDD0034B012299790DF07EF91B
:10071000D7E7C046E8270020FFFF0000F0B55746A6
:100720004E464546E0B4294F88B0B8790DF07EF9C1
:10073000002805D108B01CBC90469946A246F0BDE1
:1007400003A80DF0DDF8039B03AC98460025002BB1
:10075000F0D008239A461E4B994603E00135023437
:100760004545E7D0A688B979301C0DF03FF900283F
:10077000F4D0301C00F0C8FA11280BD010D948452D
:1007800008D0144B98420DD1134B9E4202D0301C1E
:10079000FFF732FFB979301C01220DF037F9DDE7A0
:1007A0000028F7D06B4652460290301C1A709E808B
:1007B00000F054FD6B46588068463B689847B9790D
:1007C000301C01220DF022F9C8E7C046E8270020BE
:1007D0000230000001340000FFFF0000F0B5047893
:1007E00085B0072C01D005B0F0BD4588281C00F06D
:1007F000A1F9061E0C2E1ED00C2814D8002830D0CB
:1008000004281FD101AE3470B580281C00F026FDED
:10081000164C70802368301C984700222179281CD0
:100820000DF0F4F8DFE7112809D0114B984209D1F7
:1008300000220E4CF2E7062301AE3370E4E70122FA
:100840000A4CEBE7082301AF281C3B7000F006FDC3
:10085000064C7880BD80BE60381C23689847002213
:10086000DCE7012301AE3370CEE7C046E827002065
:100870000230000070B50E24002805D0051C184871
:1008800000F040F9041E01D0201C70BD154800F096
:10089000F9F8041EF8D1144E00210822301CFBF791
:1008A00087FC1248356000F0A1FC041EECD1104812
:1008B00002F09AFE041EE7D10DF02EF830710DF013
:1008C0002BF870710DF028F83379B071102B04D02B
:1008D0007379102B01D01028D6D10324D4E7C04659
:1008E000A906020075050200E82700207106020033
:1008F000DD070200F0B54F464646C0B4038887B016
:10090000041C522B00D169E0542B5BD0502B11D02A
:10091000374E70790DF08AF8002837D130790DF014
:1009200085F8002819D1FFF7F9FE07B00CBC9046F6
:100930009946F0BD831D9A78012AE9D11A7D062ACD
:10094000E6D19A7B012AE3D19A892A4B9A42DFD1D8
:100950008088FFF711FE264EDBE701A80CF0D0FFE0
:10096000019B01AC98460025002B04D1DBE7013543
:1009700002344545D7D0A7883179381C0DF036F8B8
:100980000028F4D0381CFFF7F7FDF0E701A80CF0C1
:10099000B7FF019B01AC98460025002BBED0164B3B
:1009A0009946A7887179381C0DF020F8002804D0EA
:1009B0004F4502D0381CFFF71FFE01350234454574
:1009C000EFD1ABE7808800F049FC00F0B9F9084EA0
:1009D000A088B17900220DF019F89AE78088064BBB
:1009E000984200D194E7FFF707FE014E91E7C04619
:1009F000E827002002290000FFFF0000F0B547466D
:100A000080B486B000F04EF901A80CF079FF019E89
:100A10000024002E1BD0114B114F984603E00134E7
:100A2000A4B2A64213D901AA9446630063449D88E8
:100A3000281C00F013FCB842F1D1434601349979E7
:100A4000281C0122A4B20CF0E1FFA642EBD8FFF76C
:100A500065FE06B004BC9046F0BDC046E827002005
:100A6000FFFF0000012200B583B001AB1A7042887D
:100A7000181C5A80024A1268904703B000BDC04655
:100A8000F027002070B50E25002805D0041C07486B
:100A900001F02EFC051E01D0281C70BD044E002163
:100AA000301C0422FBF784FB3460F5E7650A020082
:100AB000F0270020A7DF7047A9DF7047AADF704743
:100AC00010B5037884B0012B01D004B010BD0379B8
:100AD000012BFAD1041C0121408802AA002301F055
:100AE000B3FC0028F1D16A4602231370638868467C
:100AF0005380039B1B781371014B1B689847E4E7F5
:100B0000F827002070B50E25002805D0041C0748E2
:100B100001F0EEFB051E01D0281C70BD044E002123
:100B2000301C0422FBF744FB3460F5E7C10A0200E5
:100B3000F8270020F0B5284B061C1B6883B008205E
:100B4000002B24D0301C00F089FB244B051E9D4255
:100B50001FD00124281C0221221C6B46032701F010
:100B600081FC002825D1019A301C1760916803236D
:100B70000432FFF7A3FF002821D00C280BD0041E5D
:100B8000052C23D0281C022101F0AEFD201C03B04F
:100B9000F0BD1348FBE701340221A4B2281C01F088
:100BA000A3FD281C0221221C6B4601F05BFC0028DF
:100BB000D9D0041E072CE9D10C24201CE7E7281CFF
:100BC000022101F099FE041C201CE0E7281C0221F0
:100BD00001F0B2FF0024D5E7F8270020FFFF000056
:100BE00002300000F0B54F464646C0B42A4B041C04
:100BF0001B689DB00820002B06D0201C00F02EFBA7
:100C0000264B984205D126481DB00CBC904699460B
:100C1000F0BD022101AA002301F016FC002830D10A
:100C2000029964228F880D680831632F2DD903A89B
:100C300013F052FA03AE0123984601339946201C63
:100C4000311C3A1C2B1CFFF737FF042808D008285A
:100C500008D00B2808D04346002BD5D10B20D3E772
:100C60001120F8E70020F6E74B462B4207D1002E73
:100C70000DD003250027002600239846DFE7012535
:100C8000FAE7032500270026D5E73A1CCFE7002F17
:100C9000BAD003250027EFE7F8270020FFFF000068
:100CA0000230000030B50C4B83B01B68002B11D014
:100CB00001236A46094C1380251C9370084B01934D
:100CC000201C01F047FF69460022041C01F060FF70
:100CD000AC42F5D103B030BDF8270020FFFF000083
:100CE0008D50030000B583B000F0B8FA0023012155
:100CF0006A4601F0A9FB0023002801D1019B1B7863
:100D0000181C03B000BDC046F8B5051C094F0A4EBB
:100D10003C88281C211C094AFFF7CCFE082804D077
:100D20000134A4B2B04202D0F8BD0020FCE73C8000
:100D3000EFE7C046F427002003300000FFFF00006B
:100D400000B5084B83B01B68002B09D001236A460D
:100D500013809370044B69460022019301F018FF41
:100D600003B000BDF82700208C5003004DDF704712
:100D7000F0B557464E464546E0B486B0002805D04B
:100D80000378002B02D10379002B05D006B01CBCE0
:100D900090469946A246F0BD041C002140886A4650
:100DA00001F052FB0028F1D15A4E301C01F0D2FE66
:100DB000051EB542EAD0584B04AE9846281C0021C7
:100DC00002AA002301F040FB00283ED16388AB4219
:100DD0003BD0019F039B781C99467B78002B3CD12C
:100DE0004378002B39D18378002B36D1C378002B80
:100DF00033D10379002B30D14379002B2DD1837966
:100E0000002B2AD1C379002B27D1037A002B24D1C0
:100E1000437A002B21D1837A002B1ED1C37A002B79
:100E20001BD1037B002B18D1437B002B15D1837B77
:100E3000002B12D1C37B002B0FD14B46113304D0B2
:100E40004B467A7C5B7C9A4242D0281C01F082FEA1
:100E5000304B051E9D42B1D198E74B461022591CDC
:100E600013F02BF943425841C3B29A464B46113313
:100E700004D04B467A7C5B7C9A4233D05346002B9D
:100E8000E3D042466388D2899A4236D04246528B9A
:100E90009A4239D04246D28C9A4237D04246528E3C
:100EA0009A4235D01B4A72800022B380434632708A
:100EB000F5801B7B0027002BC7D04246BB00D358D0
:100EC000301C984743461B7B01379F42F5D3BCE754
:100ED000381C494612301231062213F0EEF8002871
:100EE000B3D1CEE7381C494612301231062213F036
:100EF000E4F85346002BC4D1F1E7002251008A18D0
:100F000092004244128ACEE70122F7E70222F5E777
:100F10000322F3E7FFFF0000FC270020F0B557464F
:100F20004E464546E0B4038894B0041C102B0FD005
:100F3000112B07D10823AB4AFF33D15C80880022F4
:100F40000CF064FD14B01CBC90469946A246F0BD5E
:100F5000437DDA072BD48379032B00D1A8E0A24E7E
:100F6000301C01F0F7FD051EB54200D1A0E0E31DE5
:100F7000B0469946A379012B77D9022B6BD1281C57
:100F8000002106AA002301F05FFA002804D1A3790A
:100F9000079F022B00D1C5E0281C01F0DBFD051ED8
:100FA0004545E7D1A688071C86420AD1CAE75B08F7
:100FB0001C338C4A5B00D318DF88A6888A4B9E427C
:100FC00028D00823FF339846864D301CE95C012267
:100FD0000CF01CFD4346301CE95C0CF007FD0028BA
:100FE00000D082E0002398460823FF33A9469A46A2
:100FF0004B46188A5346E95C0CF0F8FC002800D1F7
:10100000E1E001239C460B33E0449C464346E14427
:10101000042BEDD1744B9F4200D193E7A68808239F
:10102000704DFF33E95C301C0CF0E0FC002846D129
:10103000A38808AE7380012333702B7B0024002B20
:1010400000D17FE7A300EB58301C98472B7B01347D
:101050009C42F7D376E7281C01F07CFD624F051E09
:101060004545AAD0A379012B87D8281C002106AAC0
:10107000002301F0E9F900288ED107990B1C1133E8
:101080008AD0A2794B7C9A4286D1123148460622F8
:1010900013F013F8002800D07EE7281C01F05AFD59
:1010A000514B2F1C984288D0A6889E4289D1B6E722
:1010B0004D4BA6881F1C9E4200D082E742E72B8A38
:1010C000B34200D17DE0AB8BB34200D180E02B8DE9
:1010D000B34200D17EE0AB8EB342A9D103235A00C4
:1010E000D3189B00EB18DF81A2E72B8AB34273D0A1
:1010F000AB8BB34272D02B8DB34271D0AB8EB34267
:1011000000D06FE70323DBB201225800C3189B0015
:10111000E81852420682C281A11D0832123012F034
:10112000DBFF77E74946032203A812F0D5FF211C15
:1011300003220A3105A812F0CFFF3B7C08AE3370C2
:10114000FB7B00217370BB7B0D22B3707B7B0CA8F3
:10115000F3703B7B3371FB7A7371BB7AB3717B7A2B
:10116000F3713B7A3372FB797372BB79B3727B791B
:10117000F3723B793373FB787373BB78B3737B780B
:10118000F373FBF715F802AB1B7B301CF37702AB54
:101190005B7BB37702AB9B7B7377FFF7E7FD2F2376
:1011A000F35C04A90B702E23F35C03A84B702D2372
:1011B000F35C03228B7012F080FF002800D16CE7F3
:1011C000EAE600238BE743466A46D371D3799BE76F
:1011D000012384E7022382E7002394E7012392E7B7
:1011E000022390E7FC270020FFFF000070B50028D5
:1011F00008D0184C061C257B002D05D0022D22D9C5
:10120000042070BD0E20FCE7842200215200201C27
:10121000FAF7CEFF83235B00E55425730825F63BE0
:10122000FF356355113B2382A3832385A3860CF0EE
:1012300073FB60551028E3D0074801F059F80028E7
:10124000DFD1257BDAE76B1CAD00237366510020EC
:10125000D7E7C046FC270020710D020038B50823EF
:10126000124CFF33E15C051C0CF0C0FB002801D1DF
:101270000F4838BD238AAB4212D0A38BAB4211D0AA
:10128000238DAB4210D0A38EAB42F1D10323227B3E
:10129000002AEDD05A00D3189B00E418E089E8E753
:1012A0000023F4E70123F2E70223F0E7FC27002004
:1012B000FFFF000070B5194C0823227B002A01D1E2
:1012C000181C70BD06330029FAD00823FF330E1C0A
:1012D000E15C051C0CF08AFB05230028F0D0228A73
:1012E000AA4214D0A28BAA4213D0228DAA4212D0B5
:1012F000A28EAA42E4D1023B5900C91889006118A4
:101300001231301C072212F0E7FE0023D8E7002339
:10131000F2E70123F0E70223EEE7C046FC270020B6
:10132000F0B5474680B4274B051C82B0181C984680
:1013300001F010FCAF1C041E464644451ED13BE0A4
:10134000AA78002A2AD1EA78002A27D12A79002A05
:1013500024D16A79002A21D1AA79002A1ED1EA79FA
:10136000002A1BD12A7A002A18D16A7A002A15D1BC
:10137000201C01F0EFFB041EB4421DD0201C0021F4
:101380006A46002301F060F80028F1D101990B783A
:10139000022B0FD046312B88002BD1D00A889A42DD
:1013A000E6D10231381C082212F087FE0028DFD176
:1013B000201C02E02A31EEE7024802B004BC90464D
:1013C000F0BDC046FFFF00000D4BDA8982420AD013
:1013D0005A8B82420ED0DA8C82420DD05A8E8242D3
:1013E0000CD008487047002251008A1892009B18C0
:1013F000188AF7E70122F7E70222F5E70322F3E76D
:10140000FC270020FFFF00000288031C0120002AA7
:1014100018D19A78002A15D1DA78002A12D11A79CF
:10142000002A0FD15A79002A0CD19A79002A09D1C1
:10143000DA79002A06D11A7A002A03D1587A431E93
:101440009841C0B27047C046082370B5114CFF33B5
:101450000E1CE15C051C0CF0C9FA002800D170BD1F
:10146000238AAB420FD0A38BAB420ED0238DAB426D
:101470000DD0A38EAB42F2D103235A00D3189B00A8
:10148000E418E681EBE70023F7E70123F5E7022301
:10149000F3E7C046FC270020F0B5564644465F46B9
:1014A0004D46F0B4784C85B0267B0823002E07D13A
:1014B000181C05B03CBC90469946A246AB46F0BD10
:1014C000002A00D1DBE00025FE3315711573E554C9
:1014D000002900D1D1E091464E229046CA00511A0F
:1014E000CE31261C8A460222051CA044CE36A244D8
:1014F0000027934601936EE0638B834200D17BE02B
:10150000E38C834200D184E0638E834200D18DE07E
:101510000023002102AA00F097FF5B4698430528AC
:1015200000D1AEE04B461B68002B16D003994B7CD4
:10153000023B012B11D90622701C123112F0CCFD96
:101540004A46039B00935B7C337012687B009E507D
:101550004B464A461B79013313714B469B68002B5F
:1015600031D003994B780131002B69D14B78002B96
:1015700066D18B78002B63D1CB78002B60D10B79AF
:10158000002B5DD14B79002B5AD18B79002B57D191
:10159000CB79002B54D10B7A002B51D14B7A002BF5
:1015A0004ED18B7A002B4BD1CB7A002B48D10B7BC1
:1015B000002B45D14B7B002B42D18B7B002B3FD1A5
:1015C000CB7B002B3CD110239C46073602350237DB
:1015D000E044564551D02888E38983428CD10823C2
:1015E000FF33208AE15C0CF001FA0028EBD1288857
:1015F000638B834200D083E70823FF33A08BE15C39
:101600000CF0F4F90028DED12888E38C834200D066
:101610007AE70823FF33208DE15C0CF0E7F900281E
:10162000D1D12888638E834200D071E70823FF332D
:10163000A08EE15C0CF0DAF90028C4D1288867E7B5
:101640004046102212F048FD4A46414692687B000F
:1016500099504B464A461B7B0736013313732A8841
:10166000E319DA87019A0235A35C02370133A354E8
:1016700010239C46E0445645ADD1002318E70E23C5
:1016800016E7072314E7C046FC27002010B5002A00
:101690000CD0002808D0002906D08378042B03D86A
:1016A000134C9B00E3589F460023138010BD4368F2
:1016B0000B6003888B8001231380F7E702244368C3
:1016C0008C800B6043689B688B600388023B8B8136
:1016D0001480EBE743680B6001238B8043685B68F1
:1016E0008B600388013B8B8102231380DEE7C046B9
:1016F0009050030038B5002808D0002906D0038890
:101700000A880B809A4203D2042038BD0E20FCE7E1
:1017100083788B708378042B4AD8264A9B00D35851
:101720009F464B685A68002AF0D042681C681268CD
:101730001A609442E8D34A68436850687622191DBB
:101740001B685A4312F0C8FC0020DEE74B689A6819
:10175000002ADBD044689D88A288954218D29A80DE
:10176000D2E742684B68127800201A70CDE74B68C8
:10177000028841689200181C12F0AEFC0020C4E7F9
:101780004B6850224168181C12F0A6FC0020BCE7F0
:1017900022681A6043684A689B88938043684A6855
:1017A000191C906808319A8812F096FC0020ACE76A
:1017B0000020AAE7A4500300F0B51C1C87B00193D9
:1017C000250C9BB2062919D8414C890061588F46D7
:1017D000404903AC8C460621654465803E4D21702E
:1017E0002371A2602B7F002B08D000262F1D08CF6D
:1017F000201C98472B7F01369E42F8DB07B0F0BDD6
:10180000002B0CD1002D0AD0324B03AC9C46052393
:101810006544ADB265802371002853D023702E4DEE
:101820002B7F002BEAD000262F1D03AC08CF201CF5
:1018300098472B7F01369E42F8DBDFE7254903AC52
:101840008C46654465800121002832D1224D2170EB
:101850002371A2602B7F002BD0D000262F1D08CF34
:10186000201C98472B7F01369E42F8DBC6E71949BA
:1018700003AC8C46654465800021002810D1164DCC
:1018800021702371A2602B7F002BB7D000262F1D63
:1018900008CF201C98472B7F01369E42F8DBADE72E
:1018A00003310D4D21702371A2602B7F002BEDD1F0
:1018B000A4E70331084D21702371A2602B7F002B18
:1018C000CBD19BE7033B281C237001F0B9F9A6E7B5
:1018D000B850030000C0FFFF0429002038B5134CA6
:1018E0000422237F052B01D9101C38BD00281BD0F2
:1018F000051C002B06D09A00A218013355602377EF
:101900000022F1E71C320021201CFAF751FC01F003
:1019100067F907480EF012FC021EE5D10DF026FB18
:10192000021EE1D1237FE6E70E22DDE70429002035
:10193000B9170200F0B51F1C194B8BB01B7F0D1C93
:10194000161C0824002B02D1201C0BB0F0BD013C5A
:10195000FF28F9D80429F7DC8022124BD201CB18DA
:101960009BB2811889B2181C06AA02AB0EF0AAFA23
:10197000041EE9D106A802A90DF07AFC06A80DF014
:10198000AFFC002E06D0B57002AB5B883380059BA0
:1019900001937360002FD7D0049B3B60D4E7C0460F
:1019A000042900200080FFFFF0B5474680B40D1CDD
:1019B0008CB0171C1E1C0724FF2804D9201C0CB057
:1019C00004BC9046F0BD0429F8DC002B36D0002A78
:1019D00034D01C4B08241B7F002BEFD080221A4BE5
:1019E000D201CB18811804AA90469BB2181C89B268
:1019F00008AA43460EF066FA041EDFD1414608A845
:101A00000DF036FC08A80DF06BFC02AB9D70434650
:101A10005B8802AA13804246D26801920392328800
:101A2000002A0DD004249A42C8D37B68002B05D02D
:101A300002A8391CFFF75EFE041CBFE70E24BDE7B9
:101A40003380BBE7042900200080FFFF08B50B4B63
:101A5000021C1B7F0820002B00D108BD002A0AD0E1
:101A6000002908D093780138042BF6DC081C118873
:101A70000DF052FCF1E70E20EFE7C04604290020EC
:101A800000B5084B83B001901B7F0820002B01D1CB
:101A900003B000BD019B0630002BF9D001A80DF06A
:101AA00077FCF5E70429002070B58EB003921A4A3E
:101AB0000824127F002A02D1201C0EB070BD00291C
:101AC00028D0013CFF28F7D88A78042AF4DC134C8C
