:020000021000EC
:10C00000C03E002091090300F1090300B9D10200EC
:10C010000000000000000000000000000000000020
:10C02000000000000000000000000000F50903000F
:10C030000000000000000000F7090300F9090300F8
:10C04000FB090300FB090300FB0903002D5D02004F
:10C05000FB0903000000000045E40100D1060300D5
:10C06000FB09030095E80100FB090300FB0903003D
:10C07000FB090300FB090300FB090300FB090300A4
:10C080005DE901003D0C0200FB090300FB09030010
:10C09000210D0200FB090300F5190200FB09030052
:10C0A000FB090300FB090300000000000000000082
:10C0B0000000000000000000000000000000000080
:10C0C000164B002B00D1144B9D46402292029A1A27
:10C0D000924600218B460F461348144A121A00F06C
:10C0E00067F80F4B002B00D098470E4B002B00D069
:10C0F00098470020002104000D000D48002802D0C0
:10C100000C4800E000BF00F02DF82000290012F0DC
:10C1100053FD00F011F8C04600000800C03E0020AA
:10C120000000000000000000102700204C37002015
:10C130000000000000000000084B10B5041C002B9C
:10C1400002D0002100E000BF054B1868836A002B75
:10C1500000D09847201C00F033F8C04600000000D3
:10C16000EC3603000E4B70B500251E1C0D4CE41A76
:10C17000A410A54204D0AB00F35898470135F8E766
:10C1800017F0A6FA084B00251E1C084CE41AA41050
:10C19000A54204D0AB00F35898470135F8E770BDCD
:10C1A0000027002000270020002700200027002073
:10C1B000031C8218934202D019700133FAE77047CA
:10C1C000FEE7C04673DF7047F8B5051C0E20002D52
:10C1D00000D17DE0002A00D17AE000200F1C3D490B
:10C1E00008703D490B6006993C4B19603C490B1C9B
:10C1F00013CA13C313CA13C313CA13C300210722DC
:10C200003848FFF7D5FF384B384A394E1A60394A5B
:10C2100000219A60301C3822FFF7CAFF2B782A1CB5
:10C220003370AB781032B370EB78F3706B78737057
:10C23000331C103303CA03C3331C103A083303CA38
:10C2400003C3331C0832183303CA03C36B6A002BC1
:10C2500011D0294B294C7362696A9C600A881A8044
:10C2600088889880002806D000238A68D25CE2542F
:10C2700001338342F9D1AB6A002B14D0204B214803
:10C28000B362A96A98608C889C800A881A8000230F
:10C29000002C05D08A68D25CC2540133A342F9D184
:10C2A0002C23EA5CF2542B6A002B06D0164B336227
:10C2B0002A6A5188598012881A806B68002B03D033
:10C2C000124B73606B687360301C391C01F004FA08
:10C2D000F8BDC046202800205427002078270020E1
:10C2E000842700207C270020CC270020A8270020BE
:10C2F0001027002000280020482700205827002071
:10C3000028280020DC27002024280020C82700201F
:10C31000F0B50024A34D89B0287001A8019402F063
:10C3200009FA082809D0002805D1019B002B05D067
:10C3300001229D4B1A7009B0F0BD01949B4F002162
:10C34000381C0722FFF734FF994E7378002B58D022
:10C350002B78012B05D0B278002A00D1FCE0022B0B
:10C360000FD1944A1268002A00D106E10121924BB4
:10C370000820197090472B78012B00D18DE0022BFB
:10C3800049D0327B002A01D1032B65D0327E002AAE
:10C3900001D1042B65D0874A1268002A03D0033BE1
:10C3A000012B00D899E00022844B1A7002AC1822AD
:10C3B000201C0021FFF7FCFE00232A782370636015
:10C3C0002372E360022A00D1BCE04FD9032A00D1D6
:10C3D000A5E0042A00D09FE0B38B2382338C6382D4
:10C3E000774B1A79002A00D1BCE03278002A04D0B9
:10C3F000744A1278002A00D1C2E00422724B1A70EB
:10C400003CE0B378002BB6D02B78022BA9D0012BBF
:10C41000B7D102232B70B378002B17D07B78002B79
:10C4200000D0A8E0BB78002B00D0A4E0FB78002B64
:10C4300000D0A0E03B79002B00D09CE07B79002B62
:10C4400000D098E0BB79002B00D094E003232B7040
:10C45000337B002B00D083E004232B70337E002B32
:10C4600036D10023584A2B7013709CE7012A53D110
:10C4700063822382544B676022701A70201CFFF77E
:10C48000A1FE002800D056E74A4B1B68002B02D0C3
:10C490004D4A1078984700204DE77278002AB8D0AE
:10C4A0007A78002A00D076E7BA78002A00D072E7BE
:10C4B000FA78002A00D06EE73A79002A00D06AE7BD
:10C4C0007A79002A00D066E7BA79002AA1D062E71B
:10C4D000384B1A68002A00D165E73378002B00D169
:10C4E00061E7384B1B78002B00D05CE70121334B10
:10C4F00007201970904759E7E3600423334802325C
:10C5000000212272C37001F0E7F8002800D012E782
:10C5100005222D4B1A702A78002AB5D0AEE7B38ACF
:10C520006382338A2382264B1A79002A1FD03278FD
:10C53000002A03D0234A1278002ADDD00322224B9E
:10C540001A709BE7012323703389676063827368E5
:10C5500023821D4B1A7091E7022B00D011E775E77B
:10C56000032318E71A7B002A00D03EE745E71A7B31
:10C57000002ADCD1E2E702230DE70F490A70FBE64F
:10C58000E36004231148023200212272C37001F0DB
:10C59000A3F8002800D0CEE606220B4B1A702A78AA
:10C5A000BAE7C04620280020212800207C27002050
:10C5B0008427002054270020FB270020FC27002090
:10C5C000CC270020772700203428002010270020C7
:10C5D00008B50388112B20D0192B09D0102B00D0BF
:10C5E00008BD037D012BFBD18288204B1A80F7E721
:10C5F0008279002AF4D11E4B1B78022B30D027D928
:10C60000032B1DD0042BEBD11A4B1A701A4B1B684D
:10C61000002BE5D000209847E2E70022174B1A7064
:10C62000124B82881B889A42DAD10120FFF770FEF4
:10C630000028D5D0124B1B68002BD1D09847CFE7EC
:10C640000C4A04201370FFF763FE0028F2D1C7E7FD
:10C65000012BC5D10220FFF75BFE0028EAD1BFE71E
:10C660000320FFF755FE0028E4D1B9E76426002037
:10C67000202800203428002054270020772700207D
:10C6800078270020F0B5023889B0012803D8A94CDA
:10C690002378002B01D109B0F0BD002501A8257039
:10C6A000019502F047F8082808D0002800D098E04B
:10C6B000019B002B03D001232370ECE701959E4FD3
:10C6C0000021381C0722FFF773FD9C4D6B78002B6F
:10C6D0005CD09B4E3378012B00D1B6E0AA78002ABB
:10C6E00000D10DE1022B00D1AFE02A7B002A02D15C
:10C6F000032B00D1B3E02A7E002A02D1042B00D103
:10C70000D9E0904A1268002A03D0033B012B00D8DD
:10C71000AFE000228C4B1A7002AC1822201C0021C2
:10C72000FFF746FD00233278237063602372E360D5
:10C73000022A00D1C4E064D9032A00D1CAE0042A45
:10C7400000D0B4E0AB8B23822B8C63827F4B1A79B1
:10C75000002A02D11A7B002A07D02A78002A04D0A6
:10C760007B4A1278002A00D1D3E00422794B1A7058
:10C77000201CFFF727FD002833D1724B1B68002BCC
:10C7800000D188E7734A1078984784E7AB786C4EFD
:10C79000002B2DD13378012B3CD0022BA5D1AB78C7
:10C7A000002B17D07B78002B00D0B0E0BB78002B9B
:10C7B00000D0ACE0FB78002B00D0A8E03B79002B48
:10C7C00000D0A4E07B79002B00D0A0E0BB79002B47
:10C7D00000D09CE0032333702B7B002B3FD003233E
:10C7E0008FE75D4B1B68002B00D154E7984752E759
:10C7F0003378022B29D0012B00D076E70223337047
:10C80000CDE7012A53D163822382524B67602270A5
:10C810001A70ADE76A78002AF0D07A78002A00D042
:10C820006FE7BA78002A00D06BE7FA78002A00D0C8
:10C8300067E73A79002A00D063E77A79002A00D0C6
:10C840005FE7BA79002AD9D05BE73E4A1268002A2E
:10C850005AD00121414B0820197090479AE70423D0
:10C8600033702B7E002B26D0364B1A68002A00D15D
:10C870004FE72B78002B00D14BE7354B1B78002B73
:10C8800000D046E70121304B07201970904743E75D
:10C89000E36004233248023200212272C37000F0A8
:10C8A0001BFF00289DD105222A4B1A703278002ADE
:10C8B00000D162E75CE70023264A3370137028E753
:10C8C000012323702B89676063826B682382214B6D
:10C8D0001A704DE7AB8A63822B8A23821B4B1A792D
:10C8E000002A02D11A7B002A06D02A78002A03D017
:10C8F000174A1278002ACBD00322164B1A7037E75A
:10C90000022B00D0F1E665E714490A7043E70223E1
:10C91000F7E6E36004231248023200212272C3705A
:10C9200000F0DAFE002800D05BE70622094B1A70FF
:10C930003278BCE7212800207C27002084270020B3
:10C940002028002054270020FC270020CC2700208E
:10C95000772700203428002078270020FB2700209C
:10C9600010270020A0DF7047A2DF7047F0B55646C1
:10C970004D4644465F46F0B491B0019089469046DA
:10C980009A46002951D04346002B04D100206E2145
:10C99000294A10F099FB022509AC201C00211C2219
:10C9A000FFF706FC237803AE2B43237001239B463D
:10C9B000B3706B4600279B8802A8002103223380B6
:10C9C0006760E76027616761A761FFF7F1FB534686
:10C9D0001B7802AA137053465B780021537093783A
:10C9E000062293431D43E7231D405B469D4302AB54
:10C9F0009D7004AD281C0E32FFF7DAFB02AB6B60B2
:10CA000043462B81AB814B462B610C4B211C188874
:10CA10002A1C1A9B04966F81FFF7A6FF11B03CBC3D
:10CA200090469946A246AB46F0BD00206D21024AD1
:10CA300010F04AFBA7E7C046F0360300802800202C
:10CA4000F0B55F464D46564644460123F0B495B0D6
:10CA500004A98B70A14B071C0B80A14B01201A1C51
:10CA60009946FFF77FFF002800D0E4E03A88002ACB
:10CA700000D0E7E03A89002A00D0F1E03A8A002AA3
:10CA800000D0F9E03A8B002A00D001E13A8C002A6C
:10CA900000D009E13A8D002A00D011E13B6B002B58
:10CAA0005FD01A7806AD2A700022022692465A7884
:10CAB0000DAC6A709A780021AA70DA78201CEA70AE
:10CAC0001A792A719B681A0A6B71AA711B0C1C22B5
:10CAD000EB71FFF76DFB237800213343237053463E
:10CAE0006360E36023616361A361013398466B4631
:10CAF00042469A756A467B4B03A893820322FFF74E
:10CB000057FB3C236A46FB5C002113733B1C3C3300
:10CB10005B785373937B062293431E430823F6B23C
:10CB20009B469E4308339E4343469E436B469E73FB
:10CB300008AE0E32301CFFF73BFB05AB089303AB8E
:10CB400073605B463381534673815B46B3814B46CA
:10CB5000211C1888321C644B3561FFF705FF002843
:10CB600069D17B6B002B0AD019681A795F4B60483A
:10CB700000933B1C3C33FFF7F9FE00285BD1BB6BF5
:10CB8000002B00D1A8E01A7806AD2A705A880DACA7
:10CB90006A70120AAA709A880021EA70120A2A7131
:10CBA000DB881C226B71201C1B0AAB71FFF700FB9A
:10CBB000022290464246237803AE1343237000239B
:10CBC0009A466360E36023616361A36101339B461E
:10CBD0006B465A469A756A46464B00219382301C32
:10CBE0000322FFF7E5FA3C23FB5C062233703B1C73
:10CBF0003C335B7800217370B378934342461A4309
:10CC0000171CE7231F405B469F43B77008AF1422F1
:10CC1000381CFFF7CDFA05AB0893072352463B813A
:10CC2000BB814B467A811888211C3A1C324B7E60AE
:10CC30003D61FFF799FE15B03CBC90469946A2466F
:10CC4000AB46F0BD2D4B2E4800933B1C79683C331E
:10CC5000FFF78CFE0028EED13A89002A00D10DE7BB
:10CC6000284B294800933B1CF9683C33FFF77EFEB4
:10CC7000002800D102E7DEE7244B254800933B1C47
:10CC800079693C33FFF772FE002800D1FAE6D2E75B
:10CC9000204B214800933B1CF9693C33FFF766FEAB
:10CCA000002800D1F2E6C6E71C4B1D4800933B1C50
:10CCB000796A3C33FFF75AFE002800D1EAE6BAE76A
:10CCC000184B194800933B1CF96A3C33FFF74EFEA2
:10CCD000002800D1E2E6AEE70020ACE70A18000029
:10CCE00080280020232A00004828002058280020FF
:10CCF0002A2A0000502A0000602800205028002026
:10CD0000292A000040280020242A00007028002042
:10CD1000252A000068280020272A00007828002003
:10CD2000262A000038280020282A0000A0DF7047AB
:10CD3000A2DF7047A6DF704763DF704710B5002899
:10CD400008D0002906D00B88112B16D0502B02D00A
:10CD5000102B0FD010BDCB88028A9A4211D0828846
:10CD60009A42F7D18469002CF4D00B1C2031DA8B65
:10CD7000A047EFE78B888382ECE701235B42838245
:10CD8000E8E7CA8B022AEAD12023CA5C1F3B134082
:10CD900002D001238375DDE78375DBE7F0B54D46EF
:10CDA0005F46444656461023F0B495B0041C0D1C53
:10CDB00004A87B49102299460E2716F009FC002C86
:10CDC0000ED0002D0CD001235B42A3822B6804A857
:10CDD000A3610023211CA375FFF7AEFF071E07D038
:10CDE000381C15B03CBC90469946A246AB46F0BDF7
:10CDF000237802A98B700123A21C01200B80FFF76E
:10CE000095FF071EECD1002103226846FFF7D0F9F9
:10CE10006B460F221B7892469343012293465A4653
:10CE200013435246134010229046424613436A462B
:10CE300013705378524693435A4613435246134055
:10CE4000424613436A465370937806229343043A4A
:10CE500013436A460DAD937000211C22281CFFF776
:10CE6000A7F942462B7801AE13432B706B466A46F6
:10CE70006B612378002193730323301C9381032279
:10CE80006F60EF602F61AF61FFF792F95246337820
:10CE9000002193435A4613435246134042461343DC
:10CEA00052463370737808A893435A461343524648
:10CEB00013404246134306227370B3789343043AF7
:10CEC0001343DBB2063293434A4693435A46134315
:10CED0001422B370FFF76CF903AB089301226B4681
:10CEE0001A8514225F859A85231C6088291C08AA4C
:10CEF0000C330996FFF71CFF071E00D070E70021D6
:10CF00001C22281CFFF754F908232A780021134318
:10CF1000042213436A462B702378301C9373022338
:10CF2000938103226F60EF602F616F61AF61FFF744
:10CF30003FF952463378002193435A4613435246F1
:10CF400013404246134352463370737808A8934304
:10CF50005A46134352461340424613430622737007
:10CF6000B3789343043A1343DBB2063293434A4601
:10CF700093435A4613431422B370FFF719F903ABD6
:10CF8000089301226B461A8514225F859A85608872
:10CF9000231D291C08AA0996FFF7CAFE071C1FE7D4
:10CFA0004C37030070B586B06B46041C0D1CDA804C
:10CFB000002809D0828A114B08209A4202D0A37D12
:10CFC000002B03D106B070BD0E20FBE76B46DB885B
:10CFD0000138142BF6D802AE301C00211022FFF7C6
:10CFE000E7F8A389A08A33806B460633B360012338
:10CFF000311CF560B370FFF79DFEE3E7FFFF000013
:10D0000071DF704772DF704779DF70477DDF7047EF
:10D0100065DF7047F0B50488051C83B00720012C3C
:10D0200004D01488A01C984202D90C2003B0F0BD93
:10D030002E78012E04D16E7802363619B342F4D31D
:10D04000023B1C1B6B460F1CA4B20818991D161C32
:10D05000DC80FFF7DBFF0028E8D12B78022B18D00B
:10D06000012B11D0231C0821FE2BDED83288581C3E
:10D07000B85432880020013292B23280B9543288DA
:10D0800001329B183380D1E76B789C42EBD2231C92
:10D09000E9E76B46DB8809219C42E5D2231CE2E7E5
:10D0A000F0B55F46564644464D46F0B485B09A46C4
:10D0B0000EAB80CB061C1B8800919B463B8890469C
:10D0C00001930388002B5BD00023994602AB002418
:10D0D000DD1C03E033880134A3422ADD7368A1001C
:10D0E0009C460422614403A816F072FA03A8291C86
:10D0F0000022FFF78DFF002826D12B784345E9D188
:10D100004B46002B27D043463A88D3185B4539DC81
:10D11000524403A8291CFFF77BFF002814D13B8849
:10D120002A780134D3183B80012399463388A342DF
:10D13000D4DC4B46002B23D03B88019A013B9B1A41
:10D140009BB20C20FF2B18D905B03CBC90469946E9
:10D15000A246AB46F0BD42463B889A1802325A4579
:10D1600010DC69465246013309789BB23B80D154AA
:10D170003A88013292B23A80CAE7111C524653549F
:10D180000020E1E70C20DFE7F0B55F4656464D464C
:10D190004446031C0020F0B417881080586B87B0F9
:10D1A000002800D16FE10478022F18D90220112540
:10D1B00008701088013080B210800D541088013042
:10D1C00080B210800C5414880134A4B21480186BFF
:10D1D000002800D177E0251C1235BD4207D90C206C
:10D1E00007B03CBC90469946A246AB46F0BD11251F
:10D1F0000D551488013D0134A4B214800D551488D6
:10D200000134A4B21480C57B0D5514880134A4B236
:10D210001480857B0D5514880134A4B21480457B9D
:10D220000D5514880134A4B21480057B0D55148863
:10D230000134A4B21480C57A0D5514880134A4B207
:10D240001480857A0D5514880134A4B21480457A6F
:10D250000D5514880134A4B21480057A0D55148834
:10D260000134A4B21480C5790D5514880134A4B2D8
:10D27000148085790D5514880134A4B21480457941
:10D280000D5514880134A4B2148005790D55148805
:10D290000134A4B21480C5780D5514880134A4B2A9
:10D2A000148085780D5514880134A4B21480457813
:10D2B0000D5514880134A4B21480007808551488E0
:10D2C0000134A4B214802E201D5C002D00D0DCE0BF
:10D2D0001E1C2D23F35C151C8846002B00D0F7E0A4
:10D2E000B378002B00D024E1F378002B16D0E21C99
:10D2F000BA4200D973E70222414640460A5501214D
:10D300002A88013292B22A8081542A88013292B24C
:10D310002A8083542C880134A4B22C807368002B9B
:10D3200016D01A78E31CBB4200D958E702234146C5
:10D3300040460B550A212B8801339BB22B80C154E8
:10D340002B8801339BB22B80C2542B8801332B8056
:10D350003389002B00D010E1338A002B00D076E116
:10D36000338B002B00D08BE1336A002B4AD02A8804
:10D370000C20911DB94200D932E7198805388B4637
:10D38000052900D82CE7CC4C5C44A4B2A146CB4C78
:10D39000A446A14500D823E75C88A246052C00D806
:10D3A0001EE7C54C6946A146D1444C46CC81CC8988
:10D3B000644500D814E7C24CA34504D0A24502D06E
:10D3C000D34500D90CE70521404681542A880D3108
:10D3D000013292B22A8081542A88013292B22A8084
:10D3E000198842441170090A51702A88023292B297
:10D3F0002A805988131C43441970090A59702B88D4
:10D4000002332B80746A002C32D0A2882988131D25
:10D410005B180C20BB4200D9E2E6931CFE2B00D91E
:10D42000DEE6434603325A54FF2241462B8801333D
:10D430009BB22B80CA542B8801339BB22B8022884D
:10D4400043441A70120A5A702B8802339BB22B8005
:10D45000A288002A0CD0A1680538002900D1BFE6B7
:10D460004344181C16F0B4F82A88A388D3182B80DC
:10D470002C23F35C002B00D098E03378002B00D0F5
:10D48000DEE00020ACE60024A1E6E61C2238BE4225
:10D4900000D9A5E602260E551C241088013080B262
:10D4A00010800C541088013080B21080022D00D101
:10D4B0000FE100D806E1032D00D108E1042D00D0D2
:10D4C000F7E003240C5414880134A4B21480FFE65E
:10D4D00009340C20BC4200D982E604A8FFF790FD75
:10D4E000002800D07CE6414608222B88CA542B88AD
:10D4F000133201339BB22B80CA5402AB9C460921E4
:10D500002888153A013080B228806144404416F0E2
:10D510005FF82B8802AA0633127A9BB22B80002A6E
:10D5200000D001224146CA542C880134A4B22C8078
:10D53000D6E604340C20BC4200D951E604A8FFF71B
:10D5400063FD002800D04BE6032241462B88CA54D5
:10D550002B88163201339BB22B80CA542B8802AA27
:10D5600001339BB212892B8043441A70120A5A70FD
:10D570002C880234A4B22C80B6E6341C0834009502
:10D580000197201C022102224346FFF789FD002853
:10D5900000D025E600950197201C06211022434665
:10D5A000FFF77EFD002800D01AE6D5E6B46A002C0D
:10D5B00000D17EE0A3880233FE2B00D90FE60022C3
:10D5C0009146163292461632288893460BE04B4617
:10D5D0005C00B36A4C449C46A4006444A3880233B4
:10D5E000FE2B00D9FBE542465146013313542B88EC
:10D5F00001339BB22B80D1542B8801339BB22B80FB
:10D60000228843441A70120A5A702888023080B265
:10D610002880A288002A0AD0A168002949D0404465
:10D6200015F0D6FF2888A388C01880B228804B4602
:10D630000133DBB299465B46F35C4B45C7D81CE728
:10D64000301C41462A1C3B1CFFF7E4FCC8E5341C97
:10D65000103400950197201C032102224346FFF756
:10D660001FFD002800D0BBE500950197201C072175
:10D6700010224346FFF714FD002800D0B0E56FE606
:10D68000341C183400950197201C142102224346B3
:10D69000FFF706FD002800D0A2E500950197201CA9
:10D6A000152110224346FFF7FBFC002800D097E528
:10D6B0005AE6072094E5C0467FF3FFFF7DF30000A4
:10D6C000FFFF0000012DF4D100240C54FBE60E54A2
:10D6D000F9E601240C54F6E6F0B54E4657464546A9
:10D6E0001F23E0B496B002AA041C0E1CD3810028AC
:10D6F00000D171E0C3785B0767D5002302AA93814C
:10D70000436B002B00D13EE11B78022206ADAB70CB
:10D7100003230327052104202A700F326A7002AA0E
:10D720009381226B002A3AD0112306ADEB55013BC1
:10D730002B54D37B6B54907B4B1CE854507B8B1C3D
:10D74000E854107BCB1CE854D07A0B1DE854907A37
:10D750004B1DE854507A8B1DE854107ACB1DE854C9
:10D76000D0790133E85490790133E854507901338A
:10D77000E85410790133E854D0780133E8549078B4
:10D780000133E854013302A883815078E85401330F
:10D7900002A883811278EA54013383819BB22E223E
:10D7A000A25C002A00D0F1E12D22A25C002A00D068
:10D7B00011E1A278002A00D03DE1E278002A35D0BC
:10D7C000D91C1F2925D90C2000E0072016B01CBC4D
:10D7D00090469946A246F0BD002502AB9881002EE6
:10D7E00000D1D4E0F378002BEFD102AA94460E23A7
:10D7F0006344301C0EA91A1CFFF7C6FC0028E5D1B3
:10D8000002AB9B7B0EAA02A9097B281CFFF7FAFB3F
:10D81000DCE70220012706ADE854581C02339BB216
:10D8200080B22F54EA548BB202AA93816268002A14
:10D830000FD01078DA1C1F2AC5D802210A2706AD9E
:10D84000E954591C02339BB289B26F54E85402ABBD
:10D850009A812389002B00D09EE0238A002B00D0E0
:10D860000AE1238B002B00D025E1236A002B43D053
:10D8700002AA92890C20911D1F29A7D818888246D8
:10D8800055460720052DA1D9D24D5544ADB2AC4621
:10D89000D14DA846AC4599D95D88A946052D00D83B
:10D8A00094E7CC4D6F46AC46CC446546FD81FD897E
:10D8B000454500D88AE7C94DAA4504D0A94502D0FC
:10D8C000CA4500D982E70520122706ADA854501C8E
:10D8D00080B22F54901C80B202AFB8811F882818E4
:10D8E00007703F0A477004325B8892B2AD182B7004
:10D8F0001B0A6B7002AB9981676A002F2FD0BB881F
:10D900000C20991C02AB9B899A1C55181F2D00D91D
:10D910005CE7FE2900D959E706AD0131E954591CED
:10D9200089B2F330685492B202A98A813988AA1860
:10D930000433117098B2090A02AB51709881BA8809
:10D94000002A0CD0B968002900D13EE7281815F04C
:10D950003FFE02ABBA889B89D31802AA93812C237D
:10D96000E15C002900D0C5E006AD2378002B00D192
:10D9700035E7201C291C05AA1F23FFF74BFB0028B5
:10D9800000D12CE722E7002702210120C9E602ABE3
:10D99000DE810022002336E705AB271C00931F23FE
:10D9A000083706AD98460193381C022102222B1C31
:10D9B000FFF776FB002800D008E705AB009343464D
:10D9C000381C0193062110222B1CFFF769FB00284D
:10D9D00000D0FBE641E709330C201F2B00D9F5E608
:10D9E0000EA8FFF70DFB002800D0EFE6082202ABDF
:10D9F0009B8906ADEA545A1C023398B21B2102AB34
:10DA00009C4692B2A9541631988161440622281886
:10DA100015F0DEFD302002AB02A99B8909180978B8
:10DA20009A1D92B2002900D001210733A9549BB25C
:10DA300002AA9381BDE604330C201F2B00D9C5E652
:10DA40000EA8FFF7E1FA002800D0BFE60322192153
:10DA500002AB9B8906ADEA545A1C92B2A95402AAA1
:10DA6000118E9A1C92B2AD18043329709BB2090A28
:10DA700002AA69709381A0E605AB271C00931F23BF
:10DA8000103706AD98460193381C032102222B1C47
:10DA9000FFF706FB002800D098E605AB009343464D
:10DAA000381C0193072110222B1CFFF7F9FA0028DC
:10DAB00000D08BE6D5E605AB271C00931F23183753
:10DAC00006AD98460193381C142102222B1CFFF747
:10DAD000E7FA002800D079E605AB00934346381CEE
:10DAE0000193152110222B1CFFF7DAFA002800D031
:10DAF0006CE6BAE6A76A002F00D166E6BB8802335F
:10DB0000FE2B00D95FE602AA9089002290461632C9
:10DB100091461632924606AD4A4601332B54431CB9
:10DB20009BB2EA54831C9BB202AA93813A88EB18F9
:10DB30001A700430120A5A7080B202AB9881BA8807
:10DB4000002A0FD0B968002900D13EE6281815F048
:10DB50003FFD02AB9B89B888C01880B202AB9881A8
:10DB60005346E15C43460133DBB298468B4200D317
:10DB7000FBE643465F00A36A47449C46BF006744F8
:10DB8000BB880233FE2BC7D90C201FE602201C27BE
:10DB9000591C06AD89B2E8546F54191889B28242F3
:10DBA0000CD010D9032A0CD0042A00D00DE6032291
:10DBB0006A5403339BB202AA9381F5E501226A54A9
:10DBC000F7E76854F5E7012A00D0FEE500226D185A
:10DBD0002A70EEE77FF3FFFF7DF30000FFFF0000F8
:10DBE00075DF704776DF70477ADF70477BDF7047FD
:10DBF00010B5184B82B01888174B984214D0174AAA
:10DC0000174C13780133DBB21370217B99420DD28C
:10DC100000231370237C002B12D16369002B03D0E7
:10DC2000002201A80270984702B010BD0D49FFF70D
:10DC3000D7FF0028F8D0A369002BF5D09847F3E769
:10DC40003B21FFF7CFFF0028E7D0A369002BE4D0EA
:10DC50009847E2E7CC280020FFFF00008C28002036
:10DC600090280020D028002030B51B4B1B4A5B8831
:10DC7000118883B099420FD852889A420CD3184B1E
:10DC80005B69002B03D0012201A802709847154C54
:10DC90000023237003B030BD124C2378002B08D032
:10DCA0000F4B5B69002BF3D0002201A8027098474C
:10DCB000EEE70D4B0A4D1B78002B0BD0A9680B48E3
:10DCC000002203F0DDFA0028E2D0AB69002BDFD0A0
:10DCD0009847DDE76968F2E784280020D028002013
:10DCE00090280020822800208C280020AC280020CA
:10DCF000164938B5021C0B1C32CA32C332CA32C3B1
:10DD000012681A600022124B01681A70002916D09E
:10DD1000104C0832201C15F05BFC201CFFF764FF40
:10DD200000280BD101220C4B52421A8000220B4BCF
:10DD30000B481A7000210B4A03F088FA38BD0548D9
:10DD4000FFF754FF0028EDD0F8E7C04690280020E8
:10DD500082280020D0280020CC2800208C280020F9
:10DD60005C370300F1DB010010B50388112B35D0BF
:10DD700021D9122B17D0502B1CD1214CC288E389FA
:10DD80009A4217D1C38B022B14D11E33C35CDB071D
:10DD90000ED41C4803F0F2FA00280BD0A369002B24
:10DDA00008D0984706E0811D0822174815F010FC9E
:10DDB000FFF75AFF10BD102BFCD1011C8288134BBA
:10DDC00016311A801048082215F002FC0022104B70
:10DDD0001A700B4BDB89002BECD1E9E701220B4BCE
:10DDE00052421A8000220A4B06481A7003F0C6FA03
:10DDF0000028DFD0024B9B69002BDBD09847D9E786
:10DE000090280020AC28002084280020CC28002066
:10DE10008C280020F0B55F4656464D464446F0B487
:10DE2000038889B0071C112B00D16CE0182B50D04F
:10DE3000102B06D009B03CBC90469946A246AB4692
:10DE4000F0BD384E03A8B31C9846B27CF37C414623
:10DE50009A4303F0D9FC039B03AC99460025002BA1
:10DE600010D012239B4600239A46B3445246A388FF
:10DE70004046009259461522013503F05DFB0234FD
:10DE80004D45F3D1B07CBC88C043C0B203F0EAFA80
:10DE9000254B98423FD0311C4000B51C30184480BF
:10DEA000221C281C1331012303F008FB311C281C01
:10DEB000221C1231012303F001FB3B7D311C023B8C
:10DEC000584243411431BA88DBB2281C03F0F6FAF9
:10DED000B0E71F23BC79134EA3429B41311C5B4228
:10DEE000B01CBA881531DBB203F0E8FA2F23BC79F5
:10DEF000311CA3429B415B42B01C1631BA88DBB295
:10DF000003F0DCFA96E70749BA88881C002313312E
:10DF100003F0D4FA8EE70420C521044A0FF0D4F8A8
:10DF200088E7C046D8280020FFFF000060370300C4
:10DF300070B5051C094C2A1CA61CA17C301C03F0E2
:10DF400031FC031C0020002B07D0217D301C2A1C33
:10DF500003F028FC431E9841013070BDD8280020F2
:10DF600008B5034B021C597D981C03F01BFC08BD2F
:10DF7000D828002008B5034B021C997D981C03F09B
:10DF800011FC08BDD828002010B5041C034B991CB7
:10DF90009A7C03F039FC201C10BDC046D828002014
:10DFA000012210B532490B881A4234D0581002426F
:10DFB00034D09810024234D0D810024234D0181114
:10DFC000024234D05811024234D09811024234D067
:10DFD000D811024234D01812024234D058120242F0
:10DFE00034D0580535D5D812024235D01813024224
:10DFF00035D05813024235D09813024235D0DA1387
:10E000001020002A00D010BD0F2401380122A240A8
:10E0100013430B80F7E700200024F7E701200124D9
:10E02000F4E702200224F1E703200324EEE70420B2
:10E030000424EBE705200524E8E706200624E5E7AD
:10E0400007200724E2E708200824DFE70920092445
:10E05000DCE70A200A24D9E70B200B24D6E70C20A2
:10E060000C24D3E70D200D24D0E70E200E24CDE79D
:10E07000D828002010B5064C021C238800200B4134
:10E08000DB0704D56118A01CC97D03F08BFB10BD14
:10E09000D828002038B5064D2C880C41E30706D55A
:10E0A0006918131C1731021CA81C03F007FA38BDAD
:10E0B000D82800200449021C0B8803410020DB07FC
:10E0C00001D58A18D07D7047D828002038B5041CA7
:10E0D000081C0D1C15F08DFA6560208038BDC04607
:10E0E000F0B5002820DBFF271B4B03229C463B1C7E
:10E0F0008408C026C0B20240D2009340A400644409
:10E10000B600A5599D438B013B409340191C1F232A
:10E1100018401E3B8340C022181C6346294352000E
:10E12000A15198501860F0BD03240F23C0B20340E2
:10E130002040FC34251C094AC000944689018540D2
:10E1400021408140083B9B089B006344DA69AA4355
:10E150000A43DA61E7E7C04600E100E000ED00E0D5
:10E1600082B00190019B002B14D0019B0A48013B17
:10E1700001930138C046C046C046C046C046C046AE
:10E18000C046C046C046C046C046C046F1D1019B0D
:10E19000002BEAD102B07047E703000038B53A25FA
:10E1A000134C0820635D002B00D038BD3822013BA2
:10E1B000A354A361C732E36123626362A362E36293
:10E1C0002363636323606360A360E360236163612F
:10E1D00002383A330121E254FFF782FF8021C12344
:10E1E000044A9B000906D150012300206355DCE757
:10E1F00000290020006000403A23034AD05C431EFF
:10E200009841C0B27047C04600290020F0B547468B
:10E2100080B4494B08241D182E7E7F2E03D8201C65
:10E2200004BC9046F0BDCC78A446002C27D01C68D6
:10E23000013478D004240026A046741CA5005F5940
:10E24000013725D0B41CA04517D9A5005F59013767
:10E250001ED0F41CA04510D9A5005F59013717D076
:10E26000341DA04509D9A5005F59013710D00536E6
:10E27000B04502D95C69013408D00424CFE71C6999
:10E28000013454D006240426A046D6E705241425DC
:10E290005A516246E6B21F183E76002A02D11C1976
:10E2A000343420708A78002A15D1021CA0254C78BD
:10E2B000C132FF32A4009200ED055451CA78002A01
:10E2C00015D176B29B190A783433197892010A4332
:10E2D0001A700024A3E7A024E405A446E025022741
:10E2E00082006244ED005459BC435451E6E7A22435
:10E2F00076B2124BB600F318E4000A781D591049A3
:10E30000000229401951F82149010840061CC0218A
:10E310001004021C301C89021D590A401043284376
:10E32000185100247BE700261A602E76BAE70424F1
:10E330001A612C76261CB2E70029002000600040FC
:10E34000FFE0FCFFF0B5254C25182A7E53B2032BC5
:10E3500018DDE31834331B789B09032B32D0012BD3
:10E3600039D0C025AD02A023DB059C46E023800008
:10E370006044DB00C4581A492140C150C2582A43A6
:10E38000C250F0BD032AFCD81648A22784460126B5
:10E390009A006244FF00D0593043D0511A1C6046A5
:10E3A00000274032920092B217500029E9D018227B
:10E3B000AA5692001259002AE3D0C1229E40920030
:10E3C0008650DEE7A223A022DB00D205D25801232B
:10E3D00083401A42C5D18025AD02C4E70029002040
:10E3E000FFFFFCFF0060004010B5134B1B181A7EA6
:10E3F00053B2032B12DC032A0FD8104AA2249446EE
:10E40000012299006144E400085990439A40131C8A
:10E41000C2220851614692008B5010BDA023DB053B
:10E420009C46E02380006044DB00C158044A0A4057
:10E43000C250C258C250F0E70029002000600040DE
:10E44000FFFFFCFFF8B54F464646C0B4994A00248A
:10E450001368012B00D178E0974B1A68012A00D18C
:10E4600081E0964B1A68012A00D18CE0944B1A681F
:10E47000012A00D197E0934B00251A68012A00D1A8
:10E48000A2E023070BD0E30700D5B3E0A30700D534
:10E49000BFE0630700D5CAE0230700D59EE0002C4B
:10E4A00003DB0CBC90469946F8BD3823864CE15CF2
:10E4B0004BB2013320D0C9B2C023081C98432318A3
:10E4C0001B7E5BB29B001E59002E15D0A022D205E8
:10E4D000944683009C44E0236246DB00D35801222B
:10E4E000C0278240BF023B4089091B0C154200D166
:10E4F000C0E0022B00D1C4E03923E15C4BB2013310
:10E50000CFD0C9B2C023081C984323181B7E5BB22E
:10E510009B001E59002EC4D0A0230124DB059C467D
:10E52000E023C027844082006244DB00D358BF024E
:10E530003B4089091B0C254200D188E0022BB0D159
:10E54000032900D18BE0B047ABE7C1215F488900C8
:10E5500041580B4200D17FE7574B14601A680134D1
:10E56000012A00D07DE7C122584992008958022231
:10E570000A4200D175E700211960504B14431A6814
:10E58000012A00D072E7C122504992008958042222
:10E590000A4200D16AE700211960494B14431A6806
:10E5A000012A00D067E7C122484992008958082211
:10E5B0000A4200D15FE700211960424B14431A68F8
:10E5C0000025012A00D05CE71D6080231B061C4348
:10E5D000A022A223D205DB00D55852E73B4A3C4B90
:10E5E000D058D158384BC0048903C00E890FDB685E
:10E5F000984754E7A223354ADB00D058D158324B14
:10E60000C00489031B68C00E890F9847A30700D474
:10E610003FE7304B2D4AD058D1582B4BC0048903CB
:10E620005B68C00E890F9847630700D434E7A323C3
:10E63000264ADB00D058D158234BC00489039B687D
:10E64000C00E890F9847230700D428E7C6E7032B9D
:10E6500000D026E7032900D075E78027BF02E0231A
:10E66000DB00D5581C4C2C40D450D4582743D750ED
:10E67000B04716E7032B00D03EE7032915D0B0477B
:10E680003AE70329FBD1B946E0236246DB00D258C2
:10E6900090464746104A3A406746FA50FA584F4665
:10E6A00017436246D750B04726E780239B0299461E
:10E6B000EAE7C04600610040046100400861004094
:10E6C0000C6100407C610040002900200060004097
:10E6D0001C05000014050000FFFFFCFF602130B5A1
:10E6E000456802786B0119400323134019431C232A
:10E6F000427892001A400B1C1343C02292022A4017
:10E7000000D01343084A09480949145821401150C0
:10E71000A0210024C9005450FF21145809022140AF
:10E720000B43135030BDC04600700040040500008C
:10E73000FF00FFFF074B1A680823520701D4181C7B
:10E740007047002804D0044B5B7803600023F6E791
:10E750000E23F4E7082A00203C290020F8B5224EB9
:10E760004379171CF25C041C0D1C0820002A00D001
:10E77000F8BD002934D01D4B22689A422ED00420C7
:10E78000E9782056FFF7ACFC6379194A69689B0069
:10E790009950002F22D0174A9F5001222168164F0E
:10E7A0006878CB59104093430343CB51032123682E
:10E7B0000437DB59A8788B43084021680343CB51C9
:10E7C0000F21236808372878DB5908408B432168DC
:10E7D0000343CB5163790020F254C9E70720C7E710
:10E7E000064DDB00ED18C6E7142A0020008000402B
:10E7F000102A00200C2A002004050000B83703006E
:10E800000122022103681A604379014AD1547047FA
:10E81000142A0020012302680249136142798B54B3
:10E820007047C046142A002001220368DA6070474E
:10E8300030B5802464028C40002B09D1C2230568C6
:10E840009B00EC5051310368FF318900CA5030BD44
:10E85000C12305689B00EC50F4E7C0460B1C02681E
:10E860005033944600229B009BB263441A6080237D
:10E870005B028B40191CC12302689B00D15070477A
:10E8800080235B028B40191CC22302689B00D1507D
:10E890007047C04608B5284B1A68002A05D0C12227
:10E8A000264992008A58D20328D4254B1A68002A98
:10E8B00005D0C122214992008A58920328D4214BC5
:10E8C0001A68002A05D0C1221C4992008A585203B6
:10E8D00028D41D4B1A68002A05D0C122174992007E
:10E8E0008A58120300D408BD0022A6201A60174BD4
:10E8F00040001968164B1B689847F4E70022A020D7
:10E900001A60124B40001968114B1B689847CCE7FE
:10E910000022A2201A600D4B400019680C4B1B68A6
:10E920009847CCE70022A4201A60084B40001968E1
:10E93000074B1B689847CCE740910040009000408F
:10E9400044910040489100404C910040102A002022
:10E950000C2A002036DF704737DF704708B5C12327
:10E96000054A9B00D358DB0705D50022034B1A60EC
:10E97000034B1B68984708BD00000140000101409F
:10E980001C2A002038B5104B041C19600F4B0820BE
:10E990001A78002A00D038BD01321A70002C11D02C
:10E9A000FA2122780A4D0B4B8900EA506368D8039C
:10E9B00012F046FD084BE850217A1020FFF790FB3B
:10E9C0000020E8E7054CEBE71C2A0020202A002065
:10E9D000000001400C05000004050000C0370300E2
:10E9E000C1210122034B89005A501A60024B0132A7
:10E9F0001A70704700000140202A002070B582B0D4
:10EA000000236A46D371304B041C5B680426DB0587
:10EA1000DB0D2FD16B46D81DFFF79CFF022827D0B6
:10EA2000002840D1294A04251368072B12D9012E4A
:10EA30000CD062B66B46D879FFF78EFF0223021C1A
:10EA40009A4303D06E21224A0EF03EFB281C02B0EE
:10EA500070BD0126591C116001219940A12023702D
:10EA60000B1C1C4CC0002258002513432350DEE72A
:10EA700072B6D7E7103BD9B24AB2002A18DB920827
:10EA80001549C0329200525803210B40DB00DA4096
:10EA900013069B0FDEB2012BBCD10C4A1368072B67
:10EAA000D7D90425D2E76221094A0EF00DFBB9E758
:10EAB0000F220A4B0A409C46083A92089200624490
:10EAC00052680323E1E7C04600ED00E0182A002069
:10EAD000CC3703000000014000E100E018ED00E049
:10EAE0008130034A034BFF308000C2507047C0465C
:10EAF0003546526E0000014070B5002A19D01388C7
:10EB0000002914D0051CFF2641182C785BBA9BB253
:10EB100063401A1CDBB21B09534018034340301CEE
:10EB20009BB218404001013543408D42EDD1181C85
:10EB300070BD014BE4E7C046FFFF0000F0B5254B78
:10EB400082899A423AD0244F0389BA889A423FD0A8
:10EB50000121BA8A00258C469A4235D01F4E2B01DE
:10EB60008021FA58C900131C54181269103301325D
:10EB70001BD0016808E05A88033292009B18A34218
:10EB800013D21A68013210D09A688A42F3D11A88D7
:10EB9000002AF0D09A88B242EDD04360104B8381B6
:10EBA000104B1B8843810020F0BD6346002B03D02F
:10EBB0000135ADB2032DD2D10520F5E7094B4289CD
:10EBC0001B889A42BFD1EEE7013500239C46C5E77A
:10EBD0000025FAE71EF10000A02A0020FFFF000038
:10EBE0001EF1FFFFD62A0020033083B230B5092082
:10EBF000FB2B00D930BD134C227B1207120F022AC7
:10EC00000ED0227F04201207120F022AF2D1E28ACC
:10EC1000258BAA189A1892B2FF2AEBD8012207E096
:10EC2000E288208982189A1892B2FF2AE9D8002235
:10EC30001201A418A28800200A8022899B189BB286
:10EC40002381D7E7A02A0020F8B54F464646C0B436
:10EC5000554B8A889C88944200D19EE09C8A00256E
:10EC6000944200D19DE000280ED10C1C2B68E9884D
:10EC70009C462378890061441B09072B00D988E052
:10EC80004A4A9B00D3589F46EA884B88D3189BB2C8
:10EC9000EB802B894A889B1A9BB22B810CBC904637
:10ECA0009946F8BDEA8863884148D3189BB2EB8047
:10ECB0002B8962889B1A9BB22B81EFE7221C0123D0
:10ECC00008323C4801F0A4FE0F212378021C0B40BF
:10ECD00020210B4323700020002ADFD0E9886388BD
:10ECE000101CCB189BB2EB802B8961885B1A9BB2FE
:10ECF0002B81D3E7221C0831103201232D4801F06B
:10ED000087FE0F212378021C0B4030210B43237018
:10ED1000E1E741206378013B6370274B1A5CD2B274
:10ED2000002A38D04027DA5D9146DA5D01329046FC
:10ED3000072246461640DE551A5C013AD2B21A54F2
:10ED400062881C48920089184A46D600F2589E19DB
:10ED5000B38801F05DFEB1886388021CCB18638024
:10ED60006378002BB7D10F2123780B4040210B4350
:10ED70002370B0E7221C04310C3201230D4801F04E
:10ED800047FE0F212378021C0B4070210B43237098
:10ED9000A1E70322A2E71368FFDE00252D015D191C
:10EDA00061E70135FAE7C046A02A002024380300B5
:10EDB0003412000000270020242A0020F0B5444629
:10EDC0005F4656464D46F0B4037885B0041C1B09D7
:10EDD000062B3FD0072B3BD00B20052B06D005B0D0
:10EDE0003CBC90469946A246AB46F0BD6A46A38815
:10EDF0006846138123690093FFF7A0FE031C0520DA
:10EE0000002B00D187E00F22237813407022134398
:10EE10002370E4E74A4A036891688B4223D3D2689F
:10EE2000934220D89A071ED15A880689033292004D
:10EE30009B180360012E1CD9002343600F22237806
:10EE4000002113407022134323700C22FDF7B0F908
:10EE50003C48C4E73C4B3D481B789B07EED53C4BF8
:10EE600042689A42D6D03A4B002643600023038181
:10EE70000360384B9B889846364B9B8A9946002303
:10EE80009A46354B9C4605E00136B3B20381012614
:10EE9000022BD1D046454CD04B469A1B5142514192
:10EEA0002C4B0A019B181B7B1B071B0F022BEBD162
:10EEB000284B01689D5800293DD08023DB009B46EC
:10EEC0005D44A94207D331E04B8803339B00C91846
:10EED0000160A9422AD20B68013327D00B88002B8E
:10EEE000F2D08B886345EFD0A7899F42ECD1194BB4
:10EEF00013489C46624493886A4613818B6801914B
:10EF00000093164B9381164B1B885381154A01239E
:10EF100001F07EFD63E70199124A0B8808482381BE
:10EF20008B88A381012301F073FD6CE753460360D6
:10EF3000AAE70021B4E7291C10310160BDE7C046F3
:10EF400000270020341200009C2A0020682A00209C
:10EF50001AE1AB15A02A0020FFFF00001EF1FFFF01
:10EF6000D62A00200C39030070B5294E7268338808
:10EF7000002A46D05488274D0334A4001B011419DD
:10EF8000EA588023DB009C466244A2422ED92368C3
:10EF900001332BD020492388002B1ED0A3888B421D
:10EFA0001BD004233372738874601B01EA18D18864
:10EFB000EB58890059186388221C03339BB2174809
:10EFC00001F026FD0020728863881201AA18D188FA
:10EFD000CB1803339BB2D38070BD638803339B008F
:10EFE000E418A24202D923680133D4D10523337235
:10EFF00073880B4A1B01E9580848042301F008FDF7
:10F00000EAE7044D1B01EA58141C1034B9E7C04666
:10F01000C02A0020A02A0020FFFF000000270020B7
:10F0200020390300F0B5474680B44D4A137A072BC8
:10F0300000D982E04B499B00CB589F46FFF794FFD5
:10F0400004BC9046F0BD0023517A5360002904D0DF
:10F05000454841895372002971D0937A002B05D01D
:10F0600000214148438B9172002B76D0012313720B
:10F0700000233E481380E3E706230F2413725388CE
:10F0800039481B01C318197BA446A143022421431C
:10F09000197311889D8888460E0181198C889C807F
:10F0A0000C898D80A4B21C814346538062460B7B41
:10F0B0009343032213430B7304238022CB8000234A
:10F0C00052000B8131582A4801F0D2FCB8E70723DF
:10F0D00013725388244A1B0199582548254A042352
:10F0E00001F096FCACE724491F480B8801330B80E4
:10F0F000037B1B071B0F023B59424B41017FDBB2D5
:10F100000907090F02394C426141C9B25372917229
:10F11000002B04D0002443895472002B0FD0002907
:10F1200004D00021438B9172002B16D0012313725F
:10F1300000230E481380536082E7032080E70023FA
:10F140000021118003211B011172C1580B4A0C319F
:10F150000123074801F05CFC72E701330131F0E75D
:10F16000C02A002044380300A02A002034120000E6
:10F170000027002010390300D62A00203039030070
:10F18000B94BF0B5444698464D4656465F46A023D7
:10F19000894641464046F0B4CC5C83B0E4B2A50059
:10F1A0002B199B00C65CC9183607360F062E00D9EE
:10F1B0007EE0AE48B300C3589F464B460626002B60
:10F1C00000D178E02B199B00A948434419899A89FA
:10F1D000814500D1A0E05B78A64F9C4641239A462A
:10F1E000FB5C634506D353466046FB5C1B1A5046E6
:10F1F000DBB23B542C19A400444423699E4C9B462B
:10F2000028239A4601AF39807A80A2442568002DD0
:10F2100004D04846311C5A463B68A847043454453C
:10F22000F4D1A02443461B5D14229800C01883002B
:10F230004344181C0021FCF7BBFFA12243469B5C02
:10F24000002B0AD0434607211B5D01330B4041468A
:10F250000B558B5C013BDBB28B54A1234246D35C44
:10F26000002B03D0854B1B78002B69D00421844AE6
:10F2700013788B43137014E04B46002BA2D1081C6B
:10F28000FFF79CFD814608E04B46002B17D0012676
:10F2900098E74846FFF7D8FC81464B46002B00D044
:10F2A000DBE003B03CBC90469946A246AB46F0BDBD
:10F2B0000323994686E7FFF7B5FE8146EDE7714FD8
:10F2C000002A79D03B68D21A920A93B25A1C92B2A1
:10F2D0009146022A00D19BE0012A10D8111C12018C
:10F2E000BA18127B1207120F012A6DD0664A934298
:10F2F00005D13B7F1B071B0F012B00D1A6E0634B01
:10F300001B78002BCDD042462B199B00D65C584B66
:10F310003607360F994655E71B69574C9946271C07
:10F320006B46283719805A802568002D04D00020AC
:10F33000311C4A46009BA8470434BC42F4D170E714
:10F34000A033D35C9A00D31842469B00D118D35CFB
:10F350001B071B0F062BA4D84D489A0082589746CE
:10F36000081CFFF72BFD9CE70020FFF76DFC98E7DA
:10F37000444F3A7B1207120F012A6BD03A7F0126C5
:10F380001207120F012A00D08BE7404D1C012A788A
:10F3900040483959002A48D03F4A042301F038FB3D
:10F3A0000F213B191A7B8A43111C02220A431A734C
:10F3B00077E7FFF737FE74E73B7B1B071B0F012B3B
:10F3C00097D1002300219946304D0C012B7831480C
:10F3D0003959002B0BD0304A042301F019FB0F22BE
:10F3E0003C19237B934302221343237359E72B4A8F
:10F3F000042301F00DFB0F223F193B7B93430322B3
:10F4000013433B7301234A462B70254B5A8048E730
:10F4100002221B4B012619780A4301211A701A781F
:10F420008A431A70124B9946CCE61C4A042301F019
:10F43000EFFA0F213B191A7B8A43111C03220A435E
:10F440001A7301232B70164B5E802AE70123311CAF
:10F450009946B9E70023002697E714234246634301
:10F46000D65C3607360FADE6D82A00206438030094
:10F4700034120000242A0020742A0020CC2A002004
:10F480009C2A0020A02A0020FFFF0000D42A002090
:10F4900080380300002700202039030010390300C2
:10F4A000C02A0020F8B5334B1A78520728D404221A
:10F4B00019780A43D2B21A70A0232F4AD35C99005C
:10F4C000CB189B00D118D35C1B071B0F062B3BD816
:10F4D0002A489A008258974600230027284D2A7808
:10F4E000002A33D01D017159264A0423264801F011
:10F4F0008FFA0F2275192B7B9343022213432B7330
:10F500000020F8BD214E327B1207120F012AE3D0F2
:10F51000327F01271207120F012ADFD0184B1B7808
:10F52000002BEDD01A4803E0FFF77CFD0028E7D060
:10F53000174B9842E5D1E3E7081CFFF73FFCF5E7DE
:10F540000020FFF781FBF1E70F20F1E71C013159A3
:10F55000104A04230C4801F05BFA0F2133191A7B7F
:10F560008A4303210A431A7301232B700A4B5F80DD
:10F57000C6E7C0469C2A0020D82A00209C380300F9
:10F58000D42A00202039030000270020A02A0020D0
:10F590003412000010390300C02A0020F0B54446A0
:10F5A0005F4656464D46F0B4AE4C8BB023789B0771
:10F5B0001AD5AD4C0023261C08AA1380013B5380AA
:10F5C00028362568002D04D0002001210022089B48
:10F5D000A8470434B442F4D100200BB03CBC9046A0
:10F5E0009946A246AB46F0BD23780820DB07F4D449
:10F5F00001F0C0F9051EF0D10021A4229B48FCF7C0
:10F60000D7FD002144229A48FCF7D2FD00229949F7
:10F610009346081C984B01921D609A46974B0592A1
:10F620001B7807920693964B02929B6895B204262C
:10F630002F1C120104958D180360EE802E1C87800C
:10F6400000270836778000272F811F680396BC4665
:10F650009F68B846DF68B9465F683E1E894FBE4264
:10F6600026D00F278D182E7BBE432E738025ED00EC
:10F670005D1903E004339D4200D1D6E01E680136D7
:10F68000F8D0019A2B1C1030012A0ED153465A464D
:10F690001A606A46794B127E1A70029B002B2BD19E
:10F6A000059B002B51D1042097E701220192BDE771
:10F6B000754FB845D5D1754FB94577D0744DA9452B
:10F6C000CFD1744DAC4502D0734DAC45C9D10F2696
:10F6D0008A18157BB5432E1C0425354315736D46DA
:10F6E0006E4A2D8A158003226C4D2A72023A0792C7
:10F6F0008022D2009D18C4E701232278134323708F
:10F70000079B002B00D067E7059B002B25D1022328
:10F71000227809AE134323702378019A9343237010
:10F720006B469B8A504C33800123271C5B427380BD
:10F7300028372568002D04D00020012100223368DD
:10F74000A8470434BC42F4D146E70123227813438E
:10F750002370079B002B00D03EE7A121434B1120D3
:10F760005B5C072B00DD38E74123414AD35C082B63
:10F7700000DD32E7A0223D4B3C485B5C805CC0185A
:10F780003A4B5A5C0132D2B25A54072303409A00D2
:10F79000D318364A9B009A5C92398A43111C012285
:10F7A0000A4332495A54FFF77DFE16E7394FBC45EC
:10F7B00045D0394FBC4500D053E7039E37790F261B
:10F7C000B743BC46022766463743039E377104277A
:10F7D000EF8080251E1CED0010365D19AE421FD251
:10F7E0001B69DC4601331BD0131C80466246D94698
:10F7F0009C46B368934201D999461A1C63467088A7
:10F80000C71CBF00F619CF18FB88C31803339BB27F
:10F81000FB80AE4202D233680133EAD14046CB4688
:10F82000029B01339BB202932BE70F268A18137BAE
:10F83000B3430E3E334313730123059321E70F2592
:10F84000039E3279AA43151C03222A436D46327166
:10F850002D8A124A5580012206928022D2009D18DC
:10F860000FE7C0469C2A0020742A0020D82A0020D6
:10F87000242A0020A02A0020D02A0020D42A0020F8
:10F8800000270020DDCCBBAADD01BBAADA00EB1CFF
:10F89000D800EB1CA5A5A5A5A4A4A4A4C02A00205B
:10F8A000F8B5031E0CD000290AD0174E0289B08883
:10F8B000904207D0B48A0B200127944203D0F8BDB0
:10F8C0000E20FCE70027181C0D1C1C1CFFF736F946
:10F8D000002801D00520F2E763681A88002AF9D0D1
:10F8E0009A880A4B9A420DD03F01F6197389013369
:10F8F0009BB273812B1C6268C2CAC2C363680C339B
:10F90000EB60DCE70530DAE7A02A0020FFFF00000B
:10F91000002809D00B4B02899988914206D0998A18
:10F920000B2091420BD070470E20FCE70022120101
:10F930009B185A890020013A92B25A81F3E70122BA
:10F94000F5E7C046A02A002070B51B4B1A780823A3
:10F95000920701D4181C70BD06330028FAD0CA1CC7
:10F9600092B20A3BFB2AF5D8144D2B7B1B071B0FC9
:10F97000022B0ED02C7F04232407240F022CE9D164
:10F98000EC8A2E8B34191419A4B2FF2CE2D8033B55
:10F9900007E0EB882C89E318D3189BB2FF2BE9D83A
:10F9A00000231B01ED182B89AC88D21892B22A8152
:10F9B000002304804180CDE79C2A0020A02A00205B
:10F9C00010B5134B1A780823920701D4181C10BDE8
:10F9D000002818D00F4A018893888B4215D0948A4A
:10F9E0000B238C42F2D10A3B1B01D21814894188A7
:10F9F0000B23641AEAD413895B1A9BB21381002388
:10FA000003804380E2E70E23E0E70023ECE7C046F3
:10FA10009C2A0020A02A0020F0B54D4644465F46AF
:10FA20005646F0B4764C87B003911D1C237881466E
:10FA3000013303A8DBB22370438806889846714BD4
:10FA4000171C1B7808209B070AD42378013BDBB2E4
:10FA5000237007B03CBC90469946A246AB46F0BD29
:10FA60000330002EF1D0684B9845EED0002A13D019
:10FA70002B689B0700D09BE02B1C511EC9B20131A3
:10FA8000C90008336918083804E01A6808330242CC
:10FA900000D08DE08B42F8D1A1235C4A1120D25CCA
:10FAA000072AD2DC412292465146594A525C94467A
:10FAB0000822D21B9445C8DCA0205449534AD25C8A
:10FAC000085C8018072210400190C85C0130C0B269
:10FAD000C854002F00D190E0514640204C4B5B5C55
:10FAE0004B498B46085CC3181A40D20093445246D7
:10FAF0008B5C0A1C5146FB18DBB253540022791E62
:10FB0000C9B2C9000C312B1D6918188808331218A6
:10FB100092B28B42F9D1924602AA0E2394466344D4
:10FB20005046191CFFF760F8002857D1019A9446F7
:10FB300093000293354A63449B00D15C0F229446A4
:10FB4000914302220A4361460A4010210A432F4989
:10FB50008C46CA54032263445A8002AAD2892D4992
:10FB60009A8094460A685F7001321A610A601E81A9
:10FB70001A1C534653814346D0819381002F19D0DC
:10FB800023487A1E011CD2B20132D200AA183831A1
:10FB90005B4603E0331C083595420BD02E681E608F
:10FBA000AE889E801E1C08368B42F3D1031CF2E700
:10FBB00010204AE74B46002B0DD062464B461A8177
:10FBC000019A029B9446114A634494464A469B001C
:10FBD00063441B691360FFF765FC36E7A1220B4BFA
:10FBE0000A499B5C013BDBB28B54094B603A9B5C3E
:10FBF000DF1B074BFFB29F5427E7BB46BA468BE794
:10FC0000CC2A00209C2A0020FFFF0000D82A0020D8
:10FC1000242A0020D02A0020F0B54D465F465646E3
:10FC20004446F0B4854C87B003921D1C2378894666
:10FC30000133DBB22370824B03A91B780E884F88F7
:10FC400008229B070BD4101C2378013BDBB22370E6
:10FC500007B03CBC90469946A246AB46F0BD033285
:10FC6000002EF0D0774B9F42EDD0002D1BD0109B83
:10FC70001B6801939B0700D098E0109A691E944678
:10FC80000322C9B2109B0131C90061440833944674
:10FC9000804605E060461A680833024200D085E0DD
:10FCA0008B42F7D14046684B9A46A1235246D15C1D
:10FCB0009B4611220729C6DC41218C4663466349D5
:10FCC000CB5C0821491B8B42BDDC53465A46A02120
:10FCD0009A5C595C0723891819405A46534601918A
:10FCE000995C0131C9B29954002D00D1A0E0614660
:10FCF000564B07225B5C01399846544B595C0B1CF0
:10FD000043441A40514BD2009846904462466146A3
:10FD10009B5C4E4AEB18DBB2535400285AD0438800
:10FD200002AA9B4694460E23008863441880019AD9
:10FD3000944693005246029363449B00D15C0F2289
:10FD40009143944602220A4361460A4010210A4325
:10FD50005146CA5403223E4953445A800A685D7092
:10FD600001321A6198800A601E811A1C5B46538119
:10FD700000239781D381002D1AD0344E691E351C83
:10FD8000C9B2109B0131C90059183835424603E009
:10FD90003A1C08338B420BD01F6817609F889780EE
:10FDA000171C0837AA42F3D1321CF2E710224AE7A7
:10FDB0004B46002B0AD04B46019A188194464A467E
:10FDC000029B63449B0053441B691360FFF76AFB6B
:10FDD000021C38E7109A691E9446021CC9B2109B97
:10FDE000C9000C310433614418880833121892B2E8
:10FDF0008B42F9D1934602AA0E2394466344584697
:10FE0000191CFEF7F1FE002802D102ABD8898EE75B
:10FE1000A122534651469B5C013BDBB28B540B4BFA
:10FE2000603A9B5C5D1B094BEDB29D54021C0AE7D6
:10FE3000A846002800D072E7AB46DCE7CC2A0020B9
:10FE40009C2A0020FFFF0000D82A0020242A00203E
:10FE5000D02A0020F0B5474680B4544C011C2378CA
:10FE600008200133DBB22370514B1A78920706D475
:10FE70002378013BDBB2237004BC9046F0BD063012
:10FE80000029F5D0A1254B4A0330565D072EEFDC43
:10FE90004126494FBE5D082EEADCA026505D975DE5
:10FEA000B0463F1807203840575D0137FFB257551D
:10FEB0000F27BC4685002D18AD00A85C6646B843E8
:10FEC0000427384330405026B446664630435055E8
:10FED0000868551928610989A9801978490725D426
:10FEE00019783943C9B219704346D35C9900CB18CD
:10FEF0009B00D118D35C1B071B0F062B26D82F485D
:10FF00009A00825897462E4F3A7B1207120F012A09
:10FF10001ED03A7F1207120F012A1BD0294B1B78E3
:10FF2000002B03D02848284B9842A1D100209FE7FE
:10FF3000FFF778F80028F6D1002099E7081CFEF7B3
:10FF40003DFFF7E70020FEF77FFEF3E70F20EAE72B
:10FF5000002300221B4E90463278002A10D01E014A
:10FF6000B9591A4A04231A4800F052FD0F21BB194F
:10FF70001A7B00208A43111C02220A431A7377E776
:10FF80001D017959134A0423114800F041FD0F2146
:10FF90007B191A7B00208A43111C03220A431A731F
:10FFA0000123424633700C4B5A8061E7CC2A002073
:10FFB0009C2A0020D82A0020242A0020B8380300D8
:10FFC000A02A0020D42A0020341200002039030087
:10FFD0000027002010390300C02A0020F0B5474652
:10FFE00080B4504C011C237808200133DBB223700D
:10FFF0004D4B1A78920706D42378013BDBB223706D
:020000022000DC
:1000000004BC9046F0BDA125484A0930565D072E34
:10001000F2DC4126464FBE5D082EEDDCA026505D89
:10002000975D3F1807203840575D0137FFB257559D
:100030000F27850028188000855CBC46BD43052736
:100040003D4367463D4060273D431554101881816C
:100050001978490726D4042118780143C9B21970C8
:10006000935D9900CB189B00D118D35C1B071B0F25
:10007000062B27D82F489A00825897462E4F3A7B56
:100080001207120F012A1FD03A7F1207120F904653
:10009000012A1BD0294B1B78002B03D02848284B62
:1000A0009842A9D10020A7E7FEF7BCFF0028F6D1AF
:1000B0000020A1E7081CFEF781FEF7E70020FEF70D
:1000C000C3FDF3E70F20EAE7002398461B4E327882
:1000D000002A10D01E01B9591A4A04231A4800F008
:1000E00097FC0F21BB191A7B00208A43111C0222A6
:1000F0000A431A7380E71D017959144A04231248F0
:1001000000F086FC0F217B191A7B00208A43111C0A
:1001100003220A431A730123424633700C4B5A8060
:100120006AE7C046CC2A00209C2A0020D82A00205A
:10013000242A0020D4380300A02A0020D42A00203A
:10014000341200002039030000270020103903007A
:10015000C02A0020F0B54D4644465F465646F0B4EE
:10016000814C87B003911D1C23788146013303A87D
:10017000DBB223704388068898467C4B171C1B789B
:1001800008209B070AD42378013BDBB2237007B019
:100190003CBC90469946A246AB46F0BD0330002ECB
:1001A000F1D0734B9845EED0002A13D02B689B07F3
:1001B00000D0A4E02B1C511EC9B20131C900083384
:1001C0006918083804E01A680833024200D096E043
:1001D0008B42F8D1A123674A1120D25C062AD2DCD7
:1001E0004121654A525C94460822D21B9445CADCE0
:1001F000A020604AD25C94465E4A105C07226044AC
:10020000104001909246021C14205043594A9446D3
:10021000624660440290D05C0230C0B2D054002FDD
:1002200000D19EE04020544A534B5B5C105C524628
:10023000C3181A40504BD2009B465B5C9344FB189A
:100240004D4ADBB253540022791EC9B2C9000C31A9
:100250002B1D691818880833121892B28B42F9D1F5
:10026000924602AA0E23944663445046191CFEF798
:10027000BBFC002864D1019A0F219446930063448B
:100280003C4A9B00D25C8C468A4303210A43614668
:100290000A4010210A4337498C46CA540322374981
:1002A00063448C465A8002AAD28909689A800192D6
:1002B0006246013119615F7011601E81191C53463D
:1002C0004B814346C8818B81002F1BD02A4E791E5B
:1002D000301CC9B20131C900691838305B46019A37
:1002E00003E03B1C08358D420BD02F681F60AF88A0
:1002F0009F801F1C08378342F3D1331CF2E7102084
:1003000041E7019202981B49031C8C311433884247
:1003100025D00F25042019784A46A94301435020CF
:1003200029400143197011899980126869461A6140
:100330004A46898811811B691360FFF7B3F822E7E9
:10034000A1220C4B0B499B5C023BDBB28B540A4B4A
:10035000603A9B5CDF1B084BFFB29F5413E7054BD1
:10036000D7E7BB46BA467CE7CC2A00209C2A00206F
:10037000FFFF0000D82A0020242A0020D02A0020D5
:10038000F8B54F464646C0B44E4C0820237801339A
:10039000DBB223704C4B1A78920707D42378013BC9
:1003A000DBB223700CBC90469946F8BDA121474AA8
:1003B0000930555C072DF1DC4125454E755D082D52
:1003C000ECDC8F30555C165C7619555C0135EDB26E
:1003D00055549A3931400F268D00691889008D5C7B
:1003E000B543062635438D5401213A4D29721978BB
:1003F000490726D404211E783143C9B21970135C11
:100400009900CB189B00D118D35C1B071B0F062B40
:1004100027D831489A0082589746304E327B1207CF
:10042000120F012A1FD0327F1207120F9046012AA5
:100430001BD02B4B1B78002B03D02A48294B98420A
:10044000ACD10020AAE7FEF7EDFD0028F6D1002090
:10045000A4E7081CFEF7B2FCF7E70020FEF7F4FB68
:10046000F3E70F20EAE7002398461D4F3A78002A69
:1004700010D01D0171591C4A04231C4800F0C8FA11
:100480000F2173191A7B00208A43111C02220A4390
:100490001A7383E71B01F1589946154A0423134840
:1004A00000F0B6FA331C0F214B441A7B00208A431C
:1004B000111C03220A431A7301233B7043466B80CD
:1004C0006CE7C046CC2A00209C2A0020D82A0020B5
:1004D000242A0020C02A0020F0380300A02A00208F
:1004E000D42A002034120000203903000027002005
:1004F00010390300F0B556465F464D4644468C46DB
:10050000F0B48246111E0DD0002B0BD0414A147856
:100510000822A00708D4101C3CBC90469946A2466D
:10052000AB46F0BD0E22F6E73B4A5868904254D0E5
:10053000394A5A6000221A811A60002081463748E1
:10054000374F804605E0013294B21C810122022C13
:1005500055D0BC88944256D0BE8AB61A70427041BB
:100560000601BC19247B2407240F022CEBD11C6844
:10057000002C4AD0B859051C8020C00083465D4439
:10058000AC4217D22068013014D02588002D04D049
:10059000A088404501D060450FD065880335AD0087
:1005A00064191C60B859051C8020C00083465D4456
:1005B000AC42E7D348461860C5E75545EDD1BE19B2
:1005C000B2880A81A2680A601B6800224B60154B42
:1005D0008B81154B1B884B819DE7144A1C689068E2
:1005E0008442A5D3D2689442A2D8A207A0D165883C
:1005F0001A890335AD0064191C60012A9DD90022B7
:100600005A60053287E70020AAE7BC5910341C6005
:10061000C8E7C0469C2A00201AE1AB15FFFF000086
:10062000A02A00201EF1FFFFD62A0020002700206C
:10063000F0B557464E4645468246E0B400290CD0F8
:10064000002A0AD0424B1C780823A00707D4181CA4
:100650001CBC90469946A246F0BD0E23F7E73D4BE1
:100660005068984257D03B4B0027536000231381BA
:10067000136000239846384B384E9C4605E00137FE
:10068000BBB213810127022B57D0B388BB4258D08D
:10069000B58AED1B68426841050173191B7B1B0776
:1006A0001B0F022BEBD11368002B4CD07059041C8C
:1006B0008020C00081464C44A34229D218680130F2
:1006C00010D125E05C880334A4001B191360745911
:1006D000201C8024E400A1464844834218D21C68B0
:1006E000601C15D01C88002CECD098886045E9D09F
:1006F0005445E7D17519A88808819B680B60136879
:100700004B60174B8B81174B1B884B8100239EE757
:1007100043461360B3E7144C1368A0688342A2D326
:10072000E468A3429FD898079DD15C881789033459
:10073000A4001B191360012F9BD9002353600533BC
:1007400085E70020A8E7735910331360AEE7C04671
:100750009C2A00201AE1AB15FFFF0000A02A002010
:100760001EF1FFFFD62A00200027002010B5064901
:1007700004220B780A2B05D0044A9C00A0500022CA
:1007800001330B70101C10BDD52A0020742A0020E4
:10079000002805D001235B420160038100207047DF
:1007A0000E20FCE7002805D0002903D003680020B4
:1007B0000B6070470E20FCE729DF704728DF704789
:1007C000F0B54E4645465746E0B43C4E08AC24884A
:1007D0007578A4460424072D05D1201C1CBC904626
:1007E0009946A246F0BD07273478A24664193C40DA
:1007F000A700B8464444A4003419E3606346A382CA
:100800002F4B226199461B780135984602234246B8
:10081000EDB260602172757013400024002BDCD1B2
:100820001C1C002DD9D0022313434A461370534693
:100830009B0053449F00F7193B7A012B1FD0002BDC
:100840000ED00F34022B0DD1F88A3B6980001818A6
:10085000800AFFF7B3FF041C112C24D0002C01D117
:100860000024BAE733789A00D3189B00F618716811
:10087000307A0D683269B38A211CA847ADE73C1C69
:10088000FA8A39699300C818F968C918A38A9A1AAC
:1008900080235B009A4200DD1A1C1204120CFFF741
:1008A0008BFF041CD8E7022342469A43131C042200
:1008B00013434A46002413708FE7C0467C2B002068
:1008C000202C0020F8B5294D00272C78A30703D44D
:1008D000274E7378002B01D1381CF8BD0223234327
:1008E0002B7033789A00D3189B00F3181A7A012AD8
:1008F0001ED0002AF0D00F37022A0CD1D88A043338
:10090000DB6880001818800AFFF758FF071C112FBA
:1009100024D0002FE0D033789A00D3189B00F6182B
:100920007168307A0C683269B38A391CA047D3E702
:100930001F1CDA8A186908335B689100401859183F
:10094000BB8A9A1A80235B009A4205DC1204120CBF
:10095000FFF732FF071CDAE71A1CF7E702239C4374
:1009600004231C432C700027B6E7C046202C00202F
:100970007C2B0020F8B5204B5E69731C37D000211A
:100980001E48A4221E4D1F4CFBF712FC0023641BC3
:100990002409211C9C46002C17D0002300221A4F4A
:1009A00004E0013292B2131C94420ED91B015B1970
:1009B000D8680028F5D15B79BB42F2D29446013267
:1009C00092B21F1C131C9442F0D863461B015B19A2
:1009D0001A79DE609202B61A01399E600029DAD1D6
:1009E00001230A4A002011780B431370F8BD8023BD
:1009F0005B055E69B602C2E7001000107C2B002088
:100A00000027002010270020FFFF0000202C0020DE
:100A100070B5144C051C247882B00820E40701D47A
:100A200002B070BD002D1AD00F4C0730A542F7D38D
:100A30000E4CA542F4D210208C07F1D1AC68A14233
:100A4000EED39C00EE680C19A642E9D31C1C281CAE
:100A5000131C00940A1C0121FFF7B2FEE0E70F20EF
:100A6000DEE7C046202C00200027002010270020B1
:100A700030B5164B041C1B7883B00820DB0701D46B
:100A800003B030BD002C1ED0114B07309C42F7D371
:100A9000104B9C42F4D28B051020002BF0D1FF2389
:100AA0001342EDD1A3689942EAD39300E568CB18CD
:100AB0009D42E5D3131C201C0A1C00930221002335
:100AC000FFF77EFEDCE70F20DAE7C046202C00208F
:100AD0000027002010270020F8B5022334490A78A7
:100AE000134223D002282AD0032822D1314C208857
:100AF000013080B2208003281ED92F4D6C782878D1
:100B0000013CE4B26C70002C01D19A430A70431C82
:100B1000DBB2082B48D08400201880002C186268B3
:100B20002B70207AA38A15680D2135E00423134227
:100B300000D1F8BD9A430A70FFF7C4FEF9E7002020
:100B40001D4D1C4B2C781880A60033199B00EB1808
:100B5000187ADF8A012801D0022803D10137FF3734
:100B6000BFB2DF8233199B00EB189B8A9F42E3D30D
:100B70006F78013FFFB26F70002F02D10237BA4386
:100B80000A70621CD2B2082A10D000213419A400C5
:100B90002C192A70626815682269A847201D002157
:100BA0001422FBF705FBC7E70023B4E70022ECE7BC
:100BB000202C0020222C00207C2B00208021802350
:100BC0001A4A8902D150BFF34F8FBFF36F8F802233
:100BD000D221174B520289005A5040395A500122F3
:100BE0002F205A600138C046C046C046C046C046A5
:100BF000C046C046C046C046C046C046C046F1D109
:100C00009A6000230B4A2F2013600138C046C0466B
:100C1000C046C046C046C046C046C046C046C046A4
:100C2000C046C046F1D1044A1370704700E100E0AD
:100C300000100140242C0020442C0020A021F0B5FD
:100C4000002347462C4A490080B453500431535086
:100C500004315350043153504C39535004315350E4
:100C6000264B1B68002B38D02549002652582549B1
:100C7000254F0C68141B254A2402240A904602E0E2
:100C8000002D1BD02B1C1A68A24217D8A41AB61824
:100C90001A7CDD69002AF3D0002299691A745A6916
:100CA0003B68002B1CD0101C98470028E8D060211E
:100CB0004246FF310CF008FA002DE3D1144B1549E0
:100CC0001A780B789A420ED0134A9B009E508021CE
:100CD0008023124A49035B00D15004BC9046F0BD0A
:100CE000081C9047CCE70132D3B2022B01D00B7025
:100CF000EAE700230B70E7E700100140282C0020F2
:100D000004050000242C00202C2C00203439030082
:100D1000382C0020392C00203C2C002000E100E081
:100D2000F0B55F4656464D464446F0B4B54BB64A1C
:100D30001B68B64989B0019309781378994200D1AC
:100D4000B3E10133DBB2022B00D100231370B04AB0
:100D50009B009B58AB4A9946019B4B441B021B0AC4
:100D6000136001230493AB4B00241B689B46AA4BE2
:100D7000D8461B781A1C0293A84B944607931B680D
:100D80000393A04B1B680693A54B1B7805935B460A
:100D90006646013EF2B29446FF2A4FD06246D0002A
:100DA000039A9246504401784578A942F0D04A000F
:100DB0005218877801314668C9B27F1AB2467E1E42
:100DC000B741D2007F42524439401778022F0AD0EF
:100DD000032FEAD1002BE8D01C74DB69002BFBD178
:100DE00045789846E1E75668002B25D09E421AD0F8
:100DF0001F1C00E0171CFA69002AD6D09642F9D1D0
:100E0000321C3D1CBE4200D1EBE01768D269EA619A
:100E1000002A06D013689A4657441760457843461F
:100E2000C3E74578C1E7DE691A1C002E00D1DDE07A
:100E3000B046331C151CE8E70023B6E74146754A67
:100E4000181C11606F4A0699039311606946744A31
:100E5000097D1170049A002A00D02AE15B461B1A12
:100E60005A1E93410025DBB20493079B00271B68A1
:100E7000039E0693634B1B689C46664B1B689A4611
:100E8000674B1B780593674B019301239846029BA0
:100E9000013BDBB20293FF2B00D18FE0069ADB000F
:100EA00093469B44002D27D06968AB68281CED69E8
:100EB0006246019C8A1A1202120AA24250D8D31822
:100EC00042460360476087600274C761002E56D0B7
:100ED0003168341C994204D35FE01168994263D2AF
:100EE000141CE2695B1A002AF7D10360331CC2614B
:100EF000E0611E1C002DD7D15B465A461B78527804
:100F00009A42C4D0594649685A0089465946D2186F
:100F10000133DBB20B708978D2004A4499424AD03F
:100F200011785068331C0129E3D1037C9946494666
:100F3000331C0029DDD191684160D3688360146956
:100F4000C46052698261059A002AB1D04A460021E4
:100F500042606246019C8A1A1202120AA242AED96B
:100F60006246511A0902090A99420CD242465B1A9A
:100F70000360476087600274C761002EA8D1031C1C
:100F800082461E1CB6E743460760476087600374CD
:100F9000C761002EF3D000233168CB1A3360031CE5
:100FA000C66182461E1CA5E7C91A11600360C261B2
:100FB000331CE0619DE75B461D70B1E75246154B5F
:100FC0001A60039BB34231D1049B002B2ED1002326
:100FD000134A137009B03CBC90469946A246AB46F2
:100FE000F0BDDE693A1C002E00D021E701250E4B32
:100FF00001369D600023059600269846151C06962E
:1010000003E7C046242C0020382C0020392C002077
:101010003C2C0020282C0020302C0020342C0020D8
:101020003A2C0020FEFF7F0000100140002E62D00D
:10103000474B48493568CC58474B484E1B68307879
:10104000E21A1202120A0332904600285ED042468B
:10105000AA4200D22A1CA820D21812023D49130A23
:10106000C0003B4D0B504A591B1B121B1202120AA7
:101070001B0203321B0A9A42A9D94B590B502F204D
:101080000138C046C046C046C046C046C046C046FD
:10109000C046C046C046C046C046F1D1802180232C
:1010A0002F4A89025B00D15091E7002399460493AF
:1010B00059E647460025002100244846002B13D05E
:1010C0001A6882421AD8DE68801A89181C60DF69A3
:1010D000002E07D0DD611D1C019A9E608A18120245
:1010E000120A5A603B1EEBD11E4B1F600023039374
:1010F00001330493B9E6FFF761FD68E7121A1A603D
:1011000003930123174904930F60AEE68020D12793
:101110004002BF00C851403FC851C022802710483C
:10112000BF0252008750076001272F200F6001384F
:10113000C046C046C046C046C046C046C046C0467F
:10114000C046C046C046C046F1D137707FE7C046B2
:101150000405000000100140242C0020442C002035
:1011600000E100E0282C0020F8B54F464646C0B408
:101170000326351C80460F1C141C99461540072079
:10118000002D03D00CBC90469946F8BD002A44D0EF
:10119000FFF714FD4A46224B80201A60221C214B87
:1011A00018321E70204B62601C607B00DB19DB0074
:1011B000D218E260D318C022636125706570A770F1
:1011C00025726572A77225746574A774C524FF2102
:1011D000164B40031D60164B52001D70154BA400AA
:1011E0001D70154B98501A598A433F390A431A51BA
:1011F000A122186040461149D2008850C4208000C6
:101200001C580F4A2240C024240222431A500D4B7E
:101210000020CA580C4B1A60B4E7034B1A60B1E7C0
:101220002C2C0020302C0020342C0020282C0020D6
:10123000382C0020392C002000E100E00010014093
:10124000FF00FFFF04050000242C002010B50B4B0D
:101250001B68002B0BD0002A07D0002805D003689C
:1012600008201C7C002C04D010BD0720FCE70820BF
:10127000FAE759745A610020F6E7C046342C002082
:10128000F0B5474680B4374B1C68002C08D00028C6
:1012900006D00723042905D8181C04BC9046F0BDCD
:1012A0000823F9E74369002BFAD00025437CA846C0
:1012B000012B2ED02C4B10255B68DB05DB0D2CD1D0
:1012C00064196378A5785E1CF6B2AD1B6F1EBD4134
:1012D0006D422E402578B5421DD05D00EB18656843
:1012E000DB00ED180423002DD6D0033B2B70686083
:1012F0001E4B1F48C358E960AB60434680212B61F9
:1013000080236A611B4A5B0049036670D150002349
:10131000C2E78846CEE70423BEE7103BDEB275B2D3
:10132000002D13DBAD08134EC035AD00AD590326BB
:101330003340DB00DD402B069B0FDBB20025012B89
:10134000BED00835032BBBD00835B9E70F250A4BB3
:1013500035409C46083DAD08AD0065446D680323EB
:10136000E6E7C046342C002000ED00E00405000054
:101370000010014000E100E018ED00E030B52D4A1A
:10138000031C12680820002A2DD0002B2BD059698D
:10139000002928D000211974274910254968C9055A
:1013A000C90D23D155196A78A978541CE4B2091BD8
:1013B000481E814149420C402978A14214D0510075
:1013C0008A186968D2008C4662440420002A0AD038
:1013D000022153601170802380210020174A4903A5
:1013E0005B006C70D15030BD0420FCE71039CCB2EA
:1013F00060B2002813DB8008104CC0308000005918
:1014000003242140C900C8400106890FC9B2002544
:101410000129C7D008350329C4D00835C2E70F20F9
:10142000074920408C4608388008800060444068A6
:101430000321E6E7342C002000ED00E000E100E0AD
:1014400018ED00E0024A034BD358036000207047B8
:101450000010014004050000401A0002000A10605C
:10146000002070470123034215D14210134214D1CA
:101470008210134213D1C210134212D1021113422F
:1014800011D14211134210D1821113420FD1C01158
:101490000FD1094870470020FCE70120FAE702203D
:1014A000F8E70320F6E70420F4E70520F2E706203A
:1014B000F0E70720EEE7C046FFFF000010B5002868
:1014C00019D0002917D00488944215D0448894423A
:1014D00023D08488944222D0C488944221D00489A5
:1014E000944220D0448994421FD0848994421ED0D3
:1014F000C08990421DD010BD0022002B06D00123D0
:1015000093401A1C0B781A430A70F4E701239340A6
:101510001A1C0B7893430B70EDE70122EDE70222D2
:10152000EBE70322E9E70422E7E70522E5E70622E5
:10153000E3E70722E1E7C046F0B544465F4656467A
:101540004D46F0B483B00CAC2478002822D000299A
:1015500020D0002A1ED005889D4200D1EFE04588AA
:101560009D4200D1FCE085889D4200D1FAE0C5880B
:101570009D4200D1F8E005899D4200D1F6E0458901
:101580009D4200D1F4E085899D4200D1F2E0C089FE
:10159000984206D003B03CBC90469946A246AB4662
:1015A000F0BD0720012383404842DBB2002C64D108
:1015B00003342040904200D9101C141E042C00D982
:1015C000C6E0D8430D78C0B205400D70012C00D1A3
:1015D000DDE04D7805404D70022C00D1DEE08D78C5
:1015E00005408D70042C00D0D5E0CD78284004252E
:1015F000C87004200095A242CCD0151B2E1FB6083F
:10160000A946751CAC46561EAD00A846361B022ED8
:101610001BD91E021E43B24655461F042F43002508
:101620001E063E43AA460027F6430C19E5593540ED
:10163000E5510125AB46DA440437E245F6D3009C78
:10164000404444440094C145A4D0DB4308180478C6
:10165000DBB2009D1C400470281C0130824299D9E5
:10166000081804781C400470281C0230824291D96A
:1016700009180A7813400B708CE70324204090422D
:1016800000D9101C141E042C5BD80878184308706D
:10169000012C75D0487818434870022C6CD088789B
:1016A00018438870042C6FD1C87804251843C8707B
:1016B00004200095A24200D16CE7151B2E1FB6082E
:1016C000A946751CAC46561EAD00A846361B022E18
:1016D0001DD91E021E43B3465D461F042F4300253D
:1016E0001E0637430197AA4600270C19E559019EAB
:1016F0002E430125AB46DA44E6510437E245F5D3E3
:10170000009C404444440094C14500D142E708187D
:101710000478009D1C430470281C0130824200D8CC
:1017200038E7081804781C430470281C02308242F1
:1017300000D82FE709180A7813430B702AE7002016
:1017400030E70025002400950028B6D0041C9CE753
:10175000002500240095002800D14EE7041C30E746
:1017600001201FE702201DE703201BE7042019E7E3
:10177000052017E7062015E702250220009599E7C6
:1017800001250120009595E70320009092E70125AF
:10179000012000952FE7032000902CE7022502206E
:1017A000009528E710B5002819D00488944218D075
:1017B000448894421AD08488944219D0C4889442B0
:1017C00018D00489944217D04489944216D0848951
:1017D000944215D0C3890020934213D010BD00203D
:1017E000FCE70023194101200840F7E70123F9E74E
:1017F0000223F7E70323F5E70423F3E70523F1E7E3
:101800000623EFE70723EDE730B50023002935D0A5
:10181000D40702D50B8883800123940704D55C008C
:101820004D880419A5800133540704D55C008D88C8
:101830000419A5800133140704D55C00CD88041970
:10184000A5800133D40604D55C000D890419A58058
:101850000133940604D55C004D890419A580013339
:10186000540604D55C008D890419A5800133D2117A
:1018700004D05A00C989821891800133036030BDB9
:101880002EDF704751DF704710DF704761DF704710
:1018900008B5081C111C0AF0ADFB08BDF0B5574691
:1018A0004E464546E0B4314B314F1D6899466B4278
:1018B0005D41304B304E1C68984663425C412F4B73
:1018C00082B09A46EDB2E4B2002D08D0002C27D0A9
:1018D00002B01CBC90469946A246F0BD012401A866
:1018E000FFF7D0FF052831D000282AD06D21234AE8
:1018F0000BF0EAFB002CF1D16A461D4B01A91B88B5
:1019000093801D4B1C68201CFFF7C0FF0528E5D005
:10191000002810D0842152460BF0D6FB0024D3E7D8
:1019200034683B8801A9201C0B80FFF7AFFF052816
:10193000CED00028EED14346201C1B6898470024D7
:10194000C2E74B4601981B689847D3E7002CBFD1EC
:101950006A46074B01A91B8801259380064B1C682A
:10196000201CFFF793FF0528D2D1B1E74C2C0020B3
:10197000462C0020502C0020482C00208C390300DD
:1019800038B5041C0720002901D08D0700D038BDD0
:10199000094801600949201C0A80094A0949136065
:1019A000FFF772FF0028F2D10122074B16301A70A0
:1019B000FFF766FFEBE7C046482C0020462C0020CE
:1019C000542C002091180200452C0020002803D040
:1019D000024B1860002070470E20FCE7502C0020BE
:1019E000002803D0024B1860002070470E20FCE74F
:1019F0004C2C002008B50A4B1B68002B09D09847D7
:101A0000002800D108BDA021064A49000BF05CFB6C
:101A1000F8E7054B1B78002BF4D0FFF73FFFF1E709
:101A2000542C00208C390300452C00201F4B1B78C0
:101A3000012B00D070471E4B1B681B07FAD1F02208
:101A40001C4B1B68134018D11B4B1B6813421AD048
:101A5000174B1B681B07EDD1F022164B1B68134078
:101A6000402BE7D1144B1B681342E3D1C1238022E2
:101A70000121DB00D205D150DCE7102B0FD10E4B3A
:101A80001B681342E8D10D4A0D4B1A6080220D4BA2
:101A900012021A60054B1B78012BD9D0CAE7302BF4
:101AA000DAD1054B1B681342D6D1ECE7E00F00F00A
:101AB000E40F00F0E80F00F0EC0F00F0DFFF07C0CC
:101AC00004050040186C0040F0B54D4644465F46A2
