:100000000EC028C027C026C025C024C023C022C0DF
:1000100091C120C01FC01EC01EC087C2AAC2112429
:100020001FBECFE5D2E0DEBFCDBF10E0A0E6B0E05E
:10003000EAE3FBE002C005900D92A436B107D9F7C0
:1000400020E0A4E6B0E001C01D92A63AB207E1F7B5
:100050001FD371C5D5CF1F920F920FB60F921124E7
:100060008F93949A81B5806481BD8F910F900FBE5C
:100070000F901F90189588B38D7E88BB87B38261DF
:1000800087BB80E480BF8CBD8EEF8DBD80B588605E
:1000900080BD0895F89480B5877F80BD789487B53A
:1000A000826087BD07B400FEFDCF87B5846087BD41
:1000B0008EEF8EBD1BBC8CB580628CBD80B781631A
:1000C00080BF08958CB58F7C8CBD80B7807C80BF4D
:1000D00087B58D7F87BDF89480B5886080BD7894A2
:1000E00010927400109275001092760010927700B2
:1000F000109278001092790010927A0010927B0092
:100100000895813009F44EC081114AC0611571050E
:1001100009F4AFC0CB01841B950B092E000CAA0B70
:10012000BB0B409174005091750060917600709106
:100130007700480F591F6A1F7B1F413028EF520775
:1001400023E0620771050CF078C077FDCAC04093C8
:1001500074005093750060937600709377007595E6
:100160006795579547957595679557954795840F6A
:10017000951FA61FB71F892F9A2FAB2FBB27A7FD4F
:10018000BA95AC012BB5293108F07FC03BB529E108
:10019000231B4F3F51050CF47AC01EBC82E008952A
:1001A00080E008956115710509F458C0CB01841BE6
:1001B000950B092E000CAA0BBB0B409178005091B7
:1001C000790060917A0070917B00480F591F6A1F77
:1001D0007B1F413028EF520723E0620771050CF4C2
:1001E00062C040E058EF63E070E0409378005093C5
:1001F000790060937A0070937B0040E05EEF60E0EE
:1002000070E0840F951FA61FB71F892F9A2FAB2F61
:10021000BB27A7FDBA95AC013EB52EEF231B2931B4
:1002200008F03FC039E1321B232F4F3F51050CF43A
:100230004DC08EEF8BBD82E0089540E058EF63E043
:1002400070E0409374005093750060937600709353
:10025000770040E05EEF60E070E089CF1BBC109259
:1002600078001092790010927A0010927B0080E062
:1002700008958EEF8EBD109274001092750010924A
:1002800076001092770080E0089520E082CF622F00
:1002900070E0461757078CF12EEF281B2EBD80E02B
:1002A000089520E0C2CF77FD2DC040937800509391
:1002B000790060937A0070937B00759567955795E8
:1002C000479575956795579547959BCF622F70E039
:1002D000461757071CF42BBD81E008958BBD80E0C5
:1002E000089510927400109275001092760010928A
:1002F000770040E050E0BA013ACF8EEF821B8EBD0E
:1003000081E00895109278001092790010927A009E
:1003100010927B0040E050E0BA0173CF882331F0A7
:10032000813011F080E008958BB508959EB58EEF71
:10033000891B08951F920F920FB60F9211242F93CD
:100340003F938F939F9384B195B127B1233879F16F
:100350002F38E1F0203849F09F918F913F912F91F4
:100360000F900FBE0F901F90189523E827B9369A6B
:1003700020918200211154C0880F991F880F991F66
:1003800090937F0080937E00919AE6CF20E827B972
:10039000369A20918200211131C0880F991F880F51
:1003A000991F90937D0080937C00929AD5CF2091E5
:1003B000820021110EC0880F991F880F991F9093FA
:1003C000810080938000379880B5816080BD909ACD
:1003D000C3CF2FE827B9369A209180003091810051
:1003E000820F931F3695279536952795821B930B81
:1003F0009093810080938000909AAECF20917C00F2
:1004000030917D00820F931F36952795369527955D
:10041000821B930B90937D0080937C00929A9CCFDB
:1004200020917E0030917F00820F931F3695279593
:1004300036952795821B930B90937F0080937E00C7
:10044000919A8ACF8DE086B988E284BB379880B5CF
:10045000816080BD0895FC0180819181A281B3817A
:100460008093600090936100A0936200B09363005A
:10047000089580938200089500B400FE0895F894D2
:1004800080B58E7F80BD7894379A8FE887B9369A89
:100490000895882339F0813081F0823029F180E09D
:1004A00090E0089560917C0070917D0080916000E3
:1004B00090916100860F971F089560917E00709162
:1004C0007F0080E090E02091620030E040E050E06A
:1004D000D9D2DC01CB01880F991FAA1FBB1F892F1E
:1004E0009A2FAB2FBB2708956091800070918100F7
:1004F00080E090E020916300E8CF8093A40087B370
:10050000856087BBC29AC09AB89888EA8DB980EF97
:100510008EB908959EB1892F807295FF05C088EA33
:100520008DB980E78EB981E008951F920F920FB6C2
:100530000F9211248F931092A500B89802C0B09921
:1005400002C0B299FCCFB29B0AC088EA8DB980EF95
:100550008EB98F910F900FBE0F901F90189588EF56
:100560008DB980EF8EB98F910F900FBE0F901F90B5
:1005700018951F920F920FB60F9211242F933F934D
:100580008F939F93EF93FF938091A500823009F49E
:1005900050C050F1843009F442C008F452C0853094
:1005A000C1F48FB1909183009F3F09F46BC0E0913B
:1005B0008300F0E0EC56FF4F8083809183008F5FD3
:1005C0008093830084E08093A5001FB8B89A8EE7DB
:1005D0008EB9FF91EF919F918F913F912F910F9045
:1005E0000FBE0F901F901895882399F1813089F7DD
:1005F000809183008F3FD1F0E0918300F0E0EC57D1
:10060000FF4F80818FB9809183008F5F809383003B
:1006100082E08093A500B89A80E78EB9DACF85E0B2
:100620008093A500B89880E78EB9D3CF109283004D
:10063000E3CF83E08093A5001FB8B8988EE78EB90A
:10064000C8CF8FB18823A1F288EA8DB980E78EB92F
:10065000C0CF8FB1882349F08FB12091A40090E0E2
:100660008E7F30E08217930779F7789B04C081E092
:100670008093A500AACF84E08093A5008FEF80939C
:100680008300A3CF813108F49BCF109283009ACFCF
:10069000CF93DF9300D000D0CDB7DEB784E72DDF56
:1006A000D1DE84B7877F84BF0FB6F894A89581B553
:1006B000886181BD11BC0FBE479A80B5846080BD42
:1006C00080916400807E86618093640086E18093DF
:1006D00094008093840080E090E002D2182FD92EFD
:1006E000E82EF92E82E090E0F3D1082F83E090E02D
:1006F000EFD19FEFE916F90609F4B3C1F09270004B
:10070000E0926F0000937100809372001D25802796
:100710008127809373008FE690E09DDEACDC7894B7
:1007200048E1F42E80919400982F9F70809164008E
:10073000807F892B809364009091940094FF09C17D
:100740008061809364008091950080936500809122
:1007500096008093660080919F000091A00010E0B9
:10076000182B1A8309832091A1002B838091A2006A
:100770008C83E090A300912F902782278927E81689
:1007800009F427C1F894809164008F7180938400EC
:1007900078948091650080938500809166008093B5
:1007A00086006E9B76C093988091640084FDC2C0E1
:1007B00021B5277001B405FC28608F7001B406FED6
:1007C00007C0482F50E030E04217530709F43CC1FE
:1007D000982F987009F430C198E28770892B0FB672
:1007E000F894A895F1BC0FBE81BD81B5806481BD30
:1007F000949B04C0949800B400FC24C180916400D0
:1008000084FD1DC08091650081110BC1809166003F
:100810008823A9F000B403FE10C03CDC81E029DE8F
:1008200000B400FC07C18091640084FD08C0809181
:100830006500811107C080916600811103C000B47A
:1008400003FEFCC0929989C0919990C09099A8C06C
:1008500061DE8111939A00B400FE64CF82B38111EE
:1008600061CF6E995FCFF89485B7806285BF80B500
:1008700090E0809590958D709927892B09F4E7C0B9
:1008800085B7877E85BF7894889585B78F7D85BF2E
:1008900049CFF894209167003091680080916900F9
:1008A0008295807FA9015F70852B809387002093BC
:1008B00088007894F89420916A0030916B008091C0
:1008C0006C008295807FA9015F70852B80938900E1
:1008D00020938A007894F89480916D0090916E0036
:1008E0009C013F7030938B0080938C00789481E062
:1008F00015DD80938D0080E011DD80938E00F894EB
:1009000080916F009091700090938F008093900081
:10091000789480917100809391008091720080930F
:10092000920080917300809393009398809164006B
:1009300084FF3ECF01B406FE5BCF84B7877F84BFC0
:100940000FB6F894A89581B5886181BD11BC0FBE22
:100950004FCF8F7E80936400F6CE929880E099DD31
:1009600090936E0080936D00919B70CF919881E081
:1009700090DD909368008093670000B403FC66CF1D
:100980006091650070E062957295707F7627607F58
:100990007627AC0181E0B5DB80936900909B58CF4E
:1009A000909882E076DD90936B0080936A0000B4AB
:1009B00003FC4ECF6091660070E062957295707F87
:1009C0007627607F7627AC0180E09BDB80936C000C
:1009D0003FCF44E050E06FE670E0CE0101966BD06F
:1009E000892B09F4CFCE89819A81AB81BC81809318
:1009F0006F0090937000A0937100B0937200E0922A
:100A00007300B80180E090E082D06B8182E090E0DA
:100A10006CD06C8183E090E068D0CE0101961BDD44
:100A2000B1CE00B403FE0ECF35DB81E022DD00B491
:100A300000FEF9CE21DDF7CE98E0CFCE43DB80E09B
:100A400018DD00CF19DDDACE9499D4CEDBCE85B790
:100A5000877E806185BF85B7846885BF8B7F85BFB2
:100A600012CF0F3F09F04ACE8F3F09F047CE1092C8
:100A7000700010926F0080E9809371008093720083
:100A800080E047CEEE27FF27AA27BB2708C0A20F8A
:100A9000B31FE41FF51F220F331F441F551F9695E8
:100AA00087957795679598F37040A9F7009799F720
:100AB000BD01CF010895FB01DC0104C08D910190BF
:100AC000801921F441505040C8F7881B990B0895B4
:100AD000E199FECF9FBB8EBBE09A99278DB3089515
:100AE000A8E1B0E042E050E018C0262FE199FECF27
:100AF0009FBB8EBBE09A01970DB2021639F01CBA6B
:100B00002DBB0FB6F894E29AE19A0FBE08950196B4
:100B1000272FECDFEACFDC01CB01FC01E199FECF0E
:100B200006C0FFBBEEBBE09A31960DB20D9241506C
:0A0B30005040B8F70895F894FFCF85
:040B3A000000909097
:00000001FF
